{
  "contractName": "HoodieToken",
  "abi": [
    {
      "constant": true,
      "inputs": [],
      "name": "minimumDepositAmount",
      "outputs": [
        {
          "name": "",
          "type": "uint256"
        }
      ],
      "payable": false,
      "stateMutability": "view",
      "type": "function"
    },
    {
      "constant": true,
      "inputs": [],
      "name": "nextUserNumber",
      "outputs": [
        {
          "name": "",
          "type": "uint256"
        }
      ],
      "payable": false,
      "stateMutability": "view",
      "type": "function"
    },
    {
      "constant": true,
      "inputs": [],
      "name": "totalWaitingUsers",
      "outputs": [
        {
          "name": "",
          "type": "uint256"
        }
      ],
      "payable": false,
      "stateMutability": "view",
      "type": "function"
    },
    {
      "constant": true,
      "inputs": [],
      "name": "nextInLine",
      "outputs": [
        {
          "name": "",
          "type": "address"
        }
      ],
      "payable": false,
      "stateMutability": "view",
      "type": "function"
    },
    {
      "constant": true,
      "inputs": [],
      "name": "recipientNumber",
      "outputs": [
        {
          "name": "",
          "type": "uint256"
        }
      ],
      "payable": false,
      "stateMutability": "view",
      "type": "function"
    },
    {
      "constant": true,
      "inputs": [],
      "name": "rDAIContract",
      "outputs": [
        {
          "name": "",
          "type": "address"
        }
      ],
      "payable": false,
      "stateMutability": "view",
      "type": "function"
    },
    {
      "constant": true,
      "inputs": [
        {
          "name": "",
          "type": "uint256"
        }
      ],
      "name": "users",
      "outputs": [
        {
          "name": "userAddress",
          "type": "address"
        },
        {
          "name": "depositedAmount",
          "type": "uint256"
        },
        {
          "name": "isWaiting",
          "type": "bool"
        },
        {
          "name": "hasDeposited",
          "type": "bool"
        },
        {
          "name": "numOfHoodie",
          "type": "uint256"
        }
      ],
      "payable": false,
      "stateMutability": "view",
      "type": "function"
    },
    {
      "constant": true,
      "inputs": [],
      "name": "doChangeHat",
      "outputs": [
        {
          "name": "",
          "type": "bool"
        }
      ],
      "payable": false,
      "stateMutability": "view",
      "type": "function"
    },
    {
      "constant": true,
      "inputs": [],
      "name": "DAIContract",
      "outputs": [
        {
          "name": "",
          "type": "address"
        }
      ],
      "payable": false,
      "stateMutability": "view",
      "type": "function"
    },
    {
      "constant": true,
      "inputs": [],
      "name": "hatID",
      "outputs": [
        {
          "name": "",
          "type": "uint256"
        }
      ],
      "payable": false,
      "stateMutability": "view",
      "type": "function"
    },
    {
      "constant": true,
      "inputs": [
        {
          "name": "",
          "type": "address"
        }
      ],
      "name": "userNumbers",
      "outputs": [
        {
          "name": "",
          "type": "uint256"
        }
      ],
      "payable": false,
      "stateMutability": "view",
      "type": "function"
    },
    {
      "constant": true,
      "inputs": [
        {
          "name": "",
          "type": "uint256"
        }
      ],
      "name": "proportions",
      "outputs": [
        {
          "name": "",
          "type": "uint32"
        }
      ],
      "payable": false,
      "stateMutability": "view",
      "type": "function"
    },
    {
      "constant": true,
      "inputs": [],
      "name": "owner",
      "outputs": [
        {
          "name": "",
          "type": "address"
        }
      ],
      "payable": false,
      "stateMutability": "view",
      "type": "function"
    },
    {
      "constant": true,
      "inputs": [],
      "name": "hoodieCost",
      "outputs": [
        {
          "name": "",
          "type": "uint256"
        }
      ],
      "payable": false,
      "stateMutability": "view",
      "type": "function"
    },
    {
      "constant": true,
      "inputs": [
        {
          "name": "",
          "type": "uint256"
        }
      ],
      "name": "recipients",
      "outputs": [
        {
          "name": "",
          "type": "address"
        }
      ],
      "payable": false,
      "stateMutability": "view",
      "type": "function"
    },
    {
      "constant": true,
      "inputs": [],
      "name": "hoodieReceivers",
      "outputs": [
        {
          "name": "",
          "type": "uint256"
        }
      ],
      "payable": false,
      "stateMutability": "view",
      "type": "function"
    },
    {
      "constant": true,
      "inputs": [],
      "name": "totalDeposited",
      "outputs": [
        {
          "name": "",
          "type": "uint256"
        }
      ],
      "payable": false,
      "stateMutability": "view",
      "type": "function"
    },
    {
      "inputs": [],
      "payable": false,
      "stateMutability": "nonpayable",
      "type": "constructor"
    },
    {
      "anonymous": false,
      "inputs": [
        {
          "indexed": false,
          "name": "user",
          "type": "address"
        },
        {
          "indexed": false,
          "name": "depositedAmount",
          "type": "uint256"
        }
      ],
      "name": "Deposited",
      "type": "event"
    },
    {
      "anonymous": false,
      "inputs": [
        {
          "indexed": false,
          "name": "user",
          "type": "address"
        },
        {
          "indexed": false,
          "name": "newDepositedAmount",
          "type": "uint256"
        }
      ],
      "name": "Redeemed",
      "type": "event"
    },
    {
      "anonymous": false,
      "inputs": [
        {
          "indexed": false,
          "name": "recipient",
          "type": "address"
        }
      ],
      "name": "IssuedFDH",
      "type": "event"
    },
    {
      "constant": false,
      "inputs": [
        {
          "name": "depositAmount",
          "type": "uint256"
        }
      ],
      "name": "depositDAI",
      "outputs": [
        {
          "name": "",
          "type": "bool"
        }
      ],
      "payable": false,
      "stateMutability": "nonpayable",
      "type": "function"
    },
    {
      "constant": false,
      "inputs": [
        {
          "name": "redeemAmount",
          "type": "uint256"
        }
      ],
      "name": "redeemRDai",
      "outputs": [
        {
          "name": "",
          "type": "bool"
        }
      ],
      "payable": false,
      "stateMutability": "nonpayable",
      "type": "function"
    },
    {
      "constant": false,
      "inputs": [],
      "name": "issueFDH",
      "outputs": [
        {
          "name": "",
          "type": "bool"
        }
      ],
      "payable": false,
      "stateMutability": "nonpayable",
      "type": "function"
    },
    {
      "constant": false,
      "inputs": [
        {
          "name": "daiContractAddress",
          "type": "address"
        }
      ],
      "name": "switchDaiContractAddress",
      "outputs": [
        {
          "name": "",
          "type": "bool"
        }
      ],
      "payable": false,
      "stateMutability": "nonpayable",
      "type": "function"
    },
    {
      "constant": false,
      "inputs": [
        {
          "name": "rDaiContractAddress",
          "type": "address"
        }
      ],
      "name": "switchRDaiContractAddress",
      "outputs": [
        {
          "name": "",
          "type": "bool"
        }
      ],
      "payable": false,
      "stateMutability": "nonpayable",
      "type": "function"
    }
  ],
  "bytecode": "0x60806040526001600660006101000a81548160ff02191690831515021790555060006007556000600855670de0b6b3a76400006009556801158e460913d00000600a556000600b556001600c556001600d55600f6000600c54815260200190815260200160002060000160009054906101000a900473ffffffffffffffffffffffffffffffffffffffff16601060006101000a81548173ffffffffffffffffffffffffffffffffffffffff021916908373ffffffffffffffffffffffffffffffffffffffff160217905550348015620000d757600080fd5b5033600360006101000a81548173ffffffffffffffffffffffffffffffffffffffff021916908373ffffffffffffffffffffffffffffffffffffffff1602179055506004600360009054906101000a900473ffffffffffffffffffffffffffffffffffffffff1690806001815401808255809150509060018203906000526020600020016000909192909190916101000a81548173ffffffffffffffffffffffffffffffffffffffff021916908373ffffffffffffffffffffffffffffffffffffffff1602179055505060056064908060018154018082558091505090600182039060005260206000209060089182820401919006600402909192909190916101000a81548163ffffffff021916908363ffffffff16021790555050735592ec0cfb4dbc12d3ab100b257153436a1f0fea6000806101000a81548173ffffffffffffffffffffffffffffffffffffffff021916908373ffffffffffffffffffffffffffffffffffffffff160217905550736aa5c6ab94403bdbbf74f21607d46be631e6ccc5600160006101000a81548173ffffffffffffffffffffffffffffffffffffffff021916908373ffffffffffffffffffffffffffffffffffffffff160217905550600160009054906101000a900473ffffffffffffffffffffffffffffffffffffffff1673ffffffffffffffffffffffffffffffffffffffff16635cde505560046005600660009054906101000a900460ff166040518463ffffffff1660e01b81526004018080602001806020018415151515815260200183810383528681815481526020019150805480156200038857602002820191906000526020600020905b8160009054906101000a900473ffffffffffffffffffffffffffffffffffffffff1673ffffffffffffffffffffffffffffffffffffffff16815260200190600101908083116200033d575b50508381038252858181548152602001915080548015620003f557602002820191906000526020600020906000905b82829054906101000a900463ffffffff1663ffffffff1681526020019060040190602082600301049283019260010382029150808411620003b75790505b505095505050505050602060405180830381600087803b1580156200041957600080fd5b505af11580156200042e573d6000803e3d6000fd5b505050506040513d60208110156200044557600080fd5b8101908080519060200190929190505050600281905550612f47806200046c6000396000f3fe608060405234801561001057600080fd5b50600436106101425760003560e01c80633c0f5fbe116100b8578063c005c01b1161007c578063c005c01b14610523578063d1bc76a114610541578063d1f9ee2e146105af578063f1de77fb1461060b578063ff37dd3014610651578063ff50abdc1461066f57610142565b80633c0f5fbe146103cb5780635dce1c5b1461041557806377df772514610433578063826518c91461048b5780638da5cb5b146104d957610142565b806318299e3c1161010a57806318299e3c146102095780632f048d5d14610265578063323b1a8d146102af578063365833e1146102d1578063365b98b214610317578063399f94af146103a957610142565b8063080c279a146101475780630e7b883d146101655780630e9ee66a146101835780631072c81d146101a157806313a408e3146101eb575b600080fd5b61014f61068d565b6040518082815260200191505060405180910390f35b61016d610693565b6040518082815260200191505060405180910390f35b61018b610699565b6040518082815260200191505060405180910390f35b6101a961069f565b604051808273ffffffffffffffffffffffffffffffffffffffff1673ffffffffffffffffffffffffffffffffffffffff16815260200191505060405180910390f35b6101f36106c5565b6040518082815260200191505060405180910390f35b61024b6004803603602081101561021f57600080fd5b81019080803573ffffffffffffffffffffffffffffffffffffffff1690602001909291905050506106cb565b604051808215151515815260200191505060405180910390f35b61026d6107bc565b604051808273ffffffffffffffffffffffffffffffffffffffff1673ffffffffffffffffffffffffffffffffffffffff16815260200191505060405180910390f35b6102b76107e2565b604051808215151515815260200191505060405180910390f35b6102fd600480360360208110156102e757600080fd5b8101908080359060200190929190505050610ebd565b604051808215151515815260200191505060405180910390f35b6103436004803603602081101561032d57600080fd5b8101908080359060200190929190505050611279565b604051808673ffffffffffffffffffffffffffffffffffffffff1673ffffffffffffffffffffffffffffffffffffffff16815260200185815260200184151515158152602001831515151581526020018281526020019550505050505060405180910390f35b6103b16112e9565b604051808215151515815260200191505060405180910390f35b6103d36112fc565b604051808273ffffffffffffffffffffffffffffffffffffffff1673ffffffffffffffffffffffffffffffffffffffff16815260200191505060405180910390f35b61041d611321565b6040518082815260200191505060405180910390f35b6104756004803603602081101561044957600080fd5b81019080803573ffffffffffffffffffffffffffffffffffffffff169060200190929190505050611327565b6040518082815260200191505060405180910390f35b6104b7600480360360208110156104a157600080fd5b810190808035906020019092919050505061133f565b604051808263ffffffff1663ffffffff16815260200191505060405180910390f35b6104e1611376565b604051808273ffffffffffffffffffffffffffffffffffffffff1673ffffffffffffffffffffffffffffffffffffffff16815260200191505060405180910390f35b61052b61139c565b6040518082815260200191505060405180910390f35b61056d6004803603602081101561055757600080fd5b81019080803590602001909291905050506113a2565b604051808273ffffffffffffffffffffffffffffffffffffffff1673ffffffffffffffffffffffffffffffffffffffff16815260200191505060405180910390f35b6105f1600480360360208110156105c557600080fd5b81019080803573ffffffffffffffffffffffffffffffffffffffff1690602001909291905050506113de565b604051808215151515815260200191505060405180910390f35b6106376004803603602081101561062157600080fd5b81019080803590602001909291905050506114d0565b604051808215151515815260200191505060405180910390f35b610659611a7d565b6040518082815260200191505060405180910390f35b610677611a83565b6040518082815260200191505060405180910390f35b60095481565b600d5481565b600b5481565b601060009054906101000a900473ffffffffffffffffffffffffffffffffffffffff1681565b600c5481565b6000600360009054906101000a900473ffffffffffffffffffffffffffffffffffffffff1673ffffffffffffffffffffffffffffffffffffffff163373ffffffffffffffffffffffffffffffffffffffff1614610773576040517f08c379a0000000000000000000000000000000000000000000000000000000008152600401808060200182810382526023815260200180612e6e6023913960400191505060405180910390fd5b816000806101000a81548173ffffffffffffffffffffffffffffffffffffffff021916908373ffffffffffffffffffffffffffffffffffffffff16021790555060019050919050565b600160009054906101000a900473ffffffffffffffffffffffffffffffffffffffff1681565b60008015156107ef611a89565b1515141561097057600160009054906101000a900473ffffffffffffffffffffffffffffffffffffffff1673ffffffffffffffffffffffffffffffffffffffff1663d007c644600360009054906101000a900473ffffffffffffffffffffffffffffffffffffffff166040518263ffffffff1660e01b8152600401808273ffffffffffffffffffffffffffffffffffffffff1673ffffffffffffffffffffffffffffffffffffffff168152602001915050602060405180830381600087803b1580156108ba57600080fd5b505af11580156108ce573d6000803e3d6000fd5b505050506040513d60208110156108e457600080fd5b8101908080519060200190929190505050610967576040517f08c379a00000000000000000000000000000000000000000000000000000000081526004018080602001828103825260158152602001807f6661696c64656420706179496e7465726573742829000000000000000000000081525060200191505060405180910390fd5b60019050610eba565b6000600f6000600c54815260200190815260200160002090506000600160009054906101000a900473ffffffffffffffffffffffffffffffffffffffff1673ffffffffffffffffffffffffffffffffffffffff166377ede051600360009054906101000a900473ffffffffffffffffffffffffffffffffffffffff166040518263ffffffff1660e01b8152600401808273ffffffffffffffffffffffffffffffffffffffff1673ffffffffffffffffffffffffffffffffffffffff16815260200191505060206040518083038186803b158015610a4c57600080fd5b505afa158015610a60573d6000803e3d6000fd5b505050506040513d6020811015610a7657600080fd5b810190808051906020019092919050505011610add576040517f08c379a000000000000000000000000000000000000000000000000000000000815260040180806020018281038252602f815260200180612de1602f913960400191505060405180910390fd5b610b0a8160000160009054906101000a900473ffffffffffffffffffffffffffffffffffffffff16611bcf565b610b5f576040517f08c379a0000000000000000000000000000000000000000000000000000000008152600401808060200182810382526021815260200180612efb6021913960400191505060405180910390fd5b600160009054906101000a900473ffffffffffffffffffffffffffffffffffffffff1673ffffffffffffffffffffffffffffffffffffffff1663d007c644600360009054906101000a900473ffffffffffffffffffffffffffffffffffffffff166040518263ffffffff1660e01b8152600401808273ffffffffffffffffffffffffffffffffffffffff1673ffffffffffffffffffffffffffffffffffffffff168152602001915050602060405180830381600087803b158015610c2257600080fd5b505af1158015610c36573d6000803e3d6000fd5b505050506040513d6020811015610c4c57600080fd5b8101908080519060200190929190505050610ccf576040517f08c379a00000000000000000000000000000000000000000000000000000000081526004018080602001828103825260158152602001807f6661696c64656420706179496e7465726573742829000000000000000000000081525060200191505060405180910390fd5b8060030160008154809291906001019190505550600860008154809291906001019190505550600c60008154809291906001019190505550610dbb816040518060a00160405290816000820160009054906101000a900473ffffffffffffffffffffffffffffffffffffffff1673ffffffffffffffffffffffffffffffffffffffff1673ffffffffffffffffffffffffffffffffffffffff168152602001600182015481526020016002820160009054906101000a900460ff161515151581526020016002820160019054906101000a900460ff16151515158152602001600382015481525050612190565b610e2d576040517f08c379a000000000000000000000000000000000000000000000000000000000815260040180806020018281038252601a8152602001807f6661696c656420746f20757064617465207573657220696e666f00000000000081525060200191505060405180910390fd5b7fcd75dc08a30db24d62175b3fca9573850459c4959e0c3c28601a0d7bf8dcbc238160000160009054906101000a900473ffffffffffffffffffffffffffffffffffffffff16604051808273ffffffffffffffffffffffffffffffffffffffff1673ffffffffffffffffffffffffffffffffffffffff16815260200191505060405180910390a160019150505b90565b600080600e60003373ffffffffffffffffffffffffffffffffffffffff1673ffffffffffffffffffffffffffffffffffffffff168152602001908152602001600020549050610f0a612d39565b600f60008381526020019081526020016000206040518060a00160405290816000820160009054906101000a900473ffffffffffffffffffffffffffffffffffffffff1673ffffffffffffffffffffffffffffffffffffffff1673ffffffffffffffffffffffffffffffffffffffff168152602001600182015481526020016002820160009054906101000a900460ff161515151581526020016002820160019054906101000a900460ff161515151581526020016003820154815250509050806060015161110c5760095484101561102e576040517f08c379a0000000000000000000000000000000000000000000000000000000008152600401808060200182810382526037815260200180612daa6037913960400191505060405180910390fd5b611037846122f9565b6110a9576040517f08c379a00000000000000000000000000000000000000000000000000000000081526004018080602001828103825260128152602001807f6d696e696e672072444149206661696c6564000000000000000000000000000081525060200191505060405180910390fd5b6110b28461289d565b611107576040517f08c379a0000000000000000000000000000000000000000000000000000000008152600401808060200182810382526031815260200180612eca6031913960400191505060405180910390fd5b611203565b611115846122f9565b611187576040517f08c379a00000000000000000000000000000000000000000000000000000000081526004018080602001828103825260138152602001807f6661696c656420746f206d696e7420724441490000000000000000000000000081525060200191505060405180910390fd5b61119084612a24565b611202576040517f08c379a00000000000000000000000000000000000000000000000000000000081526004018080602001828103825260148152602001807f6661696c656420746f20746f702075702044414900000000000000000000000081525060200191505060405180910390fd5b5b7f2da466a7b24304f47e87fa2e1e5a81b9831ce54fec19055ce277ca2f39ba42c43385604051808373ffffffffffffffffffffffffffffffffffffffff1673ffffffffffffffffffffffffffffffffffffffff1681526020018281526020019250505060405180910390a1600192505050919050565b600f6020528060005260406000206000915090508060000160009054906101000a900473ffffffffffffffffffffffffffffffffffffffff16908060010154908060020160009054906101000a900460ff16908060020160019054906101000a900460ff16908060030154905085565b600660009054906101000a900460ff1681565b6000809054906101000a900473ffffffffffffffffffffffffffffffffffffffff1681565b60025481565b600e6020528060005260406000206000915090505481565b6005818154811061134c57fe5b9060005260206000209060089182820401919006600402915054906101000a900463ffffffff1681565b600360009054906101000a900473ffffffffffffffffffffffffffffffffffffffff1681565b600a5481565b600481815481106113af57fe5b906000526020600020016000915054906101000a900473ffffffffffffffffffffffffffffffffffffffff1681565b6000600360009054906101000a900473ffffffffffffffffffffffffffffffffffffffff1673ffffffffffffffffffffffffffffffffffffffff163373ffffffffffffffffffffffffffffffffffffffff1614611486576040517f08c379a0000000000000000000000000000000000000000000000000000000008152600401808060200182810382526023815260200180612e6e6023913960400191505060405180910390fd5b81600160006101000a81548173ffffffffffffffffffffffffffffffffffffffff021916908373ffffffffffffffffffffffffffffffffffffffff16021790555060019050919050565b600080600e60003373ffffffffffffffffffffffffffffffffffffffff1673ffffffffffffffffffffffffffffffffffffffff1681526020019081526020016000205490506000600f6000838152602001908152602001600020905083816001015410156115a6576040517f08c379a000000000000000000000000000000000000000000000000000000000815260040180806020018281038252601b8152602001807f696e73756666696369656e7420616d6f756e74206f662072444149000000000081525060200191505060405180910390fd5b600160009054906101000a900473ffffffffffffffffffffffffffffffffffffffff1673ffffffffffffffffffffffffffffffffffffffff166323b872dd3330876040518463ffffffff1660e01b8152600401808473ffffffffffffffffffffffffffffffffffffffff1673ffffffffffffffffffffffffffffffffffffffff1681526020018373ffffffffffffffffffffffffffffffffffffffff1673ffffffffffffffffffffffffffffffffffffffff1681526020018281526020019350505050602060405180830381600087803b15801561168357600080fd5b505af1158015611697573d6000803e3d6000fd5b505050506040513d60208110156116ad57600080fd5b8101908080519060200190929190505050611713576040517f08c379a0000000000000000000000000000000000000000000000000000000008152600401808060200182810382526027815260200180612d836027913960400191505060405180910390fd5b600160009054906101000a900473ffffffffffffffffffffffffffffffffffffffff1673ffffffffffffffffffffffffffffffffffffffff1663db006a75856040518263ffffffff1660e01b815260040180828152602001915050602060405180830381600087803b15801561178857600080fd5b505af115801561179c573d6000803e3d6000fd5b505050506040513d60208110156117b257600080fd5b8101908080519060200190929190505050611835576040517f08c379a000000000000000000000000000000000000000000000000000000000815260040180806020018281038252600f8152602001807f72656465656d2829206661696c6564000000000000000000000000000000000081525060200191505060405180910390fd5b6000809054906101000a900473ffffffffffffffffffffffffffffffffffffffff1673ffffffffffffffffffffffffffffffffffffffff1663a9059cbb33866040518363ffffffff1660e01b8152600401808373ffffffffffffffffffffffffffffffffffffffff1673ffffffffffffffffffffffffffffffffffffffff16815260200182815260200192505050602060405180830381600087803b1580156118dd57600080fd5b505af11580156118f1573d6000803e3d6000fd5b505050506040513d602081101561190757600080fd5b810190808051906020019092919050505061198a576040517f08c379a000000000000000000000000000000000000000000000000000000000815260040180806020018281038252601b8152602001807f5472616e736665722044414920746f2075736572206661696c6564000000000081525060200191505060405180910390fd5b6119a1848260010154612c2890919063ffffffff16565b81600101819055506119be84600754612c2890919063ffffffff16565b60078190555060095481600101541015611a035760008160020160006101000a81548160ff021916908315150217905550600b60008154809291906001900391905055505b7f4896181ff8f4543cc00db9fe9b6fb7e6f032b7eb772c72ab1ec1b4d2e03b9369338260010154604051808373ffffffffffffffffffffffffffffffffffffffff1673ffffffffffffffffffffffffffffffffffffffff1681526020018281526020019250505060405180910390a1600192505050919050565b60085481565b60075481565b600080600c5490505b600d548111611bbd57611aa3612d39565b600f60008381526020019081526020016000206040518060a00160405290816000820160009054906101000a900473ffffffffffffffffffffffffffffffffffffffff1673ffffffffffffffffffffffffffffffffffffffff1673ffffffffffffffffffffffffffffffffffffffff168152602001600182015481526020016002820160009054906101000a900460ff161515151581526020016002820160019054906101000a900460ff16151515158152602001600382015481525050905080604001518015611b755750600c5482145b15611b8557600192505050611bcc565b80604001518015611b985750600c548214155b15611baf5781600c81905550600192505050611bcc565b508080600101915050611a92565b600d54600c8190555060009150505b90565b600080600e60008473ffffffffffffffffffffffffffffffffffffffff1673ffffffffffffffffffffffffffffffffffffffff168152602001908152602001600020549050611c1c612d39565b600f60008381526020019081526020016000206040518060a00160405290816000820160009054906101000a900473ffffffffffffffffffffffffffffffffffffffff1673ffffffffffffffffffffffffffffffffffffffff1673ffffffffffffffffffffffffffffffffffffffff168152602001600182015481526020016002820160009054906101000a900460ff161515151581526020016002820160019054906101000a900460ff1615151515815260200160038201548152505090506000606080600160009054906101000a900473ffffffffffffffffffffffffffffffffffffffff1673ffffffffffffffffffffffffffffffffffffffff1663054ab01a886040518263ffffffff1660e01b8152600401808273ffffffffffffffffffffffffffffffffffffffff1673ffffffffffffffffffffffffffffffffffffffff16815260200191505060006040518083038186803b158015611d8057600080fd5b505afa158015611d94573d6000803e3d6000fd5b505050506040513d6000823e3d601f19601f820116820180604052506060811015611dbe57600080fd5b81019080805190602001909291908051640100000000811115611de057600080fd5b82810190506020810184811115611df657600080fd5b8151856020820283011164010000000082111715611e1357600080fd5b50509291906020018051640100000000811115611e2f57600080fd5b82810190506020810184811115611e4557600080fd5b8151856020820283011164010000000082111715611e6257600080fd5b5050929190505050809350819450829550505050600082600081518110611e8557fe5b60200260200101519050600082600081518110611e9e57fe5b602002602001015190506002548514611f02576040517f08c379a0000000000000000000000000000000000000000000000000000000008152600401808060200182810382526038815260200180612e106038913960400191505060405180910390fd5b600360009054906101000a900473ffffffffffffffffffffffffffffffffffffffff1673ffffffffffffffffffffffffffffffffffffffff168273ffffffffffffffffffffffffffffffffffffffff1614611fc5576040517f08c379a000000000000000000000000000000000000000000000000000000000815260040180806020018281038252601e8152602001807f4e6f206d756368207769746820746865206f776e65722061646472657373000081525060200191505060405180910390fd5b63ffffffff8163ffffffff1614612044576040517f08c379a000000000000000000000000000000000000000000000000000000000815260040180806020018281038252601b8152602001807f4e6f206d7563682077697468207468652070726f706f7274696f6e000000000081525060200191505060405180910390fd5b6000600160009054906101000a900473ffffffffffffffffffffffffffffffffffffffff1673ffffffffffffffffffffffffffffffffffffffff166370a082318b6040518263ffffffff1660e01b8152600401808273ffffffffffffffffffffffffffffffffffffffff1673ffffffffffffffffffffffffffffffffffffffff16815260200191505060206040518083038186803b1580156120e557600080fd5b505afa1580156120f9573d6000803e3d6000fd5b505050506040513d602081101561210f57600080fd5b81019080805190602001909291905050509050866020015181101561217f576040517f08c379a0000000000000000000000000000000000000000000000000000000008152600401808060200182810382526039815260200180612e916039913960400191505060405180910390fd5b600198505050505050505050919050565b6000600d54600e6000846000015173ffffffffffffffffffffffffffffffffffffffff1673ffffffffffffffffffffffffffffffffffffffff168152602001908152602001600020819055506040518060a00160405280836000015173ffffffffffffffffffffffffffffffffffffffff168152602001836020015181526020016001151581526020016001151581526020018360800151815250600f6000600d54815260200190815260200160002060008201518160000160006101000a81548173ffffffffffffffffffffffffffffffffffffffff021916908373ffffffffffffffffffffffffffffffffffffffff1602179055506020820151816001015560408201518160020160006101000a81548160ff02191690831515021790555060608201518160020160016101000a81548160ff02191690831515021790555060808201518160030155905050600d6000815480929190600101919050555060019050919050565b60008060009054906101000a900473ffffffffffffffffffffffffffffffffffffffff1673ffffffffffffffffffffffffffffffffffffffff166323b872dd3330856040518463ffffffff1660e01b8152600401808473ffffffffffffffffffffffffffffffffffffffff1673ffffffffffffffffffffffffffffffffffffffff1681526020018373ffffffffffffffffffffffffffffffffffffffff1673ffffffffffffffffffffffffffffffffffffffff1681526020018281526020019350505050602060405180830381600087803b1580156123d757600080fd5b505af11580156123eb573d6000803e3d6000fd5b505050506040513d602081101561240157600080fd5b8101908080519060200190929190505050612467576040517f08c379a0000000000000000000000000000000000000000000000000000000008152600401808060200182810382526026815260200180612e486026913960400191505060405180910390fd5b6000809054906101000a900473ffffffffffffffffffffffffffffffffffffffff1673ffffffffffffffffffffffffffffffffffffffff1663095ea7b3600160009054906101000a900473ffffffffffffffffffffffffffffffffffffffff16846040518363ffffffff1660e01b8152600401808373ffffffffffffffffffffffffffffffffffffffff1673ffffffffffffffffffffffffffffffffffffffff16815260200182815260200192505050602060405180830381600087803b15801561253157600080fd5b505af1158015612545573d6000803e3d6000fd5b505050506040513d602081101561255b57600080fd5b81019080805190602001909291905050506125de576040517f08c379a00000000000000000000000000000000000000000000000000000000081526004018080602001828103825260118152602001807f617070726f7665282920696e76616c696400000000000000000000000000000081525060200191505060405180910390fd5b600160009054906101000a900473ffffffffffffffffffffffffffffffffffffffff1673ffffffffffffffffffffffffffffffffffffffff1663388c0b8c836002546040518363ffffffff1660e01b81526004018083815260200182815260200192505050602060405180830381600087803b15801561265d57600080fd5b505af1158015612671573d6000803e3d6000fd5b505050506040513d602081101561268757600080fd5b810190808051906020019092919050505061270a576040517f08c379a000000000000000000000000000000000000000000000000000000000815260040180806020018281038252600e8152602001807f6d696e74696e67206661696c656400000000000000000000000000000000000081525060200191505060405180910390fd5b600160009054906101000a900473ffffffffffffffffffffffffffffffffffffffff1673ffffffffffffffffffffffffffffffffffffffff166323b872dd3033856040518463ffffffff1660e01b8152600401808473ffffffffffffffffffffffffffffffffffffffff1673ffffffffffffffffffffffffffffffffffffffff1681526020018373ffffffffffffffffffffffffffffffffffffffff1673ffffffffffffffffffffffffffffffffffffffff1681526020018281526020019350505050602060405180830381600087803b1580156127e757600080fd5b505af11580156127fb573d6000803e3d6000fd5b505050506040513d602081101561281157600080fd5b8101908080519060200190929190505050612894576040517f08c379a000000000000000000000000000000000000000000000000000000000815260040180806020018281038252601c8152602001807f5472616e73666572207244414920746f2075736572206661696c65640000000081525060200191505060405180910390fd5b60019050919050565b6000600d54600e60003373ffffffffffffffffffffffffffffffffffffffff1673ffffffffffffffffffffffffffffffffffffffff168152602001908152602001600020819055506040518060a001604052803373ffffffffffffffffffffffffffffffffffffffff1681526020018381526020016001151581526020016001151581526020016000815250600f6000600d54815260200190815260200160002060008201518160000160006101000a81548173ffffffffffffffffffffffffffffffffffffffff021916908373ffffffffffffffffffffffffffffffffffffffff1602179055506020820151816001015560408201518160020160006101000a81548160ff02191690831515021790555060608201518160020160016101000a81548160ff021916908315150217905550608082015181600301559050506129f182600754612cb190919063ffffffff16565b600781905550600b60008154809291906001019190505550600d6000815480929190600101919050555060019050919050565b600080600e60003373ffffffffffffffffffffffffffffffffffffffff1673ffffffffffffffffffffffffffffffffffffffff1681526020019081526020016000205490506000600f60008381526020019081526020016000209050612a97848260010154612cb190919063ffffffff16565b8160010181905550600954816001015410158015612ac457508060020160009054906101000a900460ff16155b15612c0257612b7d816040518060a00160405290816000820160009054906101000a900473ffffffffffffffffffffffffffffffffffffffff1673ffffffffffffffffffffffffffffffffffffffff1673ffffffffffffffffffffffffffffffffffffffff168152602001600182015481526020016002820160009054906101000a900460ff161515151581526020016002820160019054906101000a900460ff16151515158152602001600382015481525050612190565b612bef576040517f08c379a000000000000000000000000000000000000000000000000000000000815260040180806020018281038252601a8152602001807f6661696c656420746f20757064617465207573657220696e666f00000000000081525060200191505060405180910390fd5b600b600081548092919060010191905055505b612c1784600754612cb190919063ffffffff16565b600781905550600192505050919050565b600082821115612ca0576040517f08c379a000000000000000000000000000000000000000000000000000000000815260040180806020018281038252601e8152602001807f536166654d6174683a207375627472616374696f6e206f766572666c6f77000081525060200191505060405180910390fd5b600082840390508091505092915050565b600080828401905083811015612d2f576040517f08c379a000000000000000000000000000000000000000000000000000000000815260040180806020018281038252601b8152602001807f536166654d6174683a206164646974696f6e206f766572666c6f77000000000081525060200191505060405180910390fd5b8091505092915050565b6040518060a00160405280600073ffffffffffffffffffffffffffffffffffffffff1681526020016000815260200160001515815260200160001515815260200160008152509056fe5472616e73666572207244414920746f20486f6f64696520636f6e7472616374206661696c65644465706f73697420616d6f756e742073686f756c6420626520657175616c20746f202f2067726561746572207468616e2032303044414974686520696e74657265737420616d6f756e7420686173206e6f7420726561636865642032302072444149207965747573657220646f6573206e6f742068617665207468652073616d65206861742061732074686520686f6f64696520636f6e747261637427735472616e736665722044414920746f20486f6f64696520636f6e7472616374206661696c65646f6e6c79206f776e65722063616e20696e766f6b6520746869732066756e6374696f6e75736572277320724441492062616c616e636520697320736d616c6c6572207468616e2074686520686f6f64696520636f6e747261637427736661696c64656420746f2061646420746865207573657220616761696e20746f207468652077616974696e67206c6973747573657220646f6573206e6f7420686176652074686520686f6f64696520686174a165627a7a72305820b8acf39c0e73581265a78447352522e912c54fadc84d38544e18a93d03e958a30029",
  "source": "pragma solidity ^0.5.8;\nimport \"../node_modules/openzeppelin-solidity/contracts/math/SafeMath.sol\";\nimport \"./IDai.sol\";\nimport \"./IRToken.sol\";\n\ncontract HoodieToken {\n  using SafeMath for uint256;\n\n  struct User {\n    address userAddress;\n    uint256 depositedAmount;\n    bool isWaiting;\n    bool hasDeposited;\n    uint256 numOfHoodie;\n  }\n  // Instantiate DAIContract with DAI address on rinkeby\n  // Instantiate rDAIContract with rDAI address on rinkeby\n  IDai public DAIContract;\n  IRToken public rDAIContract;\n\n  // Hat setting\n  uint256 public hatID;\n  address public owner;\n  address[] public recipients;\n  uint32[] public proportions;\n  bool public doChangeHat = true;\n\n  uint256 public totalDeposited = 0;\n  uint256 public hoodieReceivers = 0;\n  uint256 public minimumDepositAmount = 1 * 10 ** 18; // for test\n  uint256 public hoodieCost = 20 * 10 ** 18;\n\n  uint256 public totalWaitingUsers = 0;\n  uint256 public recipientNumber = 1;\n  uint256 public nextUserNumber = 1;\n  mapping(address => uint256) public userNumbers;\n  mapping(uint256 => User) public users;\n  address public nextInLine = users[recipientNumber].userAddress;\n\n  event Deposited(address user, uint256 depositedAmount);\n  event Redeemed(address user, uint256 newDepositedAmount);\n  event IssuedFDH(address recipient);\n\n  constructor() public {\n    owner = msg.sender;\n    recipients.push(owner);\n    proportions.push(100);\n    DAIContract = IDai(0x5592EC0cfb4dbc12D3aB100b257153436a1f0FEa);\n    rDAIContract = IRToken(0x6AA5c6aB94403Bdbbf74f21607D46Be631E6CcC5);\n    hatID = rDAIContract.createHat(recipients, proportions, doChangeHat);\n  }\n\n  // function getTotalDeposited() public view returns (uint256) {\n  //   return rDAIContract.getHatStats(hatID).totalLoans;\n  // }\n\n  function depositDAI(uint256 depositAmount) public returns (bool) {\n    uint256 userNumber = userNumbers[msg.sender];\n    User memory user = users[userNumber];\n    if(!user.hasDeposited) {\n      // new user\n      require(depositAmount >= minimumDepositAmount, \"Deposit amount should be equal to / greater than 200DAI\");\n      require(_mintRDai(depositAmount), \"mining rDAI failed\");\n      require(_createNewUser(depositAmount), \"failded to add the user again to the waiting list\");\n    } else {\n      // existing user\n      require(_mintRDai(depositAmount), \"failed to mint rDAI\");\n      require(_topUpDAI(depositAmount), \"failed to top up DAI\");\n    }\n    emit Deposited(msg.sender, depositAmount);\n    return true;\n  }\n\n  function redeemRDai(uint256 redeemAmount) public returns (bool) {\n    uint256 userNumber = userNumbers[msg.sender];\n    User storage user = users[userNumber];\n    // check whether or not the user has enough rDAI to redeem\n    require(user.depositedAmount >= redeemAmount, \"insufficient amount of rDAI\");\n    // transfer rDAI from user's account to Hoodie contract\n    require(rDAIContract.transferFrom(msg.sender, address(this), redeemAmount), \"Transfer rDAI to Hoodie contract failed\");\n    // use redeem => transfer rDAI to user => update user info\n    require(rDAIContract.redeem(redeemAmount), \"redeem() failed\");\n    require(DAIContract.transfer(msg.sender, redeemAmount), \"Transfer DAI to user failed\");\n    user.depositedAmount = user.depositedAmount.sub(redeemAmount);\n    totalDeposited = totalDeposited.sub(redeemAmount);\n\n    // if user's depositedAmount become below than the minimumDepositAmount, it will be removed from the waiting list\n    if (user.depositedAmount < minimumDepositAmount) {\n      user.isWaiting = false;\n      totalWaitingUsers--;\n    }\n    emit Redeemed(msg.sender, user.depositedAmount);\n    return true;\n  }\n\n  function issueFDH() public returns (bool) {\n    // check the user is waiting and if not, the next user will become the recipient\n    if (_findRecipient() == false) {\n      require(rDAIContract.payInterest(owner), \"failded payInterest()\");\n      return true;\n    } else {\n      User storage recipient = users[recipientNumber];\n      // test\n      require(rDAIContract.interestPayableOf(owner) > 0, \"the interest amount has not reached 20 rDAI yet\");\n      // check whether or not the generated interest amount reached 20 rDAI\n      // require(rDAIContract.interestPayableOf(owner) >= hoodieCost, \"the interest amount has not reached 20 rDAI yet\");\n\n      require(_checkUserHatAndRDaiBalance(recipient.userAddress), \"user does not have the hoodie hat\");\n      require(rDAIContract.payInterest(owner), \"failded payInterest()\");\n\n      // give a hoodie to the recipient and increment the global variables\n      recipient.numOfHoodie++;\n      hoodieReceivers++;\n      recipientNumber++;\n\n      // set user as the last position of the waiting list\n      require(_setLastPosition(recipient), \"failed to update user info\");\n\n      emit IssuedFDH(recipient.userAddress);\n      return true;\n    }\n  }\n\n  function switchDaiContractAddress(address daiContractAddress) public returns (bool) {\n    require(msg.sender == owner, \"only owner can invoke this function\");\n    DAIContract = IDai(daiContractAddress);\n    return true;\n  }\n\n  function switchRDaiContractAddress(address rDaiContractAddress) public returns (bool) {\n    require(msg.sender == owner, \"only owner can invoke this function\");\n    rDAIContract = IRToken(rDaiContractAddress);\n    return true;\n  }\n\n  ////////////////////////\n  // internal functions //\n  ////////////////////////\n\n  function _mintRDai(uint256 _depositAmount) internal returns (bool) {\n    // dapp transfer user's DAI to itself\n    require(DAIContract.transferFrom(msg.sender, address(this), _depositAmount), \"Transfer DAI to Hoodie contract failed\");\n    // dapp approves rDAI contract to transfer dapp's DAI\n    require(DAIContract.approve(address(rDAIContract), _depositAmount), \"approve() invalid\");\n    // dapp invoke mint() and get rDAI\n    require(rDAIContract.mintWithSelectedHat(_depositAmount, hatID), \"minting failed\");\n    // dapp transfer rDAI to user\n    require(rDAIContract.transferFrom(address(this), msg.sender, _depositAmount), \"Transfer rDAI to user failed\");\n    return true;\n  }\n\n  function _createNewUser(uint256 _depositAmount) internal returns (bool) {\n    userNumbers[msg.sender] = nextUserNumber;\n    users[nextUserNumber] = User({\n      userAddress: msg.sender,\n      depositedAmount: _depositAmount,\n      isWaiting: true,\n      hasDeposited: true,\n      numOfHoodie: 0\n    });\n    totalDeposited = totalDeposited.add(_depositAmount);\n    totalWaitingUsers++;\n    nextUserNumber++;\n    return true;\n  }\n\n  function _topUpDAI(uint256 _depositAmount) internal returns (bool) {\n    uint256 userNumber = userNumbers[msg.sender];\n    User storage _user = users[userNumber];\n    _user.depositedAmount = _user.depositedAmount.add(_depositAmount);\n\n    if(_user.depositedAmount >= minimumDepositAmount && !_user.isWaiting) {\n      require(_setLastPosition(_user), \"failed to update user info\");\n      totalWaitingUsers++;\n    }\n    totalDeposited = totalDeposited.add(_depositAmount);\n    return true;\n  }\n\n  function _setLastPosition(User memory _user) internal returns (bool) {\n    userNumbers[_user.userAddress] = nextUserNumber;\n    users[nextUserNumber] = User({\n      userAddress: _user.userAddress,\n      depositedAmount: _user.depositedAmount,\n      isWaiting: true,\n      hasDeposited: true,\n      numOfHoodie: _user.numOfHoodie\n    });\n    nextUserNumber++;\n    return true;\n  }\n\n  function _checkUserHatAndRDaiBalance(address _userAddress) internal view returns (bool) {\n    uint256 _userNumber = userNumbers[_userAddress];\n    User memory _user = users[_userNumber];\n\n    // 1. check whether or not a user has the hoodie hat\n    uint256 _userHatId;\n    address[] memory _recipientsFromUser;\n    uint32[] memory _proportionsFromUser;\n\n    (_userHatId, _recipientsFromUser, _proportionsFromUser) = rDAIContract.getHatByAddress(_userAddress);\n    \n    address _recipientFromUser = _recipientsFromUser[0];\n    uint32 _proportionFromUser = _proportionsFromUser[0];\n\n    require(_userHatId == hatID, \"user does not have the same hat as the hoodie contract's\");\n    require(_recipientFromUser == owner, \"No much with the owner address\");\n    require(_proportionFromUser == 2 ** 32 - 1, \"No much with the proportion\");\n    \n    // 2. check whether or not a user's rDAI balance is the same as hoodie contract's\n    uint256 _rDaiBalance = rDAIContract.balanceOf(_userAddress);\n    require(_rDaiBalance >= _user.depositedAmount, \"user's rDAI balance is smaller than the hoodie contract's\");\n\n    return true;\n  }\n\n  function _findRecipient() internal returns (bool) {\n    uint256 i = recipientNumber;\n    for (i; i <= nextUserNumber; i++) {\n      User memory user = users[i];\n      if (user.isWaiting && i == recipientNumber) {\n        return true;\n      } else if (user.isWaiting && i != recipientNumber) {\n        recipientNumber = i;\n        return true;\n      }\n    }\n    recipientNumber = nextUserNumber;\n    return false;\n  }\n}",
  "sourcePath": "/Users/khiga619/Sites/FlexDappHoodie/contracts/HoodieToken.sol",
  "compiler": {
    "name": "solc",
    "version": "0.5.8+commit.23d335f2.Emscripten.clang"
  },
  "schemaVersion": "3.0.16",
  "updatedAt": "2019-10-28T06:10:09.320Z",
  "devdoc": {
    "methods": {}
  },
  "userdoc": {
    "methods": {}
  }
}