{
  "contractName": "HoodieToken",
  "abi": [
    {
      "constant": true,
      "inputs": [],
      "name": "minimumDepositAmount",
      "outputs": [
        {
          "name": "",
          "type": "uint256"
        }
      ],
      "payable": false,
      "stateMutability": "view",
      "type": "function"
    },
    {
      "constant": true,
      "inputs": [],
      "name": "recipientNumber",
      "outputs": [
        {
          "name": "",
          "type": "uint256"
        }
      ],
      "payable": false,
      "stateMutability": "view",
      "type": "function"
    },
    {
      "constant": true,
      "inputs": [],
      "name": "rDAIContract",
      "outputs": [
        {
          "name": "",
          "type": "address"
        }
      ],
      "payable": false,
      "stateMutability": "view",
      "type": "function"
    },
    {
      "constant": true,
      "inputs": [
        {
          "name": "",
          "type": "uint256"
        }
      ],
      "name": "users",
      "outputs": [
        {
          "name": "userAddress",
          "type": "address"
        },
        {
          "name": "depositedAmount",
          "type": "uint256"
        },
        {
          "name": "isWaiting",
          "type": "bool"
        },
        {
          "name": "hasDeposited",
          "type": "bool"
        }
      ],
      "payable": false,
      "stateMutability": "view",
      "type": "function"
    },
    {
      "constant": true,
      "inputs": [],
      "name": "doChangeHat",
      "outputs": [
        {
          "name": "",
          "type": "bool"
        }
      ],
      "payable": false,
      "stateMutability": "view",
      "type": "function"
    },
    {
      "constant": true,
      "inputs": [],
      "name": "DAIContract",
      "outputs": [
        {
          "name": "",
          "type": "address"
        }
      ],
      "payable": false,
      "stateMutability": "view",
      "type": "function"
    },
    {
      "constant": true,
      "inputs": [],
      "name": "hatID",
      "outputs": [
        {
          "name": "",
          "type": "uint256"
        }
      ],
      "payable": false,
      "stateMutability": "view",
      "type": "function"
    },
    {
      "constant": true,
      "inputs": [
        {
          "name": "",
          "type": "address"
        }
      ],
      "name": "userNumbers",
      "outputs": [
        {
          "name": "",
          "type": "uint256"
        }
      ],
      "payable": false,
      "stateMutability": "view",
      "type": "function"
    },
    {
      "constant": true,
      "inputs": [
        {
          "name": "",
          "type": "uint256"
        }
      ],
      "name": "proportions",
      "outputs": [
        {
          "name": "",
          "type": "uint32"
        }
      ],
      "payable": false,
      "stateMutability": "view",
      "type": "function"
    },
    {
      "constant": true,
      "inputs": [],
      "name": "owner",
      "outputs": [
        {
          "name": "",
          "type": "address"
        }
      ],
      "payable": false,
      "stateMutability": "view",
      "type": "function"
    },
    {
      "constant": true,
      "inputs": [],
      "name": "hoodieCost",
      "outputs": [
        {
          "name": "",
          "type": "uint256"
        }
      ],
      "payable": false,
      "stateMutability": "view",
      "type": "function"
    },
    {
      "constant": true,
      "inputs": [
        {
          "name": "",
          "type": "uint256"
        }
      ],
      "name": "recipients",
      "outputs": [
        {
          "name": "",
          "type": "address"
        }
      ],
      "payable": false,
      "stateMutability": "view",
      "type": "function"
    },
    {
      "constant": true,
      "inputs": [],
      "name": "totalUserNumber",
      "outputs": [
        {
          "name": "",
          "type": "uint256"
        }
      ],
      "payable": false,
      "stateMutability": "view",
      "type": "function"
    },
    {
      "constant": true,
      "inputs": [],
      "name": "hoodieReceivers",
      "outputs": [
        {
          "name": "",
          "type": "uint256"
        }
      ],
      "payable": false,
      "stateMutability": "view",
      "type": "function"
    },
    {
      "inputs": [],
      "payable": false,
      "stateMutability": "nonpayable",
      "type": "constructor"
    },
    {
      "anonymous": false,
      "inputs": [
        {
          "indexed": false,
          "name": "user",
          "type": "address"
        },
        {
          "indexed": false,
          "name": "depositedAmount",
          "type": "uint256"
        }
      ],
      "name": "Deposited",
      "type": "event"
    },
    {
      "anonymous": false,
      "inputs": [
        {
          "indexed": false,
          "name": "user",
          "type": "address"
        },
        {
          "indexed": false,
          "name": "newDepositedAmount",
          "type": "uint256"
        }
      ],
      "name": "Redeemed",
      "type": "event"
    },
    {
      "anonymous": false,
      "inputs": [
        {
          "indexed": false,
          "name": "recipient",
          "type": "address"
        }
      ],
      "name": "IssuedFDH",
      "type": "event"
    },
    {
      "constant": false,
      "inputs": [
        {
          "name": "depositAmount",
          "type": "uint256"
        }
      ],
      "name": "depositDAI",
      "outputs": [
        {
          "name": "",
          "type": "bool"
        }
      ],
      "payable": false,
      "stateMutability": "nonpayable",
      "type": "function"
    },
    {
      "constant": false,
      "inputs": [
        {
          "name": "redeemAmount",
          "type": "uint256"
        }
      ],
      "name": "redeemRDai",
      "outputs": [
        {
          "name": "",
          "type": "bool"
        }
      ],
      "payable": false,
      "stateMutability": "nonpayable",
      "type": "function"
    },
    {
      "constant": false,
      "inputs": [],
      "name": "issueFDH",
      "outputs": [
        {
          "name": "",
          "type": "bool"
        }
      ],
      "payable": false,
      "stateMutability": "nonpayable",
      "type": "function"
    },
    {
      "constant": false,
      "inputs": [
        {
          "name": "daiContractAddress",
          "type": "address"
        }
      ],
      "name": "switchDaiContractAddress",
      "outputs": [
        {
          "name": "",
          "type": "bool"
        }
      ],
      "payable": false,
      "stateMutability": "nonpayable",
      "type": "function"
    },
    {
      "constant": false,
      "inputs": [
        {
          "name": "rDaiContractAddress",
          "type": "address"
        }
      ],
      "name": "switchRDaiContractAddress",
      "outputs": [
        {
          "name": "",
          "type": "bool"
        }
      ],
      "payable": false,
      "stateMutability": "nonpayable",
      "type": "function"
    }
  ],
  "bytecode": "0x60806040526001600660006101000a81548160ff0219169083151502179055506000600755670de0b6b3a76400006008556801158e460913d000006009556000600a556000600b553480156200005457600080fd5b5033600360006101000a81548173ffffffffffffffffffffffffffffffffffffffff021916908373ffffffffffffffffffffffffffffffffffffffff1602179055506004600360009054906101000a900473ffffffffffffffffffffffffffffffffffffffff1690806001815401808255809150509060018203906000526020600020016000909192909190916101000a81548173ffffffffffffffffffffffffffffffffffffffff021916908373ffffffffffffffffffffffffffffffffffffffff1602179055505060056064908060018154018082558091505090600182039060005260206000209060089182820401919006600402909192909190916101000a81548163ffffffff021916908363ffffffff16021790555050735592ec0cfb4dbc12d3ab100b257153436a1f0fea6000806101000a81548173ffffffffffffffffffffffffffffffffffffffff021916908373ffffffffffffffffffffffffffffffffffffffff160217905550736aa5c6ab94403bdbbf74f21607d46be631e6ccc5600160006101000a81548173ffffffffffffffffffffffffffffffffffffffff021916908373ffffffffffffffffffffffffffffffffffffffff160217905550600160009054906101000a900473ffffffffffffffffffffffffffffffffffffffff1673ffffffffffffffffffffffffffffffffffffffff16635cde505560046005600660009054906101000a900460ff166040518463ffffffff1660e01b81526004018080602001806020018415151515815260200183810383528681815481526020019150805480156200030557602002820191906000526020600020905b8160009054906101000a900473ffffffffffffffffffffffffffffffffffffffff1673ffffffffffffffffffffffffffffffffffffffff1681526020019060010190808311620002ba575b505083810382528581815481526020019150805480156200037257602002820191906000526020600020906000905b82829054906101000a900463ffffffff1663ffffffff1681526020019060040190602082600301049283019260010382029150808411620003345790505b505095505050505050602060405180830381600087803b1580156200039657600080fd5b505af1158015620003ab573d6000803e3d6000fd5b505050506040513d6020811015620003c257600080fd5b8101908080519060200190929190505050600281905550612bb980620003e96000396000f3fe608060405234801561001057600080fd5b50600436106101215760003560e01c80635dce1c5b116100ad578063d1bc76a111610071578063d1bc76a114610493578063d1f9ee2e14610501578063e3967eed1461055d578063f1de77fb1461057b578063ff37dd30146105c157610121565b80635dce1c5b1461036757806377df772514610385578063826518c9146103dd5780638da5cb5b1461042b578063c005c01b1461047557610121565b8063323b1a8d116100f4578063323b1a8d14610208578063365833e11461022a578063365b98b214610270578063399f94af146102fb5780633c0f5fbe1461031d57610121565b8063080c279a1461012657806313a408e31461014457806318299e3c146101625780632f048d5d146101be575b600080fd5b61012e6105df565b6040518082815260200191505060405180910390f35b61014c6105e5565b6040518082815260200191505060405180910390f35b6101a46004803603602081101561017857600080fd5b81019080803573ffffffffffffffffffffffffffffffffffffffff1690602001909291905050506105eb565b604051808215151515815260200191505060405180910390f35b6101c66106dc565b604051808273ffffffffffffffffffffffffffffffffffffffff1673ffffffffffffffffffffffffffffffffffffffff16815260200191505060405180910390f35b610210610702565b604051808215151515815260200191505060405180910390f35b6102566004803603602081101561024057600080fd5b8101908080359060200190929190505050610c73565b604051808215151515815260200191505060405180910390f35b61029c6004803603602081101561028657600080fd5b8101908080359060200190929190505050610f90565b604051808573ffffffffffffffffffffffffffffffffffffffff1673ffffffffffffffffffffffffffffffffffffffff168152602001848152602001831515151581526020018215151515815260200194505050505060405180910390f35b610303610ffa565b604051808215151515815260200191505060405180910390f35b61032561100d565b604051808273ffffffffffffffffffffffffffffffffffffffff1673ffffffffffffffffffffffffffffffffffffffff16815260200191505060405180910390f35b61036f611032565b6040518082815260200191505060405180910390f35b6103c76004803603602081101561039b57600080fd5b81019080803573ffffffffffffffffffffffffffffffffffffffff169060200190929190505050611038565b6040518082815260200191505060405180910390f35b610409600480360360208110156103f357600080fd5b8101908080359060200190929190505050611050565b604051808263ffffffff1663ffffffff16815260200191505060405180910390f35b610433611087565b604051808273ffffffffffffffffffffffffffffffffffffffff1673ffffffffffffffffffffffffffffffffffffffff16815260200191505060405180910390f35b61047d6110ad565b6040518082815260200191505060405180910390f35b6104bf600480360360208110156104a957600080fd5b81019080803590602001909291905050506110b3565b604051808273ffffffffffffffffffffffffffffffffffffffff1673ffffffffffffffffffffffffffffffffffffffff16815260200191505060405180910390f35b6105436004803603602081101561051757600080fd5b81019080803573ffffffffffffffffffffffffffffffffffffffff1690602001909291905050506110ef565b604051808215151515815260200191505060405180910390f35b6105656111e1565b6040518082815260200191505060405180910390f35b6105a76004803603602081101561059157600080fd5b81019080803590602001909291905050506111e7565b604051808215151515815260200191505060405180910390f35b6105c9611766565b6040518082815260200191505060405180910390f35b60085481565b600a5481565b6000600360009054906101000a900473ffffffffffffffffffffffffffffffffffffffff1673ffffffffffffffffffffffffffffffffffffffff163373ffffffffffffffffffffffffffffffffffffffff1614610693576040517f08c379a0000000000000000000000000000000000000000000000000000000008152600401808060200182810382526023815260200180612ae06023913960400191505060405180910390fd5b816000806101000a81548173ffffffffffffffffffffffffffffffffffffffff021916908373ffffffffffffffffffffffffffffffffffffffff16021790555060019050919050565b600160009054906101000a900473ffffffffffffffffffffffffffffffffffffffff1681565b600080151561070f61176c565b151514156107205760019050610c70565b61072861298b565b600d6000600a5481526020019081526020016000206040518060800160405290816000820160009054906101000a900473ffffffffffffffffffffffffffffffffffffffff1673ffffffffffffffffffffffffffffffffffffffff1673ffffffffffffffffffffffffffffffffffffffff168152602001600182015481526020016002820160009054906101000a900460ff161515151581526020016002820160019054906101000a900460ff16151515158152505090506000600160009054906101000a900473ffffffffffffffffffffffffffffffffffffffff1673ffffffffffffffffffffffffffffffffffffffff166377ede051600360009054906101000a900473ffffffffffffffffffffffffffffffffffffffff166040518263ffffffff1660e01b8152600401808273ffffffffffffffffffffffffffffffffffffffff1673ffffffffffffffffffffffffffffffffffffffff16815260200191505060206040518083038186803b1580156108a357600080fd5b505afa1580156108b7573d6000803e3d6000fd5b505050506040513d60208110156108cd57600080fd5b810190808051906020019092919050505011610934576040517f08c379a000000000000000000000000000000000000000000000000000000000815260040180806020018281038252602f815260200180612a2c602f913960400191505060405180910390fd5b80604001516109ab576040517f08c379a000000000000000000000000000000000000000000000000000000000815260040180806020018281038252601f8152602001807f75736572206973206e6f7420696e207468652077616974696e67206c6973740081525060200191505060405180910390fd5b6109b8816000015161193d565b610a0d576040517f08c379a0000000000000000000000000000000000000000000000000000000008152600401808060200182810382526021815260200180612b6d6021913960400191505060405180910390fd5b600160009054906101000a900473ffffffffffffffffffffffffffffffffffffffff1673ffffffffffffffffffffffffffffffffffffffff1663d007c644600360009054906101000a900473ffffffffffffffffffffffffffffffffffffffff166040518263ffffffff1660e01b8152600401808273ffffffffffffffffffffffffffffffffffffffff1673ffffffffffffffffffffffffffffffffffffffff168152602001915050602060405180830381600087803b158015610ad057600080fd5b505af1158015610ae4573d6000803e3d6000fd5b505050506040513d6020811015610afa57600080fd5b8101908080519060200190929190505050610b7d576040517f08c379a00000000000000000000000000000000000000000000000000000000081526004018080602001828103825260158152602001807f6661696c64656420706179496e7465726573742829000000000000000000000081525060200191505060405180910390fd5b6007600081548092919060010191905055507fcd75dc08a30db24d62175b3fca9573850459c4959e0c3c28601a0d7bf8dcbc238160000151604051808273ffffffffffffffffffffffffffffffffffffffff1673ffffffffffffffffffffffffffffffffffffffff16815260200191505060405180910390a1610c038160000151611ef4565b610c58576040517f08c379a0000000000000000000000000000000000000000000000000000000008152600401808060200182810382526027815260200180612ab96027913960400191505060405180910390fd5b600a6000815480929190600101919050555060019150505b90565b600080600c60003373ffffffffffffffffffffffffffffffffffffffff1673ffffffffffffffffffffffffffffffffffffffff1681526020019081526020016000205490506000600d600083815260200190815260200160002090508060020160019054906101000a900460ff16610e1f57600854841015610d40576040517f08c379a00000000000000000000000000000000000000000000000000000000081526004018080602001828103825260378152602001806129f56037913960400191505060405180910390fd5b610d49846120be565b610dbb576040517f08c379a00000000000000000000000000000000000000000000000000000000081526004018080602001828103825260128152602001807f6d696e696e672072444149206661696c6564000000000000000000000000000081525060200191505060405180910390fd5b610dc53385612662565b610e1a576040517f08c379a0000000000000000000000000000000000000000000000000000000008152600401808060200182810382526031815260200180612b3c6031913960400191505060405180910390fd5b610f16565b610e28846120be565b610e9a576040517f08c379a00000000000000000000000000000000000000000000000000000000081526004018080602001828103825260138152602001807f6661696c656420746f206d696e7420724441490000000000000000000000000081525060200191505060405180910390fd5b610ea3846127ac565b610f15576040517f08c379a00000000000000000000000000000000000000000000000000000000081526004018080602001828103825260148152602001807f6661696c656420746f20746f702075702044414900000000000000000000000081525060200191505060405180910390fd5b5b7f2da466a7b24304f47e87fa2e1e5a81b9831ce54fec19055ce277ca2f39ba42c4338260010154604051808373ffffffffffffffffffffffffffffffffffffffff1673ffffffffffffffffffffffffffffffffffffffff1681526020018281526020019250505060405180910390a1600192505050919050565b600d6020528060005260406000206000915090508060000160009054906101000a900473ffffffffffffffffffffffffffffffffffffffff16908060010154908060020160009054906101000a900460ff16908060020160019054906101000a900460ff16905084565b600660009054906101000a900460ff1681565b6000809054906101000a900473ffffffffffffffffffffffffffffffffffffffff1681565b60025481565b600c6020528060005260406000206000915090505481565b6005818154811061105d57fe5b9060005260206000209060089182820401919006600402915054906101000a900463ffffffff1681565b600360009054906101000a900473ffffffffffffffffffffffffffffffffffffffff1681565b60095481565b600481815481106110c057fe5b906000526020600020016000915054906101000a900473ffffffffffffffffffffffffffffffffffffffff1681565b6000600360009054906101000a900473ffffffffffffffffffffffffffffffffffffffff1673ffffffffffffffffffffffffffffffffffffffff163373ffffffffffffffffffffffffffffffffffffffff1614611197576040517f08c379a0000000000000000000000000000000000000000000000000000000008152600401808060200182810382526023815260200180612ae06023913960400191505060405180910390fd5b81600160006101000a81548173ffffffffffffffffffffffffffffffffffffffff021916908373ffffffffffffffffffffffffffffffffffffffff16021790555060019050919050565b600b5481565b600080600c60003373ffffffffffffffffffffffffffffffffffffffff1673ffffffffffffffffffffffffffffffffffffffff1681526020019081526020016000205490506000600d6000838152602001908152602001600020905083816001015410156112bd576040517f08c379a000000000000000000000000000000000000000000000000000000000815260040180806020018281038252601b8152602001807f696e73756666696369656e7420616d6f756e74206f662072444149000000000081525060200191505060405180910390fd5b600160009054906101000a900473ffffffffffffffffffffffffffffffffffffffff1673ffffffffffffffffffffffffffffffffffffffff166323b872dd3330876040518463ffffffff1660e01b8152600401808473ffffffffffffffffffffffffffffffffffffffff1673ffffffffffffffffffffffffffffffffffffffff1681526020018373ffffffffffffffffffffffffffffffffffffffff1673ffffffffffffffffffffffffffffffffffffffff1681526020018281526020019350505050602060405180830381600087803b15801561139a57600080fd5b505af11580156113ae573d6000803e3d6000fd5b505050506040513d60208110156113c457600080fd5b810190808051906020019092919050505061142a576040517f08c379a00000000000000000000000000000000000000000000000000000000081526004018080602001828103825260278152602001806129ce6027913960400191505060405180910390fd5b600160009054906101000a900473ffffffffffffffffffffffffffffffffffffffff1673ffffffffffffffffffffffffffffffffffffffff1663db006a75856040518263ffffffff1660e01b815260040180828152602001915050602060405180830381600087803b15801561149f57600080fd5b505af11580156114b3573d6000803e3d6000fd5b505050506040513d60208110156114c957600080fd5b810190808051906020019092919050505061154c576040517f08c379a000000000000000000000000000000000000000000000000000000000815260040180806020018281038252600f8152602001807f72656465656d2829206661696c6564000000000000000000000000000000000081525060200191505060405180910390fd5b6000809054906101000a900473ffffffffffffffffffffffffffffffffffffffff1673ffffffffffffffffffffffffffffffffffffffff1663a9059cbb33866040518363ffffffff1660e01b8152600401808373ffffffffffffffffffffffffffffffffffffffff1673ffffffffffffffffffffffffffffffffffffffff16815260200182815260200192505050602060405180830381600087803b1580156115f457600080fd5b505af1158015611608573d6000803e3d6000fd5b505050506040513d602081101561161e57600080fd5b81019080805190602001909291905050506116a1576040517f08c379a000000000000000000000000000000000000000000000000000000000815260040180806020018281038252601b8152602001807f5472616e736665722044414920746f2075736572206661696c6564000000000081525060200191505060405180910390fd5b6116b884826001015461287a90919063ffffffff16565b8160010181905550600854816001015410156116ec5760008160020160006101000a81548160ff0219169083151502179055505b7f4896181ff8f4543cc00db9fe9b6fb7e6f032b7eb772c72ab1ec1b4d2e03b9369338260010154604051808373ffffffffffffffffffffffffffffffffffffffff1673ffffffffffffffffffffffffffffffffffffffff1681526020018281526020019250505060405180910390a1600192505050919050565b60075481565b60005b600d6000600a54815260200190815260200160002060020160009054906101000a900460ff1661193557600b54600a54141561191e57600160009054906101000a900473ffffffffffffffffffffffffffffffffffffffff1673ffffffffffffffffffffffffffffffffffffffff1663d007c644600360009054906101000a900473ffffffffffffffffffffffffffffffffffffffff166040518263ffffffff1660e01b8152600401808273ffffffffffffffffffffffffffffffffffffffff1673ffffffffffffffffffffffffffffffffffffffff168152602001915050602060405180830381600087803b15801561186857600080fd5b505af115801561187c573d6000803e3d6000fd5b505050506040513d602081101561189257600080fd5b8101908080519060200190929190505050611915576040517f08c379a00000000000000000000000000000000000000000000000000000000081526004018080602001828103825260158152602001807f6661696c64656420706179496e7465726573742829000000000000000000000081525060200191505060405180910390fd5b6000905061193a565b600a6000815480929190600101919050555061176f565b600190505b90565b600080600c60008473ffffffffffffffffffffffffffffffffffffffff1673ffffffffffffffffffffffffffffffffffffffff16815260200190815260200160002054905061198a61298b565b600d60008381526020019081526020016000206040518060800160405290816000820160009054906101000a900473ffffffffffffffffffffffffffffffffffffffff1673ffffffffffffffffffffffffffffffffffffffff1673ffffffffffffffffffffffffffffffffffffffff168152602001600182015481526020016002820160009054906101000a900460ff161515151581526020016002820160019054906101000a900460ff16151515158152505090506000606080600160009054906101000a900473ffffffffffffffffffffffffffffffffffffffff1673ffffffffffffffffffffffffffffffffffffffff1663054ab01a886040518263ffffffff1660e01b8152600401808273ffffffffffffffffffffffffffffffffffffffff1673ffffffffffffffffffffffffffffffffffffffff16815260200191505060006040518083038186803b158015611ae457600080fd5b505afa158015611af8573d6000803e3d6000fd5b505050506040513d6000823e3d601f19601f820116820180604052506060811015611b2257600080fd5b81019080805190602001909291908051640100000000811115611b4457600080fd5b82810190506020810184811115611b5a57600080fd5b8151856020820283011164010000000082111715611b7757600080fd5b50509291906020018051640100000000811115611b9357600080fd5b82810190506020810184811115611ba957600080fd5b8151856020820283011164010000000082111715611bc657600080fd5b5050929190505050809350819450829550505050600082600081518110611be957fe5b60200260200101519050600082600081518110611c0257fe5b602002602001015190506002548514611c66576040517f08c379a0000000000000000000000000000000000000000000000000000000008152600401808060200182810382526038815260200180612a5b6038913960400191505060405180910390fd5b600360009054906101000a900473ffffffffffffffffffffffffffffffffffffffff1673ffffffffffffffffffffffffffffffffffffffff168273ffffffffffffffffffffffffffffffffffffffff1614611d29576040517f08c379a000000000000000000000000000000000000000000000000000000000815260040180806020018281038252601e8152602001807f4e6f206d756368207769746820746865206f776e65722061646472657373000081525060200191505060405180910390fd5b63ffffffff8163ffffffff1614611da8576040517f08c379a000000000000000000000000000000000000000000000000000000000815260040180806020018281038252601b8152602001807f4e6f206d7563682077697468207468652070726f706f7274696f6e000000000081525060200191505060405180910390fd5b6000600160009054906101000a900473ffffffffffffffffffffffffffffffffffffffff1673ffffffffffffffffffffffffffffffffffffffff166370a082318b6040518263ffffffff1660e01b8152600401808273ffffffffffffffffffffffffffffffffffffffff1673ffffffffffffffffffffffffffffffffffffffff16815260200191505060206040518083038186803b158015611e4957600080fd5b505afa158015611e5d573d6000803e3d6000fd5b505050506040513d6020811015611e7357600080fd5b810190808051906020019092919050505090508660200151811015611ee3576040517f08c379a0000000000000000000000000000000000000000000000000000000008152600401808060200182810382526039815260200180612b036039913960400191505060405180910390fd5b600198505050505050505050919050565b600080600c60008473ffffffffffffffffffffffffffffffffffffffff1673ffffffffffffffffffffffffffffffffffffffff168152602001908152602001600020549050611f4161298b565b600d60008381526020019081526020016000206040518060800160405290816000820160009054906101000a900473ffffffffffffffffffffffffffffffffffffffff1673ffffffffffffffffffffffffffffffffffffffff1673ffffffffffffffffffffffffffffffffffffffff168152602001600182015481526020016002820160009054906101000a900460ff161515151581526020016002820160019054906101000a900460ff161515151581525050905080600d6000600b54815260200190815260200160002060008201518160000160006101000a81548173ffffffffffffffffffffffffffffffffffffffff021916908373ffffffffffffffffffffffffffffffffffffffff1602179055506020820151816001015560408201518160020160006101000a81548160ff02191690831515021790555060608201518160020160016101000a81548160ff021916908315150217905550905050600b60008154809291906001019190505550600192505050919050565b60008060009054906101000a900473ffffffffffffffffffffffffffffffffffffffff1673ffffffffffffffffffffffffffffffffffffffff166323b872dd3330856040518463ffffffff1660e01b8152600401808473ffffffffffffffffffffffffffffffffffffffff1673ffffffffffffffffffffffffffffffffffffffff1681526020018373ffffffffffffffffffffffffffffffffffffffff1673ffffffffffffffffffffffffffffffffffffffff1681526020018281526020019350505050602060405180830381600087803b15801561219c57600080fd5b505af11580156121b0573d6000803e3d6000fd5b505050506040513d60208110156121c657600080fd5b810190808051906020019092919050505061222c576040517f08c379a0000000000000000000000000000000000000000000000000000000008152600401808060200182810382526026815260200180612a936026913960400191505060405180910390fd5b6000809054906101000a900473ffffffffffffffffffffffffffffffffffffffff1673ffffffffffffffffffffffffffffffffffffffff1663095ea7b3600160009054906101000a900473ffffffffffffffffffffffffffffffffffffffff16846040518363ffffffff1660e01b8152600401808373ffffffffffffffffffffffffffffffffffffffff1673ffffffffffffffffffffffffffffffffffffffff16815260200182815260200192505050602060405180830381600087803b1580156122f657600080fd5b505af115801561230a573d6000803e3d6000fd5b505050506040513d602081101561232057600080fd5b81019080805190602001909291905050506123a3576040517f08c379a00000000000000000000000000000000000000000000000000000000081526004018080602001828103825260118152602001807f617070726f7665282920696e76616c696400000000000000000000000000000081525060200191505060405180910390fd5b600160009054906101000a900473ffffffffffffffffffffffffffffffffffffffff1673ffffffffffffffffffffffffffffffffffffffff1663388c0b8c836002546040518363ffffffff1660e01b81526004018083815260200182815260200192505050602060405180830381600087803b15801561242257600080fd5b505af1158015612436573d6000803e3d6000fd5b505050506040513d602081101561244c57600080fd5b81019080805190602001909291905050506124cf576040517f08c379a000000000000000000000000000000000000000000000000000000000815260040180806020018281038252600e8152602001807f6d696e74696e67206661696c656400000000000000000000000000000000000081525060200191505060405180910390fd5b600160009054906101000a900473ffffffffffffffffffffffffffffffffffffffff1673ffffffffffffffffffffffffffffffffffffffff166323b872dd3033856040518463ffffffff1660e01b8152600401808473ffffffffffffffffffffffffffffffffffffffff1673ffffffffffffffffffffffffffffffffffffffff1681526020018373ffffffffffffffffffffffffffffffffffffffff1673ffffffffffffffffffffffffffffffffffffffff1681526020018281526020019350505050602060405180830381600087803b1580156125ac57600080fd5b505af11580156125c0573d6000803e3d6000fd5b505050506040513d60208110156125d657600080fd5b8101908080519060200190929190505050612659576040517f08c379a000000000000000000000000000000000000000000000000000000000815260040180806020018281038252601c8152602001807f5472616e73666572207244414920746f2075736572206661696c65640000000081525060200191505060405180910390fd5b60019050919050565b6000600b54600c60008573ffffffffffffffffffffffffffffffffffffffff1673ffffffffffffffffffffffffffffffffffffffff1681526020019081526020016000208190555060405180608001604052808473ffffffffffffffffffffffffffffffffffffffff16815260200183815260200160011515815260200160011515815250600d6000600b54815260200190815260200160002060008201518160000160006101000a81548173ffffffffffffffffffffffffffffffffffffffff021916908373ffffffffffffffffffffffffffffffffffffffff1602179055506020820151816001015560408201518160020160006101000a81548160ff02191690831515021790555060608201518160020160016101000a81548160ff021916908315150217905550905050600b600081548092919060010191905055506001905092915050565b600080600c60003373ffffffffffffffffffffffffffffffffffffffff1673ffffffffffffffffffffffffffffffffffffffff1681526020019081526020016000205490506000600d6000838152602001908152602001600020905061281f84826001015461290390919063ffffffff16565b816001018190555060085481600101541015801561284c57508060020160009054906101000a900460ff16155b1561286f5760018160020160006101000a81548160ff0219169083151502179055505b600192505050919050565b6000828211156128f2576040517f08c379a000000000000000000000000000000000000000000000000000000000815260040180806020018281038252601e8152602001807f536166654d6174683a207375627472616374696f6e206f766572666c6f77000081525060200191505060405180910390fd5b600082840390508091505092915050565b600080828401905083811015612981576040517f08c379a000000000000000000000000000000000000000000000000000000000815260040180806020018281038252601b8152602001807f536166654d6174683a206164646974696f6e206f766572666c6f77000000000081525060200191505060405180910390fd5b8091505092915050565b6040518060800160405280600073ffffffffffffffffffffffffffffffffffffffff16815260200160008152602001600015158152602001600015158152509056fe5472616e73666572207244414920746f20486f6f64696520636f6e7472616374206661696c65644465706f73697420616d6f756e742073686f756c6420626520657175616c20746f202f2067726561746572207468616e2032303044414974686520696e74657265737420616d6f756e7420686173206e6f7420726561636865642032302072444149207965747573657220646f6573206e6f742068617665207468652073616d65206861742061732074686520686f6f64696520636f6e747261637427735472616e736665722044414920746f20486f6f64696520636f6e7472616374206661696c656466616c69656420746f206769766520686f6f64696520746f20746865206e657874496e4c696e656f6e6c79206f776e65722063616e20696e766f6b6520746869732066756e6374696f6e75736572277320724441492062616c616e636520697320736d616c6c6572207468616e2074686520686f6f64696520636f6e747261637427736661696c64656420746f2061646420746865207573657220616761696e20746f207468652077616974696e67206c6973747573657220646f6573206e6f7420686176652074686520686f6f64696520686174a165627a7a72305820b739be2e3b8f1ccbb3abc3b5d764a18022792dc39e27beed77e9b900893d3c2b0029",
  "source": "pragma solidity ^0.5.8;\nimport \"../node_modules/openzeppelin-solidity/contracts/math/SafeMath.sol\";\nimport \"./IDai.sol\";\nimport \"./IRToken.sol\";\n\ncontract HoodieToken {\n  using SafeMath for uint256;\n\n  struct User {\n    address userAddress;\n    uint256 depositedAmount;\n    bool isWaiting;\n    bool hasDeposited;\n  }\n  // Instantiate DAIContract with DAI address on rinkeby\n  // Instantiate rDAIContract with rDAI address on rinkeby\n  IDai public DAIContract;\n  IRToken public rDAIContract;\n\n  // Hat setting\n  uint256 public hatID;\n  address public owner;\n  address[] public recipients;\n  uint32[] public proportions;\n  bool public doChangeHat = true;\n\n  uint256 public hoodieReceivers = 0;\n  uint256 public minimumDepositAmount = 1 * 10 ** 18; // for test\n  uint256 public hoodieCost = 20 * 10 ** 18;\n\n  uint256 public recipientNumber = 0;\n  uint256 public totalUserNumber = 0;\n  mapping(address => uint256) public userNumbers;\n  mapping(uint256 => User) public users;\n\n  event Deposited(address user, uint256 depositedAmount);\n  event Redeemed(address user, uint256 newDepositedAmount);\n  event IssuedFDH(address recipient);\n\n  constructor() public {\n    owner = msg.sender;\n    recipients.push(owner);\n    proportions.push(100);\n    DAIContract = IDai(0x5592EC0cfb4dbc12D3aB100b257153436a1f0FEa);\n    rDAIContract = IRToken(0x6AA5c6aB94403Bdbbf74f21607D46Be631E6CcC5);\n    hatID = rDAIContract.createHat(recipients, proportions, doChangeHat);\n  }\n\n  // function getWaitingList() public view returns(address[] memory) {\n  //   return waitingList;\n  // }\n\n  function depositDAI(uint256 depositAmount) public returns (bool) {\n    uint256 _userNumber = userNumbers[msg.sender];\n    User storage user = users[_userNumber];\n\n    if(!user.hasDeposited) {\n      // new user\n      require(depositAmount >= minimumDepositAmount, \"Deposit amount should be equal to / greater than 200DAI\");\n      require(_mintRDai(depositAmount), \"mining rDAI failed\");\n      require(_addUserToWaitingList(msg.sender, depositAmount), \"failded to add the user again to the waiting list\");\n    } else {\n      // existing user\n      require(_mintRDai(depositAmount), \"failed to mint rDAI\");\n      require(_topUpDAI(depositAmount), \"failed to top up DAI\");\n    }\n    emit Deposited(msg.sender, user.depositedAmount);\n    return true;\n  }\n\n  function redeemRDai(uint256 redeemAmount) public returns (bool) {\n    uint256 userNumber = userNumbers[msg.sender];\n    User storage user = users[userNumber];\n    // check whether or not the user has enough rDAI to redeem\n    require(user.depositedAmount >= redeemAmount, \"insufficient amount of rDAI\");\n    // transfer rDAI from user's account to Hoodie contract\n    require(rDAIContract.transferFrom(msg.sender, address(this), redeemAmount), \"Transfer rDAI to Hoodie contract failed\");\n    // use redeem => transfer rDAI to user => update user info\n    require(rDAIContract.redeem(redeemAmount), \"redeem() failed\");\n    require(DAIContract.transfer(msg.sender, redeemAmount), \"Transfer DAI to user failed\");\n    user.depositedAmount = user.depositedAmount.sub(redeemAmount);\n\n    // if user's depositedAmount become below than the minimumDepositAmount, it will be removed from the waiting list\n    if (user.depositedAmount < minimumDepositAmount) {\n      user.isWaiting = false;\n    }\n    // // if user is the current next in line, it will update the next in line\n    // if (nextInLine == msg.sender) {\n    //   require(_updateNextInLine(), \"failed to update the next in line\");\n    // }\n    emit Redeemed(msg.sender, user.depositedAmount);\n    return true;\n  }\n\n  function issueFDH() public returns (bool) {\n    // if(nextInLine == address(0)) {\n    //   require(rDAIContract.payInterest(owner), \"failded to pay Interest to the owner\");\n    //   return true;\n    // }\n    if (_findRecipient() == false) {\n      return true;\n    }\n    User memory user = users[recipientNumber];\n    // test\n    require(rDAIContract.interestPayableOf(owner) > 0, \"the interest amount has not reached 20 rDAI yet\");\n    // check whether or not the generated interest amount reached 20 rDAI\n    // require(rDAIContract.interestPayableOf(owner) >= hoodieCost, \"the interest amount has not reached 20 rDAI yet\");\n\n    require(user.isWaiting, \"user is not in the waiting list\");\n\n    require(_checkUserHatAndRDaiBalance(user.userAddress), \"user does not have the hoodie hat\");\n    require(rDAIContract.payInterest(owner), \"failded payInterest()\");\n    hoodieReceivers++;\n    emit IssuedFDH(user.userAddress);\n\n    require(_updateUserNumber(user.userAddress), \"falied to give hoodie to the nextInLine\");\n    // require(_updateNextInLine(), \"failded to update the next in line\");\n\n    recipientNumber++;\n    return true;\n  }\n\n  function switchDaiContractAddress(address daiContractAddress) public returns (bool) {\n    require(msg.sender == owner, \"only owner can invoke this function\");\n    DAIContract = IDai(daiContractAddress);\n    return true;\n  }\n\n  function switchRDaiContractAddress(address rDaiContractAddress) public returns (bool) {\n    require(msg.sender == owner, \"only owner can invoke this function\");\n    rDAIContract = IRToken(rDaiContractAddress);\n    return true;\n  }\n\n  ////////////////////////\n  // internal functions //\n  ////////////////////////\n\n  function _mintRDai(uint256 _depositAmount) internal returns (bool) {\n    // dapp transfer user's DAI to itself\n    require(DAIContract.transferFrom(msg.sender, address(this), _depositAmount), \"Transfer DAI to Hoodie contract failed\");\n    // dapp approves rDAI contract to transfer dapp's DAI\n    require(DAIContract.approve(address(rDAIContract), _depositAmount), \"approve() invalid\");\n    // dapp invoke mint() and get rDAI\n    require(rDAIContract.mintWithSelectedHat(_depositAmount, hatID), \"minting failed\");\n    // dapp transfer rDAI to user\n    require(rDAIContract.transferFrom(address(this), msg.sender, _depositAmount), \"Transfer rDAI to user failed\");\n    return true;\n  }\n\n  function _addUserToWaitingList(address _userAddress, uint256 _depositAmount) internal returns (bool) {\n    userNumbers[_userAddress] = totalUserNumber;\n    users[totalUserNumber] = User({\n      userAddress: _userAddress,\n      depositedAmount: _depositAmount,\n      isWaiting: true,\n      hasDeposited: true\n    });\n    totalUserNumber++;\n    return true;\n  }\n\n  function _topUpDAI(uint256 _depositAmount) internal returns (bool) {\n    uint256 userNumber = userNumbers[msg.sender];\n    User storage _user = users[userNumber];\n    _user.depositedAmount = _user.depositedAmount.add(_depositAmount);\n\n    if(_user.depositedAmount >= minimumDepositAmount && !_user.isWaiting) {\n      _user.isWaiting = true;\n    }\n    return true;\n  }\n\n  function _checkUserHatAndRDaiBalance(address _userAddress) internal view returns (bool) {\n    uint256 _userNumber = userNumbers[_userAddress];\n    User memory _user = users[_userNumber];\n\n    // 1. check whether or not a user has the hoodie hat\n    uint256 _userHatId;\n    address[] memory _recipientsFromUser;\n    uint32[] memory _proportionsFromUser;\n\n    (_userHatId, _recipientsFromUser, _proportionsFromUser) = rDAIContract.getHatByAddress(_userAddress);\n    \n    address _recipientFromUser = _recipientsFromUser[0];\n    uint32 _proportionFromUser = _proportionsFromUser[0];\n\n    require(_userHatId == hatID, \"user does not have the same hat as the hoodie contract's\");\n    require(_recipientFromUser == owner, \"No much with the owner address\");\n    require(_proportionFromUser == 2 ** 32 - 1, \"No much with the proportion\");\n    \n    // 2. check whether or not a user's rDAI balance is the same as hoodie contract's\n    uint256 _rDaiBalance = rDAIContract.balanceOf(_userAddress);\n    require(_rDaiBalance >= _user.depositedAmount, \"user's rDAI balance is smaller than the hoodie contract's\");\n\n    return true;\n  }\n\n  function _updateUserNumber(address _userAddress) internal returns (bool) {\n    uint256 _userNumber = userNumbers[_userAddress];\n    User memory _user = users[_userNumber];\n    users[totalUserNumber] = _user;\n    totalUserNumber++;\n    return true;\n  }\n\n  function _findRecipient() internal returns (bool) {\n    while(!users[recipientNumber].isWaiting) {\n      if(recipientNumber == totalUserNumber) {\n        require(rDAIContract.payInterest(owner), \"failded payInterest()\");\n        return false;\n      }\n      recipientNumber++;\n    }\n    return true;\n  }\n\n  // function _getNumberOfWaitingUsers() internal view returns (uint256) {\n  //   uint256 i = 0;\n  //   User memory _user;\n  //   uint256 _waitingNumber = 0;\n  //   for (i; i < waitingList.length; i++) {\n  //     _user = users[waitingList[i]];\n  //     if (_user.isWaiting) _waitingNumber++;\n  //   }\n  //   return _waitingNumber;\n  // }\n\n  // function _giveTheLastNumber() internal view returns (uint256) {\n  //   uint256 i = 0;\n  //   User memory _user;\n  //   uint256 _last = 0;\n  //   for (i; i < waitingList.length; i++) {\n  //     _user = users[waitingList[i]];\n  //     if (_user.waitingNumber >= _last && _user.isWaiting) {\n  //       _last = _user.waitingNumber.add(1);\n  //     }\n  //   }\n  //   return _last;\n  // }\n\n  // function _updateNextInLine() internal returns (bool) {\n  //   if (_getNumberOfWaitingUsers() == 0) {\n  //     nextInLine = address(0);\n  //     return true;\n  //   }\n\n  //   uint256 i = 0;\n  //   User memory _user;\n  //   uint256 _min = waitingList.length;\n  //   for (i; i < waitingList.length; i++) {\n  //     _user = users[waitingList[i]];\n  //     if (_user.isWaiting && _user.waitingNumber <= _min) {\n  //       _min = _user.waitingNumber;\n  //       nextInLine = waitingList[i];\n  //     }\n  //   }\n  //   return true;\n  // }\n}",
  "sourcePath": "/Users/khiga619/Sites/FlexDappHoodie/contracts/HoodieToken.sol",
  "compiler": {
    "name": "solc",
    "version": "0.5.8+commit.23d335f2.Emscripten.clang"
  },
  "schemaVersion": "3.0.16",
  "updatedAt": "2019-10-25T03:37:51.798Z",
  "devdoc": {
    "methods": {}
  },
  "userdoc": {
    "methods": {}
  }
}