{
  "contractName": "HoodieToken",
  "abi": [
    {
      "constant": true,
      "inputs": [],
      "name": "name",
      "outputs": [
        {
          "name": "",
          "type": "string"
        }
      ],
      "payable": false,
      "stateMutability": "view",
      "type": "function"
    },
    {
      "constant": true,
      "inputs": [],
      "name": "totalSupply",
      "outputs": [
        {
          "name": "",
          "type": "uint256"
        }
      ],
      "payable": false,
      "stateMutability": "view",
      "type": "function"
    },
    {
      "constant": true,
      "inputs": [],
      "name": "doChangeHat",
      "outputs": [
        {
          "name": "",
          "type": "bool"
        }
      ],
      "payable": false,
      "stateMutability": "view",
      "type": "function"
    },
    {
      "constant": true,
      "inputs": [],
      "name": "standard",
      "outputs": [
        {
          "name": "",
          "type": "string"
        }
      ],
      "payable": false,
      "stateMutability": "view",
      "type": "function"
    },
    {
      "constant": true,
      "inputs": [],
      "name": "proportion",
      "outputs": [
        {
          "name": "",
          "type": "uint32"
        }
      ],
      "payable": false,
      "stateMutability": "view",
      "type": "function"
    },
    {
      "constant": true,
      "inputs": [],
      "name": "hatID",
      "outputs": [
        {
          "name": "",
          "type": "uint256"
        }
      ],
      "payable": false,
      "stateMutability": "view",
      "type": "function"
    },
    {
      "constant": true,
      "inputs": [],
      "name": "recipient",
      "outputs": [
        {
          "name": "",
          "type": "address"
        }
      ],
      "payable": false,
      "stateMutability": "view",
      "type": "function"
    },
    {
      "constant": true,
      "inputs": [
        {
          "name": "",
          "type": "address"
        }
      ],
      "name": "balanceOf",
      "outputs": [
        {
          "name": "",
          "type": "uint256"
        }
      ],
      "payable": false,
      "stateMutability": "view",
      "type": "function"
    },
    {
      "constant": true,
      "inputs": [
        {
          "name": "",
          "type": "uint256"
        }
      ],
      "name": "proportions",
      "outputs": [
        {
          "name": "",
          "type": "uint32"
        }
      ],
      "payable": false,
      "stateMutability": "view",
      "type": "function"
    },
    {
      "constant": true,
      "inputs": [],
      "name": "owner",
      "outputs": [
        {
          "name": "",
          "type": "address"
        }
      ],
      "payable": false,
      "stateMutability": "view",
      "type": "function"
    },
    {
      "constant": true,
      "inputs": [],
      "name": "symbol",
      "outputs": [
        {
          "name": "",
          "type": "string"
        }
      ],
      "payable": false,
      "stateMutability": "view",
      "type": "function"
    },
    {
      "constant": true,
      "inputs": [
        {
          "name": "",
          "type": "uint256"
        }
      ],
      "name": "recipients",
      "outputs": [
        {
          "name": "",
          "type": "address"
        }
      ],
      "payable": false,
      "stateMutability": "view",
      "type": "function"
    },
    {
      "constant": true,
      "inputs": [
        {
          "name": "",
          "type": "address"
        },
        {
          "name": "",
          "type": "address"
        }
      ],
      "name": "allowance",
      "outputs": [
        {
          "name": "",
          "type": "uint256"
        }
      ],
      "payable": false,
      "stateMutability": "view",
      "type": "function"
    },
    {
      "inputs": [
        {
          "name": "_initialSupply",
          "type": "uint256"
        }
      ],
      "payable": false,
      "stateMutability": "nonpayable",
      "type": "constructor"
    },
    {
      "anonymous": false,
      "inputs": [
        {
          "indexed": true,
          "name": "_from",
          "type": "address"
        },
        {
          "indexed": true,
          "name": "_to",
          "type": "address"
        },
        {
          "indexed": false,
          "name": "_value",
          "type": "uint256"
        }
      ],
      "name": "Transfer",
      "type": "event"
    },
    {
      "anonymous": false,
      "inputs": [
        {
          "indexed": true,
          "name": "_owner",
          "type": "address"
        },
        {
          "indexed": true,
          "name": "_spender",
          "type": "address"
        },
        {
          "indexed": false,
          "name": "_value",
          "type": "uint256"
        }
      ],
      "name": "Approval",
      "type": "event"
    },
    {
      "constant": false,
      "inputs": [
        {
          "name": "_to",
          "type": "address"
        },
        {
          "name": "_value",
          "type": "uint256"
        }
      ],
      "name": "transfer",
      "outputs": [
        {
          "name": "success",
          "type": "bool"
        }
      ],
      "payable": false,
      "stateMutability": "nonpayable",
      "type": "function"
    },
    {
      "constant": false,
      "inputs": [
        {
          "name": "_spender",
          "type": "address"
        },
        {
          "name": "_value",
          "type": "uint256"
        }
      ],
      "name": "approve",
      "outputs": [
        {
          "name": "success",
          "type": "bool"
        }
      ],
      "payable": false,
      "stateMutability": "nonpayable",
      "type": "function"
    },
    {
      "constant": false,
      "inputs": [
        {
          "name": "_from",
          "type": "address"
        },
        {
          "name": "_to",
          "type": "address"
        },
        {
          "name": "_value",
          "type": "uint256"
        }
      ],
      "name": "transferFrom",
      "outputs": [
        {
          "name": "success",
          "type": "bool"
        }
      ],
      "payable": false,
      "stateMutability": "nonpayable",
      "type": "function"
    }
  ],
  "bytecode": "0x60806040526040518060400160405280601781526020017f466c657820446170707320486f6f64696520546f6b656e000000000000000000815250600090805190602001906200005192919062000633565b506040518060400160405280600381526020017f4644480000000000000000000000000000000000000000000000000000000000815250600190805190602001906200009f92919062000633565b506040518060400160405280600e81526020017f46444820546f6b656e2076312e3000000000000000000000000000000000000081525060029080519060200190620000ed92919062000633565b50736d7f0754ffeb405d23c51ce938289d4835be3b14600560006101000a81548173ffffffffffffffffffffffffffffffffffffffff021916908373ffffffffffffffffffffffffffffffffffffffff160217905550600560009054906101000a900473ffffffffffffffffffffffffffffffffffffffff16600660006101000a81548173ffffffffffffffffffffffffffffffffffffffff021916908373ffffffffffffffffffffffffffffffffffffffff160217905550734f3e18ceabe50e64b37142c9655b3bab44eff578600760006101000a81548173ffffffffffffffffffffffffffffffffffffffff021916908373ffffffffffffffffffffffffffffffffffffffff160217905550600760009054906101000a900473ffffffffffffffffffffffffffffffffffffffff16600860006101000a81548173ffffffffffffffffffffffffffffffffffffffff021916908373ffffffffffffffffffffffffffffffffffffffff160217905550732471e35f51cf54265b20ccfac3857c2dceef7349600d60006101000a81548173ffffffffffffffffffffffffffffffffffffffff021916908373ffffffffffffffffffffffffffffffffffffffff1602179055506064600d60146101000a81548163ffffffff021916908363ffffffff1602179055506040518060200160405280600d60009054906101000a900473ffffffffffffffffffffffffffffffffffffffff1673ffffffffffffffffffffffffffffffffffffffff1673ffffffffffffffffffffffffffffffffffffffff16815250600e90600162000344929190620006ba565b506040518060200160405280600d60149054906101000a900463ffffffff1663ffffffff1663ffffffff16815250600f9060016200038492919062000749565b506000601060006101000a81548160ff021916908315150217905550348015620003ad57600080fd5b50604051602080620018d283398101806040526020811015620003cf57600080fd5b810190808051906020019092919050505033600460006101000a81548173ffffffffffffffffffffffffffffffffffffffff021916908373ffffffffffffffffffffffffffffffffffffffff1602179055508060038190555080600960003373ffffffffffffffffffffffffffffffffffffffff1673ffffffffffffffffffffffffffffffffffffffff16815260200190815260200160002081905550600860009054906101000a900473ffffffffffffffffffffffffffffffffffffffff1673ffffffffffffffffffffffffffffffffffffffff16635cde5055600e600f601060009054906101000a900460ff166040518463ffffffff1660e01b81526004018080602001806020018415151515815260200183810383528681815481526020019150805480156200055857602002820191906000526020600020905b8160009054906101000a900473ffffffffffffffffffffffffffffffffffffffff1673ffffffffffffffffffffffffffffffffffffffff16815260200190600101908083116200050d575b50508381038252858181548152602001915080548015620005c557602002820191906000526020600020906000905b82829054906101000a900463ffffffff1663ffffffff1681526020019060040190602082600301049283019260010382029150808411620005875790505b505095505050505050602060405180830381600087803b158015620005e957600080fd5b505af1158015620005fe573d6000803e3d6000fd5b505050506040513d60208110156200061557600080fd5b8101908080519060200190929190505050600c8190555050620008a4565b828054600181600116156101000203166002900490600052602060002090601f016020900481019282601f106200067657805160ff1916838001178555620006a7565b82800160010185558215620006a7579182015b82811115620006a657825182559160200191906001019062000689565b5b509050620006b6919062000800565b5090565b82805482825590600052602060002090810192821562000736579160200282015b82811115620007355782518260006101000a81548173ffffffffffffffffffffffffffffffffffffffff021916908373ffffffffffffffffffffffffffffffffffffffff16021790555091602001919060010190620006db565b5b50905062000745919062000828565b5090565b82805482825590600052602060002090600701600890048101928215620007ed5791602002820160005b83821115620007b957835183826101000a81548163ffffffff021916908363ffffffff160217905550926020019260040160208160030104928301926001030262000773565b8015620007eb5782816101000a81549063ffffffff0219169055600401602081600301049283019260010302620007b9565b505b509050620007fc91906200086e565b5090565b6200082591905b808211156200082157600081600090555060010162000807565b5090565b90565b6200086b91905b808211156200086757600081816101000a81549073ffffffffffffffffffffffffffffffffffffffff0219169055506001016200082f565b5090565b90565b620008a191905b808211156200089d57600081816101000a81549063ffffffff02191690555060010162000875565b5090565b90565b61101e80620008b46000396000f3fe608060405234801561001057600080fd5b50600436106101005760003560e01c806366d003ac1161009757806395d89b411161006657806395d89b41146104b9578063a9059cbb1461053c578063d1bc76a1146105a2578063dd62ed3e1461061057610100565b806366d003ac1461037f57806370a08231146103c9578063826518c9146104215780638da5cb5b1461046f57610100565b8063399f94af116100d3578063399f94af146102925780635a3b7e42146102b45780635b4246d4146103375780635dce1c5b1461036157610100565b806306fdde0314610105578063095ea7b31461018857806318160ddd146101ee57806323b872dd1461020c575b600080fd5b61010d610688565b6040518080602001828103825283818151815260200191508051906020019080838360005b8381101561014d578082015181840152602081019050610132565b50505050905090810190601f16801561017a5780820380516001836020036101000a031916815260200191505b509250505060405180910390f35b6101d46004803603604081101561019e57600080fd5b81019080803573ffffffffffffffffffffffffffffffffffffffff16906020019092919080359060200190929190505050610726565b604051808215151515815260200191505060405180910390f35b6101f6610818565b6040518082815260200191505060405180910390f35b6102786004803603606081101561022257600080fd5b81019080803573ffffffffffffffffffffffffffffffffffffffff169060200190929190803573ffffffffffffffffffffffffffffffffffffffff1690602001909291908035906020019092919050505061081e565b604051808215151515815260200191505060405180910390f35b61029a610b21565b604051808215151515815260200191505060405180910390f35b6102bc610b34565b6040518080602001828103825283818151815260200191508051906020019080838360005b838110156102fc5780820151818401526020810190506102e1565b50505050905090810190601f1680156103295780820380516001836020036101000a031916815260200191505b509250505060405180910390f35b61033f610bd2565b604051808263ffffffff1663ffffffff16815260200191505060405180910390f35b610369610be8565b6040518082815260200191505060405180910390f35b610387610bee565b604051808273ffffffffffffffffffffffffffffffffffffffff1673ffffffffffffffffffffffffffffffffffffffff16815260200191505060405180910390f35b61040b600480360360208110156103df57600080fd5b81019080803573ffffffffffffffffffffffffffffffffffffffff169060200190929190505050610c14565b6040518082815260200191505060405180910390f35b61044d6004803603602081101561043757600080fd5b8101908080359060200190929190505050610c2c565b604051808263ffffffff1663ffffffff16815260200191505060405180910390f35b610477610c63565b604051808273ffffffffffffffffffffffffffffffffffffffff1673ffffffffffffffffffffffffffffffffffffffff16815260200191505060405180910390f35b6104c1610c89565b6040518080602001828103825283818151815260200191508051906020019080838360005b838110156105015780820151818401526020810190506104e6565b50505050905090810190601f16801561052e5780820380516001836020036101000a031916815260200191505b509250505060405180910390f35b6105886004803603604081101561055257600080fd5b81019080803573ffffffffffffffffffffffffffffffffffffffff16906020019092919080359060200190929190505050610d27565b604051808215151515815260200191505060405180910390f35b6105ce600480360360208110156105b857600080fd5b8101908080359060200190929190505050610eca565b604051808273ffffffffffffffffffffffffffffffffffffffff1673ffffffffffffffffffffffffffffffffffffffff16815260200191505060405180910390f35b6106726004803603604081101561062657600080fd5b81019080803573ffffffffffffffffffffffffffffffffffffffff169060200190929190803573ffffffffffffffffffffffffffffffffffffffff169060200190929190505050610f06565b6040518082815260200191505060405180910390f35b60008054600181600116156101000203166002900480601f01602080910402602001604051908101604052809291908181526020018280546001816001161561010002031660029004801561071e5780601f106106f35761010080835404028352916020019161071e565b820191906000526020600020905b81548152906001019060200180831161070157829003601f168201915b505050505081565b600081600a60003373ffffffffffffffffffffffffffffffffffffffff1673ffffffffffffffffffffffffffffffffffffffff16815260200190815260200160002060008573ffffffffffffffffffffffffffffffffffffffff1673ffffffffffffffffffffffffffffffffffffffff168152602001908152602001600020819055508273ffffffffffffffffffffffffffffffffffffffff163373ffffffffffffffffffffffffffffffffffffffff167f8c5be1e5ebec7d5bd14f71427d1e84f3dd0314c0f7b2291e5b200ac8c7c3b925846040518082815260200191505060405180910390a36001905092915050565b60035481565b6000600960008573ffffffffffffffffffffffffffffffffffffffff1673ffffffffffffffffffffffffffffffffffffffff168152602001908152602001600020548211156108b8576040517f08c379a0000000000000000000000000000000000000000000000000000000008152600401808060200182810382526040815260200180610f646040913960400191505060405180910390fd5b600a60008573ffffffffffffffffffffffffffffffffffffffff1673ffffffffffffffffffffffffffffffffffffffff16815260200190815260200160002060003373ffffffffffffffffffffffffffffffffffffffff1673ffffffffffffffffffffffffffffffffffffffff1681526020019081526020016000205482111561098d576040517f08c379a000000000000000000000000000000000000000000000000000000000815260040180806020018281038252604f815260200180610fa4604f913960600191505060405180910390fd5b81600960008673ffffffffffffffffffffffffffffffffffffffff1673ffffffffffffffffffffffffffffffffffffffff1681526020019081526020016000206000828254039250508190555081600960008573ffffffffffffffffffffffffffffffffffffffff1673ffffffffffffffffffffffffffffffffffffffff1681526020019081526020016000206000828254019250508190555081600a60008673ffffffffffffffffffffffffffffffffffffffff1673ffffffffffffffffffffffffffffffffffffffff16815260200190815260200160002060003373ffffffffffffffffffffffffffffffffffffffff1673ffffffffffffffffffffffffffffffffffffffff168152602001908152602001600020600082825403925050819055508273ffffffffffffffffffffffffffffffffffffffff168473ffffffffffffffffffffffffffffffffffffffff167fddf252ad1be2c89b69c2b068fc378daa952ba7f163c4a11628f55a4df523b3ef846040518082815260200191505060405180910390a3600190509392505050565b601060009054906101000a900460ff1681565b60028054600181600116156101000203166002900480601f016020809104026020016040519081016040528092919081815260200182805460018160011615610100020316600290048015610bca5780601f10610b9f57610100808354040283529160200191610bca565b820191906000526020600020905b815481529060010190602001808311610bad57829003601f168201915b505050505081565b600d60149054906101000a900463ffffffff1681565b600c5481565b600d60009054906101000a900473ffffffffffffffffffffffffffffffffffffffff1681565b60096020528060005260406000206000915090505481565b600f8181548110610c3957fe5b9060005260206000209060089182820401919006600402915054906101000a900463ffffffff1681565b600460009054906101000a900473ffffffffffffffffffffffffffffffffffffffff1681565b60018054600181600116156101000203166002900480601f016020809104026020016040519081016040528092919081815260200182805460018160011615610100020316600290048015610d1f5780601f10610cf457610100808354040283529160200191610d1f565b820191906000526020600020905b815481529060010190602001808311610d0257829003601f168201915b505050505081565b600081600960003373ffffffffffffffffffffffffffffffffffffffff1673ffffffffffffffffffffffffffffffffffffffff168152602001908152602001600020541015610dc1576040517f08c379a0000000000000000000000000000000000000000000000000000000008152600401808060200182810382526038815260200180610f2c6038913960400191505060405180910390fd5b81600960003373ffffffffffffffffffffffffffffffffffffffff1673ffffffffffffffffffffffffffffffffffffffff1681526020019081526020016000206000828254039250508190555081600960008573ffffffffffffffffffffffffffffffffffffffff1673ffffffffffffffffffffffffffffffffffffffff168152602001908152602001600020600082825401925050819055508273ffffffffffffffffffffffffffffffffffffffff163373ffffffffffffffffffffffffffffffffffffffff167fddf252ad1be2c89b69c2b068fc378daa952ba7f163c4a11628f55a4df523b3ef846040518082815260200191505060405180910390a36001905092915050565b600e8181548110610ed757fe5b906000526020600020016000915054906101000a900473ffffffffffffffffffffffffffffffffffffffff1681565b600a60205281600052604060002060205280600052604060002060009150915050548156fe5468652076616c75652073686f756c6420626520736d616c6c6572207468616e206f7220657175616c20746f207468652062616c616e63655468652076616c75652073686f756c6420626520736d616c6c6572207468616e206f7220657175616c20746f20746865206f776e657227732062616c616e63655468652076616c75652073686f756c6420626520736d616c6c6572207468616e206f7220657175616c20746f207468652062616c616e6365207468617420746865206f776e657220616c6c6f776564a165627a7a723058203b90eb91b6105d2686f298d65cde7f45e51e6515002a6f760acadc2d774b6bc40029",
  "source": "pragma solidity ^0.5.0;\nimport \"openzeppelin-solidity/contracts/token/ERC20/IERC20.sol\";\nimport \"./ICErc20.sol\";\nimport \"./IRToken.sol\";\n\ncontract HoodieToken {\n  // Basic set up for FDH\n  string public name = \"Flex Dapps Hoodie Token\";\n  string public symbol = \"FDH\";\n  string public standard = \"FDH Token v1.0\";\n  uint public totalSupply;\n  address public owner;\n\n  // Instantiate cDAIContract with cDAI address on rinkeby\n  address cDAIAddress = 0x6D7F0754FFeb405d23C51CE938289d4835bE3b14;\n  ICErc20 cDAIContract = ICErc20(cDAIAddress);\n\n  //  Instantiate rDAIContract with rDAI address on rinkeby\n  address rDAIAddress = 0x4f3E18CEAbe50E64B37142c9655b3baB44eFF578;\n  IRToken rDAIContract = IRToken(rDAIAddress);\n\n  // events\n  event Transfer(address indexed _from, address indexed _to, uint _value);\n  event Approval(address indexed _owner, address indexed _spender, uint _value);\n\n  // number of FDH\n  mapping(address => uint) public balanceOf;\n  mapping(address => mapping(address => uint)) public allowance;\n  mapping(address => uint256) depositedAmount;\n\n  // Hat variables\n  uint256 public hatID;\n  address public recipient = 0x2471e35F51CF54265B20cCFAc3857c2DceEf7349;\n  uint32 public proportion = 100;\n  address[] public recipients = [recipient];\n  uint32[] public proportions = [proportion];\n  bool public doChangeHat = false;\n\n  constructor(uint _initialSupply) public {\n    owner = msg.sender;\n    totalSupply = _initialSupply;\n    balanceOf[msg.sender] = _initialSupply;\n    hatID = rDAIContract.createHat(recipients, proportions, doChangeHat);\n  }\n\n  function transfer(address _to, uint _value) public returns (bool success) {\n    require(balanceOf[msg.sender] >= _value, \"The value should be smaller than or equal to the balance\");\n    balanceOf[msg.sender] -= _value;\n    balanceOf[_to] += _value;\n    emit Transfer(msg.sender, _to, _value);\n    return true;\n  }\n\n  function approve(address _spender, uint _value) public returns (bool success) {\n    allowance[msg.sender][_spender] = _value;\n    emit Approval(msg.sender, _spender, _value);\n    return true;\n  }\n\n  function transferFrom(address _from, address _to, uint _value) public returns (bool success) {\n    require(_value <= balanceOf[_from], \"The value should be smaller than or equal to the owner's balance\");\n    require(_value <= allowance[_from][msg.sender], \"The value should be smaller than or equal to the balance that the owner allowed\");\n    balanceOf[_from] -= _value;\n    balanceOf[_to] += _value;\n    allowance[_from][msg.sender] -= _value;\n    emit Transfer(_from, _to, _value);\n    return true;\n  }\n\n  // function deposit(uint depositAmount) public returns (bool success) {\n  //   require(depositAmount <= DAIContract.balance)\n  // }\n}",
  "sourcePath": "/Users/khiga619/Sites/FlexDappHoodie/contracts/HoodieToken.sol",
  "compiler": {
    "name": "solc",
    "version": "0.5.8+commit.23d335f2.Emscripten.clang"
  },
  "schemaVersion": "3.0.16",
  "updatedAt": "2019-10-11T03:13:20.941Z",
  "devdoc": {
    "methods": {}
  },
  "userdoc": {
    "methods": {}
  }
}