{
  "contractName": "HoodieToken",
  "abi": [
    {
      "constant": true,
      "inputs": [],
      "name": "name",
      "outputs": [
        {
          "name": "",
          "type": "string"
        }
      ],
      "payable": false,
      "stateMutability": "view",
      "type": "function"
    },
    {
      "constant": true,
      "inputs": [],
      "name": "minimumDepositAmount",
      "outputs": [
        {
          "name": "",
          "type": "uint256"
        }
      ],
      "payable": false,
      "stateMutability": "view",
      "type": "function"
    },
    {
      "constant": false,
      "inputs": [
        {
          "name": "spender",
          "type": "address"
        },
        {
          "name": "value",
          "type": "uint256"
        }
      ],
      "name": "approve",
      "outputs": [
        {
          "name": "",
          "type": "bool"
        }
      ],
      "payable": false,
      "stateMutability": "nonpayable",
      "type": "function"
    },
    {
      "constant": true,
      "inputs": [],
      "name": "totalSupply",
      "outputs": [
        {
          "name": "",
          "type": "uint256"
        }
      ],
      "payable": false,
      "stateMutability": "view",
      "type": "function"
    },
    {
      "constant": false,
      "inputs": [
        {
          "name": "sender",
          "type": "address"
        },
        {
          "name": "recipient",
          "type": "address"
        },
        {
          "name": "amount",
          "type": "uint256"
        }
      ],
      "name": "transferFrom",
      "outputs": [
        {
          "name": "",
          "type": "bool"
        }
      ],
      "payable": false,
      "stateMutability": "nonpayable",
      "type": "function"
    },
    {
      "constant": true,
      "inputs": [],
      "name": "rDAIContract",
      "outputs": [
        {
          "name": "",
          "type": "address"
        }
      ],
      "payable": false,
      "stateMutability": "view",
      "type": "function"
    },
    {
      "constant": true,
      "inputs": [],
      "name": "decimals",
      "outputs": [
        {
          "name": "",
          "type": "uint8"
        }
      ],
      "payable": false,
      "stateMutability": "view",
      "type": "function"
    },
    {
      "constant": false,
      "inputs": [
        {
          "name": "spender",
          "type": "address"
        },
        {
          "name": "addedValue",
          "type": "uint256"
        }
      ],
      "name": "increaseAllowance",
      "outputs": [
        {
          "name": "",
          "type": "bool"
        }
      ],
      "payable": false,
      "stateMutability": "nonpayable",
      "type": "function"
    },
    {
      "constant": true,
      "inputs": [],
      "name": "doChangeHat",
      "outputs": [
        {
          "name": "",
          "type": "bool"
        }
      ],
      "payable": false,
      "stateMutability": "view",
      "type": "function"
    },
    {
      "constant": true,
      "inputs": [],
      "name": "DAIContract",
      "outputs": [
        {
          "name": "",
          "type": "address"
        }
      ],
      "payable": false,
      "stateMutability": "view",
      "type": "function"
    },
    {
      "constant": true,
      "inputs": [],
      "name": "waitingUserNumber",
      "outputs": [
        {
          "name": "",
          "type": "uint256"
        }
      ],
      "payable": false,
      "stateMutability": "view",
      "type": "function"
    },
    {
      "constant": true,
      "inputs": [],
      "name": "proportion",
      "outputs": [
        {
          "name": "",
          "type": "uint32"
        }
      ],
      "payable": false,
      "stateMutability": "view",
      "type": "function"
    },
    {
      "constant": true,
      "inputs": [],
      "name": "hatID",
      "outputs": [
        {
          "name": "",
          "type": "uint256"
        }
      ],
      "payable": false,
      "stateMutability": "view",
      "type": "function"
    },
    {
      "constant": true,
      "inputs": [],
      "name": "recipient",
      "outputs": [
        {
          "name": "",
          "type": "address"
        }
      ],
      "payable": false,
      "stateMutability": "view",
      "type": "function"
    },
    {
      "constant": true,
      "inputs": [
        {
          "name": "account",
          "type": "address"
        }
      ],
      "name": "balanceOf",
      "outputs": [
        {
          "name": "",
          "type": "uint256"
        }
      ],
      "payable": false,
      "stateMutability": "view",
      "type": "function"
    },
    {
      "constant": false,
      "inputs": [],
      "name": "renounceOwnership",
      "outputs": [],
      "payable": false,
      "stateMutability": "nonpayable",
      "type": "function"
    },
    {
      "constant": true,
      "inputs": [
        {
          "name": "",
          "type": "uint256"
        }
      ],
      "name": "proportions",
      "outputs": [
        {
          "name": "",
          "type": "uint32"
        }
      ],
      "payable": false,
      "stateMutability": "view",
      "type": "function"
    },
    {
      "constant": true,
      "inputs": [],
      "name": "owner",
      "outputs": [
        {
          "name": "",
          "type": "address"
        }
      ],
      "payable": false,
      "stateMutability": "view",
      "type": "function"
    },
    {
      "constant": true,
      "inputs": [],
      "name": "isOwner",
      "outputs": [
        {
          "name": "",
          "type": "bool"
        }
      ],
      "payable": false,
      "stateMutability": "view",
      "type": "function"
    },
    {
      "constant": true,
      "inputs": [],
      "name": "symbol",
      "outputs": [
        {
          "name": "",
          "type": "string"
        }
      ],
      "payable": false,
      "stateMutability": "view",
      "type": "function"
    },
    {
      "constant": false,
      "inputs": [
        {
          "name": "spender",
          "type": "address"
        },
        {
          "name": "subtractedValue",
          "type": "uint256"
        }
      ],
      "name": "decreaseAllowance",
      "outputs": [
        {
          "name": "",
          "type": "bool"
        }
      ],
      "payable": false,
      "stateMutability": "nonpayable",
      "type": "function"
    },
    {
      "constant": false,
      "inputs": [
        {
          "name": "recipient",
          "type": "address"
        },
        {
          "name": "amount",
          "type": "uint256"
        }
      ],
      "name": "transfer",
      "outputs": [
        {
          "name": "",
          "type": "bool"
        }
      ],
      "payable": false,
      "stateMutability": "nonpayable",
      "type": "function"
    },
    {
      "constant": true,
      "inputs": [],
      "name": "hoodieCost",
      "outputs": [
        {
          "name": "",
          "type": "uint256"
        }
      ],
      "payable": false,
      "stateMutability": "view",
      "type": "function"
    },
    {
      "constant": true,
      "inputs": [
        {
          "name": "",
          "type": "uint256"
        }
      ],
      "name": "recipients",
      "outputs": [
        {
          "name": "",
          "type": "address"
        }
      ],
      "payable": false,
      "stateMutability": "view",
      "type": "function"
    },
    {
      "constant": true,
      "inputs": [
        {
          "name": "owner",
          "type": "address"
        },
        {
          "name": "spender",
          "type": "address"
        }
      ],
      "name": "allowance",
      "outputs": [
        {
          "name": "",
          "type": "uint256"
        }
      ],
      "payable": false,
      "stateMutability": "view",
      "type": "function"
    },
    {
      "constant": true,
      "inputs": [
        {
          "name": "",
          "type": "uint256"
        }
      ],
      "name": "waitingList",
      "outputs": [
        {
          "name": "userAddress",
          "type": "address"
        },
        {
          "name": "userNumber",
          "type": "uint256"
        },
        {
          "name": "depositedAmount",
          "type": "uint256"
        },
        {
          "name": "isWaiting",
          "type": "bool"
        }
      ],
      "payable": false,
      "stateMutability": "view",
      "type": "function"
    },
    {
      "constant": true,
      "inputs": [],
      "name": "nextRecipientNumber",
      "outputs": [
        {
          "name": "",
          "type": "uint256"
        }
      ],
      "payable": false,
      "stateMutability": "view",
      "type": "function"
    },
    {
      "constant": false,
      "inputs": [
        {
          "name": "newOwner",
          "type": "address"
        }
      ],
      "name": "transferOwnership",
      "outputs": [],
      "payable": false,
      "stateMutability": "nonpayable",
      "type": "function"
    },
    {
      "inputs": [
        {
          "name": "initialSupply",
          "type": "uint256"
        }
      ],
      "payable": false,
      "stateMutability": "nonpayable",
      "type": "constructor"
    },
    {
      "anonymous": false,
      "inputs": [
        {
          "indexed": false,
          "name": "user",
          "type": "address"
        },
        {
          "indexed": false,
          "name": "depositedAmount",
          "type": "uint256"
        }
      ],
      "name": "UserPushedIntoWaitingList",
      "type": "event"
    },
    {
      "anonymous": false,
      "inputs": [
        {
          "indexed": false,
          "name": "recipientOfHoodie",
          "type": "address"
        }
      ],
      "name": "IssuedFDH",
      "type": "event"
    },
    {
      "anonymous": false,
      "inputs": [
        {
          "indexed": true,
          "name": "previousOwner",
          "type": "address"
        },
        {
          "indexed": true,
          "name": "newOwner",
          "type": "address"
        }
      ],
      "name": "OwnershipTransferred",
      "type": "event"
    },
    {
      "anonymous": false,
      "inputs": [
        {
          "indexed": true,
          "name": "from",
          "type": "address"
        },
        {
          "indexed": true,
          "name": "to",
          "type": "address"
        },
        {
          "indexed": false,
          "name": "value",
          "type": "uint256"
        }
      ],
      "name": "Transfer",
      "type": "event"
    },
    {
      "anonymous": false,
      "inputs": [
        {
          "indexed": true,
          "name": "owner",
          "type": "address"
        },
        {
          "indexed": true,
          "name": "spender",
          "type": "address"
        },
        {
          "indexed": false,
          "name": "value",
          "type": "uint256"
        }
      ],
      "name": "Approval",
      "type": "event"
    },
    {
      "constant": false,
      "inputs": [
        {
          "name": "depositAmount",
          "type": "uint256"
        }
      ],
      "name": "mintRDaiAndPushUserToWaitingList",
      "outputs": [
        {
          "name": "",
          "type": "bool"
        }
      ],
      "payable": false,
      "stateMutability": "nonpayable",
      "type": "function"
    },
    {
      "constant": false,
      "inputs": [],
      "name": "issueFDH",
      "outputs": [
        {
          "name": "",
          "type": "bool"
        }
      ],
      "payable": false,
      "stateMutability": "nonpayable",
      "type": "function"
    },
    {
      "constant": false,
      "inputs": [
        {
          "name": "_daiContractAddress",
          "type": "address"
        }
      ],
      "name": "_setNewDaiContractInstance",
      "outputs": [
        {
          "name": "",
          "type": "bool"
        }
      ],
      "payable": false,
      "stateMutability": "nonpayable",
      "type": "function"
    },
    {
      "constant": false,
      "inputs": [
        {
          "name": "_rDaiContractAddress",
          "type": "address"
        }
      ],
      "name": "_setNewRDaiContractInstance",
      "outputs": [
        {
          "name": "",
          "type": "bool"
        }
      ],
      "payable": false,
      "stateMutability": "nonpayable",
      "type": "function"
    }
  ],
  "bytecode": "0x608060405262000014620005c260201b60201c565b600960006101000a81548173ffffffffffffffffffffffffffffffffffffffff021916908373ffffffffffffffffffffffffffffffffffffffff1602179055506064600960146101000a81548163ffffffff021916908363ffffffff1602179055506040518060200160405280600960009054906101000a900473ffffffffffffffffffffffffffffffffffffffff1673ffffffffffffffffffffffffffffffffffffffff1673ffffffffffffffffffffffffffffffffffffffff16815250600a906001620000e59291906200083f565b506040518060200160405280600960149054906101000a900463ffffffff1663ffffffff1663ffffffff16815250600b90600162000125929190620008ce565b506000600c60006101000a81548160ff0219169083151502179055506000600e556000600f553480156200015857600080fd5b506040516020806200321e833981018060405260208110156200017a57600080fd5b81019080805190602001909291905050506040518060400160405280601781526020017f466c657820446170707320486f6f64696520546f6b656e0000000000000000008152506040518060400160405280600381526020017f4644480000000000000000000000000000000000000000000000000000000000815250601282600390805190602001906200021192919062000985565b5081600490805190602001906200022a92919062000985565b5080600560006101000a81548160ff021916908360ff16021790555050505033600560016101000a81548173ffffffffffffffffffffffffffffffffffffffff021916908373ffffffffffffffffffffffffffffffffffffffff160217905550600560019054906101000a900473ffffffffffffffffffffffffffffffffffffffff1673ffffffffffffffffffffffffffffffffffffffff16600073ffffffffffffffffffffffffffffffffffffffff167f8be0079c531659141344cd1fd0a4f28419497f9722a3daafe3b4186f6b6457e060405160405180910390a3735592ec0cfb4dbc12d3ab100b257153436a1f0fea600660006101000a81548173ffffffffffffffffffffffffffffffffffffffff021916908373ffffffffffffffffffffffffffffffffffffffff16021790555073b0c72645268e95696f5b6f40aa5b12e1ebdc8a5a600760006101000a81548173ffffffffffffffffffffffffffffffffffffffff021916908373ffffffffffffffffffffffffffffffffffffffff160217905550600760009054906101000a900473ffffffffffffffffffffffffffffffffffffffff1673ffffffffffffffffffffffffffffffffffffffff16635cde5055600a600b600c60009054906101000a900460ff166040518463ffffffff1660e01b81526004018080602001806020018415151515815260200183810383528681815481526020019150805480156200049d57602002820191906000526020600020905b8160009054906101000a900473ffffffffffffffffffffffffffffffffffffffff1673ffffffffffffffffffffffffffffffffffffffff168152602001906001019080831162000452575b505083810382528581815481526020019150805480156200050a57602002820191906000526020600020906000905b82829054906101000a900463ffffffff1663ffffffff1681526020019060040190602082600301049283019260010382029150808411620004cc5790505b505095505050505050602060405180830381600087803b1580156200052e57600080fd5b505af115801562000543573d6000803e3d6000fd5b505050506040513d60208110156200055a57600080fd5b81019080805190602001909291905050506008819055506200059c62000585620005c260201b60201c565b670de0b6b3a76400008302620005ec60201b60201c565b670de0b6b3a7640000600d819055506801158e460913d000006010819055505062000ab0565b6000600560019054906101000a900473ffffffffffffffffffffffffffffffffffffffff16905090565b600073ffffffffffffffffffffffffffffffffffffffff168273ffffffffffffffffffffffffffffffffffffffff16141562000690576040517f08c379a000000000000000000000000000000000000000000000000000000000815260040180806020018281038252601f8152602001807f45524332303a206d696e7420746f20746865207a65726f20616464726573730081525060200191505060405180910390fd5b620006ac81600254620007b660201b620024241790919060201c565b6002819055506200070a816000808573ffffffffffffffffffffffffffffffffffffffff1673ffffffffffffffffffffffffffffffffffffffff16815260200190815260200160002054620007b660201b620024241790919060201c565b6000808473ffffffffffffffffffffffffffffffffffffffff1673ffffffffffffffffffffffffffffffffffffffff168152602001908152602001600020819055508173ffffffffffffffffffffffffffffffffffffffff16600073ffffffffffffffffffffffffffffffffffffffff167fddf252ad1be2c89b69c2b068fc378daa952ba7f163c4a11628f55a4df523b3ef836040518082815260200191505060405180910390a35050565b60008082840190508381101562000835576040517f08c379a000000000000000000000000000000000000000000000000000000000815260040180806020018281038252601b8152602001807f536166654d6174683a206164646974696f6e206f766572666c6f77000000000081525060200191505060405180910390fd5b8091505092915050565b828054828255906000526020600020908101928215620008bb579160200282015b82811115620008ba5782518260006101000a81548173ffffffffffffffffffffffffffffffffffffffff021916908373ffffffffffffffffffffffffffffffffffffffff1602179055509160200191906001019062000860565b5b509050620008ca919062000a0c565b5090565b82805482825590600052602060002090600701600890048101928215620009725791602002820160005b838211156200093e57835183826101000a81548163ffffffff021916908363ffffffff1602179055509260200192600401602081600301049283019260010302620008f8565b8015620009705782816101000a81549063ffffffff02191690556004016020816003010492830192600103026200093e565b505b50905062000981919062000a52565b5090565b828054600181600116156101000203166002900490600052602060002090601f016020900481019282601f10620009c857805160ff1916838001178555620009f9565b82800160010185558215620009f9579182015b82811115620009f8578251825591602001919060010190620009db565b5b50905062000a08919062000a88565b5090565b62000a4f91905b8082111562000a4b57600081816101000a81549073ffffffffffffffffffffffffffffffffffffffff02191690555060010162000a13565b5090565b90565b62000a8591905b8082111562000a8157600081816101000a81549063ffffffff02191690555060010162000a59565b5090565b90565b62000aad91905b8082111562000aa957600081600090555060010162000a8f565b5090565b90565b61275e8062000ac06000396000f3fe608060405234801561001057600080fd5b50600436106101f05760003560e01c806370a082311161010f578063a9059cbb116100a2578063e0f4b0ce11610071578063e0f4b0ce146109d9578063e7a20f3f14610a1f578063ebf9030214610aa6578063f2fde38b14610ac4576101f0565b8063a9059cbb1461086f578063c005c01b146108d5578063d1bc76a1146108f3578063dd62ed3e14610961576101f0565b80638da5cb5b116100de5780638da5cb5b1461071a5780638f32d59b1461076457806395d89b4114610786578063a457c2d714610809576101f0565b806370a082311461060e578063715018a614610666578063813f5d2414610670578063826518c9146106cc576101f0565b806339509351116101875780634f5af529116101565780634f5af529146105205780635b4246d41461057c5780635dce1c5b146105a657806366d003ac146105c4576101f0565b80633950935114610430578063399f94af146104965780633c0f5fbe146104b8578063450946f414610502576101f0565b806323b872dd116101c357806323b872dd1461031a5780632f048d5d146103a0578063313ce567146103ea578063323b1a8d1461040e576101f0565b806306fdde03146101f5578063080c279a14610278578063095ea7b31461029657806318160ddd146102fc575b600080fd5b6101fd610b08565b6040518080602001828103825283818151815260200191508051906020019080838360005b8381101561023d578082015181840152602081019050610222565b50505050905090810190601f16801561026a5780820380516001836020036101000a031916815260200191505b509250505060405180910390f35b610280610baa565b6040518082815260200191505060405180910390f35b6102e2600480360360408110156102ac57600080fd5b81019080803573ffffffffffffffffffffffffffffffffffffffff16906020019092919080359060200190929190505050610bb0565b604051808215151515815260200191505060405180910390f35b610304610bc7565b6040518082815260200191505060405180910390f35b6103866004803603606081101561033057600080fd5b81019080803573ffffffffffffffffffffffffffffffffffffffff169060200190929190803573ffffffffffffffffffffffffffffffffffffffff16906020019092919080359060200190929190505050610bd1565b604051808215151515815260200191505060405180910390f35b6103a8610c82565b604051808273ffffffffffffffffffffffffffffffffffffffff1673ffffffffffffffffffffffffffffffffffffffff16815260200191505060405180910390f35b6103f2610ca8565b604051808260ff1660ff16815260200191505060405180910390f35b610416610cbf565b604051808215151515815260200191505060405180910390f35b61047c6004803603604081101561044657600080fd5b81019080803573ffffffffffffffffffffffffffffffffffffffff16906020019092919080359060200190929190505050610fbd565b604051808215151515815260200191505060405180910390f35b61049e611062565b604051808215151515815260200191505060405180910390f35b6104c0611075565b604051808273ffffffffffffffffffffffffffffffffffffffff1673ffffffffffffffffffffffffffffffffffffffff16815260200191505060405180910390f35b61050a61109b565b6040518082815260200191505060405180910390f35b6105626004803603602081101561053657600080fd5b81019080803573ffffffffffffffffffffffffffffffffffffffff1690602001909291905050506110a1565b604051808215151515815260200191505060405180910390f35b610584611167565b604051808263ffffffff1663ffffffff16815260200191505060405180910390f35b6105ae61117d565b6040518082815260200191505060405180910390f35b6105cc611183565b604051808273ffffffffffffffffffffffffffffffffffffffff1673ffffffffffffffffffffffffffffffffffffffff16815260200191505060405180910390f35b6106506004803603602081101561062457600080fd5b81019080803573ffffffffffffffffffffffffffffffffffffffff1690602001909291905050506111a9565b6040518082815260200191505060405180910390f35b61066e6111f1565b005b6106b26004803603602081101561068657600080fd5b81019080803573ffffffffffffffffffffffffffffffffffffffff16906020019092919050505061132c565b604051808215151515815260200191505060405180910390f35b6106f8600480360360208110156106e257600080fd5b81019080803590602001909291905050506113f2565b604051808263ffffffff1663ffffffff16815260200191505060405180910390f35b610722611429565b604051808273ffffffffffffffffffffffffffffffffffffffff1673ffffffffffffffffffffffffffffffffffffffff16815260200191505060405180910390f35b61076c611453565b604051808215151515815260200191505060405180910390f35b61078e6114ab565b6040518080602001828103825283818151815260200191508051906020019080838360005b838110156107ce5780820151818401526020810190506107b3565b50505050905090810190601f1680156107fb5780820380516001836020036101000a031916815260200191505b509250505060405180910390f35b6108556004803603604081101561081f57600080fd5b81019080803573ffffffffffffffffffffffffffffffffffffffff1690602001909291908035906020019092919050505061154d565b604051808215151515815260200191505060405180910390f35b6108bb6004803603604081101561088557600080fd5b81019080803573ffffffffffffffffffffffffffffffffffffffff169060200190929190803590602001909291905050506115f2565b604051808215151515815260200191505060405180910390f35b6108dd611609565b6040518082815260200191505060405180910390f35b61091f6004803603602081101561090957600080fd5b810190808035906020019092919050505061160f565b604051808273ffffffffffffffffffffffffffffffffffffffff1673ffffffffffffffffffffffffffffffffffffffff16815260200191505060405180910390f35b6109c36004803603604081101561097757600080fd5b81019080803573ffffffffffffffffffffffffffffffffffffffff169060200190929190803573ffffffffffffffffffffffffffffffffffffffff16906020019092919050505061164b565b6040518082815260200191505060405180910390f35b610a05600480360360208110156109ef57600080fd5b81019080803590602001909291905050506116d2565b604051808215151515815260200191505060405180910390f35b610a4b60048036036020811015610a3557600080fd5b8101908080359060200190929190505050611e1f565b604051808573ffffffffffffffffffffffffffffffffffffffff1673ffffffffffffffffffffffffffffffffffffffff1681526020018481526020018381526020018215151515815260200194505050505060405180910390f35b610aae611e7c565b6040518082815260200191505060405180910390f35b610b0660048036036020811015610ada57600080fd5b81019080803573ffffffffffffffffffffffffffffffffffffffff169060200190929190505050611e82565b005b606060038054600181600116156101000203166002900480601f016020809104026020016040519081016040528092919081815260200182805460018160011615610100020316600290048015610ba05780601f10610b7557610100808354040283529160200191610ba0565b820191906000526020600020905b815481529060010190602001808311610b8357829003601f168201915b5050505050905090565b600d5481565b6000610bbd338484611f08565b6001905092915050565b6000600254905090565b6000610bde8484846120ff565b610c778433610c7285600160008a73ffffffffffffffffffffffffffffffffffffffff1673ffffffffffffffffffffffffffffffffffffffff16815260200190815260200160002060003373ffffffffffffffffffffffffffffffffffffffff1673ffffffffffffffffffffffffffffffffffffffff1681526020019081526020016000205461239b90919063ffffffff16565b611f08565b600190509392505050565b600760009054906101000a900473ffffffffffffffffffffffffffffffffffffffff1681565b6000600560009054906101000a900460ff16905090565b600080600760009054906101000a900473ffffffffffffffffffffffffffffffffffffffff1673ffffffffffffffffffffffffffffffffffffffff166377ede051610d08611429565b6040518263ffffffff1660e01b8152600401808273ffffffffffffffffffffffffffffffffffffffff1673ffffffffffffffffffffffffffffffffffffffff16815260200191505060206040518083038186803b158015610d6857600080fd5b505afa158015610d7c573d6000803e3d6000fd5b505050506040513d6020811015610d9257600080fd5b810190808051906020019092919050505011610df9576040517f08c379a000000000000000000000000000000000000000000000000000000000815260040180806020018281038252602f815260200180612695602f913960400191505060405180910390fd5b600060116000600f54815260200190815260200160002090505b8060030160009054906101000a900460ff16610e5757600f6000815480929190600101919050555060116000600f5481526020019081526020016000209050610e13565b610e8d8160000160009054906101000a900473ffffffffffffffffffffffffffffffffffffffff16670de0b6b3a76400006115f2565b610eff576040517f08c379a00000000000000000000000000000000000000000000000000000000081526004018080602001828103825260128152602001807f49737375696e6720464448206661696c6564000000000000000000000000000081525060200191505060405180910390fd5b60008160030160006101000a81548160ff021916908315150217905550600f600081548092919060010191905055507fcd75dc08a30db24d62175b3fca9573850459c4959e0c3c28601a0d7bf8dcbc238160000160009054906101000a900473ffffffffffffffffffffffffffffffffffffffff16604051808273ffffffffffffffffffffffffffffffffffffffff1673ffffffffffffffffffffffffffffffffffffffff16815260200191505060405180910390a1600191505090565b6000611058338461105385600160003373ffffffffffffffffffffffffffffffffffffffff1673ffffffffffffffffffffffffffffffffffffffff16815260200190815260200160002060008973ffffffffffffffffffffffffffffffffffffffff1673ffffffffffffffffffffffffffffffffffffffff1681526020019081526020016000205461242490919063ffffffff16565b611f08565b6001905092915050565b600c60009054906101000a900460ff1681565b600660009054906101000a900473ffffffffffffffffffffffffffffffffffffffff1681565b600e5481565b60006110ab611453565b61111d576040517f08c379a00000000000000000000000000000000000000000000000000000000081526004018080602001828103825260208152602001807f4f776e61626c653a2063616c6c6572206973206e6f7420746865206f776e657281525060200191505060405180910390fd5b81600660006101000a81548173ffffffffffffffffffffffffffffffffffffffff021916908373ffffffffffffffffffffffffffffffffffffffff16021790555060019050919050565b600960149054906101000a900463ffffffff1681565b60085481565b600960009054906101000a900473ffffffffffffffffffffffffffffffffffffffff1681565b60008060008373ffffffffffffffffffffffffffffffffffffffff1673ffffffffffffffffffffffffffffffffffffffff168152602001908152602001600020549050919050565b6111f9611453565b61126b576040517f08c379a00000000000000000000000000000000000000000000000000000000081526004018080602001828103825260208152602001807f4f776e61626c653a2063616c6c6572206973206e6f7420746865206f776e657281525060200191505060405180910390fd5b600073ffffffffffffffffffffffffffffffffffffffff16600560019054906101000a900473ffffffffffffffffffffffffffffffffffffffff1673ffffffffffffffffffffffffffffffffffffffff167f8be0079c531659141344cd1fd0a4f28419497f9722a3daafe3b4186f6b6457e060405160405180910390a36000600560016101000a81548173ffffffffffffffffffffffffffffffffffffffff021916908373ffffffffffffffffffffffffffffffffffffffff160217905550565b6000611336611453565b6113a8576040517f08c379a00000000000000000000000000000000000000000000000000000000081526004018080602001828103825260208152602001807f4f776e61626c653a2063616c6c6572206973206e6f7420746865206f776e657281525060200191505060405180910390fd5b81600760006101000a81548173ffffffffffffffffffffffffffffffffffffffff021916908373ffffffffffffffffffffffffffffffffffffffff16021790555060019050919050565b600b81815481106113ff57fe5b9060005260206000209060089182820401919006600402915054906101000a900463ffffffff1681565b6000600560019054906101000a900473ffffffffffffffffffffffffffffffffffffffff16905090565b6000600560019054906101000a900473ffffffffffffffffffffffffffffffffffffffff1673ffffffffffffffffffffffffffffffffffffffff163373ffffffffffffffffffffffffffffffffffffffff1614905090565b606060048054600181600116156101000203166002900480601f0160208091040260200160405190810160405280929190818152602001828054600181600116156101000203166002900480156115435780601f1061151857610100808354040283529160200191611543565b820191906000526020600020905b81548152906001019060200180831161152657829003601f168201915b5050505050905090565b60006115e833846115e385600160003373ffffffffffffffffffffffffffffffffffffffff1673ffffffffffffffffffffffffffffffffffffffff16815260200190815260200160002060008973ffffffffffffffffffffffffffffffffffffffff1673ffffffffffffffffffffffffffffffffffffffff1681526020019081526020016000205461239b90919063ffffffff16565b611f08565b6001905092915050565b60006115ff3384846120ff565b6001905092915050565b60105481565b600a818154811061161c57fe5b906000526020600020016000915054906101000a900473ffffffffffffffffffffffffffffffffffffffff1681565b6000600160008473ffffffffffffffffffffffffffffffffffffffff1673ffffffffffffffffffffffffffffffffffffffff16815260200190815260200160002060008373ffffffffffffffffffffffffffffffffffffffff1673ffffffffffffffffffffffffffffffffffffffff16815260200190815260200160002054905092915050565b6000600d5482101561172f576040517f08c379a000000000000000000000000000000000000000000000000000000000815260040180806020018281038252603781526020018061265e6037913960400191505060405180910390fd5b600660009054906101000a900473ffffffffffffffffffffffffffffffffffffffff1673ffffffffffffffffffffffffffffffffffffffff166323b872dd3330856040518463ffffffff1660e01b8152600401808473ffffffffffffffffffffffffffffffffffffffff1673ffffffffffffffffffffffffffffffffffffffff1681526020018373ffffffffffffffffffffffffffffffffffffffff1673ffffffffffffffffffffffffffffffffffffffff1681526020018281526020019350505050602060405180830381600087803b15801561180c57600080fd5b505af1158015611820573d6000803e3d6000fd5b505050506040513d602081101561183657600080fd5b810190808051906020019092919050505061189c576040517f08c379a00000000000000000000000000000000000000000000000000000000081526004018080602001828103825260268152602001806126c46026913960400191505060405180910390fd5b600660009054906101000a900473ffffffffffffffffffffffffffffffffffffffff1673ffffffffffffffffffffffffffffffffffffffff1663095ea7b3600760009054906101000a900473ffffffffffffffffffffffffffffffffffffffff16846040518363ffffffff1660e01b8152600401808373ffffffffffffffffffffffffffffffffffffffff1673ffffffffffffffffffffffffffffffffffffffff16815260200182815260200192505050602060405180830381600087803b15801561196757600080fd5b505af115801561197b573d6000803e3d6000fd5b505050506040513d602081101561199157600080fd5b8101908080519060200190929190505050611a14576040517f08c379a00000000000000000000000000000000000000000000000000000000081526004018080602001828103825260118152602001807f617070726f7665282920696e76616c696400000000000000000000000000000081525060200191505060405180910390fd5b600760009054906101000a900473ffffffffffffffffffffffffffffffffffffffff1673ffffffffffffffffffffffffffffffffffffffff1663388c0b8c836008546040518363ffffffff1660e01b81526004018083815260200182815260200192505050602060405180830381600087803b158015611a9357600080fd5b505af1158015611aa7573d6000803e3d6000fd5b505050506040513d6020811015611abd57600080fd5b8101908080519060200190929190505050611b40576040517f08c379a000000000000000000000000000000000000000000000000000000000815260040180806020018281038252600e8152602001807f6d696e74696e67206661696c656400000000000000000000000000000000000081525060200191505060405180910390fd5b600760009054906101000a900473ffffffffffffffffffffffffffffffffffffffff1673ffffffffffffffffffffffffffffffffffffffff166323b872dd3033856040518463ffffffff1660e01b8152600401808473ffffffffffffffffffffffffffffffffffffffff1673ffffffffffffffffffffffffffffffffffffffff1681526020018373ffffffffffffffffffffffffffffffffffffffff1673ffffffffffffffffffffffffffffffffffffffff1681526020018281526020019350505050602060405180830381600087803b158015611c1d57600080fd5b505af1158015611c31573d6000803e3d6000fd5b505050506040513d6020811015611c4757600080fd5b8101908080519060200190929190505050611cca576040517f08c379a000000000000000000000000000000000000000000000000000000000815260040180806020018281038252601c8152602001807f5472616e73666572207244414920746f2075736572206661696c65640000000081525060200191505060405180910390fd5b60405180608001604052803373ffffffffffffffffffffffffffffffffffffffff168152602001600e5481526020018381526020016001151581525060116000600f54815260200190815260200160002060008201518160000160006101000a81548173ffffffffffffffffffffffffffffffffffffffff021916908373ffffffffffffffffffffffffffffffffffffffff160217905550602082015181600101556040820151816002015560608201518160030160006101000a81548160ff021916908315150217905550905050600e600081548092919060010191905055507f4734f4b7aaa49955f54d70b911f24acba5a0abf80c16f0a2c1f0b1fa904196483383604051808373ffffffffffffffffffffffffffffffffffffffff1673ffffffffffffffffffffffffffffffffffffffff1681526020018281526020019250505060405180910390a160019050919050565b60116020528060005260406000206000915090508060000160009054906101000a900473ffffffffffffffffffffffffffffffffffffffff16908060010154908060020154908060030160009054906101000a900460ff16905084565b600f5481565b611e8a611453565b611efc576040517f08c379a00000000000000000000000000000000000000000000000000000000081526004018080602001828103825260208152602001807f4f776e61626c653a2063616c6c6572206973206e6f7420746865206f776e657281525060200191505060405180910390fd5b611f05816124ac565b50565b600073ffffffffffffffffffffffffffffffffffffffff168373ffffffffffffffffffffffffffffffffffffffff161415611f8e576040517f08c379a000000000000000000000000000000000000000000000000000000000815260040180806020018281038252602481526020018061270f6024913960400191505060405180910390fd5b600073ffffffffffffffffffffffffffffffffffffffff168273ffffffffffffffffffffffffffffffffffffffff161415612014576040517f08c379a000000000000000000000000000000000000000000000000000000000815260040180806020018281038252602281526020018061263c6022913960400191505060405180910390fd5b80600160008573ffffffffffffffffffffffffffffffffffffffff1673ffffffffffffffffffffffffffffffffffffffff16815260200190815260200160002060008473ffffffffffffffffffffffffffffffffffffffff1673ffffffffffffffffffffffffffffffffffffffff168152602001908152602001600020819055508173ffffffffffffffffffffffffffffffffffffffff168373ffffffffffffffffffffffffffffffffffffffff167f8c5be1e5ebec7d5bd14f71427d1e84f3dd0314c0f7b2291e5b200ac8c7c3b925836040518082815260200191505060405180910390a3505050565b600073ffffffffffffffffffffffffffffffffffffffff168373ffffffffffffffffffffffffffffffffffffffff161415612185576040517f08c379a00000000000000000000000000000000000000000000000000000000081526004018080602001828103825260258152602001806126ea6025913960400191505060405180910390fd5b600073ffffffffffffffffffffffffffffffffffffffff168273ffffffffffffffffffffffffffffffffffffffff16141561220b576040517f08c379a00000000000000000000000000000000000000000000000000000000081526004018080602001828103825260238152602001806125f36023913960400191505060405180910390fd5b61225c816000808673ffffffffffffffffffffffffffffffffffffffff1673ffffffffffffffffffffffffffffffffffffffff1681526020019081526020016000205461239b90919063ffffffff16565b6000808573ffffffffffffffffffffffffffffffffffffffff1673ffffffffffffffffffffffffffffffffffffffff168152602001908152602001600020819055506122ef816000808573ffffffffffffffffffffffffffffffffffffffff1673ffffffffffffffffffffffffffffffffffffffff1681526020019081526020016000205461242490919063ffffffff16565b6000808473ffffffffffffffffffffffffffffffffffffffff1673ffffffffffffffffffffffffffffffffffffffff168152602001908152602001600020819055508173ffffffffffffffffffffffffffffffffffffffff168373ffffffffffffffffffffffffffffffffffffffff167fddf252ad1be2c89b69c2b068fc378daa952ba7f163c4a11628f55a4df523b3ef836040518082815260200191505060405180910390a3505050565b600082821115612413576040517f08c379a000000000000000000000000000000000000000000000000000000000815260040180806020018281038252601e8152602001807f536166654d6174683a207375627472616374696f6e206f766572666c6f77000081525060200191505060405180910390fd5b600082840390508091505092915050565b6000808284019050838110156124a2576040517f08c379a000000000000000000000000000000000000000000000000000000000815260040180806020018281038252601b8152602001807f536166654d6174683a206164646974696f6e206f766572666c6f77000000000081525060200191505060405180910390fd5b8091505092915050565b600073ffffffffffffffffffffffffffffffffffffffff168173ffffffffffffffffffffffffffffffffffffffff161415612532576040517f08c379a00000000000000000000000000000000000000000000000000000000081526004018080602001828103825260268152602001806126166026913960400191505060405180910390fd5b8073ffffffffffffffffffffffffffffffffffffffff16600560019054906101000a900473ffffffffffffffffffffffffffffffffffffffff1673ffffffffffffffffffffffffffffffffffffffff167f8be0079c531659141344cd1fd0a4f28419497f9722a3daafe3b4186f6b6457e060405160405180910390a380600560016101000a81548173ffffffffffffffffffffffffffffffffffffffff021916908373ffffffffffffffffffffffffffffffffffffffff1602179055505056fe45524332303a207472616e7366657220746f20746865207a65726f20616464726573734f776e61626c653a206e6577206f776e657220697320746865207a65726f206164647265737345524332303a20617070726f766520746f20746865207a65726f20616464726573734465706f73697420616d6f756e742073686f756c6420626520657175616c20746f202f2067726561746572207468616e2032303044414974686520696e74657265737420616d6f756e7420686173206e6f7420726561636865642032302072444149207965745472616e736665722044414920746f20486f6f64696520636f6e7472616374206661696c656445524332303a207472616e736665722066726f6d20746865207a65726f206164647265737345524332303a20617070726f76652066726f6d20746865207a65726f2061646472657373a165627a7a72305820d7f81bcc5cd5a850b15504a9e59162839ad39d62e36ba8521ebe435e317363480029",
  "source": "pragma solidity ^0.5.0;\nimport \"openzeppelin-solidity/contracts/token/ERC20/ERC20.sol\";\nimport \"openzeppelin-solidity/contracts/token/ERC20/ERC20Detailed.sol\";\nimport \"openzeppelin-solidity/contracts/ownership/Ownable.sol\";\nimport \"./IDai.sol\"; \nimport \"./IRToken.sol\";\n\ncontract HoodieToken is ERC20, ERC20Detailed, Ownable {\n  struct User {\n    address userAddress;\n    uint256 userNumber;\n    uint256 depositedAmount;\n    bool isWaiting;\n  }\n  // Instantiate DAIContract with DAI address on rinkeby\n  //  Instantiate rDAIContract with rDAI address on rinkeby\n  IDai public DAIContract;\n  IRToken public rDAIContract;\n\n  // Hat setting\n  uint256 public hatID;\n  address public recipient = owner();\n  uint32 public proportion = 100;\n  address[] public recipients = [recipient];\n  uint32[] public proportions = [proportion];\n  bool public doChangeHat = false;\n\n  uint256 public minimumDepositAmount;\n  uint256 public waitingUserNumber = 0;\n  uint256 public nextRecipientNumber = 0;\n  uint256 public hoodieCost;\n  mapping(uint256 => User) public waitingList;\n\n  event UserPushedIntoWaitingList(address user, uint256 depositedAmount);\n  event IssuedFDH(address recipientOfHoodie);\n\n  constructor(uint256 initialSupply) ERC20Detailed(\"Flex Dapps Hoodie Token\", \"FDH\", 18) public {\n    DAIContract = IDai(0x5592EC0cfb4dbc12D3aB100b257153436a1f0FEa);\n    rDAIContract = IRToken(0xb0C72645268E95696f5b6F40aa5b12E1eBdc8a5A);\n    hatID = rDAIContract.createHat(recipients, proportions, doChangeHat);\n    _mint(owner(), initialSupply * 10 ** 18);\n    // minimumDepositAmount = 20 * 10 ** 18;\n    minimumDepositAmount = 1 * 10 ** 18; // for test\n    hoodieCost = 20 * 10 ** 18;\n  }\n\n  function mintRDaiAndPushUserToWaitingList(uint256 depositAmount) public returns(bool) {\n  // dapp transfer user's DAI to itself\n    require(depositAmount >= minimumDepositAmount, \"Deposit amount should be equal to / greater than 200DAI\");\n    require(DAIContract.transferFrom(msg.sender, address(this), depositAmount), \"Transfer DAI to Hoodie contract failed\");\n\n  // dapp approves rDAI contract to transfer dapp's DAI\n    require(DAIContract.approve(address(rDAIContract), depositAmount), \"approve() invalid\");\n\n  // dapp invoke mint() and get rDAI\n    require(rDAIContract.mintWithSelectedHat(depositAmount, hatID), \"minting failed\");\n\n  // dapp transfer rDAI to user\n    require(rDAIContract.transferFrom(address(this), msg.sender, depositAmount), \"Transfer rDAI to user failed\");\n  \n  // add user to waitingList\n    // waitingList.push(msg.sender);\n    waitingList[nextRecipientNumber] = User({\n      userAddress: msg.sender,\n      userNumber: waitingUserNumber,\n      depositedAmount: depositAmount,\n      isWaiting: true\n    });\n    waitingUserNumber++;\n    emit UserPushedIntoWaitingList(msg.sender, depositAmount);\n    return true;\n  }\n\n  function issueFDH() public returns(bool) {\n    // test\n    require(rDAIContract.interestPayableOf(owner()) > 0, \"the interest amount has not reached 20 rDAI yet\");\n    \n    // check whether or not the generated interest amount reached 20 rDAI\n    // require(rDAIContract.interestPayableOf(owner()) >= hoodieCost, \"the interest amount has not reached 20 rDAI yet\");\n\n    // check wheter or not the user is in the waiting list\n    User storage nextRecipient = waitingList[nextRecipientNumber];\n    while(!nextRecipient.isWaiting) {\n      nextRecipientNumber++;\n      nextRecipient = waitingList[nextRecipientNumber];\n    }\n    // issue 1 FDH to the first user in the waiting list and update the nextRecipientNumber+1\n    require(transfer(nextRecipient.userAddress, 1 * 10 ** 18), \"Issuing FDH failed\");\n\n    // once the user receive a FDH, they are removed from the waiting list\n    nextRecipient.isWaiting = false;\n    \n    // update the next recipient in the waiting list by incrementing the waiting counter\n    nextRecipientNumber++;\n    emit IssuedFDH(nextRecipient.userAddress);\n    return true;\n  }\n\n  function _setNewDaiContractInstance(address _daiContractAddress) public onlyOwner returns(bool) {\n    DAIContract = IDai(_daiContractAddress);\n    return true;\n  }\n\n  function _setNewRDaiContractInstance(address _rDaiContractAddress) public onlyOwner returns(bool) {\n    rDAIContract = IRToken(_rDaiContractAddress);\n    return true;\n  }\n}",
  "sourcePath": "/Users/khiga619/Sites/FlexDappHoodie/contracts/HoodieToken.sol",
  "compiler": {
    "name": "solc",
    "version": "0.5.8+commit.23d335f2.Emscripten.clang"
  },
  "schemaVersion": "3.0.16",
  "updatedAt": "2019-10-17T04:31:54.706Z",
  "devdoc": {
    "methods": {
      "allowance(address,address)": {
        "details": "See `IERC20.allowance`."
      },
      "approve(address,uint256)": {
        "details": "See `IERC20.approve`.     * Requirements:     * - `spender` cannot be the zero address."
      },
      "balanceOf(address)": {
        "details": "See `IERC20.balanceOf`."
      },
      "decimals()": {
        "details": "Returns the number of decimals used to get its user representation. For example, if `decimals` equals `2`, a balance of `505` tokens should be displayed to a user as `5,05` (`505 / 10 ** 2`).     * Tokens usually opt for a value of 18, imitating the relationship between Ether and Wei.     * > Note that this information is only used for _display_ purposes: it in no way affects any of the arithmetic of the contract, including `IERC20.balanceOf` and `IERC20.transfer`."
      },
      "decreaseAllowance(address,uint256)": {
        "details": "Atomically decreases the allowance granted to `spender` by the caller.     * This is an alternative to `approve` that can be used as a mitigation for problems described in `IERC20.approve`.     * Emits an `Approval` event indicating the updated allowance.     * Requirements:     * - `spender` cannot be the zero address. - `spender` must have allowance for the caller of at least `subtractedValue`."
      },
      "increaseAllowance(address,uint256)": {
        "details": "Atomically increases the allowance granted to `spender` by the caller.     * This is an alternative to `approve` that can be used as a mitigation for problems described in `IERC20.approve`.     * Emits an `Approval` event indicating the updated allowance.     * Requirements:     * - `spender` cannot be the zero address."
      },
      "isOwner()": {
        "details": "Returns true if the caller is the current owner."
      },
      "name()": {
        "details": "Returns the name of the token."
      },
      "owner()": {
        "details": "Returns the address of the current owner."
      },
      "renounceOwnership()": {
        "details": "Leaves the contract without owner. It will not be possible to call `onlyOwner` functions anymore. Can only be called by the current owner.     * > Note: Renouncing ownership will leave the contract without an owner, thereby removing any functionality that is only available to the owner."
      },
      "symbol()": {
        "details": "Returns the symbol of the token, usually a shorter version of the name."
      },
      "totalSupply()": {
        "details": "See `IERC20.totalSupply`."
      },
      "transfer(address,uint256)": {
        "details": "See `IERC20.transfer`.     * Requirements:     * - `recipient` cannot be the zero address. - the caller must have a balance of at least `amount`."
      },
      "transferFrom(address,address,uint256)": {
        "details": "See `IERC20.transferFrom`.     * Emits an `Approval` event indicating the updated allowance. This is not required by the EIP. See the note at the beginning of `ERC20`;     * Requirements: - `sender` and `recipient` cannot be the zero address. - `sender` must have a balance of at least `value`. - the caller must have allowance for `sender`'s tokens of at least `amount`."
      },
      "transferOwnership(address)": {
        "details": "Transfers ownership of the contract to a new account (`newOwner`). Can only be called by the current owner."
      }
    }
  },
  "userdoc": {
    "methods": {}
  }
}