{
  "contractName": "HoodieToken",
  "abi": [
    {
      "constant": true,
      "inputs": [],
      "name": "minimumDepositAmount",
      "outputs": [
        {
          "name": "",
          "type": "uint256"
        }
      ],
      "payable": false,
      "stateMutability": "view",
      "type": "function"
    },
    {
      "constant": true,
      "inputs": [],
      "name": "nextInLine",
      "outputs": [
        {
          "name": "",
          "type": "address"
        }
      ],
      "payable": false,
      "stateMutability": "view",
      "type": "function"
    },
    {
      "constant": true,
      "inputs": [],
      "name": "rDAIContract",
      "outputs": [
        {
          "name": "",
          "type": "address"
        }
      ],
      "payable": false,
      "stateMutability": "view",
      "type": "function"
    },
    {
      "constant": true,
      "inputs": [],
      "name": "doChangeHat",
      "outputs": [
        {
          "name": "",
          "type": "bool"
        }
      ],
      "payable": false,
      "stateMutability": "view",
      "type": "function"
    },
    {
      "constant": true,
      "inputs": [],
      "name": "DAIContract",
      "outputs": [
        {
          "name": "",
          "type": "address"
        }
      ],
      "payable": false,
      "stateMutability": "view",
      "type": "function"
    },
    {
      "constant": true,
      "inputs": [],
      "name": "nextWaitingUserNum",
      "outputs": [
        {
          "name": "",
          "type": "uint256"
        }
      ],
      "payable": false,
      "stateMutability": "view",
      "type": "function"
    },
    {
      "constant": true,
      "inputs": [],
      "name": "waitingUserNumber",
      "outputs": [
        {
          "name": "",
          "type": "uint256"
        }
      ],
      "payable": false,
      "stateMutability": "view",
      "type": "function"
    },
    {
      "constant": true,
      "inputs": [],
      "name": "mostDeposited",
      "outputs": [
        {
          "name": "",
          "type": "uint256"
        }
      ],
      "payable": false,
      "stateMutability": "view",
      "type": "function"
    },
    {
      "constant": true,
      "inputs": [],
      "name": "roundNumber",
      "outputs": [
        {
          "name": "",
          "type": "uint256"
        }
      ],
      "payable": false,
      "stateMutability": "view",
      "type": "function"
    },
    {
      "constant": true,
      "inputs": [],
      "name": "hatID",
      "outputs": [
        {
          "name": "",
          "type": "uint256"
        }
      ],
      "payable": false,
      "stateMutability": "view",
      "type": "function"
    },
    {
      "constant": true,
      "inputs": [
        {
          "name": "",
          "type": "uint256"
        }
      ],
      "name": "proportions",
      "outputs": [
        {
          "name": "",
          "type": "uint32"
        }
      ],
      "payable": false,
      "stateMutability": "view",
      "type": "function"
    },
    {
      "constant": true,
      "inputs": [],
      "name": "owner",
      "outputs": [
        {
          "name": "",
          "type": "address"
        }
      ],
      "payable": false,
      "stateMutability": "view",
      "type": "function"
    },
    {
      "constant": true,
      "inputs": [
        {
          "name": "",
          "type": "address"
        }
      ],
      "name": "users",
      "outputs": [
        {
          "name": "numOfHoodie",
          "type": "uint256"
        },
        {
          "name": "rNumber",
          "type": "uint256"
        },
        {
          "name": "depositedAmount",
          "type": "uint256"
        },
        {
          "name": "isWaiting",
          "type": "bool"
        },
        {
          "name": "hasDeposited",
          "type": "bool"
        }
      ],
      "payable": false,
      "stateMutability": "view",
      "type": "function"
    },
    {
      "constant": true,
      "inputs": [],
      "name": "hoodieCost",
      "outputs": [
        {
          "name": "",
          "type": "uint256"
        }
      ],
      "payable": false,
      "stateMutability": "view",
      "type": "function"
    },
    {
      "constant": true,
      "inputs": [
        {
          "name": "",
          "type": "uint256"
        }
      ],
      "name": "recipients",
      "outputs": [
        {
          "name": "",
          "type": "address"
        }
      ],
      "payable": false,
      "stateMutability": "view",
      "type": "function"
    },
    {
      "constant": true,
      "inputs": [
        {
          "name": "",
          "type": "uint256"
        }
      ],
      "name": "waitingList",
      "outputs": [
        {
          "name": "",
          "type": "address"
        }
      ],
      "payable": false,
      "stateMutability": "view",
      "type": "function"
    },
    {
      "constant": true,
      "inputs": [],
      "name": "hoodieReceivers",
      "outputs": [
        {
          "name": "",
          "type": "uint256"
        }
      ],
      "payable": false,
      "stateMutability": "view",
      "type": "function"
    },
    {
      "inputs": [],
      "payable": false,
      "stateMutability": "nonpayable",
      "type": "constructor"
    },
    {
      "anonymous": false,
      "inputs": [
        {
          "indexed": false,
          "name": "user",
          "type": "address"
        },
        {
          "indexed": false,
          "name": "depositedAmount",
          "type": "uint256"
        },
        {
          "indexed": false,
          "name": "roundNumber",
          "type": "uint256"
        }
      ],
      "name": "UserPushedIntoWaitingList",
      "type": "event"
    },
    {
      "anonymous": false,
      "inputs": [
        {
          "indexed": false,
          "name": "recipientOfHoodie",
          "type": "address"
        }
      ],
      "name": "IssuedFDH",
      "type": "event"
    },
    {
      "anonymous": false,
      "inputs": [
        {
          "indexed": false,
          "name": "newRountNumber",
          "type": "uint256"
        }
      ],
      "name": "NewRoundStarted",
      "type": "event"
    },
    {
      "anonymous": false,
      "inputs": [
        {
          "indexed": false,
          "name": "user",
          "type": "address"
        },
        {
          "indexed": false,
          "name": "newDepositedAmount",
          "type": "uint256"
        }
      ],
      "name": "IncreasedDeposit",
      "type": "event"
    },
    {
      "anonymous": false,
      "inputs": [
        {
          "indexed": false,
          "name": "user",
          "type": "address"
        },
        {
          "indexed": false,
          "name": "newDepositedAmount",
          "type": "uint256"
        }
      ],
      "name": "RedeemedRDai",
      "type": "event"
    },
    {
      "constant": true,
      "inputs": [],
      "name": "getWaitingList",
      "outputs": [
        {
          "name": "",
          "type": "address[]"
        }
      ],
      "payable": false,
      "stateMutability": "view",
      "type": "function"
    },
    {
      "constant": false,
      "inputs": [
        {
          "name": "depositAmount",
          "type": "uint256"
        }
      ],
      "name": "mintRDaiAndPushUserToWaitingList",
      "outputs": [
        {
          "name": "",
          "type": "bool"
        }
      ],
      "payable": false,
      "stateMutability": "nonpayable",
      "type": "function"
    },
    {
      "constant": false,
      "inputs": [
        {
          "name": "topUpAmount",
          "type": "uint256"
        }
      ],
      "name": "increaseDepositAmount",
      "outputs": [
        {
          "name": "",
          "type": "bool"
        }
      ],
      "payable": false,
      "stateMutability": "nonpayable",
      "type": "function"
    },
    {
      "constant": false,
      "inputs": [],
      "name": "issueFDH",
      "outputs": [
        {
          "name": "",
          "type": "bool"
        }
      ],
      "payable": false,
      "stateMutability": "nonpayable",
      "type": "function"
    },
    {
      "constant": false,
      "inputs": [
        {
          "name": "redeemAmount",
          "type": "uint256"
        }
      ],
      "name": "redeemRDai",
      "outputs": [
        {
          "name": "",
          "type": "bool"
        }
      ],
      "payable": false,
      "stateMutability": "nonpayable",
      "type": "function"
    },
    {
      "constant": false,
      "inputs": [
        {
          "name": "daiContractAddress",
          "type": "address"
        }
      ],
      "name": "switchDaiContractInstance",
      "outputs": [
        {
          "name": "",
          "type": "bool"
        }
      ],
      "payable": false,
      "stateMutability": "nonpayable",
      "type": "function"
    },
    {
      "constant": false,
      "inputs": [
        {
          "name": "rDaiContractAddress",
          "type": "address"
        }
      ],
      "name": "switchRDaiContractInstance",
      "outputs": [
        {
          "name": "",
          "type": "bool"
        }
      ],
      "payable": false,
      "stateMutability": "nonpayable",
      "type": "function"
    }
  ],
  "bytecode": "0x60806040526001600660006101000a81548160ff021916908315150217905550670de0b6b3a76400006007556801158e460913d0000060085560006009556000600a556000600b556000600c556000600d556000600e60006101000a81548173ffffffffffffffffffffffffffffffffffffffff021916908373ffffffffffffffffffffffffffffffffffffffff160217905550348015620000a057600080fd5b5033600360006101000a81548173ffffffffffffffffffffffffffffffffffffffff021916908373ffffffffffffffffffffffffffffffffffffffff1602179055506004600360009054906101000a900473ffffffffffffffffffffffffffffffffffffffff1690806001815401808255809150509060018203906000526020600020016000909192909190916101000a81548173ffffffffffffffffffffffffffffffffffffffff021916908373ffffffffffffffffffffffffffffffffffffffff1602179055505060056064908060018154018082558091505090600182039060005260206000209060089182820401919006600402909192909190916101000a81548163ffffffff021916908363ffffffff16021790555050735592ec0cfb4dbc12d3ab100b257153436a1f0fea6000806101000a81548173ffffffffffffffffffffffffffffffffffffffff021916908373ffffffffffffffffffffffffffffffffffffffff160217905550736aa5c6ab94403bdbbf74f21607d46be631e6ccc5600160006101000a81548173ffffffffffffffffffffffffffffffffffffffff021916908373ffffffffffffffffffffffffffffffffffffffff160217905550600160009054906101000a900473ffffffffffffffffffffffffffffffffffffffff1673ffffffffffffffffffffffffffffffffffffffff16635cde505560046005600660009054906101000a900460ff166040518463ffffffff1660e01b81526004018080602001806020018415151515815260200183810383528681815481526020019150805480156200035157602002820191906000526020600020905b8160009054906101000a900473ffffffffffffffffffffffffffffffffffffffff1673ffffffffffffffffffffffffffffffffffffffff168152602001906001019080831162000306575b50508381038252858181548152602001915080548015620003be57602002820191906000526020600020906000905b82829054906101000a900463ffffffff1663ffffffff1681526020019060040190602082600301049283019260010382029150808411620003805790505b505095505050505050602060405180830381600087803b158015620003e257600080fd5b505af1158015620003f7573d6000803e3d6000fd5b505050506040513d60208110156200040e57600080fd5b8101908080519060200190929190505050600281905550612b0380620004356000396000f3fe608060405234801561001057600080fd5b50600436106101585760003560e01c80634e2786fb116100c3578063d1bc76a11161007c578063d1bc76a114610566578063e0f4b0ce146105d4578063e7a20f3f1461061a578063f1de77fb14610688578063f4824958146106ce578063ff37dd301461072a57610158565b80634e2786fb146103f85780635dce1c5b14610416578063826518c9146104345780638da5cb5b14610482578063a87430ba146104cc578063c005c01b1461054857610158565b8063399f94af11610115578063399f94af146102d65780633acafa7e146102f85780633c0f5fbe146103545780633ea53cea1461039e578063450946f4146103bc5780634df5892b146103da57610158565b8063078d8cf81461015d578063080c279a146101bc57806308113a61146101da5780631072c81d146102205780632f048d5d1461026a578063323b1a8d146102b4575b600080fd5b610165610748565b6040518080602001828103825283818151815260200191508051906020019060200280838360005b838110156101a857808201518184015260208101905061018d565b505050509050019250505060405180910390f35b6101c46107d6565b6040518082815260200191505060405180910390f35b610206600480360360208110156101f057600080fd5b81019080803590602001909291905050506107dc565b604051808215151515815260200191505060405180910390f35b610228610a9b565b604051808273ffffffffffffffffffffffffffffffffffffffff1673ffffffffffffffffffffffffffffffffffffffff16815260200191505060405180910390f35b610272610ac1565b604051808273ffffffffffffffffffffffffffffffffffffffff1673ffffffffffffffffffffffffffffffffffffffff16815260200191505060405180910390f35b6102bc610ae7565b604051808215151515815260200191505060405180910390f35b6102de611440565b604051808215151515815260200191505060405180910390f35b61033a6004803603602081101561030e57600080fd5b81019080803573ffffffffffffffffffffffffffffffffffffffff169060200190929190505050611453565b604051808215151515815260200191505060405180910390f35b61035c611545565b604051808273ffffffffffffffffffffffffffffffffffffffff1673ffffffffffffffffffffffffffffffffffffffff16815260200191505060405180910390f35b6103a661156a565b6040518082815260200191505060405180910390f35b6103c4611570565b6040518082815260200191505060405180910390f35b6103e2611576565b6040518082815260200191505060405180910390f35b61040061157c565b6040518082815260200191505060405180910390f35b61041e611582565b6040518082815260200191505060405180910390f35b6104606004803603602081101561044a57600080fd5b8101908080359060200190929190505050611588565b604051808263ffffffff1663ffffffff16815260200191505060405180910390f35b61048a6115bf565b604051808273ffffffffffffffffffffffffffffffffffffffff1673ffffffffffffffffffffffffffffffffffffffff16815260200191505060405180910390f35b61050e600480360360208110156104e257600080fd5b81019080803573ffffffffffffffffffffffffffffffffffffffff1690602001909291905050506115e5565b6040518086815260200185815260200184815260200183151515158152602001821515151581526020019550505050505060405180910390f35b610550611635565b6040518082815260200191505060405180910390f35b6105926004803603602081101561057c57600080fd5b810190808035906020019092919050505061163b565b604051808273ffffffffffffffffffffffffffffffffffffffff1673ffffffffffffffffffffffffffffffffffffffff16815260200191505060405180910390f35b610600600480360360208110156105ea57600080fd5b8101908080359060200190929190505050611677565b604051808215151515815260200191505060405180910390f35b6106466004803603602081101561063057600080fd5b8101908080359060200190929190505050611965565b604051808273ffffffffffffffffffffffffffffffffffffffff1673ffffffffffffffffffffffffffffffffffffffff16815260200191505060405180910390f35b6106b46004803603602081101561069e57600080fd5b81019080803590602001909291905050506119a1565b604051808215151515815260200191505060405180910390f35b610710600480360360208110156106e457600080fd5b81019080803573ffffffffffffffffffffffffffffffffffffffff169060200190929190505050611f50565b604051808215151515815260200191505060405180910390f35b610732612041565b6040518082815260200191505060405180910390f35b6060600f8054806020026020016040519081016040528092919081815260200182805480156107cc57602002820191906000526020600020905b8160009054906101000a900473ffffffffffffffffffffffffffffffffffffffff1673ffffffffffffffffffffffffffffffffffffffff1681526020019060010190808311610782575b5050505050905090565b60075481565b60006107e782612047565b610859576040517f08c379a00000000000000000000000000000000000000000000000000000000081526004018080602001828103825260128152602001807f6d696e696e672072444149206661696c6564000000000000000000000000000081525060200191505060405180910390fd5b6000601060003373ffffffffffffffffffffffffffffffffffffffff1673ffffffffffffffffffffffffffffffffffffffff16815260200190815260200160002090506108b38382600201546125eb90919063ffffffff16565b8160020181905550600d5481600201541115610916578060020154600d8190555033600e60006101000a81548173ffffffffffffffffffffffffffffffffffffffff021916908373ffffffffffffffffffffffffffffffffffffffff1602179055505b60075481600201541015801561093b57508060030160009054906101000a900460ff16155b15610a225760018160030160006101000a81548160ff021916908315150217905550600d54816002015411156109b8578060020154600d8190555033600e60006101000a81548173ffffffffffffffffffffffffffffffffffffffff021916908373ffffffffffffffffffffffffffffffffffffffff1602179055505b600b54816001015410156109e857600b548160010181905550600960008154809291906001019190505550610a21565b600b5481600101541415610a0d57600960008154809291906001019190505550610a20565b600a600081548092919060010191905055505b5b5b7fc4e62a5af510c3c3a88e2fe2a681867ba17ff5023d4b4d8bc246ca9dd8ecb72a338260020154604051808373ffffffffffffffffffffffffffffffffffffffff1673ffffffffffffffffffffffffffffffffffffffff1681526020018281526020019250505060405180910390a16001915050919050565b600e60009054906101000a900473ffffffffffffffffffffffffffffffffffffffff1681565b600160009054906101000a900473ffffffffffffffffffffffffffffffffffffffff1681565b600080600160009054906101000a900473ffffffffffffffffffffffffffffffffffffffff1673ffffffffffffffffffffffffffffffffffffffff166377ede051600360009054906101000a900473ffffffffffffffffffffffffffffffffffffffff166040518263ffffffff1660e01b8152600401808273ffffffffffffffffffffffffffffffffffffffff1673ffffffffffffffffffffffffffffffffffffffff16815260200191505060206040518083038186803b158015610bab57600080fd5b505afa158015610bbf573d6000803e3d6000fd5b505050506040513d6020811015610bd557600080fd5b810190808051906020019092919050505011610c3c576040517f08c379a000000000000000000000000000000000000000000000000000000000815260040180806020018281038252602f815260200180612995602f913960400191505060405180910390fd5b600060106000600e60009054906101000a900473ffffffffffffffffffffffffffffffffffffffff1673ffffffffffffffffffffffffffffffffffffffff1673ffffffffffffffffffffffffffffffffffffffff16815260200190815260200160002090506000606080600160009054906101000a900473ffffffffffffffffffffffffffffffffffffffff1673ffffffffffffffffffffffffffffffffffffffff1663054ab01a600e60009054906101000a900473ffffffffffffffffffffffffffffffffffffffff166040518263ffffffff1660e01b8152600401808273ffffffffffffffffffffffffffffffffffffffff1673ffffffffffffffffffffffffffffffffffffffff16815260200191505060006040518083038186803b158015610d6757600080fd5b505afa158015610d7b573d6000803e3d6000fd5b505050506040513d6000823e3d601f19601f820116820180604052506060811015610da557600080fd5b81019080805190602001909291908051640100000000811115610dc757600080fd5b82810190506020810184811115610ddd57600080fd5b8151856020820283011164010000000082111715610dfa57600080fd5b50509291906020018051640100000000811115610e1657600080fd5b82810190506020810184811115610e2c57600080fd5b8151856020820283011164010000000082111715610e4957600080fd5b5050929190505050809350819450829550505050600082600081518110610e6c57fe5b60200260200101519050600082600081518110610e8557fe5b602002602001015190506002548514610ee9576040517f08c379a00000000000000000000000000000000000000000000000000000000081526004018080602001828103825260388152602001806129c46038913960400191505060405180910390fd5b600360009054906101000a900473ffffffffffffffffffffffffffffffffffffffff1673ffffffffffffffffffffffffffffffffffffffff168273ffffffffffffffffffffffffffffffffffffffff1614610fac576040517f08c379a000000000000000000000000000000000000000000000000000000000815260040180806020018281038252601e8152602001807f4e6f206d756368207769746820746865206f776e65722061646472657373000081525060200191505060405180910390fd5b63ffffffff8163ffffffff161461102b576040517f08c379a000000000000000000000000000000000000000000000000000000000815260040180806020018281038252601b8152602001807f4e6f206d7563682077697468207468652070726f706f7274696f6e000000000081525060200191505060405180910390fd5b6000600160009054906101000a900473ffffffffffffffffffffffffffffffffffffffff1673ffffffffffffffffffffffffffffffffffffffff166370a08231600e60009054906101000a900473ffffffffffffffffffffffffffffffffffffffff166040518263ffffffff1660e01b8152600401808273ffffffffffffffffffffffffffffffffffffffff1673ffffffffffffffffffffffffffffffffffffffff16815260200191505060206040518083038186803b1580156110ee57600080fd5b505afa158015611102573d6000803e3d6000fd5b505050506040513d602081101561111857600080fd5b810190808051906020019092919050505090508660020154811015611188576040517f08c379a0000000000000000000000000000000000000000000000000000000008152600401808060200182810382526039815260200180612a6e6039913960400191505060405180910390fd5b600160009054906101000a900473ffffffffffffffffffffffffffffffffffffffff1673ffffffffffffffffffffffffffffffffffffffff1663d007c644600360009054906101000a900473ffffffffffffffffffffffffffffffffffffffff166040518263ffffffff1660e01b8152600401808273ffffffffffffffffffffffffffffffffffffffff1673ffffffffffffffffffffffffffffffffffffffff168152602001915050602060405180830381600087803b15801561124b57600080fd5b505af115801561125f573d6000803e3d6000fd5b505050506040513d602081101561127557600080fd5b81019080805190602001909291905050506112f8576040517f08c379a00000000000000000000000000000000000000000000000000000000081526004018080602001828103825260158152602001807f6661696c64656420706179496e7465726573742829000000000000000000000081525060200191505060405180910390fd5b86600001600081548092919060010191905055508660010160008154809291906001019190505550600a60008154809291906001019190505550600c600081548092919060010191905055507fcd75dc08a30db24d62175b3fca9573850459c4959e0c3c28601a0d7bf8dcbc23600e60009054906101000a900473ffffffffffffffffffffffffffffffffffffffff16604051808273ffffffffffffffffffffffffffffffffffffffff1673ffffffffffffffffffffffffffffffffffffffff16815260200191505060405180910390a1600954600c54141561143257600b600081548092919060010191905055506000600c81905550600a546009819055507fae4cf40c31a833f14b2aee71da8cb55d5fd1944a9ed5b7696022328921f6e317600b546040518082815260200191505060405180910390a15b600197505050505050505090565b600660009054906101000a900460ff1681565b6000600360009054906101000a900473ffffffffffffffffffffffffffffffffffffffff1673ffffffffffffffffffffffffffffffffffffffff163373ffffffffffffffffffffffffffffffffffffffff16146114fb576040517f08c379a0000000000000000000000000000000000000000000000000000000008152600401808060200182810382526023815260200180612a4b6023913960400191505060405180910390fd5b81600160006101000a81548173ffffffffffffffffffffffffffffffffffffffff021916908373ffffffffffffffffffffffffffffffffffffffff16021790555060019050919050565b6000809054906101000a900473ffffffffffffffffffffffffffffffffffffffff1681565b600a5481565b60095481565b600d5481565b600b5481565b60025481565b6005818154811061159557fe5b9060005260206000209060089182820401919006600402915054906101000a900463ffffffff1681565b600360009054906101000a900473ffffffffffffffffffffffffffffffffffffffff1681565b60106020528060005260406000206000915090508060000154908060010154908060020154908060030160009054906101000a900460ff16908060030160019054906101000a900460ff16905085565b60085481565b6004818154811061164857fe5b906000526020600020016000915054906101000a900473ffffffffffffffffffffffffffffffffffffffff1681565b60006007548210156116d4576040517f08c379a000000000000000000000000000000000000000000000000000000000815260040180806020018281038252603781526020018061295e6037913960400191505060405180910390fd5b601060003373ffffffffffffffffffffffffffffffffffffffff1673ffffffffffffffffffffffffffffffffffffffff16815260200190815260200160002060030160009054906101000a900460ff161561177a576040517f08c379a0000000000000000000000000000000000000000000000000000000008152600401808060200182810382526029815260200180612a226029913960400191505060405180910390fd5b61178382612047565b6117f5576040517f08c379a00000000000000000000000000000000000000000000000000000000081526004018080602001828103825260128152602001807f6d696e696e672072444149206661696c6564000000000000000000000000000081525060200191505060405180910390fd5b6117ff3383612673565b611854576040517f08c379a0000000000000000000000000000000000000000000000000000000008152600401808060200182810382526031815260200180612aa76031913960400191505060405180910390fd5b600d548211156118a75781600d8190555033600e60006101000a81548173ffffffffffffffffffffffffffffffffffffffff021916908373ffffffffffffffffffffffffffffffffffffffff1602179055505b7fa5032f3d4124440e240a5d397f0622ac102daf78f89405d0a83e8a5cb22f7beb3383601060003373ffffffffffffffffffffffffffffffffffffffff1673ffffffffffffffffffffffffffffffffffffffff16815260200190815260200160002060010154604051808473ffffffffffffffffffffffffffffffffffffffff1673ffffffffffffffffffffffffffffffffffffffff168152602001838152602001828152602001935050505060405180910390a160019050919050565b600f818154811061197257fe5b906000526020600020016000915054906101000a900473ffffffffffffffffffffffffffffffffffffffff1681565b600080601060003373ffffffffffffffffffffffffffffffffffffffff1673ffffffffffffffffffffffffffffffffffffffff16815260200190815260200160002090508281600201541015611a5f576040517f08c379a000000000000000000000000000000000000000000000000000000000815260040180806020018281038252601b8152602001807f696e73756666696369656e7420616d6f756e74206f662072444149000000000081525060200191505060405180910390fd5b600160009054906101000a900473ffffffffffffffffffffffffffffffffffffffff1673ffffffffffffffffffffffffffffffffffffffff166323b872dd3330866040518463ffffffff1660e01b8152600401808473ffffffffffffffffffffffffffffffffffffffff1673ffffffffffffffffffffffffffffffffffffffff1681526020018373ffffffffffffffffffffffffffffffffffffffff1673ffffffffffffffffffffffffffffffffffffffff1681526020018281526020019350505050602060405180830381600087803b158015611b3c57600080fd5b505af1158015611b50573d6000803e3d6000fd5b505050506040513d6020811015611b6657600080fd5b8101908080519060200190929190505050611bcc576040517f08c379a00000000000000000000000000000000000000000000000000000000081526004018080602001828103825260278152602001806129376027913960400191505060405180910390fd5b600160009054906101000a900473ffffffffffffffffffffffffffffffffffffffff1673ffffffffffffffffffffffffffffffffffffffff1663db006a75846040518263ffffffff1660e01b815260040180828152602001915050602060405180830381600087803b158015611c4157600080fd5b505af1158015611c55573d6000803e3d6000fd5b505050506040513d6020811015611c6b57600080fd5b8101908080519060200190929190505050611cee576040517f08c379a000000000000000000000000000000000000000000000000000000000815260040180806020018281038252600f8152602001807f72656465656d2829206661696c6564000000000000000000000000000000000081525060200191505060405180910390fd5b6000809054906101000a900473ffffffffffffffffffffffffffffffffffffffff1673ffffffffffffffffffffffffffffffffffffffff1663a9059cbb33856040518363ffffffff1660e01b8152600401808373ffffffffffffffffffffffffffffffffffffffff1673ffffffffffffffffffffffffffffffffffffffff16815260200182815260200192505050602060405180830381600087803b158015611d9657600080fd5b505af1158015611daa573d6000803e3d6000fd5b505050506040513d6020811015611dc057600080fd5b8101908080519060200190929190505050611e43576040517f08c379a000000000000000000000000000000000000000000000000000000000815260040180806020018281038252601b8152602001807f5472616e736665722044414920746f2075736572206661696c6564000000000081525060200191505060405180910390fd5b611e5a83826002015461287a90919063ffffffff16565b816002018190555060075481600201541015611ed75760008160030160006101000a81548160ff021916908315150217905550600b5481600101541415611eb35760096000815480929190600190039190505550611ed6565b600b5481600101541115611ed557600a60008154809291906001900391905055505b5b5b7fa1c79db5368aff5b9d42ac46279c7faed0cf9ccf7d407e587b337f12520aa0b5338260020154604051808373ffffffffffffffffffffffffffffffffffffffff1673ffffffffffffffffffffffffffffffffffffffff1681526020018281526020019250505060405180910390a16001915050919050565b6000600360009054906101000a900473ffffffffffffffffffffffffffffffffffffffff1673ffffffffffffffffffffffffffffffffffffffff163373ffffffffffffffffffffffffffffffffffffffff1614611ff8576040517f08c379a0000000000000000000000000000000000000000000000000000000008152600401808060200182810382526023815260200180612a4b6023913960400191505060405180910390fd5b816000806101000a81548173ffffffffffffffffffffffffffffffffffffffff021916908373ffffffffffffffffffffffffffffffffffffffff16021790555060019050919050565b600c5481565b60008060009054906101000a900473ffffffffffffffffffffffffffffffffffffffff1673ffffffffffffffffffffffffffffffffffffffff166323b872dd3330856040518463ffffffff1660e01b8152600401808473ffffffffffffffffffffffffffffffffffffffff1673ffffffffffffffffffffffffffffffffffffffff1681526020018373ffffffffffffffffffffffffffffffffffffffff1673ffffffffffffffffffffffffffffffffffffffff1681526020018281526020019350505050602060405180830381600087803b15801561212557600080fd5b505af1158015612139573d6000803e3d6000fd5b505050506040513d602081101561214f57600080fd5b81019080805190602001909291905050506121b5576040517f08c379a00000000000000000000000000000000000000000000000000000000081526004018080602001828103825260268152602001806129fc6026913960400191505060405180910390fd5b6000809054906101000a900473ffffffffffffffffffffffffffffffffffffffff1673ffffffffffffffffffffffffffffffffffffffff1663095ea7b3600160009054906101000a900473ffffffffffffffffffffffffffffffffffffffff16846040518363ffffffff1660e01b8152600401808373ffffffffffffffffffffffffffffffffffffffff1673ffffffffffffffffffffffffffffffffffffffff16815260200182815260200192505050602060405180830381600087803b15801561227f57600080fd5b505af1158015612293573d6000803e3d6000fd5b505050506040513d60208110156122a957600080fd5b810190808051906020019092919050505061232c576040517f08c379a00000000000000000000000000000000000000000000000000000000081526004018080602001828103825260118152602001807f617070726f7665282920696e76616c696400000000000000000000000000000081525060200191505060405180910390fd5b600160009054906101000a900473ffffffffffffffffffffffffffffffffffffffff1673ffffffffffffffffffffffffffffffffffffffff1663388c0b8c836002546040518363ffffffff1660e01b81526004018083815260200182815260200192505050602060405180830381600087803b1580156123ab57600080fd5b505af11580156123bf573d6000803e3d6000fd5b505050506040513d60208110156123d557600080fd5b8101908080519060200190929190505050612458576040517f08c379a000000000000000000000000000000000000000000000000000000000815260040180806020018281038252600e8152602001807f6d696e74696e67206661696c656400000000000000000000000000000000000081525060200191505060405180910390fd5b600160009054906101000a900473ffffffffffffffffffffffffffffffffffffffff1673ffffffffffffffffffffffffffffffffffffffff166323b872dd3033856040518463ffffffff1660e01b8152600401808473ffffffffffffffffffffffffffffffffffffffff1673ffffffffffffffffffffffffffffffffffffffff1681526020018373ffffffffffffffffffffffffffffffffffffffff1673ffffffffffffffffffffffffffffffffffffffff1681526020018281526020019350505050602060405180830381600087803b15801561253557600080fd5b505af1158015612549573d6000803e3d6000fd5b505050506040513d602081101561255f57600080fd5b81019080805190602001909291905050506125e2576040517f08c379a000000000000000000000000000000000000000000000000000000000815260040180806020018281038252601c8152602001807f5472616e73666572207244414920746f2075736572206661696c65640000000081525060200191505060405180910390fd5b60019050919050565b600080828401905083811015612669576040517f08c379a000000000000000000000000000000000000000000000000000000000815260040180806020018281038252601b8152602001807f536166654d6174683a206164646974696f6e206f766572666c6f77000000000081525060200191505060405180910390fd5b8091505092915050565b600061267d612903565b601060008573ffffffffffffffffffffffffffffffffffffffff1673ffffffffffffffffffffffffffffffffffffffff1681526020019081526020016000206040518060a00160405290816000820154815260200160018201548152602001600282015481526020016003820160009054906101000a900460ff161515151581526020016003820160019054906101000a900460ff16151515158152505090506040518060a0016040528060008152602001600b54815260200184815260200160011515815260200160011515815250601060008673ffffffffffffffffffffffffffffffffffffffff1673ffffffffffffffffffffffffffffffffffffffff16815260200190815260200160002060008201518160000155602082015181600101556040820151816002015560608201518160030160006101000a81548160ff02191690831515021790555060808201518160030160016101000a81548160ff021916908315150217905550905050806080015161285d57600f8490806001815401808255809150509060018203906000526020600020016000909192909190916101000a81548173ffffffffffffffffffffffffffffffffffffffff021916908373ffffffffffffffffffffffffffffffffffffffff160217905550505b600960008154809291906001019190505550600191505092915050565b6000828211156128f2576040517f08c379a000000000000000000000000000000000000000000000000000000000815260040180806020018281038252601e8152602001807f536166654d6174683a207375627472616374696f6e206f766572666c6f77000081525060200191505060405180910390fd5b600082840390508091505092915050565b6040518060a00160405280600081526020016000815260200160008152602001600015158152602001600015158152509056fe5472616e73666572207244414920746f20486f6f64696520636f6e7472616374206661696c65644465706f73697420616d6f756e742073686f756c6420626520657175616c20746f202f2067726561746572207468616e2032303044414974686520696e74657265737420616d6f756e7420686173206e6f7420726561636865642032302072444149207965747573657220646f6573206e6f742068617665207468652073616d65206861742061732074686520686f6f64696520636f6e747261637427735472616e736665722044414920746f20486f6f64696520636f6e7472616374206661696c6564546869732075736572206973206578697374696e6720696e207468652077616974696e67206c6973746f6e6c79206f776e65722063616e20696e766f6b6520746869732066756e6374696f6e75736572277320724441492062616c616e636520697320736d616c6c6572207468616e2074686520686f6f64696520636f6e747261637427736661696c64656420746f2061646420746865207573657220616761696e20746f207468652077616974696e67206c697374a165627a7a72305820a665f36d443a829d6b3baa8499e4f9bde6734a6fdf0cb8d069b9d238d60c44110029",
  "source": "pragma solidity ^0.5.0;\nimport \"../node_modules/openzeppelin-solidity/contracts/math/SafeMath.sol\";\n// import \"../node_modules/openzeppelin-solidity/contracts/ownership/Ownable.sol\";\nimport \"./IDai.sol\";\nimport \"./IRToken.sol\";\n\ncontract HoodieToken {\n  using SafeMath for uint256;\n\n  struct User {\n    uint256 numOfHoodie;\n    uint256 rNumber;\n    uint256 depositedAmount;\n    bool isWaiting;\n    bool hasDeposited;\n  }\n  // Instantiate DAIContract with DAI address on rinkeby\n  // Instantiate rDAIContract with rDAI address on rinkeby\n  IDai public DAIContract;\n  IRToken public rDAIContract;\n\n  // Hat setting\n  uint256 public hatID;\n  address public owner;\n  address[] public recipients;\n  uint32[] public proportions;\n  bool public doChangeHat = true;\n\n  uint256 public minimumDepositAmount = 1 * 10 ** 18; // for test\n  uint256 public hoodieCost = 20 * 10 ** 18;\n\n  uint256 public waitingUserNumber = 0;\n  uint256 public nextWaitingUserNum = 0;\n  uint256 public roundNumber = 0;\n  uint256 public hoodieReceivers = 0;\n  uint256 public mostDeposited = 0;\n  address public nextInLine = address(0);\n  address[] public waitingList;\n  mapping(address => User) public users;\n\n  event UserPushedIntoWaitingList(address user, uint256 depositedAmount, uint256 roundNumber);\n  event IssuedFDH(address recipientOfHoodie);\n  event NewRoundStarted(uint256 newRountNumber);\n  event IncreasedDeposit(address user, uint256 newDepositedAmount);\n  event RedeemedRDai(address user, uint256 newDepositedAmount);\n\n  constructor() public {\n    owner = msg.sender;\n    recipients.push(owner);\n    proportions.push(100);\n    DAIContract = IDai(0x5592EC0cfb4dbc12D3aB100b257153436a1f0FEa);\n    // rDAIContract = IRToken(0xb0C72645268E95696f5b6F40aa5b12E1eBdc8a5A); // before   CAUTION!! change the frontend code too!!!\n    rDAIContract = IRToken(0x6AA5c6aB94403Bdbbf74f21607D46Be631E6CcC5); // latest\n    hatID = rDAIContract.createHat(recipients, proportions, doChangeHat);\n  }\n\n  function getWaitingList() public view returns(address[] memory) {\n    return waitingList;\n  }\n\n  function mintRDaiAndPushUserToWaitingList(uint256 depositAmount) public returns(bool) {\n    require(depositAmount >= minimumDepositAmount, \"Deposit amount should be equal to / greater than 200DAI\");\n    // check whether or not the user is new\n    require(!users[msg.sender].isWaiting, \"This user is existing in the waiting list\");\n    // mint rDAI and transfer it to user\n    require(_mintRDai(depositAmount), \"mining rDAI failed\");\n    // add user to waitingList\n    require(_addUserToWaitingList(msg.sender, depositAmount), \"failded to add the user again to the waiting list\");\n    if (depositAmount > mostDeposited) {\n      mostDeposited = depositAmount;\n      nextInLine = msg.sender;\n    }\n    emit UserPushedIntoWaitingList(msg.sender, depositAmount, users[msg.sender].rNumber);\n    return true;\n  }\n\n  function increaseDepositAmount(uint256 topUpAmount) public returns(bool) {\n    // mint additional rDAI\n    require(_mintRDai(topUpAmount),  \"mining rDAI failed\");\n    // update user's deposited amount in User struct\n    User storage user = users[msg.sender];\n    user.depositedAmount = user.depositedAmount.add(topUpAmount);\n\n    // update the mostDeposted\n    if (user.depositedAmount > mostDeposited) {\n      mostDeposited = user.depositedAmount;\n      nextInLine = msg.sender;\n    }\n\n    // user can be back to the waiting list when the depositedAmount is more than the minimumDepositAmount\n    if(user.depositedAmount >= minimumDepositAmount && !user.isWaiting) {\n      user.isWaiting = true;\n      if (user.depositedAmount > mostDeposited) {\n        mostDeposited = user.depositedAmount;\n        nextInLine = msg.sender;\n      }\n\n      // if the round number was updated while a user was away from the waiting list,\n      // the user's rNumber and the waitingUserNumber should be updated as well\n      if(user.rNumber < roundNumber) {\n        user.rNumber = roundNumber;\n        waitingUserNumber++;\n      } else if (user.rNumber == roundNumber) {\n        waitingUserNumber++;\n      } else {\n        nextWaitingUserNum++;\n      }\n    }\n    emit IncreasedDeposit(msg.sender, user.depositedAmount);\n    return true;\n  }\n  \n  function issueFDH() public returns(bool) {\n    // test\n    require(rDAIContract.interestPayableOf(owner) > 0, \"the interest amount has not reached 20 rDAI yet\");\n\n    // check whether or not the generated interest amount reached 20 rDAI\n    // require(rDAIContract.interestPayableOf(owner) >= hoodieCost, \"the interest amount has not reached 20 rDAI yet\");\n\n    User storage user = users[nextInLine];\n    // 1. check whether or not a user has the hoodie hat\n    uint256 userHatId;\n    address[] memory recipientsFromUser;\n    uint32[] memory proportionsFromUser;\n    (userHatId, recipientsFromUser, proportionsFromUser) = rDAIContract.getHatByAddress(nextInLine);\n    address recipientFromUser = recipientsFromUser[0];\n    uint32 proportionFromUser = proportionsFromUser[0];\n\n    require(userHatId == hatID, \"user does not have the same hat as the hoodie contract's\");\n    require(recipientFromUser == owner, \"No much with the owner address\");\n    require(proportionFromUser == 2 ** 32 - 1, \"No much with the proportion\");\n\n    // 2. check whether or not a user's rDAI balance is the same as hoodie contract's\n    uint256 rDaiBalanceOfUser = rDAIContract.balanceOf(nextInLine);\n    require(rDaiBalanceOfUser >= user.depositedAmount, \"user's rDAI balance is smaller than the hoodie contract's\");\n\n    // 3. invoke payInterest() to pay the rDAI(interest) to FlexDapps account\n    require(rDAIContract.payInterest(owner), \"failded payInterest()\");\n\n    // user goes to the next round waiting list and is added to the next round waiting list\n    user.numOfHoodie++;\n    user.rNumber++;\n    nextWaitingUserNum++;\n    hoodieReceivers++;\n    emit IssuedFDH(nextInLine);\n\n    // OFF CHAIN BACKEND LOGIC\n    // update nextInLine to be the person who has deposited the next most\n    // update mostDeposited to be equal to the deposit of nextInLine\n    // uint256 _max = 0;\n    // address _next = address(0);\n\n    // for (uint256 i = 0; i < waitingList.length; i++) {\n    //   if (\n    //       users[waitingList[i]].rNumber == roundNumber &&\n    //       users[waitingList[i]].isWaiting &&\n    //       _max < users[waitingList[i]].depositedAmount\n    //     )\n    //     {\n    //       _max = users[waitingList[i]].depositedAmount;\n    //       _next = waitingList[i];\n    //     } else {\n    //       _max = users[waitingList[i]].depositedAmount;\n    //       _next = waitingList[i];\n    //     }\n    // }\n    // mostDeposited = _max;\n    // nextInLine = _next;\n    // hoodieReceivers++;\n\n    // update round number when the number of hoodie receivers is equal to the waiting user number\n    if (hoodieReceivers == waitingUserNumber) {\n      roundNumber++;\n      hoodieReceivers = 0;\n      waitingUserNumber = nextWaitingUserNum;\n      emit NewRoundStarted(roundNumber);\n\n    //   // find the next receiver in the new round\n    //   for (uint i = 0; i < waitingList.length; i++) {\n    //     if (\n    //         users[waitingList[i]].rNumber == roundNumber &&\n    //         users[waitingList[i]].isWaiting &&\n    //         _max < users[waitingList[i]].depositedAmount\n    //       )\n    //       {\n    //         _max = users[waitingList[i]].depositedAmount;\n    //         _next = waitingList[i];\n    //       } else {\n    //         _max = users[waitingList[i]].depositedAmount;\n    //         _next = waitingList[i];\n    //       }\n    //   }\n    //   mostDeposited = _max;\n    //   nextInLine = _next;\n    //   hoodieReceivers++;\n    }\n\n    return true;\n  }\n\n  function redeemRDai(uint256 redeemAmount) public returns (bool) {\n    User storage user = users[msg.sender];\n    // check whether or not the user has enough rDAI to redeem\n    require(user.depositedAmount >= redeemAmount, \"insufficient amount of rDAI\");\n    // transfer rDAI from user's account to Hoodie contract\n    require(rDAIContract.transferFrom(msg.sender, address(this), redeemAmount), \"Transfer rDAI to Hoodie contract failed\");\n    // 1) use redeem()\n    // 2) dapp transfer rDAI to user\n    // 3) decrese the state of user.depositedAmount - redeemAmount\n    require(rDAIContract.redeem(redeemAmount), \"redeem() failed\");\n    require(DAIContract.transfer(msg.sender, redeemAmount), \"Transfer DAI to user failed\");\n    user.depositedAmount = user.depositedAmount.sub(redeemAmount);\n\n    // if user's depositedAmount become below than the minimumDepositAmount, it will be removed from the waiting list\n    if (user.depositedAmount < minimumDepositAmount) {\n      user.isWaiting = false;\n\n      if(user.rNumber == roundNumber) {\n      // update the waiting user number of the current waiting list\n        waitingUserNumber--;\n      } else if (user.rNumber > roundNumber) {\n      // update the waiting user number of the next waiting list\n        nextWaitingUserNum--;\n      }\n    }\n    /// if this user was nextInLine, we may need to set a new nextInLine\n    emit RedeemedRDai(msg.sender, user.depositedAmount);\n    return true;\n  }\n\n  // function updateNextInLine() public returns (bool) {\n  //   if(\n\n  //   )\n  // }\n\n  function switchDaiContractInstance(address daiContractAddress) public returns(bool) {\n    require(msg.sender == owner, \"only owner can invoke this function\");\n    DAIContract = IDai(daiContractAddress);\n    return true;\n  }\n\n  function switchRDaiContractInstance(address rDaiContractAddress) public returns(bool) {\n    require(msg.sender == owner, \"only owner can invoke this function\");\n    rDAIContract = IRToken(rDaiContractAddress);\n    return true;\n  }\n\n  ////////////////////////\n  // internal functions //\n  ////////////////////////\n\n  function _mintRDai(uint256 depositAmount) internal returns(bool) {\n    // dapp transfer user's DAI to itself\n    require(DAIContract.transferFrom(msg.sender, address(this), depositAmount), \"Transfer DAI to Hoodie contract failed\");\n    // dapp approves rDAI contract to transfer dapp's DAI\n    require(DAIContract.approve(address(rDAIContract), depositAmount), \"approve() invalid\");\n    // dapp invoke mint() and get rDAI\n    require(rDAIContract.mintWithSelectedHat(depositAmount, hatID), \"minting failed\");\n    // dapp transfer rDAI to user\n    require(rDAIContract.transferFrom(address(this), msg.sender, depositAmount), \"Transfer rDAI to user failed\");\n    return true;\n  }\n\n  function _addUserToWaitingList(address userAddress, uint256 depositAmount) internal returns(bool) {\n    User memory _oldUser = users[userAddress];\n    users[userAddress] = User({\n      numOfHoodie: 0,\n      depositedAmount: depositAmount,\n      rNumber: roundNumber,\n      isWaiting: true,\n      hasDeposited: true\n    });\n    if (!_oldUser.hasDeposited) {\n      waitingList.push(userAddress);\n    }\n    waitingUserNumber++;\n    return true;\n  }\n}",
  "sourcePath": "/Users/khiga619/Sites/FlexDappHoodie/contracts/HoodieToken.sol",
  "compiler": {
    "name": "solc",
    "version": "0.5.8+commit.23d335f2.Emscripten.clang"
  },
  "schemaVersion": "3.0.16",
  "updatedAt": "2019-10-22T06:47:09.179Z",
  "devdoc": {
    "methods": {}
  },
  "userdoc": {
    "methods": {}
  }
}