{
  "contractName": "HoodieToken",
  "abi": [
    {
      "constant": true,
      "inputs": [],
      "name": "minimumDaiDepositAmount",
      "outputs": [
        {
          "name": "",
          "type": "uint256"
        }
      ],
      "payable": false,
      "stateMutability": "view",
      "type": "function"
    },
    {
      "constant": true,
      "inputs": [],
      "name": "totalWaitingUsers",
      "outputs": [
        {
          "name": "",
          "type": "uint256"
        }
      ],
      "payable": false,
      "stateMutability": "view",
      "type": "function"
    },
    {
      "constant": true,
      "inputs": [],
      "name": "rDAIContract",
      "outputs": [
        {
          "name": "",
          "type": "address"
        }
      ],
      "payable": false,
      "stateMutability": "view",
      "type": "function"
    },
    {
      "constant": true,
      "inputs": [],
      "name": "nextQueuePosition",
      "outputs": [
        {
          "name": "",
          "type": "uint256"
        }
      ],
      "payable": false,
      "stateMutability": "view",
      "type": "function"
    },
    {
      "constant": true,
      "inputs": [
        {
          "name": "",
          "type": "uint256"
        }
      ],
      "name": "users",
      "outputs": [
        {
          "name": "userAddress",
          "type": "address"
        },
        {
          "name": "daiDeposited",
          "type": "uint256"
        },
        {
          "name": "isWaiting",
          "type": "bool"
        },
        {
          "name": "hasDeposited",
          "type": "bool"
        },
        {
          "name": "hoodiesReceived",
          "type": "uint256"
        }
      ],
      "payable": false,
      "stateMutability": "view",
      "type": "function"
    },
    {
      "constant": true,
      "inputs": [],
      "name": "DAIContract",
      "outputs": [
        {
          "name": "",
          "type": "address"
        }
      ],
      "payable": false,
      "stateMutability": "view",
      "type": "function"
    },
    {
      "constant": true,
      "inputs": [
        {
          "name": "",
          "type": "address"
        }
      ],
      "name": "userQueuePositions",
      "outputs": [
        {
          "name": "",
          "type": "uint256"
        }
      ],
      "payable": false,
      "stateMutability": "view",
      "type": "function"
    },
    {
      "constant": true,
      "inputs": [],
      "name": "interestRequiredForHoodie",
      "outputs": [
        {
          "name": "",
          "type": "uint256"
        }
      ],
      "payable": false,
      "stateMutability": "view",
      "type": "function"
    },
    {
      "constant": true,
      "inputs": [],
      "name": "totalHoodiesIssued",
      "outputs": [
        {
          "name": "",
          "type": "uint256"
        }
      ],
      "payable": false,
      "stateMutability": "view",
      "type": "function"
    },
    {
      "constant": true,
      "inputs": [],
      "name": "rDaiHat",
      "outputs": [
        {
          "name": "id",
          "type": "uint256"
        },
        {
          "name": "owner",
          "type": "address"
        },
        {
          "name": "allowChange",
          "type": "bool"
        }
      ],
      "payable": false,
      "stateMutability": "view",
      "type": "function"
    },
    {
      "constant": true,
      "inputs": [],
      "name": "totalDaiDeposited",
      "outputs": [
        {
          "name": "",
          "type": "uint256"
        }
      ],
      "payable": false,
      "stateMutability": "view",
      "type": "function"
    },
    {
      "constant": true,
      "inputs": [],
      "name": "nextRecipientIndex",
      "outputs": [
        {
          "name": "",
          "type": "uint256"
        }
      ],
      "payable": false,
      "stateMutability": "view",
      "type": "function"
    },
    {
      "constant": true,
      "inputs": [],
      "name": "admin",
      "outputs": [
        {
          "name": "",
          "type": "address"
        }
      ],
      "payable": false,
      "stateMutability": "view",
      "type": "function"
    },
    {
      "inputs": [
        {
          "name": "_daiAddress",
          "type": "address"
        },
        {
          "name": "_rDaiAddress",
          "type": "address"
        }
      ],
      "payable": false,
      "stateMutability": "nonpayable",
      "type": "constructor"
    },
    {
      "anonymous": false,
      "inputs": [
        {
          "indexed": false,
          "name": "user",
          "type": "address"
        },
        {
          "indexed": false,
          "name": "daiDeposited",
          "type": "uint256"
        }
      ],
      "name": "Deposit",
      "type": "event"
    },
    {
      "anonymous": false,
      "inputs": [
        {
          "indexed": false,
          "name": "user",
          "type": "address"
        },
        {
          "indexed": false,
          "name": "newDaiDeposited",
          "type": "uint256"
        }
      ],
      "name": "Redeem",
      "type": "event"
    },
    {
      "anonymous": false,
      "inputs": [
        {
          "indexed": false,
          "name": "recipient",
          "type": "address"
        }
      ],
      "name": "IssueHoodie",
      "type": "event"
    },
    {
      "constant": false,
      "inputs": [
        {
          "name": "depositAmount",
          "type": "uint256"
        }
      ],
      "name": "depositDai",
      "outputs": [
        {
          "name": "",
          "type": "bool"
        }
      ],
      "payable": false,
      "stateMutability": "nonpayable",
      "type": "function"
    },
    {
      "constant": false,
      "inputs": [
        {
          "name": "redeemAmount",
          "type": "uint256"
        }
      ],
      "name": "redeemRDai",
      "outputs": [
        {
          "name": "",
          "type": "bool"
        }
      ],
      "payable": false,
      "stateMutability": "nonpayable",
      "type": "function"
    },
    {
      "constant": false,
      "inputs": [],
      "name": "issueHoodie",
      "outputs": [
        {
          "name": "",
          "type": "bool"
        }
      ],
      "payable": false,
      "stateMutability": "nonpayable",
      "type": "function"
    },
    {
      "constant": false,
      "inputs": [
        {
          "name": "daiContractAddress",
          "type": "address"
        }
      ],
      "name": "updateDaiContractAddress",
      "outputs": [
        {
          "name": "",
          "type": "bool"
        }
      ],
      "payable": false,
      "stateMutability": "nonpayable",
      "type": "function"
    },
    {
      "constant": false,
      "inputs": [
        {
          "name": "rDaiContractAddress",
          "type": "address"
        }
      ],
      "name": "updateRDaiContractAddress",
      "outputs": [
        {
          "name": "",
          "type": "bool"
        }
      ],
      "payable": false,
      "stateMutability": "nonpayable",
      "type": "function"
    },
    {
      "constant": true,
      "inputs": [],
      "name": "getNextRecipientAddress",
      "outputs": [
        {
          "name": "",
          "type": "address"
        }
      ],
      "payable": false,
      "stateMutability": "view",
      "type": "function"
    }
  ],
  "bytecode": "0x608060405260006008556000600955670de0b6b3a7640000600a556801158e460913d00000600b556000600c556001600d556001600e553480156200004357600080fd5b5060405160408062003461833981018060405260408110156200006557600080fd5b810190808051906020019092919080519060200190929190505050336000806101000a81548173ffffffffffffffffffffffffffffffffffffffff021916908373ffffffffffffffffffffffffffffffffffffffff16021790555081600160006101000a81548173ffffffffffffffffffffffffffffffffffffffff021916908373ffffffffffffffffffffffffffffffffffffffff16021790555080600260006101000a81548173ffffffffffffffffffffffffffffffffffffffff021916908373ffffffffffffffffffffffffffffffffffffffff1602179055506000809054906101000a900473ffffffffffffffffffffffffffffffffffffffff16600360010160006101000a81548173ffffffffffffffffffffffffffffffffffffffff021916908373ffffffffffffffffffffffffffffffffffffffff16021790555060405180602001604052806000809054906101000a900473ffffffffffffffffffffffffffffffffffffffff1673ffffffffffffffffffffffffffffffffffffffff1673ffffffffffffffffffffffffffffffffffffffff1681525060036002019060016200021892919062000432565b506040518060200160405280606460ff168152506003800190600162000240929190620004c1565b506000600360040160006101000a81548160ff021916908315150217905550600260009054906101000a900473ffffffffffffffffffffffffffffffffffffffff1673ffffffffffffffffffffffffffffffffffffffff16635cde5055600360020160038001600360040160009054906101000a900460ff166040518463ffffffff1660e01b81526004018080602001806020018415151515815260200183810383528681815481526020019150805480156200035357602002820191906000526020600020905b8160009054906101000a900473ffffffffffffffffffffffffffffffffffffffff1673ffffffffffffffffffffffffffffffffffffffff168152602001906001019080831162000308575b50508381038252858181548152602001915080548015620003c057602002820191906000526020600020906000905b82829054906101000a900463ffffffff1663ffffffff1681526020019060040190602082600301049283019260010382029150808411620003825790505b505095505050505050602060405180830381600087803b158015620003e457600080fd5b505af1158015620003f9573d6000803e3d6000fd5b505050506040513d60208110156200041057600080fd5b81019080805190602001909291905050506003600001819055505050620005f1565b828054828255906000526020600020908101928215620004ae579160200282015b82811115620004ad5782518260006101000a81548173ffffffffffffffffffffffffffffffffffffffff021916908373ffffffffffffffffffffffffffffffffffffffff1602179055509160200191906001019062000453565b5b509050620004bd919062000575565b5090565b82805482825590600052602060002090600701600890048101928215620005625791602002820160005b838211156200052e57835183826101000a81548163ffffffff021916908360ff1602179055509260200192600401602081600301049283019260010302620004eb565b8015620005605782816101000a81549063ffffffff02191690556004016020816003010492830192600103026200052e565b505b509050620005719190620005bb565b5090565b620005b891905b80821115620005b457600081816101000a81549073ffffffffffffffffffffffffffffffffffffffff0219169055506001016200057c565b5090565b90565b620005ee91905b80821115620005ea57600081816101000a81549063ffffffff021916905550600101620005c2565b5090565b90565b612e6080620006016000396000f3fe608060405234801561001057600080fd5b50600436106101215760003560e01c80633c0f5fbe116100ad578063a374adab11610071578063a374adab146104de578063b0827e5c14610500578063df9dbcca1461051e578063f1de77fb1461053c578063f851a4401461058257610121565b80633c0f5fbe146103a45780633d243740146103ee57806342419f46146104465780635bfb4377146104645780638bd1057f1461048257610121565b80632f048d5d116100f45780632f048d5d1461021a57806331cd3a6d1461026457806335842f7414610282578063365b98b2146102c8578063399cd2501461035a57610121565b8063070a5d3b146101265780630afcc36c146101825780630e9ee66a146101a0578063279f1ea4146101be575b600080fd5b6101686004803603602081101561013c57600080fd5b81019080803573ffffffffffffffffffffffffffffffffffffffff1690602001909291905050506105cc565b604051808215151515815260200191505060405180910390f35b61018a6106bd565b6040518082815260200191505060405180910390f35b6101a86106c3565b6040518082815260200191505060405180910390f35b610200600480360360208110156101d457600080fd5b81019080803573ffffffffffffffffffffffffffffffffffffffff1690602001909291905050506106c9565b604051808215151515815260200191505060405180910390f35b6102226107ba565b604051808273ffffffffffffffffffffffffffffffffffffffff1673ffffffffffffffffffffffffffffffffffffffff16815260200191505060405180910390f35b61026c6107e0565b6040518082815260200191505060405180910390f35b6102ae6004803603602081101561029857600080fd5b81019080803590602001909291905050506107e6565b604051808215151515815260200191505060405180910390f35b6102f4600480360360208110156102de57600080fd5b8101908080359060200190929190505050610ba2565b604051808673ffffffffffffffffffffffffffffffffffffffff1673ffffffffffffffffffffffffffffffffffffffff16815260200185815260200184151515158152602001831515151581526020018281526020019550505050505060405180910390f35b610362610c12565b604051808273ffffffffffffffffffffffffffffffffffffffff1673ffffffffffffffffffffffffffffffffffffffff16815260200191505060405180910390f35b6103ac610c52565b604051808273ffffffffffffffffffffffffffffffffffffffff1673ffffffffffffffffffffffffffffffffffffffff16815260200191505060405180910390f35b6104306004803603602081101561040457600080fd5b81019080803573ffffffffffffffffffffffffffffffffffffffff169060200190929190505050610c78565b6040518082815260200191505060405180910390f35b61044e610c90565b6040518082815260200191505060405180910390f35b61046c610c96565b6040518082815260200191505060405180910390f35b61048a610c9c565b604051808481526020018373ffffffffffffffffffffffffffffffffffffffff1673ffffffffffffffffffffffffffffffffffffffff16815260200182151515158152602001935050505060405180910390f35b6104e6610ce1565b604051808215151515815260200191505060405180910390f35b6105086113b8565b6040518082815260200191505060405180910390f35b6105266113be565b6040518082815260200191505060405180910390f35b6105686004803603602081101561055257600080fd5b81019080803590602001909291905050506113c4565b604051808215151515815260200191505060405180910390f35b61058a611972565b604051808273ffffffffffffffffffffffffffffffffffffffff1673ffffffffffffffffffffffffffffffffffffffff16815260200191505060405180910390f35b60008060009054906101000a900473ffffffffffffffffffffffffffffffffffffffff1673ffffffffffffffffffffffffffffffffffffffff163373ffffffffffffffffffffffffffffffffffffffff1614610673576040517f08c379a0000000000000000000000000000000000000000000000000000000008152600401808060200182810382526023815260200180612d876023913960400191505060405180910390fd5b81600260006101000a81548173ffffffffffffffffffffffffffffffffffffffff021916908373ffffffffffffffffffffffffffffffffffffffff16021790555060019050919050565b600a5481565b600c5481565b60008060009054906101000a900473ffffffffffffffffffffffffffffffffffffffff1673ffffffffffffffffffffffffffffffffffffffff163373ffffffffffffffffffffffffffffffffffffffff1614610770576040517f08c379a0000000000000000000000000000000000000000000000000000000008152600401808060200182810382526023815260200180612d876023913960400191505060405180910390fd5b81600160006101000a81548173ffffffffffffffffffffffffffffffffffffffff021916908373ffffffffffffffffffffffffffffffffffffffff16021790555060019050919050565b600260009054906101000a900473ffffffffffffffffffffffffffffffffffffffff1681565b600e5481565b600080600f60003373ffffffffffffffffffffffffffffffffffffffff1673ffffffffffffffffffffffffffffffffffffffff168152602001908152602001600020549050610833612c52565b601060008381526020019081526020016000206040518060a00160405290816000820160009054906101000a900473ffffffffffffffffffffffffffffffffffffffff1673ffffffffffffffffffffffffffffffffffffffff1673ffffffffffffffffffffffffffffffffffffffff168152602001600182015481526020016002820160009054906101000a900460ff161515151581526020016002820160019054906101000a900460ff1615151515815260200160038201548152505090508060600151610a3557600a54841015610957576040517f08c379a0000000000000000000000000000000000000000000000000000000008152600401808060200182810382526037815260200180612cc36037913960400191505060405180910390fd5b61096084611997565b6109d2576040517f08c379a00000000000000000000000000000000000000000000000000000000081526004018080602001828103825260128152602001807f6d696e696e672072444149206661696c6564000000000000000000000000000081525060200191505060405180910390fd5b6109db84611f40565b610a30576040517f08c379a0000000000000000000000000000000000000000000000000000000008152600401808060200182810382526031815260200180612de36031913960400191505060405180910390fd5b610b2c565b610a3e84611997565b610ab0576040517f08c379a00000000000000000000000000000000000000000000000000000000081526004018080602001828103825260138152602001807f6661696c656420746f206d696e7420724441490000000000000000000000000081525060200191505060405180910390fd5b610ab9846120c7565b610b2b576040517f08c379a00000000000000000000000000000000000000000000000000000000081526004018080602001828103825260148152602001807f6661696c656420746f20746f702075702044414900000000000000000000000081525060200191505060405180910390fd5b5b7fe1fffcc4923d04b559f4d29a8bfc6cda04eb5b0d3c460751c2402c5c5cc9109c3385604051808373ffffffffffffffffffffffffffffffffffffffff1673ffffffffffffffffffffffffffffffffffffffff1681526020018281526020019250505060405180910390a1600192505050919050565b60106020528060005260406000206000915090508060000160009054906101000a900473ffffffffffffffffffffffffffffffffffffffff16908060010154908060020160009054906101000a900460ff16908060020160019054906101000a900460ff16908060030154905085565b600060106000600d54815260200190815260200160002060000160009054906101000a900473ffffffffffffffffffffffffffffffffffffffff16905090565b600160009054906101000a900473ffffffffffffffffffffffffffffffffffffffff1681565b600f6020528060005260406000206000915090505481565b600b5481565b60095481565b60038060000154908060010160009054906101000a900473ffffffffffffffffffffffffffffffffffffffff16908060040160009054906101000a900460ff16905083565b600080610cec6122cb565b905080610e6c57600260009054906101000a900473ffffffffffffffffffffffffffffffffffffffff1673ffffffffffffffffffffffffffffffffffffffff1663d007c6446000809054906101000a900473ffffffffffffffffffffffffffffffffffffffff166040518263ffffffff1660e01b8152600401808273ffffffffffffffffffffffffffffffffffffffff1673ffffffffffffffffffffffffffffffffffffffff168152602001915050602060405180830381600087803b158015610db557600080fd5b505af1158015610dc9573d6000803e3d6000fd5b505050506040513d6020811015610ddf57600080fd5b8101908080519060200190929190505050610e62576040517f08c379a00000000000000000000000000000000000000000000000000000000081526004018080602001828103825260158152602001807f6661696c64656420706179496e7465726573742829000000000000000000000081525060200191505060405180910390fd5b60019150506113b5565b600060106000600d54815260200190815260200160002090506000600260009054906101000a900473ffffffffffffffffffffffffffffffffffffffff1673ffffffffffffffffffffffffffffffffffffffff166377ede0516000809054906101000a900473ffffffffffffffffffffffffffffffffffffffff166040518263ffffffff1660e01b8152600401808273ffffffffffffffffffffffffffffffffffffffff1673ffffffffffffffffffffffffffffffffffffffff16815260200191505060206040518083038186803b158015610f4757600080fd5b505afa158015610f5b573d6000803e3d6000fd5b505050506040513d6020811015610f7157600080fd5b810190808051906020019092919050505011610fd8576040517f08c379a000000000000000000000000000000000000000000000000000000000815260040180806020018281038252602f815260200180612cfa602f913960400191505060405180910390fd5b6110058160000160009054906101000a900473ffffffffffffffffffffffffffffffffffffffff16612411565b61105a576040517f08c379a0000000000000000000000000000000000000000000000000000000008152600401808060200182810382526021815260200180612e146021913960400191505060405180910390fd5b600260009054906101000a900473ffffffffffffffffffffffffffffffffffffffff1673ffffffffffffffffffffffffffffffffffffffff1663d007c6446000809054906101000a900473ffffffffffffffffffffffffffffffffffffffff166040518263ffffffff1660e01b8152600401808273ffffffffffffffffffffffffffffffffffffffff1673ffffffffffffffffffffffffffffffffffffffff168152602001915050602060405180830381600087803b15801561111c57600080fd5b505af1158015611130573d6000803e3d6000fd5b505050506040513d602081101561114657600080fd5b81019080805190602001909291905050506111c9576040517f08c379a00000000000000000000000000000000000000000000000000000000081526004018080602001828103825260158152602001807f6661696c64656420706179496e7465726573742829000000000000000000000081525060200191505060405180910390fd5b8060030160008154809291906001019190505550600960008154809291906001019190505550600d600081548092919060010191905055506112b5816040518060a00160405290816000820160009054906101000a900473ffffffffffffffffffffffffffffffffffffffff1673ffffffffffffffffffffffffffffffffffffffff1673ffffffffffffffffffffffffffffffffffffffff168152602001600182015481526020016002820160009054906101000a900460ff161515151581526020016002820160019054906101000a900460ff161515151581526020016003820154815250506129d8565b611327576040517f08c379a000000000000000000000000000000000000000000000000000000000815260040180806020018281038252601a8152602001807f6661696c656420746f20757064617465207573657220696e666f00000000000081525060200191505060405180910390fd5b7fc7190794aaa4586181fa63eeeceeb88fe2054e60ae11b63d10983c65193367b18160000160009054906101000a900473ffffffffffffffffffffffffffffffffffffffff16604051808273ffffffffffffffffffffffffffffffffffffffff1673ffffffffffffffffffffffffffffffffffffffff16815260200191505060405180910390a16001925050505b90565b60085481565b600d5481565b600080600f60003373ffffffffffffffffffffffffffffffffffffffff1673ffffffffffffffffffffffffffffffffffffffff1681526020019081526020016000205490506000601060008381526020019081526020016000209050838160010154101561149a576040517f08c379a000000000000000000000000000000000000000000000000000000000815260040180806020018281038252601b8152602001807f696e73756666696369656e7420616d6f756e74206f662072444149000000000081525060200191505060405180910390fd5b600260009054906101000a900473ffffffffffffffffffffffffffffffffffffffff1673ffffffffffffffffffffffffffffffffffffffff166323b872dd3330876040518463ffffffff1660e01b8152600401808473ffffffffffffffffffffffffffffffffffffffff1673ffffffffffffffffffffffffffffffffffffffff1681526020018373ffffffffffffffffffffffffffffffffffffffff1673ffffffffffffffffffffffffffffffffffffffff1681526020018281526020019350505050602060405180830381600087803b15801561157757600080fd5b505af115801561158b573d6000803e3d6000fd5b505050506040513d60208110156115a157600080fd5b8101908080519060200190929190505050611607576040517f08c379a0000000000000000000000000000000000000000000000000000000008152600401808060200182810382526027815260200180612c9c6027913960400191505060405180910390fd5b600260009054906101000a900473ffffffffffffffffffffffffffffffffffffffff1673ffffffffffffffffffffffffffffffffffffffff1663db006a75856040518263ffffffff1660e01b815260040180828152602001915050602060405180830381600087803b15801561167c57600080fd5b505af1158015611690573d6000803e3d6000fd5b505050506040513d60208110156116a657600080fd5b8101908080519060200190929190505050611729576040517f08c379a000000000000000000000000000000000000000000000000000000000815260040180806020018281038252600f8152602001807f72656465656d2829206661696c6564000000000000000000000000000000000081525060200191505060405180910390fd5b600160009054906101000a900473ffffffffffffffffffffffffffffffffffffffff1673ffffffffffffffffffffffffffffffffffffffff1663a9059cbb33866040518363ffffffff1660e01b8152600401808373ffffffffffffffffffffffffffffffffffffffff1673ffffffffffffffffffffffffffffffffffffffff16815260200182815260200192505050602060405180830381600087803b1580156117d257600080fd5b505af11580156117e6573d6000803e3d6000fd5b505050506040513d60208110156117fc57600080fd5b810190808051906020019092919050505061187f576040517f08c379a000000000000000000000000000000000000000000000000000000000815260040180806020018281038252601b8152602001807f5472616e736665722044414920746f2075736572206661696c6564000000000081525060200191505060405180910390fd5b611896848260010154612b4190919063ffffffff16565b81600101819055506118b384600854612b4190919063ffffffff16565b600881905550600a54816001015410156118f85760008160020160006101000a81548160ff021916908315150217905550600c60008154809291906001900391905055505b7f222838db2794d11532d940e8dec38ae307ed0b63cd97c233322e221f998767a6338260010154604051808373ffffffffffffffffffffffffffffffffffffffff1673ffffffffffffffffffffffffffffffffffffffff1681526020018281526020019250505060405180910390a1600192505050919050565b6000809054906101000a900473ffffffffffffffffffffffffffffffffffffffff1681565b6000600160009054906101000a900473ffffffffffffffffffffffffffffffffffffffff1673ffffffffffffffffffffffffffffffffffffffff166323b872dd3330856040518463ffffffff1660e01b8152600401808473ffffffffffffffffffffffffffffffffffffffff1673ffffffffffffffffffffffffffffffffffffffff1681526020018373ffffffffffffffffffffffffffffffffffffffff1673ffffffffffffffffffffffffffffffffffffffff1681526020018281526020019350505050602060405180830381600087803b158015611a7657600080fd5b505af1158015611a8a573d6000803e3d6000fd5b505050506040513d6020811015611aa057600080fd5b8101908080519060200190929190505050611b06576040517f08c379a0000000000000000000000000000000000000000000000000000000008152600401808060200182810382526026815260200180612d616026913960400191505060405180910390fd5b600160009054906101000a900473ffffffffffffffffffffffffffffffffffffffff1673ffffffffffffffffffffffffffffffffffffffff1663095ea7b3600260009054906101000a900473ffffffffffffffffffffffffffffffffffffffff16846040518363ffffffff1660e01b8152600401808373ffffffffffffffffffffffffffffffffffffffff1673ffffffffffffffffffffffffffffffffffffffff16815260200182815260200192505050602060405180830381600087803b158015611bd157600080fd5b505af1158015611be5573d6000803e3d6000fd5b505050506040513d6020811015611bfb57600080fd5b8101908080519060200190929190505050611c7e576040517f08c379a00000000000000000000000000000000000000000000000000000000081526004018080602001828103825260118152602001807f617070726f7665282920696e76616c696400000000000000000000000000000081525060200191505060405180910390fd5b600260009054906101000a900473ffffffffffffffffffffffffffffffffffffffff1673ffffffffffffffffffffffffffffffffffffffff1663388c0b8c836003600001546040518363ffffffff1660e01b81526004018083815260200182815260200192505050602060405180830381600087803b158015611d0057600080fd5b505af1158015611d14573d6000803e3d6000fd5b505050506040513d6020811015611d2a57600080fd5b8101908080519060200190929190505050611dad576040517f08c379a000000000000000000000000000000000000000000000000000000000815260040180806020018281038252600e8152602001807f6d696e74696e67206661696c656400000000000000000000000000000000000081525060200191505060405180910390fd5b600260009054906101000a900473ffffffffffffffffffffffffffffffffffffffff1673ffffffffffffffffffffffffffffffffffffffff166323b872dd3033856040518463ffffffff1660e01b8152600401808473ffffffffffffffffffffffffffffffffffffffff1673ffffffffffffffffffffffffffffffffffffffff1681526020018373ffffffffffffffffffffffffffffffffffffffff1673ffffffffffffffffffffffffffffffffffffffff1681526020018281526020019350505050602060405180830381600087803b158015611e8a57600080fd5b505af1158015611e9e573d6000803e3d6000fd5b505050506040513d6020811015611eb457600080fd5b8101908080519060200190929190505050611f37576040517f08c379a000000000000000000000000000000000000000000000000000000000815260040180806020018281038252601c8152602001807f5472616e73666572207244414920746f2075736572206661696c65640000000081525060200191505060405180910390fd5b60019050919050565b6000600e54600f60003373ffffffffffffffffffffffffffffffffffffffff1673ffffffffffffffffffffffffffffffffffffffff168152602001908152602001600020819055506040518060a001604052803373ffffffffffffffffffffffffffffffffffffffff168152602001838152602001600115158152602001600115158152602001600081525060106000600e54815260200190815260200160002060008201518160000160006101000a81548173ffffffffffffffffffffffffffffffffffffffff021916908373ffffffffffffffffffffffffffffffffffffffff1602179055506020820151816001015560408201518160020160006101000a81548160ff02191690831515021790555060608201518160020160016101000a81548160ff0219169083151502179055506080820151816003015590505061209482600854612bca90919063ffffffff16565b600881905550600c60008154809291906001019190505550600e6000815480929190600101919050555060019050919050565b600080600f60003373ffffffffffffffffffffffffffffffffffffffff1673ffffffffffffffffffffffffffffffffffffffff168152602001908152602001600020549050600060106000838152602001908152602001600020905061213a848260010154612bca90919063ffffffff16565b8160010181905550600a5481600101541015801561216757508060020160009054906101000a900460ff16155b156122a557612220816040518060a00160405290816000820160009054906101000a900473ffffffffffffffffffffffffffffffffffffffff1673ffffffffffffffffffffffffffffffffffffffff1673ffffffffffffffffffffffffffffffffffffffff168152602001600182015481526020016002820160009054906101000a900460ff161515151581526020016002820160019054906101000a900460ff161515151581526020016003820154815250506129d8565b612292576040517f08c379a000000000000000000000000000000000000000000000000000000000815260040180806020018281038252601a8152602001807f6661696c656420746f20757064617465207573657220696e666f00000000000081525060200191505060405180910390fd5b600c600081548092919060010191905055505b6122ba84600854612bca90919063ffffffff16565b600881905550600192505050919050565b600080600d5490505b600e5481116123ff576122e5612c52565b601060008381526020019081526020016000206040518060a00160405290816000820160009054906101000a900473ffffffffffffffffffffffffffffffffffffffff1673ffffffffffffffffffffffffffffffffffffffff1673ffffffffffffffffffffffffffffffffffffffff168152602001600182015481526020016002820160009054906101000a900460ff161515151581526020016002820160019054906101000a900460ff161515151581526020016003820154815250509050806040015180156123b75750600d5482145b156123c75760019250505061240e565b806040015180156123da5750600d548214155b156123f15781600d8190555060019250505061240e565b5080806001019150506122d4565b600e54600d8190555060009150505b90565b600080600f60008473ffffffffffffffffffffffffffffffffffffffff1673ffffffffffffffffffffffffffffffffffffffff16815260200190815260200160002054905061245e612c52565b601060008381526020019081526020016000206040518060a00160405290816000820160009054906101000a900473ffffffffffffffffffffffffffffffffffffffff1673ffffffffffffffffffffffffffffffffffffffff1673ffffffffffffffffffffffffffffffffffffffff168152602001600182015481526020016002820160009054906101000a900460ff161515151581526020016002820160019054906101000a900460ff1615151515815260200160038201548152505090506000606080600260009054906101000a900473ffffffffffffffffffffffffffffffffffffffff1673ffffffffffffffffffffffffffffffffffffffff1663054ab01a886040518263ffffffff1660e01b8152600401808273ffffffffffffffffffffffffffffffffffffffff1673ffffffffffffffffffffffffffffffffffffffff16815260200191505060006040518083038186803b1580156125c257600080fd5b505afa1580156125d6573d6000803e3d6000fd5b505050506040513d6000823e3d601f19601f82011682018060405250606081101561260057600080fd5b8101908080519060200190929190805164010000000081111561262257600080fd5b8281019050602081018481111561263857600080fd5b815185602082028301116401000000008211171561265557600080fd5b5050929190602001805164010000000081111561267157600080fd5b8281019050602081018481111561268757600080fd5b81518560208202830111640100000000821117156126a457600080fd5b50509291905050508093508194508295505050506000826000815181106126c757fe5b602002602001015190506000826000815181106126e057fe5b602002602001015190506003600001548514612747576040517f08c379a0000000000000000000000000000000000000000000000000000000008152600401808060200182810382526038815260200180612d296038913960400191505060405180910390fd5b600360010160009054906101000a900473ffffffffffffffffffffffffffffffffffffffff1673ffffffffffffffffffffffffffffffffffffffff168273ffffffffffffffffffffffffffffffffffffffff161461280d576040517f08c379a000000000000000000000000000000000000000000000000000000000815260040180806020018281038252601e8152602001807f4e6f206d756368207769746820746865206f776e65722061646472657373000081525060200191505060405180910390fd5b63ffffffff8163ffffffff161461288c576040517f08c379a000000000000000000000000000000000000000000000000000000000815260040180806020018281038252601b8152602001807f4e6f206d7563682077697468207468652070726f706f7274696f6e000000000081525060200191505060405180910390fd5b6000600260009054906101000a900473ffffffffffffffffffffffffffffffffffffffff1673ffffffffffffffffffffffffffffffffffffffff166370a082318b6040518263ffffffff1660e01b8152600401808273ffffffffffffffffffffffffffffffffffffffff1673ffffffffffffffffffffffffffffffffffffffff16815260200191505060206040518083038186803b15801561292d57600080fd5b505afa158015612941573d6000803e3d6000fd5b505050506040513d602081101561295757600080fd5b8101908080519060200190929190505050905086602001518110156129c7576040517f08c379a0000000000000000000000000000000000000000000000000000000008152600401808060200182810382526039815260200180612daa6039913960400191505060405180910390fd5b600198505050505050505050919050565b6000600e54600f6000846000015173ffffffffffffffffffffffffffffffffffffffff1673ffffffffffffffffffffffffffffffffffffffff168152602001908152602001600020819055506040518060a00160405280836000015173ffffffffffffffffffffffffffffffffffffffff16815260200183602001518152602001600115158152602001600115158152602001836080015181525060106000600e54815260200190815260200160002060008201518160000160006101000a81548173ffffffffffffffffffffffffffffffffffffffff021916908373ffffffffffffffffffffffffffffffffffffffff1602179055506020820151816001015560408201518160020160006101000a81548160ff02191690831515021790555060608201518160020160016101000a81548160ff02191690831515021790555060808201518160030155905050600e6000815480929190600101919050555060019050919050565b600082821115612bb9576040517f08c379a000000000000000000000000000000000000000000000000000000000815260040180806020018281038252601e8152602001807f536166654d6174683a207375627472616374696f6e206f766572666c6f77000081525060200191505060405180910390fd5b600082840390508091505092915050565b600080828401905083811015612c48576040517f08c379a000000000000000000000000000000000000000000000000000000000815260040180806020018281038252601b8152602001807f536166654d6174683a206164646974696f6e206f766572666c6f77000000000081525060200191505060405180910390fd5b8091505092915050565b6040518060a00160405280600073ffffffffffffffffffffffffffffffffffffffff1681526020016000815260200160001515815260200160001515815260200160008152509056fe5472616e73666572207244414920746f20486f6f64696520636f6e7472616374206661696c65644465706f73697420616d6f756e742073686f756c6420626520657175616c20746f202f2067726561746572207468616e2032303044414974686520696e74657265737420616d6f756e7420686173206e6f7420726561636865642032302072444149207965747573657220646f6573206e6f742068617665207468652073616d65206861742061732074686520686f6f64696520636f6e747261637427735472616e736665722044414920746f20486f6f64696520636f6e7472616374206661696c65646f6e6c79206f776e65722063616e20696e766f6b6520746869732066756e6374696f6e75736572277320724441492062616c616e636520697320736d616c6c6572207468616e2074686520686f6f64696520636f6e747261637427736661696c64656420746f2061646420746865207573657220616761696e20746f207468652077616974696e67206c6973747573657220646f6573206e6f7420686176652074686520686f6f64696520686174a165627a7a723058201e11393648c4c2f16bc36bbdf841adc47d2a7020b1e642f4c85032b6597394c70029",
  "source": "pragma solidity ^0.5.8;\nimport \"../node_modules/openzeppelin-solidity/contracts/math/SafeMath.sol\";\nimport \"./IDai.sol\";\nimport \"./IRToken.sol\";\n\ncontract HoodieToken {\n  using SafeMath for uint256;\n\n  address public admin;\n\n  struct User {\n    address userAddress;\n    uint256 daiDeposited;\n    bool isWaiting;\n    bool hasDeposited;\n    uint256 hoodiesReceived;\n  }\n\n  // Instantiate DAIContract with DAI address on rinkeby\n  // Instantiate rDAIContract with rDAI address on rinkeby\n  IDai public DAIContract;\n  IRToken public rDAIContract;\n\n  // Hat setting (rDAI settings)\n  struct Hat {\n    uint256 id;\n    address owner;\n    address[] recipients;\n    uint32[] proportions;\n    bool allowChange;\n  }\n  Hat public rDaiHat;\n\n  uint256 public totalDaiDeposited = 0;\n  uint256 public totalHoodiesIssued = 0;\n  uint256 public minimumDaiDepositAmount = 1 * 10 ** 18; // for test\n  uint256 public interestRequiredForHoodie = 20 * 10 ** 18;\n\n  uint256 public totalWaitingUsers = 0;\n  uint256 public nextRecipientIndex = 1;\n  uint256 public nextQueuePosition = 1;\n  mapping(address => uint256) public userQueuePositions;\n  mapping(uint256 => User) public users;\n\n  event Deposit(address user, uint256 daiDeposited);\n  event Redeem(address user, uint256 newDaiDeposited);\n  event IssueHoodie(address recipient);\n\n  constructor(address _daiAddress, address _rDaiAddress) public {\n    admin = msg.sender;\n    DAIContract = IDai(_daiAddress);\n    rDAIContract = IRToken(_rDaiAddress);\n\n    rDaiHat.owner = admin;\n    rDaiHat.recipients = [admin];\n    rDaiHat.proportions = [100];\n    rDaiHat.allowChange = false;\n    rDaiHat.id = rDAIContract.createHat(rDaiHat.recipients, rDaiHat.proportions, rDaiHat.allowChange);\n  }\n\n  function depositDai(uint256 depositAmount) public returns (bool) {\n    uint256 userPosition = userQueuePositions[msg.sender];\n    User memory user = users[userPosition];\n    if(!user.hasDeposited) {\n      // new user\n      require(depositAmount >= minimumDaiDepositAmount, \"Deposit amount should be equal to / greater than 200DAI\");\n      require(_mintRDai(depositAmount), \"mining rDAI failed\");\n      require(_addNewUserToQueue(depositAmount), \"failded to add the user again to the waiting list\");\n    } else {\n      // existing user\n      require(_mintRDai(depositAmount), \"failed to mint rDAI\");\n      require(_topUpDai(depositAmount), \"failed to top up DAI\");\n    }\n    emit Deposit(msg.sender, depositAmount);\n    return true;\n  }\n\n  function redeemRDai(uint256 redeemAmount) public returns (bool) {\n    uint256 userPosition = userQueuePositions[msg.sender];\n    User storage user = users[userPosition];\n    // check whether or not the user has enough rDAI to redeem\n    require(user.daiDeposited >= redeemAmount, \"insufficient amount of rDAI\");\n    // transfer rDAI from user's account to Hoodie contract\n    require(rDAIContract.transferFrom(msg.sender, address(this), redeemAmount), \"Transfer rDAI to Hoodie contract failed\");\n    // use redeem => transfer rDAI to user => update user info\n    require(rDAIContract.redeem(redeemAmount), \"redeem() failed\");\n    require(DAIContract.transfer(msg.sender, redeemAmount), \"Transfer DAI to user failed\");\n    user.daiDeposited = user.daiDeposited.sub(redeemAmount);\n    totalDaiDeposited = totalDaiDeposited.sub(redeemAmount);\n\n    // if user's daiDeposited become below than the minimumDaiDepositAmount, it will be removed from the waiting list\n    if (user.daiDeposited < minimumDaiDepositAmount) {\n      user.isWaiting = false;\n      totalWaitingUsers--;\n    }\n    emit Redeem(msg.sender, user.daiDeposited);\n    return true;\n  }\n\n  function issueHoodie() public returns (bool) {\n    // check the user is waiting and if not, the next user will become the recipient\n    bool nextRecipientExists = _setNextRecipient();\n    if (!nextRecipientExists) {\n      require(rDAIContract.payInterest(admin), \"failded payInterest()\");\n      return true;\n    } else {\n      User storage recipient = users[nextRecipientIndex];\n      // test\n      require(rDAIContract.interestPayableOf(admin) > 0, \"the interest amount has not reached 20 rDAI yet\");\n      // check whether or not the generated interest amount reached 20 rDAI\n      // require(rDAIContract.interestPayableOf(admin) >= interestRequiredForHoodie, \"the interest amount has not reached 20 rDAI yet\");\n\n      require(_validateUserHatAndRDaiBalance(recipient.userAddress), \"user does not have the hoodie hat\");\n      require(rDAIContract.payInterest(admin), \"failded payInterest()\");\n\n      // give a hoodie to the recipient and increment the global variables\n      recipient.hoodiesReceived++;\n      totalHoodiesIssued++;\n      nextRecipientIndex++;\n\n      // set user as the last position of the waiting list\n      require(_moveUserToBackOfQueue(recipient), \"failed to update user info\");\n\n      emit IssueHoodie(recipient.userAddress);\n      return true;\n    }\n  }\n\n  function updateDaiContractAddress(address daiContractAddress) public returns (bool) {\n    require(msg.sender == admin, \"only owner can invoke this function\");\n    DAIContract = IDai(daiContractAddress);\n    return true;\n  }\n\n  function updateRDaiContractAddress(address rDaiContractAddress) public returns (bool) {\n    require(msg.sender == admin, \"only owner can invoke this function\");\n    rDAIContract = IRToken(rDaiContractAddress);\n    return true;\n  }\n\n  function getNextRecipientAddress() public view returns (address) {\n    return users[nextRecipientIndex].userAddress;\n  }\n\n  ////////////////////////\n  // internal functions //\n  ////////////////////////\n\n  function _mintRDai(uint256 _depositAmount) internal returns (bool) {\n    // dapp transfer user's DAI to itself\n    require(DAIContract.transferFrom(msg.sender, address(this), _depositAmount), \"Transfer DAI to Hoodie contract failed\");\n    // dapp approves rDAI contract to transfer dapp's DAI\n    require(DAIContract.approve(address(rDAIContract), _depositAmount), \"approve() invalid\");\n    // dapp invoke mint() and get rDAI\n    require(rDAIContract.mintWithSelectedHat(_depositAmount, rDaiHat.id), \"minting failed\");\n    // dapp transfer rDAI to user\n    require(rDAIContract.transferFrom(address(this), msg.sender, _depositAmount), \"Transfer rDAI to user failed\");\n    return true;\n  }\n\n  function _addNewUserToQueue(uint256 _depositAmount) internal returns (bool) {\n    userQueuePositions[msg.sender] = nextQueuePosition;\n    users[nextQueuePosition] = User({\n      userAddress: msg.sender,\n      daiDeposited: _depositAmount,\n      isWaiting: true,\n      hasDeposited: true,\n      hoodiesReceived: 0\n    });\n    totalDaiDeposited = totalDaiDeposited.add(_depositAmount);\n    totalWaitingUsers++;\n    nextQueuePosition++;\n    return true;\n  }\n\n  function _topUpDai(uint256 _depositAmount) internal returns (bool) {\n    uint256 userNumber = userQueuePositions[msg.sender];\n    User storage _user = users[userNumber];\n    _user.daiDeposited = _user.daiDeposited.add(_depositAmount);\n\n    if(_user.daiDeposited >= minimumDaiDepositAmount && !_user.isWaiting) {\n      require(_moveUserToBackOfQueue(_user), \"failed to update user info\");\n      totalWaitingUsers++;\n    }\n    totalDaiDeposited = totalDaiDeposited.add(_depositAmount);\n    return true;\n  }\n\n  function _moveUserToBackOfQueue(User memory _user) internal returns (bool) {\n    userQueuePositions[_user.userAddress] = nextQueuePosition;\n    users[nextQueuePosition] = User({\n      userAddress: _user.userAddress,\n      daiDeposited: _user.daiDeposited,\n      isWaiting: true,\n      hasDeposited: true,\n      hoodiesReceived: _user.hoodiesReceived\n    });\n    nextQueuePosition++;\n    return true;\n  }\n\n  function _validateUserHatAndRDaiBalance(address _userAddress) internal view returns (bool) {\n    uint256 _userPosition = userQueuePositions[_userAddress];\n    User memory _user = users[_userPosition];\n\n    // 1. check whether or not a user has the hoodie hat\n    uint256 _userHatId;\n    address[] memory _userHatRecipients;\n    uint32[] memory _userHatProportions;\n\n    (_userHatId, _userHatRecipients, _userHatProportions) = rDAIContract.getHatByAddress(_userAddress);\n\n    address _firstUserHatRecipient = _userHatRecipients[0];\n    uint32 _firstUserHatProportion = _userHatProportions[0];\n\n    require(_userHatId == rDaiHat.id, \"user does not have the same hat as the hoodie contract's\");\n    require(_firstUserHatRecipient == rDaiHat.owner, \"No much with the owner address\");\n    require(_firstUserHatProportion == 2 ** 32 - 1, \"No much with the proportion\");\n\n    // 2. check whether or not a user's rDAI balance is the same as hoodie contract's\n    uint256 _userRDaiBalance = rDAIContract.balanceOf(_userAddress);\n    require(_userRDaiBalance >= _user.daiDeposited, \"user's rDAI balance is smaller than the hoodie contract's\");\n\n    return true;\n  }\n\n  function _setNextRecipient() internal returns (bool) {\n    uint256 i = nextRecipientIndex;\n    for (i; i <= nextQueuePosition; i++) {\n      User memory user = users[i];\n      if (user.isWaiting && i == nextRecipientIndex) {\n        return true;\n      } else if (user.isWaiting && i != nextRecipientIndex) {\n        nextRecipientIndex = i;\n        return true;\n      }\n    }\n    nextRecipientIndex = nextQueuePosition;\n    return false;\n  }\n}",
  "sourcePath": "/Users/khiga619/Sites/FlexDappHoodie/contracts/HoodieToken.sol",
  "compiler": {
    "name": "solc",
    "version": "0.5.8+commit.23d335f2.Emscripten.clang"
  },
  "schemaVersion": "3.0.16",
  "updatedAt": "2019-10-29T05:38:39.076Z",
  "devdoc": {
    "methods": {}
  },
  "userdoc": {
    "methods": {}
  }
}