{
  "contractName": "HoodieToken",
  "abi": [
    {
      "constant": true,
      "inputs": [],
      "name": "name",
      "outputs": [
        {
          "name": "",
          "type": "string"
        }
      ],
      "payable": false,
      "stateMutability": "view",
      "type": "function"
    },
    {
      "constant": true,
      "inputs": [],
      "name": "totalSupply",
      "outputs": [
        {
          "name": "",
          "type": "uint256"
        }
      ],
      "payable": false,
      "stateMutability": "view",
      "type": "function"
    },
    {
      "constant": true,
      "inputs": [],
      "name": "rDAIContract",
      "outputs": [
        {
          "name": "",
          "type": "address"
        }
      ],
      "payable": false,
      "stateMutability": "view",
      "type": "function"
    },
    {
      "constant": true,
      "inputs": [],
      "name": "doChangeHat",
      "outputs": [
        {
          "name": "",
          "type": "bool"
        }
      ],
      "payable": false,
      "stateMutability": "view",
      "type": "function"
    },
    {
      "constant": true,
      "inputs": [],
      "name": "DAIContract",
      "outputs": [
        {
          "name": "",
          "type": "address"
        }
      ],
      "payable": false,
      "stateMutability": "view",
      "type": "function"
    },
    {
      "constant": true,
      "inputs": [],
      "name": "cDAIContract",
      "outputs": [
        {
          "name": "",
          "type": "address"
        }
      ],
      "payable": false,
      "stateMutability": "view",
      "type": "function"
    },
    {
      "constant": true,
      "inputs": [],
      "name": "standard",
      "outputs": [
        {
          "name": "",
          "type": "string"
        }
      ],
      "payable": false,
      "stateMutability": "view",
      "type": "function"
    },
    {
      "constant": true,
      "inputs": [],
      "name": "proportion",
      "outputs": [
        {
          "name": "",
          "type": "uint32"
        }
      ],
      "payable": false,
      "stateMutability": "view",
      "type": "function"
    },
    {
      "constant": true,
      "inputs": [],
      "name": "balanceOfDai",
      "outputs": [
        {
          "name": "",
          "type": "uint256"
        }
      ],
      "payable": false,
      "stateMutability": "view",
      "type": "function"
    },
    {
      "constant": true,
      "inputs": [],
      "name": "hatID",
      "outputs": [
        {
          "name": "",
          "type": "uint256"
        }
      ],
      "payable": false,
      "stateMutability": "view",
      "type": "function"
    },
    {
      "constant": true,
      "inputs": [],
      "name": "recipient",
      "outputs": [
        {
          "name": "",
          "type": "address"
        }
      ],
      "payable": false,
      "stateMutability": "view",
      "type": "function"
    },
    {
      "constant": true,
      "inputs": [
        {
          "name": "",
          "type": "address"
        }
      ],
      "name": "balanceOf",
      "outputs": [
        {
          "name": "",
          "type": "uint256"
        }
      ],
      "payable": false,
      "stateMutability": "view",
      "type": "function"
    },
    {
      "constant": true,
      "inputs": [
        {
          "name": "",
          "type": "uint256"
        }
      ],
      "name": "proportions",
      "outputs": [
        {
          "name": "",
          "type": "uint32"
        }
      ],
      "payable": false,
      "stateMutability": "view",
      "type": "function"
    },
    {
      "constant": true,
      "inputs": [],
      "name": "owner",
      "outputs": [
        {
          "name": "",
          "type": "address"
        }
      ],
      "payable": false,
      "stateMutability": "view",
      "type": "function"
    },
    {
      "constant": true,
      "inputs": [],
      "name": "symbol",
      "outputs": [
        {
          "name": "",
          "type": "string"
        }
      ],
      "payable": false,
      "stateMutability": "view",
      "type": "function"
    },
    {
      "constant": true,
      "inputs": [
        {
          "name": "",
          "type": "uint256"
        }
      ],
      "name": "recipients",
      "outputs": [
        {
          "name": "",
          "type": "address"
        }
      ],
      "payable": false,
      "stateMutability": "view",
      "type": "function"
    },
    {
      "constant": true,
      "inputs": [
        {
          "name": "",
          "type": "address"
        },
        {
          "name": "",
          "type": "address"
        }
      ],
      "name": "allowance",
      "outputs": [
        {
          "name": "",
          "type": "uint256"
        }
      ],
      "payable": false,
      "stateMutability": "view",
      "type": "function"
    },
    {
      "inputs": [
        {
          "name": "_initialSupply",
          "type": "uint256"
        }
      ],
      "payable": false,
      "stateMutability": "nonpayable",
      "type": "constructor"
    },
    {
      "anonymous": false,
      "inputs": [
        {
          "indexed": true,
          "name": "_from",
          "type": "address"
        },
        {
          "indexed": true,
          "name": "_to",
          "type": "address"
        },
        {
          "indexed": false,
          "name": "_value",
          "type": "uint256"
        }
      ],
      "name": "Transfer",
      "type": "event"
    },
    {
      "anonymous": false,
      "inputs": [
        {
          "indexed": true,
          "name": "_owner",
          "type": "address"
        },
        {
          "indexed": true,
          "name": "_spender",
          "type": "address"
        },
        {
          "indexed": false,
          "name": "_value",
          "type": "uint256"
        }
      ],
      "name": "Approval",
      "type": "event"
    },
    {
      "anonymous": false,
      "inputs": [
        {
          "indexed": true,
          "name": "sender",
          "type": "address"
        },
        {
          "indexed": false,
          "name": "depositedAmount",
          "type": "uint256"
        }
      ],
      "name": "Depositted",
      "type": "event"
    },
    {
      "constant": false,
      "inputs": [
        {
          "name": "_to",
          "type": "address"
        },
        {
          "name": "_value",
          "type": "uint256"
        }
      ],
      "name": "transfer",
      "outputs": [
        {
          "name": "success",
          "type": "bool"
        }
      ],
      "payable": true,
      "stateMutability": "payable",
      "type": "function"
    },
    {
      "constant": false,
      "inputs": [
        {
          "name": "_spender",
          "type": "address"
        },
        {
          "name": "_value",
          "type": "uint256"
        }
      ],
      "name": "approve",
      "outputs": [
        {
          "name": "success",
          "type": "bool"
        }
      ],
      "payable": false,
      "stateMutability": "nonpayable",
      "type": "function"
    },
    {
      "constant": false,
      "inputs": [
        {
          "name": "_from",
          "type": "address"
        },
        {
          "name": "_to",
          "type": "address"
        },
        {
          "name": "_value",
          "type": "uint256"
        }
      ],
      "name": "transferFrom",
      "outputs": [
        {
          "name": "success",
          "type": "bool"
        }
      ],
      "payable": true,
      "stateMutability": "payable",
      "type": "function"
    },
    {
      "constant": false,
      "inputs": [
        {
          "name": "depositAmount",
          "type": "uint256"
        }
      ],
      "name": "deposit",
      "outputs": [
        {
          "name": "",
          "type": "bool"
        }
      ],
      "payable": true,
      "stateMutability": "payable",
      "type": "function"
    }
  ],
  "bytecode": "0x60806040526040518060400160405280601781526020017f466c657820446170707320486f6f64696520546f6b656e0000000000000000008152506000908051906020019062000051929190620007ce565b506040518060400160405280600381526020017f4644480000000000000000000000000000000000000000000000000000000000815250600190805190602001906200009f929190620007ce565b506040518060400160405280600e81526020017f46444820546f6b656e2076312e3000000000000000000000000000000000000081525060029080519060200190620000ed929190620007ce565b50735592ec0cfb4dbc12d3ab100b257153436a1f0fea600660006101000a81548173ffffffffffffffffffffffffffffffffffffffff021916908373ffffffffffffffffffffffffffffffffffffffff160217905550600660009054906101000a900473ffffffffffffffffffffffffffffffffffffffff16600760006101000a81548173ffffffffffffffffffffffffffffffffffffffff021916908373ffffffffffffffffffffffffffffffffffffffff160217905550736d7f0754ffeb405d23c51ce938289d4835be3b14600860006101000a81548173ffffffffffffffffffffffffffffffffffffffff021916908373ffffffffffffffffffffffffffffffffffffffff160217905550600860009054906101000a900473ffffffffffffffffffffffffffffffffffffffff16600960006101000a81548173ffffffffffffffffffffffffffffffffffffffff021916908373ffffffffffffffffffffffffffffffffffffffff16021790555073b0c72645268e95696f5b6f40aa5b12e1ebdc8a5a600a60006101000a81548173ffffffffffffffffffffffffffffffffffffffff021916908373ffffffffffffffffffffffffffffffffffffffff160217905550600a60009054906101000a900473ffffffffffffffffffffffffffffffffffffffff16600b60006101000a81548173ffffffffffffffffffffffffffffffffffffffff021916908373ffffffffffffffffffffffffffffffffffffffff160217905550732471e35f51cf54265b20ccfac3857c2dceef7349601060006101000a81548173ffffffffffffffffffffffffffffffffffffffff021916908373ffffffffffffffffffffffffffffffffffffffff1602179055506064601060146101000a81548163ffffffff021916908363ffffffff1602179055506040518060200160405280601060009054906101000a900473ffffffffffffffffffffffffffffffffffffffff1673ffffffffffffffffffffffffffffffffffffffff1673ffffffffffffffffffffffffffffffffffffffff168152506011906001620003fc92919062000855565b506040518060200160405280601060149054906101000a900463ffffffff1663ffffffff1663ffffffff1681525060129060016200043c929190620008e4565b506000601360006101000a81548160ff0219169083151502179055503480156200046557600080fd5b5060405160208062002409833981018060405260208110156200048757600080fd5b810190808051906020019092919050505033600460006101000a81548173ffffffffffffffffffffffffffffffffffffffff021916908373ffffffffffffffffffffffffffffffffffffffff1602179055508060038190555080600c60003373ffffffffffffffffffffffffffffffffffffffff1673ffffffffffffffffffffffffffffffffffffffff16815260200190815260200160002081905550600760009054906101000a900473ffffffffffffffffffffffffffffffffffffffff1673ffffffffffffffffffffffffffffffffffffffff166370a08231336040518263ffffffff1660e01b8152600401808273ffffffffffffffffffffffffffffffffffffffff1673ffffffffffffffffffffffffffffffffffffffff16815260200191505060206040518083038186803b158015620005c457600080fd5b505afa158015620005d9573d6000803e3d6000fd5b505050506040513d6020811015620005f057600080fd5b8101908080519060200190929190505050600581905550600b60009054906101000a900473ffffffffffffffffffffffffffffffffffffffff1673ffffffffffffffffffffffffffffffffffffffff16635cde505560116012601360009054906101000a900460ff166040518463ffffffff1660e01b8152600401808060200180602001841515151581526020018381038352868181548152602001915080548015620006f357602002820191906000526020600020905b8160009054906101000a900473ffffffffffffffffffffffffffffffffffffffff1673ffffffffffffffffffffffffffffffffffffffff1681526020019060010190808311620006a8575b505083810382528581815481526020019150805480156200076057602002820191906000526020600020906000905b82829054906101000a900463ffffffff1663ffffffff1681526020019060040190602082600301049283019260010382029150808411620007225790505b505095505050505050602060405180830381600087803b1580156200078457600080fd5b505af115801562000799573d6000803e3d6000fd5b505050506040513d6020811015620007b057600080fd5b8101908080519060200190929190505050600f819055505062000a3f565b828054600181600116156101000203166002900490600052602060002090601f016020900481019282601f106200081157805160ff191683800117855562000842565b8280016001018555821562000842579182015b828111156200084157825182559160200191906001019062000824565b5b5090506200085191906200099b565b5090565b828054828255906000526020600020908101928215620008d1579160200282015b82811115620008d05782518260006101000a81548173ffffffffffffffffffffffffffffffffffffffff021916908373ffffffffffffffffffffffffffffffffffffffff1602179055509160200191906001019062000876565b5b509050620008e09190620009c3565b5090565b82805482825590600052602060002090600701600890048101928215620009885791602002820160005b838211156200095457835183826101000a81548163ffffffff021916908363ffffffff16021790555092602001926004016020816003010492830192600103026200090e565b8015620009865782816101000a81549063ffffffff021916905560040160208160030104928301926001030262000954565b505b50905062000997919062000a09565b5090565b620009c091905b80821115620009bc576000816000905550600101620009a2565b5090565b90565b62000a0691905b8082111562000a0257600081816101000a81549073ffffffffffffffffffffffffffffffffffffffff021916905550600101620009ca565b5090565b90565b62000a3c91905b8082111562000a3857600081816101000a81549063ffffffff02191690555060010162000a10565b5090565b90565b6119ba8062000a4f6000396000f3fe60806040526004361061012a5760003560e01c80635d969ee4116100ab5780638da5cb5b1161006f5780638da5cb5b1461064b57806395d89b41146106a2578063a9059cbb14610732578063b6b55f2514610798578063d1bc76a1146107de578063dd62ed3e146108595761012a565b80635d969ee4146104de5780635dce1c5b1461050957806366d003ac1461053457806370a082311461058b578063826518c9146105f05761012a565b8063399f94af116100f2578063399f94af1461033a5780633c0f5fbe146103695780634423a4b1146103c05780635a3b7e42146104175780635b4246d4146104a75761012a565b806306fdde031461012f578063095ea7b3146101bf57806318160ddd1461023257806323b872dd1461025d5780632f048d5d146102e3575b600080fd5b34801561013b57600080fd5b506101446108de565b6040518080602001828103825283818151815260200191508051906020019080838360005b83811015610184578082015181840152602081019050610169565b50505050905090810190601f1680156101b15780820380516001836020036101000a031916815260200191505b509250505060405180910390f35b3480156101cb57600080fd5b50610218600480360360408110156101e257600080fd5b81019080803573ffffffffffffffffffffffffffffffffffffffff1690602001909291908035906020019092919050505061097c565b604051808215151515815260200191505060405180910390f35b34801561023e57600080fd5b50610247610a6e565b6040518082815260200191505060405180910390f35b6102c96004803603606081101561027357600080fd5b81019080803573ffffffffffffffffffffffffffffffffffffffff169060200190929190803573ffffffffffffffffffffffffffffffffffffffff16906020019092919080359060200190929190505050610a74565b604051808215151515815260200191505060405180910390f35b3480156102ef57600080fd5b506102f8610d77565b604051808273ffffffffffffffffffffffffffffffffffffffff1673ffffffffffffffffffffffffffffffffffffffff16815260200191505060405180910390f35b34801561034657600080fd5b5061034f610d9d565b604051808215151515815260200191505060405180910390f35b34801561037557600080fd5b5061037e610db0565b604051808273ffffffffffffffffffffffffffffffffffffffff1673ffffffffffffffffffffffffffffffffffffffff16815260200191505060405180910390f35b3480156103cc57600080fd5b506103d5610dd6565b604051808273ffffffffffffffffffffffffffffffffffffffff1673ffffffffffffffffffffffffffffffffffffffff16815260200191505060405180910390f35b34801561042357600080fd5b5061042c610dfc565b6040518080602001828103825283818151815260200191508051906020019080838360005b8381101561046c578082015181840152602081019050610451565b50505050905090810190601f1680156104995780820380516001836020036101000a031916815260200191505b509250505060405180910390f35b3480156104b357600080fd5b506104bc610e9a565b604051808263ffffffff1663ffffffff16815260200191505060405180910390f35b3480156104ea57600080fd5b506104f3610eb0565b6040518082815260200191505060405180910390f35b34801561051557600080fd5b5061051e610eb6565b6040518082815260200191505060405180910390f35b34801561054057600080fd5b50610549610ebc565b604051808273ffffffffffffffffffffffffffffffffffffffff1673ffffffffffffffffffffffffffffffffffffffff16815260200191505060405180910390f35b34801561059757600080fd5b506105da600480360360208110156105ae57600080fd5b81019080803573ffffffffffffffffffffffffffffffffffffffff169060200190929190505050610ee2565b6040518082815260200191505060405180910390f35b3480156105fc57600080fd5b506106296004803603602081101561061357600080fd5b8101908080359060200190929190505050610efa565b604051808263ffffffff1663ffffffff16815260200191505060405180910390f35b34801561065757600080fd5b50610660610f31565b604051808273ffffffffffffffffffffffffffffffffffffffff1673ffffffffffffffffffffffffffffffffffffffff16815260200191505060405180910390f35b3480156106ae57600080fd5b506106b7610f57565b6040518080602001828103825283818151815260200191508051906020019080838360005b838110156106f75780820151818401526020810190506106dc565b50505050905090810190601f1680156107245780820380516001836020036101000a031916815260200191505b509250505060405180910390f35b61077e6004803603604081101561074857600080fd5b81019080803573ffffffffffffffffffffffffffffffffffffffff16906020019092919080359060200190929190505050610ff5565b604051808215151515815260200191505060405180910390f35b6107c4600480360360208110156107ae57600080fd5b8101908080359060200190929190505050611198565b604051808215151515815260200191505060405180910390f35b3480156107ea57600080fd5b506108176004803603602081101561080157600080fd5b81019080803590602001909291905050506117e2565b604051808273ffffffffffffffffffffffffffffffffffffffff1673ffffffffffffffffffffffffffffffffffffffff16815260200191505060405180910390f35b34801561086557600080fd5b506108c86004803603604081101561087c57600080fd5b81019080803573ffffffffffffffffffffffffffffffffffffffff169060200190929190803573ffffffffffffffffffffffffffffffffffffffff16906020019092919050505061181e565b6040518082815260200191505060405180910390f35b60008054600181600116156101000203166002900480601f0160208091040260200160405190810160405280929190818152602001828054600181600116156101000203166002900480156109745780601f1061094957610100808354040283529160200191610974565b820191906000526020600020905b81548152906001019060200180831161095757829003601f168201915b505050505081565b600081600d60003373ffffffffffffffffffffffffffffffffffffffff1673ffffffffffffffffffffffffffffffffffffffff16815260200190815260200160002060008573ffffffffffffffffffffffffffffffffffffffff1673ffffffffffffffffffffffffffffffffffffffff168152602001908152602001600020819055508273ffffffffffffffffffffffffffffffffffffffff163373ffffffffffffffffffffffffffffffffffffffff167f8c5be1e5ebec7d5bd14f71427d1e84f3dd0314c0f7b2291e5b200ac8c7c3b925846040518082815260200191505060405180910390a36001905092915050565b60035481565b6000600c60008573ffffffffffffffffffffffffffffffffffffffff1673ffffffffffffffffffffffffffffffffffffffff16815260200190815260200160002054821115610b0e576040517f08c379a000000000000000000000000000000000000000000000000000000000815260040180806020018281038252604081526020018061187c6040913960400191505060405180910390fd5b600d60008573ffffffffffffffffffffffffffffffffffffffff1673ffffffffffffffffffffffffffffffffffffffff16815260200190815260200160002060003373ffffffffffffffffffffffffffffffffffffffff1673ffffffffffffffffffffffffffffffffffffffff16815260200190815260200160002054821115610be3576040517f08c379a000000000000000000000000000000000000000000000000000000000815260040180806020018281038252604f8152602001806118bc604f913960600191505060405180910390fd5b81600c60008673ffffffffffffffffffffffffffffffffffffffff1673ffffffffffffffffffffffffffffffffffffffff1681526020019081526020016000206000828254039250508190555081600c60008573ffffffffffffffffffffffffffffffffffffffff1673ffffffffffffffffffffffffffffffffffffffff1681526020019081526020016000206000828254019250508190555081600d60008673ffffffffffffffffffffffffffffffffffffffff1673ffffffffffffffffffffffffffffffffffffffff16815260200190815260200160002060003373ffffffffffffffffffffffffffffffffffffffff1673ffffffffffffffffffffffffffffffffffffffff168152602001908152602001600020600082825403925050819055508273ffffffffffffffffffffffffffffffffffffffff168473ffffffffffffffffffffffffffffffffffffffff167fddf252ad1be2c89b69c2b068fc378daa952ba7f163c4a11628f55a4df523b3ef846040518082815260200191505060405180910390a3600190509392505050565b600b60009054906101000a900473ffffffffffffffffffffffffffffffffffffffff1681565b601360009054906101000a900460ff1681565b600760009054906101000a900473ffffffffffffffffffffffffffffffffffffffff1681565b600960009054906101000a900473ffffffffffffffffffffffffffffffffffffffff1681565b60028054600181600116156101000203166002900480601f016020809104026020016040519081016040528092919081815260200182805460018160011615610100020316600290048015610e925780601f10610e6757610100808354040283529160200191610e92565b820191906000526020600020905b815481529060010190602001808311610e7557829003601f168201915b505050505081565b601060149054906101000a900463ffffffff1681565b60055481565b600f5481565b601060009054906101000a900473ffffffffffffffffffffffffffffffffffffffff1681565b600c6020528060005260406000206000915090505481565b60128181548110610f0757fe5b9060005260206000209060089182820401919006600402915054906101000a900463ffffffff1681565b600460009054906101000a900473ffffffffffffffffffffffffffffffffffffffff1681565b60018054600181600116156101000203166002900480601f016020809104026020016040519081016040528092919081815260200182805460018160011615610100020316600290048015610fed5780601f10610fc257610100808354040283529160200191610fed565b820191906000526020600020905b815481529060010190602001808311610fd057829003601f168201915b505050505081565b600081600c60003373ffffffffffffffffffffffffffffffffffffffff1673ffffffffffffffffffffffffffffffffffffffff16815260200190815260200160002054101561108f576040517f08c379a00000000000000000000000000000000000000000000000000000000081526004018080602001828103825260388152602001806118446038913960400191505060405180910390fd5b81600c60003373ffffffffffffffffffffffffffffffffffffffff1673ffffffffffffffffffffffffffffffffffffffff1681526020019081526020016000206000828254039250508190555081600c60008573ffffffffffffffffffffffffffffffffffffffff1673ffffffffffffffffffffffffffffffffffffffff168152602001908152602001600020600082825401925050819055508273ffffffffffffffffffffffffffffffffffffffff163373ffffffffffffffffffffffffffffffffffffffff167fddf252ad1be2c89b69c2b068fc378daa952ba7f163c4a11628f55a4df523b3ef846040518082815260200191505060405180910390a36001905092915050565b60008082116111f2576040517f08c379a000000000000000000000000000000000000000000000000000000000815260040180806020018281038252602a815260200180611965602a913960400191505060405180910390fd5b600760009054906101000a900473ffffffffffffffffffffffffffffffffffffffff1673ffffffffffffffffffffffffffffffffffffffff1663dd62ed3e33306040518363ffffffff1660e01b8152600401808373ffffffffffffffffffffffffffffffffffffffff1673ffffffffffffffffffffffffffffffffffffffff1681526020018273ffffffffffffffffffffffffffffffffffffffff1673ffffffffffffffffffffffffffffffffffffffff1681526020019250505060206040518083038186803b1580156112c557600080fd5b505afa1580156112d9573d6000803e3d6000fd5b505050506040513d60208110156112ef57600080fd5b8101908080519060200190929190505050821115611375576040517f08c379a000000000000000000000000000000000000000000000000000000000815260040180806020018281038252601a8152602001807f496e73756666696369656e7420616d6f756e74206f662044414900000000000081525060200191505060405180910390fd5b600760009054906101000a900473ffffffffffffffffffffffffffffffffffffffff1673ffffffffffffffffffffffffffffffffffffffff1663095ea7b3600b60009054906101000a900473ffffffffffffffffffffffffffffffffffffffff16846040518363ffffffff1660e01b8152600401808373ffffffffffffffffffffffffffffffffffffffff1673ffffffffffffffffffffffffffffffffffffffff16815260200182815260200192505050602060405180830381600087803b15801561144057600080fd5b505af1158015611454573d6000803e3d6000fd5b505050506040513d602081101561146a57600080fd5b81019080805190602001909291905050506114d0576040517f08c379a000000000000000000000000000000000000000000000000000000000815260040180806020018281038252603981526020018061190b6039913960400191505060405180910390fd5b600760009054906101000a900473ffffffffffffffffffffffffffffffffffffffff1673ffffffffffffffffffffffffffffffffffffffff166323b872dd33600b60009054906101000a900473ffffffffffffffffffffffffffffffffffffffff16856040518463ffffffff1660e01b8152600401808473ffffffffffffffffffffffffffffffffffffffff1673ffffffffffffffffffffffffffffffffffffffff1681526020018373ffffffffffffffffffffffffffffffffffffffff1673ffffffffffffffffffffffffffffffffffffffff1681526020018281526020019350505050602060405180830381600087803b1580156115cf57600080fd5b505af11580156115e3573d6000803e3d6000fd5b505050506040513d60208110156115f957600080fd5b810190808051906020019092919050505061165f576040517f08c379a00000000000000000000000000000000000000000000000000000000081526004018080602001828103825260218152602001806119446021913960400191505060405180910390fd5b600b60009054906101000a900473ffffffffffffffffffffffffffffffffffffffff1673ffffffffffffffffffffffffffffffffffffffff1663388c0b8c83600f546040518363ffffffff1660e01b81526004018083815260200182815260200192505050602060405180830381600087803b1580156116de57600080fd5b505af11580156116f2573d6000803e3d6000fd5b505050506040513d602081101561170857600080fd5b810190808051906020019092919050505061178b576040517f08c379a00000000000000000000000000000000000000000000000000000000081526004018080602001828103825260208152602001807f436f756c64206e6f7420737570706c792044414920746f20436f6d706f756e6481525060200191505060405180910390fd5b3373ffffffffffffffffffffffffffffffffffffffff167f46fc0825df492a7a7f1fb1b690f6912ecb69575484fbb24be0f398ae70d97db4836040518082815260200191505060405180910390a260019050919050565b601181815481106117ef57fe5b906000526020600020016000915054906101000a900473ffffffffffffffffffffffffffffffffffffffff1681565b600d60205281600052604060002060205280600052604060002060009150915050548156fe5468652076616c75652073686f756c6420626520736d616c6c6572207468616e206f7220657175616c20746f207468652062616c616e63655468652076616c75652073686f756c6420626520736d616c6c6572207468616e206f7220657175616c20746f20746865206f776e657227732062616c616e63655468652076616c75652073686f756c6420626520736d616c6c6572207468616e206f7220657175616c20746f207468652062616c616e6365207468617420746865206f776e657220616c6c6f776564436f756c64206e6f7420617070726f766520746f20616c6c6f7720746865207244414920636f6e747261637420746f206d616e61676520697444414920776173206e6f742073656e7420746f20444170702070726f7065726c796465706f73697420616d6f756e742073686f756c642062652067726561746572207468616e207a65726fa165627a7a723058203ab3e2e5717d1ffbb9256e58ca5aaaa0f140bb92f9a6a763d885f3b55634a8a40029",
  "source": "pragma solidity ^0.5.0;\nimport \"openzeppelin-solidity/contracts/token/ERC20/IERC20.sol\";\nimport \"./IDai.sol\"; \nimport \"./ICErc20.sol\"; \nimport \"./IRToken.sol\";\n\ncontract HoodieToken {\n  // Basic set up for FDH\n  string public name = \"Flex Dapps Hoodie Token\";\n  string public symbol = \"FDH\";\n  string public standard = \"FDH Token v1.0\";\n  uint256 public totalSupply;\n  address public owner;\n  uint256 public balanceOfDai;\n\n  // Instantiate DAIContract with DAI address on rinkeby\n  address DAIAddress = 0x5592EC0cfb4dbc12D3aB100b257153436a1f0FEa;\n  IDai public DAIContract = IDai(DAIAddress);\n  \n  // Instantiate cDAIContract with cDAI address on rinkeby\n  address cDAIAddress = 0x6D7F0754FFeb405d23C51CE938289d4835bE3b14;\n  ICErc20 public cDAIContract = ICErc20(cDAIAddress);\n\n  //  Instantiate rDAIContract with rDAI address on rinkeby\n  address rDAIAddress = 0xb0C72645268E95696f5b6F40aa5b12E1eBdc8a5A;\n  IRToken public rDAIContract = IRToken(rDAIAddress);\n\n  // events\n  event Transfer(address indexed _from, address indexed _to, uint256 _value);\n  event Approval(address indexed _owner, address indexed _spender, uint256 _value);\n  event Depositted(address indexed sender, uint256 depositedAmount);\n\n  // number of FDH\n  mapping(address => uint256) public balanceOf;\n  mapping(address => mapping(address => uint256)) public allowance;\n  mapping(address => uint256) depositedAmount;\n\n  // Hat variables\n  uint256 public hatID;\n  address public recipient = 0x2471e35F51CF54265B20cCFAc3857c2DceEf7349;\n  uint32 public proportion = 100;\n  address[] public recipients = [recipient];\n  uint32[] public proportions = [proportion];\n  bool public doChangeHat = false;\n\n  constructor(uint256 _initialSupply) public {\n    owner = msg.sender;\n    totalSupply = _initialSupply;\n    balanceOf[msg.sender] = _initialSupply;\n    balanceOfDai = DAIContract.balanceOf(msg.sender);\n    hatID = rDAIContract.createHat(recipients, proportions, doChangeHat);\n  }\n\n  function transfer(address _to, uint256 _value) public payable returns (bool success) {\n    require(balanceOf[msg.sender] >= _value, \"The value should be smaller than or equal to the balance\");\n    balanceOf[msg.sender] -= _value;\n    balanceOf[_to] += _value;\n    emit Transfer(msg.sender, _to, _value);\n    return true;\n  }\n\n  function approve(address _spender, uint256 _value) public returns (bool success) {\n    allowance[msg.sender][_spender] = _value;\n    emit Approval(msg.sender, _spender, _value);\n    return true;\n  }\n\n  function transferFrom(address _from, address _to, uint256 _value) public payable returns (bool success) {\n    require(_value <= balanceOf[_from], \"The value should be smaller than or equal to the owner's balance\");\n    require(_value <= allowance[_from][msg.sender], \"The value should be smaller than or equal to the balance that the owner allowed\");\n    balanceOf[_from] -= _value;\n    balanceOf[_to] += _value;\n    allowance[_from][msg.sender] -= _value;\n    emit Transfer(_from, _to, _value);\n    return true;\n  }\n\n  function deposit(uint256 depositAmount) public payable returns (bool) {\n\n    require(depositAmount > 0, \"deposit amount should be greater than zero\");\n    require(depositAmount <= DAIContract.allowance(msg.sender, address(this)), \"Insufficient amount of DAI\");\n\n    // HoodieDapp approve rDAIContract to use the DAI from Hoo\n    require(DAIContract.approve(address(rDAIContract), depositAmount), \"Could not approve to allow the rDAI contract to manage it\");\n\n    // transfer DAI to rDAIContract from user\n    require(DAIContract.transferFrom(msg.sender, address(rDAIContract), depositAmount), \"DAI was not sent to DApp properly\");\n\n    // deposit DAI into Compound by rDAIContract\n    require(rDAIContract.mintWithSelectedHat(depositAmount, hatID), \"Could not supply DAI to Compound\");\n\n    emit Depositted(msg.sender, depositAmount);\n    return true;\n  }\n}",
  "sourcePath": "/Users/khiga619/Sites/FlexDappHoodie/contracts/HoodieToken.sol",
  "compiler": {
    "name": "solc",
    "version": "0.5.8+commit.23d335f2.Emscripten.clang"
  },
  "schemaVersion": "3.0.16",
  "updatedAt": "2019-10-14T05:23:58.015Z",
  "devdoc": {
    "methods": {}
  },
  "userdoc": {
    "methods": {}
  }
}