{
  "contractName": "HoodieToken",
  "abi": [
    {
      "constant": true,
      "inputs": [],
      "name": "minimumDaiDepositAmount",
      "outputs": [
        {
          "name": "",
          "type": "uint256"
        }
      ],
      "payable": false,
      "stateMutability": "view",
      "type": "function"
    },
    {
      "constant": true,
      "inputs": [],
      "name": "totalWaitingUsers",
      "outputs": [
        {
          "name": "",
          "type": "uint256"
        }
      ],
      "payable": false,
      "stateMutability": "view",
      "type": "function"
    },
    {
      "constant": true,
      "inputs": [],
      "name": "rDAIContract",
      "outputs": [
        {
          "name": "",
          "type": "address"
        }
      ],
      "payable": false,
      "stateMutability": "view",
      "type": "function"
    },
    {
      "constant": true,
      "inputs": [],
      "name": "nextQueuePosition",
      "outputs": [
        {
          "name": "",
          "type": "uint256"
        }
      ],
      "payable": false,
      "stateMutability": "view",
      "type": "function"
    },
    {
      "constant": true,
      "inputs": [
        {
          "name": "",
          "type": "uint256"
        }
      ],
      "name": "users",
      "outputs": [
        {
          "name": "userAddress",
          "type": "address"
        },
        {
          "name": "daiDeposited",
          "type": "uint256"
        },
        {
          "name": "isWaiting",
          "type": "bool"
        },
        {
          "name": "hasDeposited",
          "type": "bool"
        },
        {
          "name": "hoodiesReceived",
          "type": "uint256"
        }
      ],
      "payable": false,
      "stateMutability": "view",
      "type": "function"
    },
    {
      "constant": true,
      "inputs": [],
      "name": "DAIContract",
      "outputs": [
        {
          "name": "",
          "type": "address"
        }
      ],
      "payable": false,
      "stateMutability": "view",
      "type": "function"
    },
    {
      "constant": true,
      "inputs": [
        {
          "name": "",
          "type": "address"
        }
      ],
      "name": "userQueuePositions",
      "outputs": [
        {
          "name": "",
          "type": "uint256"
        }
      ],
      "payable": false,
      "stateMutability": "view",
      "type": "function"
    },
    {
      "constant": true,
      "inputs": [],
      "name": "interestRequiredForHoodie",
      "outputs": [
        {
          "name": "",
          "type": "uint256"
        }
      ],
      "payable": false,
      "stateMutability": "view",
      "type": "function"
    },
    {
      "constant": true,
      "inputs": [],
      "name": "totalHoodiesIssued",
      "outputs": [
        {
          "name": "",
          "type": "uint256"
        }
      ],
      "payable": false,
      "stateMutability": "view",
      "type": "function"
    },
    {
      "constant": true,
      "inputs": [],
      "name": "rDaiHatId",
      "outputs": [
        {
          "name": "",
          "type": "uint256"
        }
      ],
      "payable": false,
      "stateMutability": "view",
      "type": "function"
    },
    {
      "constant": true,
      "inputs": [
        {
          "name": "",
          "type": "uint256"
        }
      ],
      "name": "proportions",
      "outputs": [
        {
          "name": "",
          "type": "uint32"
        }
      ],
      "payable": false,
      "stateMutability": "view",
      "type": "function"
    },
    {
      "constant": true,
      "inputs": [],
      "name": "totalDaiDeposited",
      "outputs": [
        {
          "name": "",
          "type": "uint256"
        }
      ],
      "payable": false,
      "stateMutability": "view",
      "type": "function"
    },
    {
      "constant": true,
      "inputs": [
        {
          "name": "",
          "type": "uint256"
        }
      ],
      "name": "recipients",
      "outputs": [
        {
          "name": "",
          "type": "address"
        }
      ],
      "payable": false,
      "stateMutability": "view",
      "type": "function"
    },
    {
      "constant": true,
      "inputs": [],
      "name": "allowChange",
      "outputs": [
        {
          "name": "",
          "type": "bool"
        }
      ],
      "payable": false,
      "stateMutability": "view",
      "type": "function"
    },
    {
      "constant": true,
      "inputs": [],
      "name": "nextRecipientIndex",
      "outputs": [
        {
          "name": "",
          "type": "uint256"
        }
      ],
      "payable": false,
      "stateMutability": "view",
      "type": "function"
    },
    {
      "constant": true,
      "inputs": [],
      "name": "admin",
      "outputs": [
        {
          "name": "",
          "type": "address"
        }
      ],
      "payable": false,
      "stateMutability": "view",
      "type": "function"
    },
    {
      "inputs": [
        {
          "name": "_daiAddress",
          "type": "address"
        },
        {
          "name": "_rDaiAddress",
          "type": "address"
        }
      ],
      "payable": false,
      "stateMutability": "nonpayable",
      "type": "constructor"
    },
    {
      "anonymous": false,
      "inputs": [
        {
          "indexed": false,
          "name": "user",
          "type": "address"
        },
        {
          "indexed": false,
          "name": "daiDeposited",
          "type": "uint256"
        }
      ],
      "name": "Deposit",
      "type": "event"
    },
    {
      "anonymous": false,
      "inputs": [
        {
          "indexed": false,
          "name": "user",
          "type": "address"
        },
        {
          "indexed": false,
          "name": "newDaiDeposited",
          "type": "uint256"
        }
      ],
      "name": "Redeem",
      "type": "event"
    },
    {
      "anonymous": false,
      "inputs": [
        {
          "indexed": false,
          "name": "recipient",
          "type": "address"
        }
      ],
      "name": "IssueHoodie",
      "type": "event"
    },
    {
      "constant": false,
      "inputs": [
        {
          "name": "depositAmount",
          "type": "uint256"
        }
      ],
      "name": "depositDai",
      "outputs": [
        {
          "name": "",
          "type": "bool"
        }
      ],
      "payable": false,
      "stateMutability": "nonpayable",
      "type": "function"
    },
    {
      "constant": false,
      "inputs": [
        {
          "name": "redeemAmount",
          "type": "uint256"
        }
      ],
      "name": "redeemRDai",
      "outputs": [
        {
          "name": "",
          "type": "bool"
        }
      ],
      "payable": false,
      "stateMutability": "nonpayable",
      "type": "function"
    },
    {
      "constant": false,
      "inputs": [],
      "name": "issueHoodie",
      "outputs": [
        {
          "name": "",
          "type": "bool"
        }
      ],
      "payable": false,
      "stateMutability": "nonpayable",
      "type": "function"
    },
    {
      "constant": false,
      "inputs": [
        {
          "name": "daiContractAddress",
          "type": "address"
        }
      ],
      "name": "updateDaiContractAddress",
      "outputs": [
        {
          "name": "",
          "type": "bool"
        }
      ],
      "payable": false,
      "stateMutability": "nonpayable",
      "type": "function"
    },
    {
      "constant": false,
      "inputs": [
        {
          "name": "rDaiContractAddress",
          "type": "address"
        }
      ],
      "name": "updateRDaiContractAddress",
      "outputs": [
        {
          "name": "",
          "type": "bool"
        }
      ],
      "payable": false,
      "stateMutability": "nonpayable",
      "type": "function"
    },
    {
      "constant": true,
      "inputs": [],
      "name": "getNextRecipientAddress",
      "outputs": [
        {
          "name": "",
          "type": "address"
        }
      ],
      "payable": false,
      "stateMutability": "view",
      "type": "function"
    }
  ],
  "bytecode": "0x60806040526000600660006101000a81548160ff02191690831515021790555060006007556000600855670de0b6b3a76400006009556801158e460913d00000600a556000600b556001600c556001600d553480156200005e57600080fd5b5060405160408062003366833981018060405260408110156200008057600080fd5b810190808051906020019092919080519060200190929190505050336000806101000a81548173ffffffffffffffffffffffffffffffffffffffff021916908373ffffffffffffffffffffffffffffffffffffffff16021790555081600160006101000a81548173ffffffffffffffffffffffffffffffffffffffff021916908373ffffffffffffffffffffffffffffffffffffffff16021790555080600260006101000a81548173ffffffffffffffffffffffffffffffffffffffff021916908373ffffffffffffffffffffffffffffffffffffffff16021790555060046000809054906101000a900473ffffffffffffffffffffffffffffffffffffffff1690806001815401808255809150509060018203906000526020600020016000909192909190916101000a81548173ffffffffffffffffffffffffffffffffffffffff021916908373ffffffffffffffffffffffffffffffffffffffff1602179055505060056064908060018154018082558091505090600182039060005260206000209060089182820401919006600402909192909190916101000a81548163ffffffff021916908363ffffffff16021790555050600260009054906101000a900473ffffffffffffffffffffffffffffffffffffffff1673ffffffffffffffffffffffffffffffffffffffff16635cde505560046005600660009054906101000a900460ff166040518463ffffffff1660e01b81526004018080602001806020018415151515815260200183810383528681815481526020019150805480156200032257602002820191906000526020600020905b8160009054906101000a900473ffffffffffffffffffffffffffffffffffffffff1673ffffffffffffffffffffffffffffffffffffffff1681526020019060010190808311620002d7575b505083810382528581815481526020019150805480156200038f57602002820191906000526020600020906000905b82829054906101000a900463ffffffff1663ffffffff1681526020019060040190602082600301049283019260010382029150808411620003515790505b505095505050505050602060405180830381600087803b158015620003b357600080fd5b505af1158015620003c8573d6000803e3d6000fd5b505050506040513d6020811015620003df57600080fd5b81019080805190602001909291905050506003819055505050612f5e80620004086000396000f3fe608060405234801561001057600080fd5b50600436106101425760003560e01c806342419f46116100b8578063b0827e5c1161007c578063b0827e5c14610531578063d1bc76a11461054f578063d5ff56f8146105bd578063df9dbcca146105df578063f1de77fb146105fd578063f851a4401461064357610142565b806342419f46146104675780635bfb43771461048557806368c109fb146104a3578063826518c9146104c1578063a374adab1461050f57610142565b806331cd3a6d1161010a57806331cd3a6d1461028557806335842f74146102a3578063365b98b2146102e9578063399cd2501461037b5780633c0f5fbe146103c55780633d2437401461040f57610142565b8063070a5d3b146101475780630afcc36c146101a35780630e9ee66a146101c1578063279f1ea4146101df5780632f048d5d1461023b575b600080fd5b6101896004803603602081101561015d57600080fd5b81019080803573ffffffffffffffffffffffffffffffffffffffff16906020019092919050505061068d565b604051808215151515815260200191505060405180910390f35b6101ab61077e565b6040518082815260200191505060405180910390f35b6101c9610784565b6040518082815260200191505060405180910390f35b610221600480360360208110156101f557600080fd5b81019080803573ffffffffffffffffffffffffffffffffffffffff16906020019092919050505061078a565b604051808215151515815260200191505060405180910390f35b61024361087b565b604051808273ffffffffffffffffffffffffffffffffffffffff1673ffffffffffffffffffffffffffffffffffffffff16815260200191505060405180910390f35b61028d6108a1565b6040518082815260200191505060405180910390f35b6102cf600480360360208110156102b957600080fd5b81019080803590602001909291905050506108a7565b604051808215151515815260200191505060405180910390f35b610315600480360360208110156102ff57600080fd5b8101908080359060200190929190505050610c63565b604051808673ffffffffffffffffffffffffffffffffffffffff1673ffffffffffffffffffffffffffffffffffffffff16815260200185815260200184151515158152602001831515151581526020018281526020019550505050505060405180910390f35b610383610cd3565b604051808273ffffffffffffffffffffffffffffffffffffffff1673ffffffffffffffffffffffffffffffffffffffff16815260200191505060405180910390f35b6103cd610d13565b604051808273ffffffffffffffffffffffffffffffffffffffff1673ffffffffffffffffffffffffffffffffffffffff16815260200191505060405180910390f35b6104516004803603602081101561042557600080fd5b81019080803573ffffffffffffffffffffffffffffffffffffffff169060200190929190505050610d39565b6040518082815260200191505060405180910390f35b61046f610d51565b6040518082815260200191505060405180910390f35b61048d610d57565b6040518082815260200191505060405180910390f35b6104ab610d5d565b6040518082815260200191505060405180910390f35b6104ed600480360360208110156104d757600080fd5b8101908080359060200190929190505050610d63565b604051808263ffffffff1663ffffffff16815260200191505060405180910390f35b610517610d9a565b604051808215151515815260200191505060405180910390f35b610539611471565b6040518082815260200191505060405180910390f35b61057b6004803603602081101561056557600080fd5b8101908080359060200190929190505050611477565b604051808273ffffffffffffffffffffffffffffffffffffffff1673ffffffffffffffffffffffffffffffffffffffff16815260200191505060405180910390f35b6105c56114b3565b604051808215151515815260200191505060405180910390f35b6105e76114c6565b6040518082815260200191505060405180910390f35b6106296004803603602081101561061357600080fd5b81019080803590602001909291905050506114cc565b604051808215151515815260200191505060405180910390f35b61064b611a7a565b604051808273ffffffffffffffffffffffffffffffffffffffff1673ffffffffffffffffffffffffffffffffffffffff16815260200191505060405180910390f35b60008060009054906101000a900473ffffffffffffffffffffffffffffffffffffffff1673ffffffffffffffffffffffffffffffffffffffff163373ffffffffffffffffffffffffffffffffffffffff1614610734576040517f08c379a0000000000000000000000000000000000000000000000000000000008152600401808060200182810382526023815260200180612e856023913960400191505060405180910390fd5b81600260006101000a81548173ffffffffffffffffffffffffffffffffffffffff021916908373ffffffffffffffffffffffffffffffffffffffff16021790555060019050919050565b60095481565b600b5481565b60008060009054906101000a900473ffffffffffffffffffffffffffffffffffffffff1673ffffffffffffffffffffffffffffffffffffffff163373ffffffffffffffffffffffffffffffffffffffff1614610831576040517f08c379a0000000000000000000000000000000000000000000000000000000008152600401808060200182810382526023815260200180612e856023913960400191505060405180910390fd5b81600160006101000a81548173ffffffffffffffffffffffffffffffffffffffff021916908373ffffffffffffffffffffffffffffffffffffffff16021790555060019050919050565b600260009054906101000a900473ffffffffffffffffffffffffffffffffffffffff1681565b600d5481565b600080600e60003373ffffffffffffffffffffffffffffffffffffffff1673ffffffffffffffffffffffffffffffffffffffff1681526020019081526020016000205490506108f4612d50565b600f60008381526020019081526020016000206040518060a00160405290816000820160009054906101000a900473ffffffffffffffffffffffffffffffffffffffff1673ffffffffffffffffffffffffffffffffffffffff1673ffffffffffffffffffffffffffffffffffffffff168152602001600182015481526020016002820160009054906101000a900460ff161515151581526020016002820160019054906101000a900460ff1615151515815260200160038201548152505090508060600151610af657600954841015610a18576040517f08c379a0000000000000000000000000000000000000000000000000000000008152600401808060200182810382526037815260200180612dc16037913960400191505060405180910390fd5b610a2184611a9f565b610a93576040517f08c379a00000000000000000000000000000000000000000000000000000000081526004018080602001828103825260128152602001807f6d696e696e672072444149206661696c6564000000000000000000000000000081525060200191505060405180910390fd5b610a9c84612045565b610af1576040517f08c379a0000000000000000000000000000000000000000000000000000000008152600401808060200182810382526031815260200180612ee16031913960400191505060405180910390fd5b610bed565b610aff84611a9f565b610b71576040517f08c379a00000000000000000000000000000000000000000000000000000000081526004018080602001828103825260138152602001807f6661696c656420746f206d696e7420724441490000000000000000000000000081525060200191505060405180910390fd5b610b7a846121cc565b610bec576040517f08c379a00000000000000000000000000000000000000000000000000000000081526004018080602001828103825260148152602001807f6661696c656420746f20746f702075702044414900000000000000000000000081525060200191505060405180910390fd5b5b7fe1fffcc4923d04b559f4d29a8bfc6cda04eb5b0d3c460751c2402c5c5cc9109c3385604051808373ffffffffffffffffffffffffffffffffffffffff1673ffffffffffffffffffffffffffffffffffffffff1681526020018281526020019250505060405180910390a1600192505050919050565b600f6020528060005260406000206000915090508060000160009054906101000a900473ffffffffffffffffffffffffffffffffffffffff16908060010154908060020160009054906101000a900460ff16908060020160019054906101000a900460ff16908060030154905085565b6000600f6000600c54815260200190815260200160002060000160009054906101000a900473ffffffffffffffffffffffffffffffffffffffff16905090565b600160009054906101000a900473ffffffffffffffffffffffffffffffffffffffff1681565b600e6020528060005260406000206000915090505481565b600a5481565b60085481565b60035481565b60058181548110610d7057fe5b9060005260206000209060089182820401919006600402915054906101000a900463ffffffff1681565b600080610da56123d0565b905080610f2557600260009054906101000a900473ffffffffffffffffffffffffffffffffffffffff1673ffffffffffffffffffffffffffffffffffffffff1663d007c6446000809054906101000a900473ffffffffffffffffffffffffffffffffffffffff166040518263ffffffff1660e01b8152600401808273ffffffffffffffffffffffffffffffffffffffff1673ffffffffffffffffffffffffffffffffffffffff168152602001915050602060405180830381600087803b158015610e6e57600080fd5b505af1158015610e82573d6000803e3d6000fd5b505050506040513d6020811015610e9857600080fd5b8101908080519060200190929190505050610f1b576040517f08c379a00000000000000000000000000000000000000000000000000000000081526004018080602001828103825260158152602001807f6661696c64656420706179496e7465726573742829000000000000000000000081525060200191505060405180910390fd5b600191505061146e565b6000600f6000600c54815260200190815260200160002090506000600260009054906101000a900473ffffffffffffffffffffffffffffffffffffffff1673ffffffffffffffffffffffffffffffffffffffff166377ede0516000809054906101000a900473ffffffffffffffffffffffffffffffffffffffff166040518263ffffffff1660e01b8152600401808273ffffffffffffffffffffffffffffffffffffffff1673ffffffffffffffffffffffffffffffffffffffff16815260200191505060206040518083038186803b15801561100057600080fd5b505afa158015611014573d6000803e3d6000fd5b505050506040513d602081101561102a57600080fd5b810190808051906020019092919050505011611091576040517f08c379a000000000000000000000000000000000000000000000000000000000815260040180806020018281038252602f815260200180612df8602f913960400191505060405180910390fd5b6110be8160000160009054906101000a900473ffffffffffffffffffffffffffffffffffffffff16612516565b611113576040517f08c379a0000000000000000000000000000000000000000000000000000000008152600401808060200182810382526021815260200180612f126021913960400191505060405180910390fd5b600260009054906101000a900473ffffffffffffffffffffffffffffffffffffffff1673ffffffffffffffffffffffffffffffffffffffff1663d007c6446000809054906101000a900473ffffffffffffffffffffffffffffffffffffffff166040518263ffffffff1660e01b8152600401808273ffffffffffffffffffffffffffffffffffffffff1673ffffffffffffffffffffffffffffffffffffffff168152602001915050602060405180830381600087803b1580156111d557600080fd5b505af11580156111e9573d6000803e3d6000fd5b505050506040513d60208110156111ff57600080fd5b8101908080519060200190929190505050611282576040517f08c379a00000000000000000000000000000000000000000000000000000000081526004018080602001828103825260158152602001807f6661696c64656420706179496e7465726573742829000000000000000000000081525060200191505060405180910390fd5b8060030160008154809291906001019190505550600860008154809291906001019190505550600c6000815480929190600101919050555061136e816040518060a00160405290816000820160009054906101000a900473ffffffffffffffffffffffffffffffffffffffff1673ffffffffffffffffffffffffffffffffffffffff1673ffffffffffffffffffffffffffffffffffffffff168152602001600182015481526020016002820160009054906101000a900460ff161515151581526020016002820160019054906101000a900460ff16151515158152602001600382015481525050612ad6565b6113e0576040517f08c379a000000000000000000000000000000000000000000000000000000000815260040180806020018281038252601a8152602001807f6661696c656420746f20757064617465207573657220696e666f00000000000081525060200191505060405180910390fd5b7fc7190794aaa4586181fa63eeeceeb88fe2054e60ae11b63d10983c65193367b18160000160009054906101000a900473ffffffffffffffffffffffffffffffffffffffff16604051808273ffffffffffffffffffffffffffffffffffffffff1673ffffffffffffffffffffffffffffffffffffffff16815260200191505060405180910390a16001925050505b90565b60075481565b6004818154811061148457fe5b906000526020600020016000915054906101000a900473ffffffffffffffffffffffffffffffffffffffff1681565b600660009054906101000a900460ff1681565b600c5481565b600080600e60003373ffffffffffffffffffffffffffffffffffffffff1673ffffffffffffffffffffffffffffffffffffffff1681526020019081526020016000205490506000600f6000838152602001908152602001600020905083816001015410156115a2576040517f08c379a000000000000000000000000000000000000000000000000000000000815260040180806020018281038252601b8152602001807f696e73756666696369656e7420616d6f756e74206f662072444149000000000081525060200191505060405180910390fd5b600260009054906101000a900473ffffffffffffffffffffffffffffffffffffffff1673ffffffffffffffffffffffffffffffffffffffff166323b872dd3330876040518463ffffffff1660e01b8152600401808473ffffffffffffffffffffffffffffffffffffffff1673ffffffffffffffffffffffffffffffffffffffff1681526020018373ffffffffffffffffffffffffffffffffffffffff1673ffffffffffffffffffffffffffffffffffffffff1681526020018281526020019350505050602060405180830381600087803b15801561167f57600080fd5b505af1158015611693573d6000803e3d6000fd5b505050506040513d60208110156116a957600080fd5b810190808051906020019092919050505061170f576040517f08c379a0000000000000000000000000000000000000000000000000000000008152600401808060200182810382526027815260200180612d9a6027913960400191505060405180910390fd5b600260009054906101000a900473ffffffffffffffffffffffffffffffffffffffff1673ffffffffffffffffffffffffffffffffffffffff1663db006a75856040518263ffffffff1660e01b815260040180828152602001915050602060405180830381600087803b15801561178457600080fd5b505af1158015611798573d6000803e3d6000fd5b505050506040513d60208110156117ae57600080fd5b8101908080519060200190929190505050611831576040517f08c379a000000000000000000000000000000000000000000000000000000000815260040180806020018281038252600f8152602001807f72656465656d2829206661696c6564000000000000000000000000000000000081525060200191505060405180910390fd5b600160009054906101000a900473ffffffffffffffffffffffffffffffffffffffff1673ffffffffffffffffffffffffffffffffffffffff1663a9059cbb33866040518363ffffffff1660e01b8152600401808373ffffffffffffffffffffffffffffffffffffffff1673ffffffffffffffffffffffffffffffffffffffff16815260200182815260200192505050602060405180830381600087803b1580156118da57600080fd5b505af11580156118ee573d6000803e3d6000fd5b505050506040513d602081101561190457600080fd5b8101908080519060200190929190505050611987576040517f08c379a000000000000000000000000000000000000000000000000000000000815260040180806020018281038252601b8152602001807f5472616e736665722044414920746f2075736572206661696c6564000000000081525060200191505060405180910390fd5b61199e848260010154612c3f90919063ffffffff16565b81600101819055506119bb84600754612c3f90919063ffffffff16565b60078190555060095481600101541015611a005760008160020160006101000a81548160ff021916908315150217905550600b60008154809291906001900391905055505b7f222838db2794d11532d940e8dec38ae307ed0b63cd97c233322e221f998767a6338260010154604051808373ffffffffffffffffffffffffffffffffffffffff1673ffffffffffffffffffffffffffffffffffffffff1681526020018281526020019250505060405180910390a1600192505050919050565b6000809054906101000a900473ffffffffffffffffffffffffffffffffffffffff1681565b6000600160009054906101000a900473ffffffffffffffffffffffffffffffffffffffff1673ffffffffffffffffffffffffffffffffffffffff166323b872dd3330856040518463ffffffff1660e01b8152600401808473ffffffffffffffffffffffffffffffffffffffff1673ffffffffffffffffffffffffffffffffffffffff1681526020018373ffffffffffffffffffffffffffffffffffffffff1673ffffffffffffffffffffffffffffffffffffffff1681526020018281526020019350505050602060405180830381600087803b158015611b7e57600080fd5b505af1158015611b92573d6000803e3d6000fd5b505050506040513d6020811015611ba857600080fd5b8101908080519060200190929190505050611c0e576040517f08c379a0000000000000000000000000000000000000000000000000000000008152600401808060200182810382526026815260200180612e5f6026913960400191505060405180910390fd5b600160009054906101000a900473ffffffffffffffffffffffffffffffffffffffff1673ffffffffffffffffffffffffffffffffffffffff1663095ea7b3600260009054906101000a900473ffffffffffffffffffffffffffffffffffffffff16846040518363ffffffff1660e01b8152600401808373ffffffffffffffffffffffffffffffffffffffff1673ffffffffffffffffffffffffffffffffffffffff16815260200182815260200192505050602060405180830381600087803b158015611cd957600080fd5b505af1158015611ced573d6000803e3d6000fd5b505050506040513d6020811015611d0357600080fd5b8101908080519060200190929190505050611d86576040517f08c379a00000000000000000000000000000000000000000000000000000000081526004018080602001828103825260118152602001807f617070726f7665282920696e76616c696400000000000000000000000000000081525060200191505060405180910390fd5b600260009054906101000a900473ffffffffffffffffffffffffffffffffffffffff1673ffffffffffffffffffffffffffffffffffffffff1663388c0b8c836003546040518363ffffffff1660e01b81526004018083815260200182815260200192505050602060405180830381600087803b158015611e0557600080fd5b505af1158015611e19573d6000803e3d6000fd5b505050506040513d6020811015611e2f57600080fd5b8101908080519060200190929190505050611eb2576040517f08c379a000000000000000000000000000000000000000000000000000000000815260040180806020018281038252600e8152602001807f6d696e74696e67206661696c656400000000000000000000000000000000000081525060200191505060405180910390fd5b600260009054906101000a900473ffffffffffffffffffffffffffffffffffffffff1673ffffffffffffffffffffffffffffffffffffffff166323b872dd3033856040518463ffffffff1660e01b8152600401808473ffffffffffffffffffffffffffffffffffffffff1673ffffffffffffffffffffffffffffffffffffffff1681526020018373ffffffffffffffffffffffffffffffffffffffff1673ffffffffffffffffffffffffffffffffffffffff1681526020018281526020019350505050602060405180830381600087803b158015611f8f57600080fd5b505af1158015611fa3573d6000803e3d6000fd5b505050506040513d6020811015611fb957600080fd5b810190808051906020019092919050505061203c576040517f08c379a000000000000000000000000000000000000000000000000000000000815260040180806020018281038252601c8152602001807f5472616e73666572207244414920746f2075736572206661696c65640000000081525060200191505060405180910390fd5b60019050919050565b6000600d54600e60003373ffffffffffffffffffffffffffffffffffffffff1673ffffffffffffffffffffffffffffffffffffffff168152602001908152602001600020819055506040518060a001604052803373ffffffffffffffffffffffffffffffffffffffff1681526020018381526020016001151581526020016001151581526020016000815250600f6000600d54815260200190815260200160002060008201518160000160006101000a81548173ffffffffffffffffffffffffffffffffffffffff021916908373ffffffffffffffffffffffffffffffffffffffff1602179055506020820151816001015560408201518160020160006101000a81548160ff02191690831515021790555060608201518160020160016101000a81548160ff0219169083151502179055506080820151816003015590505061219982600754612cc890919063ffffffff16565b600781905550600b60008154809291906001019190505550600d6000815480929190600101919050555060019050919050565b600080600e60003373ffffffffffffffffffffffffffffffffffffffff1673ffffffffffffffffffffffffffffffffffffffff1681526020019081526020016000205490506000600f6000838152602001908152602001600020905061223f848260010154612cc890919063ffffffff16565b816001018190555060095481600101541015801561226c57508060020160009054906101000a900460ff16155b156123aa57612325816040518060a00160405290816000820160009054906101000a900473ffffffffffffffffffffffffffffffffffffffff1673ffffffffffffffffffffffffffffffffffffffff1673ffffffffffffffffffffffffffffffffffffffff168152602001600182015481526020016002820160009054906101000a900460ff161515151581526020016002820160019054906101000a900460ff16151515158152602001600382015481525050612ad6565b612397576040517f08c379a000000000000000000000000000000000000000000000000000000000815260040180806020018281038252601a8152602001807f6661696c656420746f20757064617465207573657220696e666f00000000000081525060200191505060405180910390fd5b600b600081548092919060010191905055505b6123bf84600754612cc890919063ffffffff16565b600781905550600192505050919050565b600080600c5490505b600d548111612504576123ea612d50565b600f60008381526020019081526020016000206040518060a00160405290816000820160009054906101000a900473ffffffffffffffffffffffffffffffffffffffff1673ffffffffffffffffffffffffffffffffffffffff1673ffffffffffffffffffffffffffffffffffffffff168152602001600182015481526020016002820160009054906101000a900460ff161515151581526020016002820160019054906101000a900460ff161515151581526020016003820154815250509050806040015180156124bc5750600c5482145b156124cc57600192505050612513565b806040015180156124df5750600c548214155b156124f65781600c81905550600192505050612513565b5080806001019150506123d9565b600d54600c8190555060009150505b90565b600080600e60008473ffffffffffffffffffffffffffffffffffffffff1673ffffffffffffffffffffffffffffffffffffffff168152602001908152602001600020549050612563612d50565b600f60008381526020019081526020016000206040518060a00160405290816000820160009054906101000a900473ffffffffffffffffffffffffffffffffffffffff1673ffffffffffffffffffffffffffffffffffffffff1673ffffffffffffffffffffffffffffffffffffffff168152602001600182015481526020016002820160009054906101000a900460ff161515151581526020016002820160019054906101000a900460ff1615151515815260200160038201548152505090506000606080600260009054906101000a900473ffffffffffffffffffffffffffffffffffffffff1673ffffffffffffffffffffffffffffffffffffffff1663054ab01a886040518263ffffffff1660e01b8152600401808273ffffffffffffffffffffffffffffffffffffffff1673ffffffffffffffffffffffffffffffffffffffff16815260200191505060006040518083038186803b1580156126c757600080fd5b505afa1580156126db573d6000803e3d6000fd5b505050506040513d6000823e3d601f19601f82011682018060405250606081101561270557600080fd5b8101908080519060200190929190805164010000000081111561272757600080fd5b8281019050602081018481111561273d57600080fd5b815185602082028301116401000000008211171561275a57600080fd5b5050929190602001805164010000000081111561277657600080fd5b8281019050602081018481111561278c57600080fd5b81518560208202830111640100000000821117156127a957600080fd5b50509291905050508093508194508295505050506000826000815181106127cc57fe5b602002602001015190506000826000815181106127e557fe5b602002602001015190506003548514612849576040517f08c379a0000000000000000000000000000000000000000000000000000000008152600401808060200182810382526038815260200180612e276038913960400191505060405180910390fd5b6000809054906101000a900473ffffffffffffffffffffffffffffffffffffffff1673ffffffffffffffffffffffffffffffffffffffff168273ffffffffffffffffffffffffffffffffffffffff161461290b576040517f08c379a000000000000000000000000000000000000000000000000000000000815260040180806020018281038252601e8152602001807f4e6f206d7563682077697468207468652061646d696e2061646472657373000081525060200191505060405180910390fd5b63ffffffff8163ffffffff161461298a576040517f08c379a000000000000000000000000000000000000000000000000000000000815260040180806020018281038252601b8152602001807f4e6f206d7563682077697468207468652070726f706f7274696f6e000000000081525060200191505060405180910390fd5b6000600260009054906101000a900473ffffffffffffffffffffffffffffffffffffffff1673ffffffffffffffffffffffffffffffffffffffff166370a082318b6040518263ffffffff1660e01b8152600401808273ffffffffffffffffffffffffffffffffffffffff1673ffffffffffffffffffffffffffffffffffffffff16815260200191505060206040518083038186803b158015612a2b57600080fd5b505afa158015612a3f573d6000803e3d6000fd5b505050506040513d6020811015612a5557600080fd5b810190808051906020019092919050505090508660200151811015612ac5576040517f08c379a0000000000000000000000000000000000000000000000000000000008152600401808060200182810382526039815260200180612ea86039913960400191505060405180910390fd5b600198505050505050505050919050565b6000600d54600e6000846000015173ffffffffffffffffffffffffffffffffffffffff1673ffffffffffffffffffffffffffffffffffffffff168152602001908152602001600020819055506040518060a00160405280836000015173ffffffffffffffffffffffffffffffffffffffff168152602001836020015181526020016001151581526020016001151581526020018360800151815250600f6000600d54815260200190815260200160002060008201518160000160006101000a81548173ffffffffffffffffffffffffffffffffffffffff021916908373ffffffffffffffffffffffffffffffffffffffff1602179055506020820151816001015560408201518160020160006101000a81548160ff02191690831515021790555060608201518160020160016101000a81548160ff02191690831515021790555060808201518160030155905050600d6000815480929190600101919050555060019050919050565b600082821115612cb7576040517f08c379a000000000000000000000000000000000000000000000000000000000815260040180806020018281038252601e8152602001807f536166654d6174683a207375627472616374696f6e206f766572666c6f77000081525060200191505060405180910390fd5b600082840390508091505092915050565b600080828401905083811015612d46576040517f08c379a000000000000000000000000000000000000000000000000000000000815260040180806020018281038252601b8152602001807f536166654d6174683a206164646974696f6e206f766572666c6f77000000000081525060200191505060405180910390fd5b8091505092915050565b6040518060a00160405280600073ffffffffffffffffffffffffffffffffffffffff1681526020016000815260200160001515815260200160001515815260200160008152509056fe5472616e73666572207244414920746f20486f6f64696520636f6e7472616374206661696c65644465706f73697420616d6f756e742073686f756c6420626520657175616c20746f202f2067726561746572207468616e2032303044414974686520696e74657265737420616d6f756e7420686173206e6f7420726561636865642032302072444149207965747573657220646f6573206e6f742068617665207468652073616d65206861742061732074686520686f6f64696520636f6e747261637427735472616e736665722044414920746f20486f6f64696520636f6e7472616374206661696c65646f6e6c792061646d696e2063616e20696e766f6b6520746869732066756e6374696f6e75736572277320724441492062616c616e636520697320736d616c6c6572207468616e2074686520686f6f64696520636f6e747261637427736661696c64656420746f2061646420746865207573657220616761696e20746f207468652077616974696e67206c6973747573657220646f6573206e6f7420686176652074686520686f6f64696520686174a165627a7a7230582079aaf67f54d3c4d40181391505e60d2a33d6855eeb16183bd281abb7dc87e9e80029",
  "source": "pragma solidity ^0.5.8;\nimport \"../node_modules/openzeppelin-solidity/contracts/math/SafeMath.sol\";\nimport \"./IDai.sol\";\nimport \"./IRToken.sol\";\n\ncontract HoodieToken {\n  using SafeMath for uint256;\n\n  address public admin;\n\n  struct User {\n    address userAddress;\n    uint256 daiDeposited;\n    bool isWaiting;\n    bool hasDeposited;\n    uint256 hoodiesReceived;\n  }\n\n  // Instantiate DAIContract with DAI address on rinkeby\n  // Instantiate rDAIContract with rDAI address on rinkeby\n  IDai public DAIContract;\n  IRToken public rDAIContract;\n\n  // Hat setting (rDAI settings)\n  uint256 public rDaiHatId;\n  address[] public recipients;\n  uint32[] public proportions;\n  bool public allowChange = false;\n\n  uint256 public totalDaiDeposited = 0;\n  uint256 public totalHoodiesIssued = 0;\n  uint256 public minimumDaiDepositAmount = 1 * 10 ** 18; // for test\n  uint256 public interestRequiredForHoodie = 20 * 10 ** 18;\n\n  uint256 public totalWaitingUsers = 0;\n  uint256 public nextRecipientIndex = 1;\n  uint256 public nextQueuePosition = 1;\n  mapping(address => uint256) public userQueuePositions;\n  mapping(uint256 => User) public users;\n\n  event Deposit(address user, uint256 daiDeposited);\n  event Redeem(address user, uint256 newDaiDeposited);\n  event IssueHoodie(address recipient);\n\n  constructor(address _daiAddress, address _rDaiAddress) public {\n    admin = msg.sender;\n    DAIContract = IDai(_daiAddress);\n    rDAIContract = IRToken(_rDaiAddress);\n\n    // rDaiHat setting\n    recipients.push(admin);\n    proportions.push(100);\n    rDaiHatId = rDAIContract.createHat(recipients, proportions, allowChange);\n  }\n\n  function depositDai(uint256 depositAmount) public returns (bool) {\n    uint256 userPosition = userQueuePositions[msg.sender];\n    User memory user = users[userPosition];\n    if(!user.hasDeposited) {\n      // new user\n      require(depositAmount >= minimumDaiDepositAmount, \"Deposit amount should be equal to / greater than 200DAI\");\n      require(_mintRDai(depositAmount), \"mining rDAI failed\");\n      require(_addNewUserToQueue(depositAmount), \"failded to add the user again to the waiting list\");\n    } else {\n      // existing user\n      require(_mintRDai(depositAmount), \"failed to mint rDAI\");\n      require(_topUpDai(depositAmount), \"failed to top up DAI\");\n    }\n    emit Deposit(msg.sender, depositAmount);\n    return true;\n  }\n\n  function redeemRDai(uint256 redeemAmount) public returns (bool) {\n    uint256 userPosition = userQueuePositions[msg.sender];\n    User storage user = users[userPosition];\n    // check whether or not the user has enough rDAI to redeem\n    require(user.daiDeposited >= redeemAmount, \"insufficient amount of rDAI\");\n    // transfer rDAI from user's account to Hoodie contract\n    require(rDAIContract.transferFrom(msg.sender, address(this), redeemAmount), \"Transfer rDAI to Hoodie contract failed\");\n    // use redeem => transfer rDAI to user => update user info\n    require(rDAIContract.redeem(redeemAmount), \"redeem() failed\");\n    require(DAIContract.transfer(msg.sender, redeemAmount), \"Transfer DAI to user failed\");\n    user.daiDeposited = user.daiDeposited.sub(redeemAmount);\n    totalDaiDeposited = totalDaiDeposited.sub(redeemAmount);\n\n    // if user's daiDeposited become below than the minimumDaiDepositAmount, it will be removed from the waiting list\n    if (user.daiDeposited < minimumDaiDepositAmount) {\n      user.isWaiting = false;\n      totalWaitingUsers--;\n    }\n    emit Redeem(msg.sender, user.daiDeposited);\n    return true;\n  }\n\n  function issueHoodie() public returns (bool) {\n    // check the user is waiting and if not, the next user will become the recipient\n    bool nextRecipientExists = _setNextRecipient();\n    if (!nextRecipientExists) {\n      require(rDAIContract.payInterest(admin), \"failded payInterest()\");\n      return true;\n    } else {\n      User storage recipient = users[nextRecipientIndex];\n      // test\n      require(rDAIContract.interestPayableOf(admin) > 0, \"the interest amount has not reached 20 rDAI yet\");\n      // check whether or not the generated interest amount reached 20 rDAI\n      // require(rDAIContract.interestPayableOf(admin) >= interestRequiredForHoodie, \"the interest amount has not reached 20 rDAI yet\");\n\n      require(_validateUserHatAndRDaiBalance(recipient.userAddress), \"user does not have the hoodie hat\");\n      require(rDAIContract.payInterest(admin), \"failded payInterest()\");\n\n      // give a hoodie to the recipient and increment the global variables\n      recipient.hoodiesReceived++;\n      totalHoodiesIssued++;\n      nextRecipientIndex++;\n\n      // set user as the last position of the waiting list\n      require(_moveUserToBackOfQueue(recipient), \"failed to update user info\");\n\n      emit IssueHoodie(recipient.userAddress);\n      return true;\n    }\n  }\n\n  function updateDaiContractAddress(address daiContractAddress) public returns (bool) {\n    require(msg.sender == admin, \"only admin can invoke this function\");\n    DAIContract = IDai(daiContractAddress);\n    return true;\n  }\n\n  function updateRDaiContractAddress(address rDaiContractAddress) public returns (bool) {\n    require(msg.sender == admin, \"only admin can invoke this function\");\n    rDAIContract = IRToken(rDaiContractAddress);\n    return true;\n  }\n\n  function getNextRecipientAddress() public view returns (address) {\n    return users[nextRecipientIndex].userAddress;\n  }\n\n  ////////////////////////\n  // internal functions //\n  ////////////////////////\n\n  function _mintRDai(uint256 _depositAmount) internal returns (bool) {\n    // dapp transfer user's DAI to itself\n    require(DAIContract.transferFrom(msg.sender, address(this), _depositAmount), \"Transfer DAI to Hoodie contract failed\");\n    // dapp approves rDAI contract to transfer dapp's DAI\n    require(DAIContract.approve(address(rDAIContract), _depositAmount), \"approve() invalid\");\n    // dapp invoke mint() and get rDAI\n    require(rDAIContract.mintWithSelectedHat(_depositAmount, rDaiHatId), \"minting failed\");\n    // dapp transfer rDAI to user\n    require(rDAIContract.transferFrom(address(this), msg.sender, _depositAmount), \"Transfer rDAI to user failed\");\n    return true;\n  }\n\n  function _addNewUserToQueue(uint256 _depositAmount) internal returns (bool) {\n    userQueuePositions[msg.sender] = nextQueuePosition;\n    users[nextQueuePosition] = User({\n      userAddress: msg.sender,\n      daiDeposited: _depositAmount,\n      isWaiting: true,\n      hasDeposited: true,\n      hoodiesReceived: 0\n    });\n    totalDaiDeposited = totalDaiDeposited.add(_depositAmount);\n    totalWaitingUsers++;\n    nextQueuePosition++;\n    return true;\n  }\n\n  function _topUpDai(uint256 _depositAmount) internal returns (bool) {\n    uint256 userNumber = userQueuePositions[msg.sender];\n    User storage _user = users[userNumber];\n    _user.daiDeposited = _user.daiDeposited.add(_depositAmount);\n\n    if(_user.daiDeposited >= minimumDaiDepositAmount && !_user.isWaiting) {\n      require(_moveUserToBackOfQueue(_user), \"failed to update user info\");\n      totalWaitingUsers++;\n    }\n    totalDaiDeposited = totalDaiDeposited.add(_depositAmount);\n    return true;\n  }\n\n  function _moveUserToBackOfQueue(User memory _user) internal returns (bool) {\n    userQueuePositions[_user.userAddress] = nextQueuePosition;\n    users[nextQueuePosition] = User({\n      userAddress: _user.userAddress,\n      daiDeposited: _user.daiDeposited,\n      isWaiting: true,\n      hasDeposited: true,\n      hoodiesReceived: _user.hoodiesReceived\n    });\n    nextQueuePosition++;\n    return true;\n  }\n\n  function _validateUserHatAndRDaiBalance(address _userAddress) internal view returns (bool) {\n    uint256 _userPosition = userQueuePositions[_userAddress];\n    User memory _user = users[_userPosition];\n\n    // 1. check whether or not a user has the hoodie hat\n    uint256 _userHatId;\n    address[] memory _userHatRecipients;\n    uint32[] memory _userHatProportions;\n\n    (_userHatId, _userHatRecipients, _userHatProportions) = rDAIContract.getHatByAddress(_userAddress);\n\n    address _firstUserHatRecipient = _userHatRecipients[0];\n    uint32 _firstUserHatProportion = _userHatProportions[0];\n\n    require(_userHatId == rDaiHatId, \"user does not have the same hat as the hoodie contract's\");\n    require(_firstUserHatRecipient == admin, \"No much with the admin address\");\n    require(_firstUserHatProportion == 2 ** 32 - 1, \"No much with the proportion\");\n\n    // 2. check whether or not a user's rDAI balance is the same as hoodie contract's\n    uint256 _userRDaiBalance = rDAIContract.balanceOf(_userAddress);\n    require(_userRDaiBalance >= _user.daiDeposited, \"user's rDAI balance is smaller than the hoodie contract's\");\n\n    return true;\n  }\n\n  function _setNextRecipient() internal returns (bool) {\n    uint256 i = nextRecipientIndex;\n    for (i; i <= nextQueuePosition; i++) {\n      User memory user = users[i];\n      if (user.isWaiting && i == nextRecipientIndex) {\n        return true;\n      } else if (user.isWaiting && i != nextRecipientIndex) {\n        nextRecipientIndex = i;\n        return true;\n      }\n    }\n    nextRecipientIndex = nextQueuePosition;\n    return false;\n  }\n}",
  "sourcePath": "/Users/khiga619/Sites/FlexDappHoodie/contracts/HoodieToken.sol",
  "compiler": {
    "name": "solc",
    "version": "0.5.8+commit.23d335f2.Emscripten.clang"
  },
  "schemaVersion": "3.0.16",
  "updatedAt": "2019-10-29T05:53:38.939Z",
  "devdoc": {
    "methods": {}
  },
  "userdoc": {
    "methods": {}
  }
}