{
  "contractName": "HoodieToken",
  "abi": [
    {
      "constant": true,
      "inputs": [],
      "name": "minimumDepositAmount",
      "outputs": [
        {
          "name": "",
          "type": "uint256"
        }
      ],
      "payable": false,
      "stateMutability": "view",
      "type": "function"
    },
    {
      "constant": true,
      "inputs": [],
      "name": "nextInLine",
      "outputs": [
        {
          "name": "",
          "type": "address"
        }
      ],
      "payable": false,
      "stateMutability": "view",
      "type": "function"
    },
    {
      "constant": true,
      "inputs": [],
      "name": "rDAIContract",
      "outputs": [
        {
          "name": "",
          "type": "address"
        }
      ],
      "payable": false,
      "stateMutability": "view",
      "type": "function"
    },
    {
      "constant": true,
      "inputs": [],
      "name": "doChangeHat",
      "outputs": [
        {
          "name": "",
          "type": "bool"
        }
      ],
      "payable": false,
      "stateMutability": "view",
      "type": "function"
    },
    {
      "constant": true,
      "inputs": [],
      "name": "DAIContract",
      "outputs": [
        {
          "name": "",
          "type": "address"
        }
      ],
      "payable": false,
      "stateMutability": "view",
      "type": "function"
    },
    {
      "constant": true,
      "inputs": [],
      "name": "hatID",
      "outputs": [
        {
          "name": "",
          "type": "uint256"
        }
      ],
      "payable": false,
      "stateMutability": "view",
      "type": "function"
    },
    {
      "constant": true,
      "inputs": [
        {
          "name": "",
          "type": "uint256"
        }
      ],
      "name": "proportions",
      "outputs": [
        {
          "name": "",
          "type": "uint32"
        }
      ],
      "payable": false,
      "stateMutability": "view",
      "type": "function"
    },
    {
      "constant": true,
      "inputs": [],
      "name": "owner",
      "outputs": [
        {
          "name": "",
          "type": "address"
        }
      ],
      "payable": false,
      "stateMutability": "view",
      "type": "function"
    },
    {
      "constant": true,
      "inputs": [
        {
          "name": "",
          "type": "address"
        }
      ],
      "name": "users",
      "outputs": [
        {
          "name": "waitingNumber",
          "type": "uint256"
        },
        {
          "name": "numOfHoodie",
          "type": "uint256"
        },
        {
          "name": "depositedAmount",
          "type": "uint256"
        },
        {
          "name": "isWaiting",
          "type": "bool"
        },
        {
          "name": "hasDeposited",
          "type": "bool"
        }
      ],
      "payable": false,
      "stateMutability": "view",
      "type": "function"
    },
    {
      "constant": true,
      "inputs": [],
      "name": "recipientNum",
      "outputs": [
        {
          "name": "",
          "type": "uint256"
        }
      ],
      "payable": false,
      "stateMutability": "view",
      "type": "function"
    },
    {
      "constant": true,
      "inputs": [],
      "name": "hoodieCost",
      "outputs": [
        {
          "name": "",
          "type": "uint256"
        }
      ],
      "payable": false,
      "stateMutability": "view",
      "type": "function"
    },
    {
      "constant": true,
      "inputs": [
        {
          "name": "",
          "type": "uint256"
        }
      ],
      "name": "recipients",
      "outputs": [
        {
          "name": "",
          "type": "address"
        }
      ],
      "payable": false,
      "stateMutability": "view",
      "type": "function"
    },
    {
      "constant": true,
      "inputs": [
        {
          "name": "",
          "type": "uint256"
        }
      ],
      "name": "waitingList",
      "outputs": [
        {
          "name": "",
          "type": "address"
        }
      ],
      "payable": false,
      "stateMutability": "view",
      "type": "function"
    },
    {
      "constant": true,
      "inputs": [],
      "name": "hoodieReceivers",
      "outputs": [
        {
          "name": "",
          "type": "uint256"
        }
      ],
      "payable": false,
      "stateMutability": "view",
      "type": "function"
    },
    {
      "inputs": [],
      "payable": false,
      "stateMutability": "nonpayable",
      "type": "constructor"
    },
    {
      "anonymous": false,
      "inputs": [
        {
          "indexed": false,
          "name": "user",
          "type": "address"
        },
        {
          "indexed": false,
          "name": "depositedAmount",
          "type": "uint256"
        }
      ],
      "name": "UserPushedIntoWaitingList",
      "type": "event"
    },
    {
      "anonymous": false,
      "inputs": [
        {
          "indexed": false,
          "name": "user",
          "type": "address"
        },
        {
          "indexed": false,
          "name": "newDepositedAmount",
          "type": "uint256"
        }
      ],
      "name": "IncreasedDeposit",
      "type": "event"
    },
    {
      "anonymous": false,
      "inputs": [
        {
          "indexed": false,
          "name": "user",
          "type": "address"
        },
        {
          "indexed": false,
          "name": "newDepositedAmount",
          "type": "uint256"
        }
      ],
      "name": "RedeemedRDai",
      "type": "event"
    },
    {
      "anonymous": false,
      "inputs": [
        {
          "indexed": false,
          "name": "recipient",
          "type": "address"
        }
      ],
      "name": "IssuedFDH",
      "type": "event"
    },
    {
      "constant": true,
      "inputs": [],
      "name": "getWaitingList",
      "outputs": [
        {
          "name": "",
          "type": "address[]"
        }
      ],
      "payable": false,
      "stateMutability": "view",
      "type": "function"
    },
    {
      "constant": false,
      "inputs": [
        {
          "name": "depositAmount",
          "type": "uint256"
        }
      ],
      "name": "mintRDaiAndPushUserToWaitingList",
      "outputs": [
        {
          "name": "",
          "type": "bool"
        }
      ],
      "payable": false,
      "stateMutability": "nonpayable",
      "type": "function"
    },
    {
      "constant": false,
      "inputs": [
        {
          "name": "topUpAmount",
          "type": "uint256"
        }
      ],
      "name": "increaseDepositAmount",
      "outputs": [
        {
          "name": "",
          "type": "bool"
        }
      ],
      "payable": false,
      "stateMutability": "nonpayable",
      "type": "function"
    },
    {
      "constant": false,
      "inputs": [],
      "name": "issueFDH",
      "outputs": [
        {
          "name": "",
          "type": "bool"
        }
      ],
      "payable": false,
      "stateMutability": "nonpayable",
      "type": "function"
    },
    {
      "constant": false,
      "inputs": [
        {
          "name": "redeemAmount",
          "type": "uint256"
        }
      ],
      "name": "redeemRDai",
      "outputs": [
        {
          "name": "",
          "type": "bool"
        }
      ],
      "payable": false,
      "stateMutability": "nonpayable",
      "type": "function"
    },
    {
      "constant": false,
      "inputs": [
        {
          "name": "daiContractAddress",
          "type": "address"
        }
      ],
      "name": "switchDaiContractAddress",
      "outputs": [
        {
          "name": "",
          "type": "bool"
        }
      ],
      "payable": false,
      "stateMutability": "nonpayable",
      "type": "function"
    },
    {
      "constant": false,
      "inputs": [
        {
          "name": "rDaiContractAddress",
          "type": "address"
        }
      ],
      "name": "switchRDaiContractAddress",
      "outputs": [
        {
          "name": "",
          "type": "bool"
        }
      ],
      "payable": false,
      "stateMutability": "nonpayable",
      "type": "function"
    }
  ],
  "bytecode": "0x60806040526001600660006101000a81548160ff021916908315150217905550670de0b6b3a76400006007556801158e460913d0000060085560006009556000600a553480156200004f57600080fd5b5033600360006101000a81548173ffffffffffffffffffffffffffffffffffffffff021916908373ffffffffffffffffffffffffffffffffffffffff1602179055506004600360009054906101000a900473ffffffffffffffffffffffffffffffffffffffff1690806001815401808255809150509060018203906000526020600020016000909192909190916101000a81548173ffffffffffffffffffffffffffffffffffffffff021916908373ffffffffffffffffffffffffffffffffffffffff1602179055505060056064908060018154018082558091505090600182039060005260206000209060089182820401919006600402909192909190916101000a81548163ffffffff021916908363ffffffff16021790555050735592ec0cfb4dbc12d3ab100b257153436a1f0fea6000806101000a81548173ffffffffffffffffffffffffffffffffffffffff021916908373ffffffffffffffffffffffffffffffffffffffff160217905550736aa5c6ab94403bdbbf74f21607d46be631e6ccc5600160006101000a81548173ffffffffffffffffffffffffffffffffffffffff021916908373ffffffffffffffffffffffffffffffffffffffff160217905550600160009054906101000a900473ffffffffffffffffffffffffffffffffffffffff1673ffffffffffffffffffffffffffffffffffffffff16635cde505560046005600660009054906101000a900460ff166040518463ffffffff1660e01b81526004018080602001806020018415151515815260200183810383528681815481526020019150805480156200030057602002820191906000526020600020905b8160009054906101000a900473ffffffffffffffffffffffffffffffffffffffff1673ffffffffffffffffffffffffffffffffffffffff1681526020019060010190808311620002b5575b505083810382528581815481526020019150805480156200036d57602002820191906000526020600020906000905b82829054906101000a900463ffffffff1663ffffffff16815260200190600401906020826003010492830192600103820291508084116200032f5790505b505095505050505050602060405180830381600087803b1580156200039157600080fd5b505af1158015620003a6573d6000803e3d6000fd5b505050506040513d6020811015620003bd57600080fd5b8101908080519060200190929190505050600281905550612bdf80620003e46000396000f3fe608060405234801561001057600080fd5b50600436106101375760003560e01c8063826518c9116100b8578063d1bc76a11161007c578063d1bc76a1146104eb578063d1f9ee2e14610559578063e0f4b0ce146105b5578063e7a20f3f146105fb578063f1de77fb14610669578063ff37dd30146106af57610137565b8063826518c91461039b5780638da5cb5b146103e9578063a87430ba14610433578063b89179a7146104af578063c005c01b146104cd57610137565b80632f048d5d116100ff5780632f048d5d146102a5578063323b1a8d146102ef578063399f94af146103115780633c0f5fbe146103335780635dce1c5b1461037d57610137565b8063078d8cf81461013c578063080c279a1461019b57806308113a61146101b95780631072c81d146101ff57806318299e3c14610249575b600080fd5b6101446106cd565b6040518080602001828103825283818151815260200191508051906020019060200280838360005b8381101561018757808201518184015260208101905061016c565b505050509050019250505060405180910390f35b6101a361075b565b6040518082815260200191505060405180910390f35b6101e5600480360360208110156101cf57600080fd5b8101908080359060200190929190505050610761565b604051808215151515815260200191505060405180910390f35b610207610975565b604051808273ffffffffffffffffffffffffffffffffffffffff1673ffffffffffffffffffffffffffffffffffffffff16815260200191505060405180910390f35b61028b6004803603602081101561025f57600080fd5b81019080803573ffffffffffffffffffffffffffffffffffffffff16906020019092919050505061099b565b604051808215151515815260200191505060405180910390f35b6102ad610a8c565b604051808273ffffffffffffffffffffffffffffffffffffffff1673ffffffffffffffffffffffffffffffffffffffff16815260200191505060405180910390f35b6102f7610ab2565b604051808215151515815260200191505060405180910390f35b610319611733565b604051808215151515815260200191505060405180910390f35b61033b611746565b604051808273ffffffffffffffffffffffffffffffffffffffff1673ffffffffffffffffffffffffffffffffffffffff16815260200191505060405180910390f35b61038561176b565b6040518082815260200191505060405180910390f35b6103c7600480360360208110156103b157600080fd5b8101908080359060200190929190505050611771565b604051808263ffffffff1663ffffffff16815260200191505060405180910390f35b6103f16117a8565b604051808273ffffffffffffffffffffffffffffffffffffffff1673ffffffffffffffffffffffffffffffffffffffff16815260200191505060405180910390f35b6104756004803603602081101561044957600080fd5b81019080803573ffffffffffffffffffffffffffffffffffffffff1690602001909291905050506117ce565b6040518086815260200185815260200184815260200183151515158152602001821515151581526020019550505050505060405180910390f35b6104b761181e565b6040518082815260200191505060405180910390f35b6104d5611824565b6040518082815260200191505060405180910390f35b6105176004803603602081101561050157600080fd5b810190808035906020019092919050505061182a565b604051808273ffffffffffffffffffffffffffffffffffffffff1673ffffffffffffffffffffffffffffffffffffffff16815260200191505060405180910390f35b61059b6004803603602081101561056f57600080fd5b81019080803573ffffffffffffffffffffffffffffffffffffffff169060200190929190505050611866565b604051808215151515815260200191505060405180910390f35b6105e1600480360360208110156105cb57600080fd5b8101908080359060200190929190505050611958565b604051808215151515815260200191505060405180910390f35b6106276004803603602081101561061157600080fd5b8101908080359060200190929190505050611ba9565b604051808273ffffffffffffffffffffffffffffffffffffffff1673ffffffffffffffffffffffffffffffffffffffff16815260200191505060405180910390f35b6106956004803603602081101561067f57600080fd5b8101908080359060200190929190505050611be5565b604051808215151515815260200191505060405180910390f35b6106b761214b565b6040518082815260200191505060405180910390f35b6060600c80548060200260200160405190810160405280929190818152602001828054801561075157602002820191906000526020600020905b8160009054906101000a900473ffffffffffffffffffffffffffffffffffffffff1673ffffffffffffffffffffffffffffffffffffffff1681526020019060010190808311610707575b5050505050905090565b60075481565b600061076c82612151565b6107de576040517f08c379a00000000000000000000000000000000000000000000000000000000081526004018080602001828103825260128152602001807f6d696e696e672072444149206661696c6564000000000000000000000000000081525060200191505060405180910390fd5b6000600d60003373ffffffffffffffffffffffffffffffffffffffff1673ffffffffffffffffffffffffffffffffffffffff16815260200190815260200160002090506108388382600201546126f590919063ffffffff16565b816002018190555060075481600201541015801561086557508060030160009054906101000a900460ff16155b156108fc5760018160030160006101000a81548160ff021916908315150217905550600c805490508160000181905550600c3390806001815401808255809150509060018203906000526020600020016000909192909190916101000a81548173ffffffffffffffffffffffffffffffffffffffff021916908373ffffffffffffffffffffffffffffffffffffffff160217905550505b7fc4e62a5af510c3c3a88e2fe2a681867ba17ff5023d4b4d8bc246ca9dd8ecb72a338260020154604051808373ffffffffffffffffffffffffffffffffffffffff1673ffffffffffffffffffffffffffffffffffffffff1681526020018281526020019250505060405180910390a16001915050919050565b600b60009054906101000a900473ffffffffffffffffffffffffffffffffffffffff1681565b6000600360009054906101000a900473ffffffffffffffffffffffffffffffffffffffff1673ffffffffffffffffffffffffffffffffffffffff163373ffffffffffffffffffffffffffffffffffffffff1614610a43576040517f08c379a0000000000000000000000000000000000000000000000000000000008152600401808060200182810382526023815260200180612b276023913960400191505060405180910390fd5b816000806101000a81548173ffffffffffffffffffffffffffffffffffffffff021916908373ffffffffffffffffffffffffffffffffffffffff16021790555060019050919050565b600160009054906101000a900473ffffffffffffffffffffffffffffffffffffffff1681565b600080600160009054906101000a900473ffffffffffffffffffffffffffffffffffffffff1673ffffffffffffffffffffffffffffffffffffffff166377ede051600360009054906101000a900473ffffffffffffffffffffffffffffffffffffffff166040518263ffffffff1660e01b8152600401808273ffffffffffffffffffffffffffffffffffffffff1673ffffffffffffffffffffffffffffffffffffffff16815260200191505060206040518083038186803b158015610b7657600080fd5b505afa158015610b8a573d6000803e3d6000fd5b505050506040513d6020811015610ba057600080fd5b810190808051906020019092919050505011610c07576040517f08c379a000000000000000000000000000000000000000000000000000000000815260040180806020018281038252602f815260200180612a71602f913960400191505060405180910390fd5b6000600d6000600b60009054906101000a900473ffffffffffffffffffffffffffffffffffffffff1673ffffffffffffffffffffffffffffffffffffffff1673ffffffffffffffffffffffffffffffffffffffff16815260200190815260200160002090505b8060030160009054906101000a900460ff16610f0057600a60008154809291906001019190505550600c80549050600a541415610e1e57600160009054906101000a900473ffffffffffffffffffffffffffffffffffffffff1673ffffffffffffffffffffffffffffffffffffffff1663d007c644600360009054906101000a900473ffffffffffffffffffffffffffffffffffffffff166040518263ffffffff1660e01b8152600401808273ffffffffffffffffffffffffffffffffffffffff1673ffffffffffffffffffffffffffffffffffffffff168152602001915050602060405180830381600087803b158015610d6757600080fd5b505af1158015610d7b573d6000803e3d6000fd5b505050506040513d6020811015610d9157600080fd5b8101908080519060200190929190505050610e14576040517f08c379a00000000000000000000000000000000000000000000000000000000081526004018080602001828103825260158152602001807f6661696c64656420706179496e7465726573742829000000000000000000000081525060200191505060405180910390fd5b6001915050611730565b600c600a5481548110610e2d57fe5b9060005260206000200160009054906101000a900473ffffffffffffffffffffffffffffffffffffffff16600b60006101000a81548173ffffffffffffffffffffffffffffffffffffffff021916908373ffffffffffffffffffffffffffffffffffffffff160217905550600d6000600b60009054906101000a900473ffffffffffffffffffffffffffffffffffffffff1673ffffffffffffffffffffffffffffffffffffffff1673ffffffffffffffffffffffffffffffffffffffff1681526020019081526020016000209050610c6d565b6000606080600160009054906101000a900473ffffffffffffffffffffffffffffffffffffffff1673ffffffffffffffffffffffffffffffffffffffff1663054ab01a600b60009054906101000a900473ffffffffffffffffffffffffffffffffffffffff166040518263ffffffff1660e01b8152600401808273ffffffffffffffffffffffffffffffffffffffff1673ffffffffffffffffffffffffffffffffffffffff16815260200191505060006040518083038186803b158015610fc657600080fd5b505afa158015610fda573d6000803e3d6000fd5b505050506040513d6000823e3d601f19601f82011682018060405250606081101561100457600080fd5b8101908080519060200190929190805164010000000081111561102657600080fd5b8281019050602081018481111561103c57600080fd5b815185602082028301116401000000008211171561105957600080fd5b5050929190602001805164010000000081111561107557600080fd5b8281019050602081018481111561108b57600080fd5b81518560208202830111640100000000821117156110a857600080fd5b50509291905050508093508194508295505050506000826000815181106110cb57fe5b602002602001015190506000826000815181106110e457fe5b602002602001015190506002548514611148576040517f08c379a0000000000000000000000000000000000000000000000000000000008152600401808060200182810382526038815260200180612aa06038913960400191505060405180910390fd5b600360009054906101000a900473ffffffffffffffffffffffffffffffffffffffff1673ffffffffffffffffffffffffffffffffffffffff168273ffffffffffffffffffffffffffffffffffffffff161461120b576040517f08c379a000000000000000000000000000000000000000000000000000000000815260040180806020018281038252601e8152602001807f4e6f206d756368207769746820746865206f776e65722061646472657373000081525060200191505060405180910390fd5b63ffffffff8163ffffffff161461128a576040517f08c379a000000000000000000000000000000000000000000000000000000000815260040180806020018281038252601b8152602001807f4e6f206d7563682077697468207468652070726f706f7274696f6e000000000081525060200191505060405180910390fd5b6000600160009054906101000a900473ffffffffffffffffffffffffffffffffffffffff1673ffffffffffffffffffffffffffffffffffffffff166370a08231600b60009054906101000a900473ffffffffffffffffffffffffffffffffffffffff166040518263ffffffff1660e01b8152600401808273ffffffffffffffffffffffffffffffffffffffff1673ffffffffffffffffffffffffffffffffffffffff16815260200191505060206040518083038186803b15801561134d57600080fd5b505afa158015611361573d6000803e3d6000fd5b505050506040513d602081101561137757600080fd5b8101908080519060200190929190505050905086600201548110156113e7576040517f08c379a0000000000000000000000000000000000000000000000000000000008152600401808060200182810382526039815260200180612b4a6039913960400191505060405180910390fd5b600160009054906101000a900473ffffffffffffffffffffffffffffffffffffffff1673ffffffffffffffffffffffffffffffffffffffff1663d007c644600360009054906101000a900473ffffffffffffffffffffffffffffffffffffffff166040518263ffffffff1660e01b8152600401808273ffffffffffffffffffffffffffffffffffffffff1673ffffffffffffffffffffffffffffffffffffffff168152602001915050602060405180830381600087803b1580156114aa57600080fd5b505af11580156114be573d6000803e3d6000fd5b505050506040513d60208110156114d457600080fd5b8101908080519060200190929190505050611557576040517f08c379a00000000000000000000000000000000000000000000000000000000081526004018080602001828103825260158152602001807f6661696c64656420706179496e7465726573742829000000000000000000000081525060200191505060405180910390fd5b8660010160008154809291906001019190505550600960008154809291906001019190505550600c8054905087600001819055507fcd75dc08a30db24d62175b3fca9573850459c4959e0c3c28601a0d7bf8dcbc23600b60009054906101000a900473ffffffffffffffffffffffffffffffffffffffff16604051808273ffffffffffffffffffffffffffffffffffffffff1673ffffffffffffffffffffffffffffffffffffffff16815260200191505060405180910390a1600c600b60009054906101000a900473ffffffffffffffffffffffffffffffffffffffff1690806001815401808255809150509060018203906000526020600020016000909192909190916101000a81548173ffffffffffffffffffffffffffffffffffffffff021916908373ffffffffffffffffffffffffffffffffffffffff16021790555050600a60008154809291906001019190505550600c600a54815481106116b957fe5b9060005260206000200160009054906101000a900473ffffffffffffffffffffffffffffffffffffffff16600b60006101000a81548173ffffffffffffffffffffffffffffffffffffffff021916908373ffffffffffffffffffffffffffffffffffffffff16021790555060019750505050505050505b90565b600660009054906101000a900460ff1681565b6000809054906101000a900473ffffffffffffffffffffffffffffffffffffffff1681565b60025481565b6005818154811061177e57fe5b9060005260206000209060089182820401919006600402915054906101000a900463ffffffff1681565b600360009054906101000a900473ffffffffffffffffffffffffffffffffffffffff1681565b600d6020528060005260406000206000915090508060000154908060010154908060020154908060030160009054906101000a900460ff16908060030160019054906101000a900460ff16905085565b600a5481565b60085481565b6004818154811061183757fe5b906000526020600020016000915054906101000a900473ffffffffffffffffffffffffffffffffffffffff1681565b6000600360009054906101000a900473ffffffffffffffffffffffffffffffffffffffff1673ffffffffffffffffffffffffffffffffffffffff163373ffffffffffffffffffffffffffffffffffffffff161461190e576040517f08c379a0000000000000000000000000000000000000000000000000000000008152600401808060200182810382526023815260200180612b276023913960400191505060405180910390fd5b81600160006101000a81548173ffffffffffffffffffffffffffffffffffffffff021916908373ffffffffffffffffffffffffffffffffffffffff16021790555060019050919050565b60006007548210156119b5576040517f08c379a0000000000000000000000000000000000000000000000000000000008152600401808060200182810382526037815260200180612a3a6037913960400191505060405180910390fd5b600d60003373ffffffffffffffffffffffffffffffffffffffff1673ffffffffffffffffffffffffffffffffffffffff16815260200190815260200160002060030160009054906101000a900460ff1615611a5b576040517f08c379a0000000000000000000000000000000000000000000000000000000008152600401808060200182810382526029815260200180612afe6029913960400191505060405180910390fd5b611a6482612151565b611ad6576040517f08c379a00000000000000000000000000000000000000000000000000000000081526004018080602001828103825260128152602001807f6d696e696e672072444149206661696c6564000000000000000000000000000081525060200191505060405180910390fd5b611ae0338361277d565b611b35576040517f08c379a0000000000000000000000000000000000000000000000000000000008152600401808060200182810382526031815260200180612b836031913960400191505060405180910390fd5b7f4734f4b7aaa49955f54d70b911f24acba5a0abf80c16f0a2c1f0b1fa904196483383604051808373ffffffffffffffffffffffffffffffffffffffff1673ffffffffffffffffffffffffffffffffffffffff1681526020018281526020019250505060405180910390a160019050919050565b600c8181548110611bb657fe5b906000526020600020016000915054906101000a900473ffffffffffffffffffffffffffffffffffffffff1681565b600080600d60003373ffffffffffffffffffffffffffffffffffffffff1673ffffffffffffffffffffffffffffffffffffffff16815260200190815260200160002090508281600201541015611ca3576040517f08c379a000000000000000000000000000000000000000000000000000000000815260040180806020018281038252601b8152602001807f696e73756666696369656e7420616d6f756e74206f662072444149000000000081525060200191505060405180910390fd5b600160009054906101000a900473ffffffffffffffffffffffffffffffffffffffff1673ffffffffffffffffffffffffffffffffffffffff166323b872dd3330866040518463ffffffff1660e01b8152600401808473ffffffffffffffffffffffffffffffffffffffff1673ffffffffffffffffffffffffffffffffffffffff1681526020018373ffffffffffffffffffffffffffffffffffffffff1673ffffffffffffffffffffffffffffffffffffffff1681526020018281526020019350505050602060405180830381600087803b158015611d8057600080fd5b505af1158015611d94573d6000803e3d6000fd5b505050506040513d6020811015611daa57600080fd5b8101908080519060200190929190505050611e10576040517f08c379a0000000000000000000000000000000000000000000000000000000008152600401808060200182810382526027815260200180612a136027913960400191505060405180910390fd5b600160009054906101000a900473ffffffffffffffffffffffffffffffffffffffff1673ffffffffffffffffffffffffffffffffffffffff1663db006a75846040518263ffffffff1660e01b815260040180828152602001915050602060405180830381600087803b158015611e8557600080fd5b505af1158015611e99573d6000803e3d6000fd5b505050506040513d6020811015611eaf57600080fd5b8101908080519060200190929190505050611f32576040517f08c379a000000000000000000000000000000000000000000000000000000000815260040180806020018281038252600f8152602001807f72656465656d2829206661696c6564000000000000000000000000000000000081525060200191505060405180910390fd5b6000809054906101000a900473ffffffffffffffffffffffffffffffffffffffff1673ffffffffffffffffffffffffffffffffffffffff1663a9059cbb33856040518363ffffffff1660e01b8152600401808373ffffffffffffffffffffffffffffffffffffffff1673ffffffffffffffffffffffffffffffffffffffff16815260200182815260200192505050602060405180830381600087803b158015611fda57600080fd5b505af1158015611fee573d6000803e3d6000fd5b505050506040513d602081101561200457600080fd5b8101908080519060200190929190505050612087576040517f08c379a000000000000000000000000000000000000000000000000000000000815260040180806020018281038252601b8152602001807f5472616e736665722044414920746f2075736572206661696c6564000000000081525060200191505060405180910390fd5b61209e83826002015461298990919063ffffffff16565b8160020181905550600754816002015410156120d25760008160030160006101000a81548160ff0219169083151502179055505b7fa1c79db5368aff5b9d42ac46279c7faed0cf9ccf7d407e587b337f12520aa0b5338260020154604051808373ffffffffffffffffffffffffffffffffffffffff1673ffffffffffffffffffffffffffffffffffffffff1681526020018281526020019250505060405180910390a16001915050919050565b60095481565b60008060009054906101000a900473ffffffffffffffffffffffffffffffffffffffff1673ffffffffffffffffffffffffffffffffffffffff166323b872dd3330856040518463ffffffff1660e01b8152600401808473ffffffffffffffffffffffffffffffffffffffff1673ffffffffffffffffffffffffffffffffffffffff1681526020018373ffffffffffffffffffffffffffffffffffffffff1673ffffffffffffffffffffffffffffffffffffffff1681526020018281526020019350505050602060405180830381600087803b15801561222f57600080fd5b505af1158015612243573d6000803e3d6000fd5b505050506040513d602081101561225957600080fd5b81019080805190602001909291905050506122bf576040517f08c379a0000000000000000000000000000000000000000000000000000000008152600401808060200182810382526026815260200180612ad86026913960400191505060405180910390fd5b6000809054906101000a900473ffffffffffffffffffffffffffffffffffffffff1673ffffffffffffffffffffffffffffffffffffffff1663095ea7b3600160009054906101000a900473ffffffffffffffffffffffffffffffffffffffff16846040518363ffffffff1660e01b8152600401808373ffffffffffffffffffffffffffffffffffffffff1673ffffffffffffffffffffffffffffffffffffffff16815260200182815260200192505050602060405180830381600087803b15801561238957600080fd5b505af115801561239d573d6000803e3d6000fd5b505050506040513d60208110156123b357600080fd5b8101908080519060200190929190505050612436576040517f08c379a00000000000000000000000000000000000000000000000000000000081526004018080602001828103825260118152602001807f617070726f7665282920696e76616c696400000000000000000000000000000081525060200191505060405180910390fd5b600160009054906101000a900473ffffffffffffffffffffffffffffffffffffffff1673ffffffffffffffffffffffffffffffffffffffff1663388c0b8c836002546040518363ffffffff1660e01b81526004018083815260200182815260200192505050602060405180830381600087803b1580156124b557600080fd5b505af11580156124c9573d6000803e3d6000fd5b505050506040513d60208110156124df57600080fd5b8101908080519060200190929190505050612562576040517f08c379a000000000000000000000000000000000000000000000000000000000815260040180806020018281038252600e8152602001807f6d696e74696e67206661696c656400000000000000000000000000000000000081525060200191505060405180910390fd5b600160009054906101000a900473ffffffffffffffffffffffffffffffffffffffff1673ffffffffffffffffffffffffffffffffffffffff166323b872dd3033856040518463ffffffff1660e01b8152600401808473ffffffffffffffffffffffffffffffffffffffff1673ffffffffffffffffffffffffffffffffffffffff1681526020018373ffffffffffffffffffffffffffffffffffffffff1673ffffffffffffffffffffffffffffffffffffffff1681526020018281526020019350505050602060405180830381600087803b15801561263f57600080fd5b505af1158015612653573d6000803e3d6000fd5b505050506040513d602081101561266957600080fd5b81019080805190602001909291905050506126ec576040517f08c379a000000000000000000000000000000000000000000000000000000000815260040180806020018281038252601c8152602001807f5472616e73666572207244414920746f2075736572206661696c65640000000081525060200191505060405180910390fd5b60019050919050565b600080828401905083811015612773576040517f08c379a000000000000000000000000000000000000000000000000000000000815260040180806020018281038252601b8152602001807f536166654d6174683a206164646974696f6e206f766572666c6f77000000000081525060200191505060405180910390fd5b8091505092915050565b60006040518060a00160405280600c8054905081526020016000815260200183815260200160011515815260200160011515815250600d60008573ffffffffffffffffffffffffffffffffffffffff1673ffffffffffffffffffffffffffffffffffffffff16815260200190815260200160002060008201518160000155602082015181600101556040820151816002015560608201518160030160006101000a81548160ff02191690831515021790555060808201518160030160016101000a81548160ff021916908315150217905550905050600c8390806001815401808255809150509060018203906000526020600020016000909192909190916101000a81548173ffffffffffffffffffffffffffffffffffffffff021916908373ffffffffffffffffffffffffffffffffffffffff16021790555050600a54600d60008573ffffffffffffffffffffffffffffffffffffffff1673ffffffffffffffffffffffffffffffffffffffff16815260200190815260200160002060000154141561297f57600c600a548154811061291357fe5b9060005260206000200160009054906101000a900473ffffffffffffffffffffffffffffffffffffffff16600b60006101000a81548173ffffffffffffffffffffffffffffffffffffffff021916908373ffffffffffffffffffffffffffffffffffffffff1602179055505b6001905092915050565b600082821115612a01576040517f08c379a000000000000000000000000000000000000000000000000000000000815260040180806020018281038252601e8152602001807f536166654d6174683a207375627472616374696f6e206f766572666c6f77000081525060200191505060405180910390fd5b60008284039050809150509291505056fe5472616e73666572207244414920746f20486f6f64696520636f6e7472616374206661696c65644465706f73697420616d6f756e742073686f756c6420626520657175616c20746f202f2067726561746572207468616e2032303044414974686520696e74657265737420616d6f756e7420686173206e6f7420726561636865642032302072444149207965747573657220646f6573206e6f742068617665207468652073616d65206861742061732074686520686f6f64696520636f6e747261637427735472616e736665722044414920746f20486f6f64696520636f6e7472616374206661696c6564546869732075736572206973206578697374696e6720696e207468652077616974696e67206c6973746f6e6c79206f776e65722063616e20696e766f6b6520746869732066756e6374696f6e75736572277320724441492062616c616e636520697320736d616c6c6572207468616e2074686520686f6f64696520636f6e747261637427736661696c64656420746f2061646420746865207573657220616761696e20746f207468652077616974696e67206c697374a165627a7a72305820e863d4e17357be2587d74e3dbdd7cbc5fc13dd01cedd600449086e511ef8e9660029",
  "source": "pragma solidity ^0.5.8;\nimport \"../node_modules/openzeppelin-solidity/contracts/math/SafeMath.sol\";\nimport \"./IDai.sol\";\nimport \"./IRToken.sol\";\n\ncontract HoodieToken {\n  using SafeMath for uint256;\n\n  struct User {\n    uint256 waitingNumber;\n    uint256 numOfHoodie;\n    uint256 depositedAmount;\n    bool isWaiting;\n    bool hasDeposited;\n  }\n  // Instantiate DAIContract with DAI address on rinkeby\n  // Instantiate rDAIContract with rDAI address on rinkeby\n  IDai public DAIContract;\n  IRToken public rDAIContract;\n\n  // Hat setting\n  uint256 public hatID;\n  address public owner;\n  address[] public recipients;\n  uint32[] public proportions;\n  bool public doChangeHat = true;\n\n  uint256 public minimumDepositAmount = 1 * 10 ** 18; // for test\n  uint256 public hoodieCost = 20 * 10 ** 18;\n\n  uint256 public hoodieReceivers = 0;\n  uint256 public recipientNum = 0;\n  address public nextInLine;\n  address[] public waitingList;\n  mapping(address => User) public users;\n\n  event UserPushedIntoWaitingList(address user, uint256 depositedAmount);\n  event IncreasedDeposit(address user, uint256 newDepositedAmount);\n  event RedeemedRDai(address user, uint256 newDepositedAmount);\n  event IssuedFDH(address recipient);\n\n  constructor() public {\n    owner = msg.sender;\n    recipients.push(owner);\n    proportions.push(100);\n    DAIContract = IDai(0x5592EC0cfb4dbc12D3aB100b257153436a1f0FEa);\n    rDAIContract = IRToken(0x6AA5c6aB94403Bdbbf74f21607D46Be631E6CcC5);\n    hatID = rDAIContract.createHat(recipients, proportions, doChangeHat);\n  }\n\n  function getWaitingList() public view returns(address[] memory) {\n    return waitingList;\n  }\n\n  function mintRDaiAndPushUserToWaitingList(uint256 depositAmount) public returns(bool) {\n    require(depositAmount >= minimumDepositAmount, \"Deposit amount should be equal to / greater than 200DAI\");\n    // check whether or not the user is new\n    require(!users[msg.sender].isWaiting, \"This user is existing in the waiting list\");\n    // mint rDAI and transfer it to user\n    require(_mintRDai(depositAmount), \"mining rDAI failed\");\n    // add user to waitingList\n    require(_addUserToWaitingList(msg.sender, depositAmount), \"failded to add the user again to the waiting list\");\n\n    emit UserPushedIntoWaitingList(msg.sender, depositAmount);\n    return true;\n  }\n\n  function increaseDepositAmount(uint256 topUpAmount) public returns(bool) {\n    // mint additional rDAI\n    require(_mintRDai(topUpAmount),  \"mining rDAI failed\");\n    // update user's deposited amount in User struct\n    User storage user = users[msg.sender];\n    user.depositedAmount = user.depositedAmount.add(topUpAmount);\n\n    // user can be back to the waiting list when the depositedAmount is more\n    // than the minimumDepositAmount and be given a new waiting number\n    if(user.depositedAmount >= minimumDepositAmount && !user.isWaiting) {\n      user.isWaiting = true;\n      user.waitingNumber = waitingList.length;\n      waitingList.push(msg.sender);\n    }\n    emit IncreasedDeposit(msg.sender, user.depositedAmount);\n    return true;\n  }\n  \n  function issueFDH() public returns(bool) {\n    // test\n    require(rDAIContract.interestPayableOf(owner) > 0, \"the interest amount has not reached 20 rDAI yet\");\n\n    // check whether or not the generated interest amount reached 20 rDAI\n    // require(rDAIContract.interestPayableOf(owner) >= hoodieCost, \"the interest amount has not reached 20 rDAI yet\");\n\n    User storage user = users[nextInLine];\n    // 0. user isWaiting ture?\n    while(!user.isWaiting) {\n      recipientNum++;\n      // if there is no waiting user, just invoke payInterest()\n      if(recipientNum == waitingList.length) {\n        require(rDAIContract.payInterest(owner), \"failded payInterest()\");\n        return true;\n      }\n      nextInLine = waitingList[recipientNum];\n      user = users[nextInLine];\n    }\n\n    // 1. check whether or not a user has the hoodie hat\n    uint256 userHatId;\n    address[] memory recipientsFromUser;\n    uint32[] memory proportionsFromUser;\n    (userHatId, recipientsFromUser, proportionsFromUser) = rDAIContract.getHatByAddress(nextInLine);\n    address recipientFromUser = recipientsFromUser[0];\n    uint32 proportionFromUser = proportionsFromUser[0];\n\n    require(userHatId == hatID, \"user does not have the same hat as the hoodie contract's\");\n    require(recipientFromUser == owner, \"No much with the owner address\");\n    require(proportionFromUser == 2 ** 32 - 1, \"No much with the proportion\");\n\n    // 2. check whether or not a user's rDAI balance is the same as hoodie contract's\n    uint256 rDaiBalanceOfUser = rDAIContract.balanceOf(nextInLine);\n    require(rDaiBalanceOfUser >= user.depositedAmount, \"user's rDAI balance is smaller than the hoodie contract's\");\n\n    // 3. invoke payInterest() to pay the rDAI(interest) to FlexDapps account\n    require(rDAIContract.payInterest(owner), \"failded payInterest()\");\n\n    // user gets a hoodie\n    user.numOfHoodie++;\n    hoodieReceivers++;\n    user.waitingNumber = waitingList.length;\n    emit IssuedFDH(nextInLine);\n\n    // add the user to the waitingList as the last person\n    waitingList.push(nextInLine);\n\n    // update the nextInLine\n    recipientNum++;\n    nextInLine = waitingList[recipientNum];\n\n    return true;\n  }\n\n  function redeemRDai(uint256 redeemAmount) public returns (bool) {\n    User storage user = users[msg.sender];\n    // check whether or not the user has enough rDAI to redeem\n    require(user.depositedAmount >= redeemAmount, \"insufficient amount of rDAI\");\n    // transfer rDAI from user's account to Hoodie contract\n    require(rDAIContract.transferFrom(msg.sender, address(this), redeemAmount), \"Transfer rDAI to Hoodie contract failed\");\n    // 1) use redeem()\n    // 2) dapp transfer rDAI to user\n    // 3) decrese the state of user.depositedAmount - redeemAmount\n    require(rDAIContract.redeem(redeemAmount), \"redeem() failed\");\n    require(DAIContract.transfer(msg.sender, redeemAmount), \"Transfer DAI to user failed\");\n    user.depositedAmount = user.depositedAmount.sub(redeemAmount);\n\n    // if user's depositedAmount become below than the minimumDepositAmount, it will be removed from the waiting list\n    if (user.depositedAmount < minimumDepositAmount) {\n      user.isWaiting = false;\n    }\n    emit RedeemedRDai(msg.sender, user.depositedAmount);\n    return true;\n  }\n\n  function switchDaiContractAddress(address daiContractAddress) public returns(bool) {\n    require(msg.sender == owner, \"only owner can invoke this function\");\n    DAIContract = IDai(daiContractAddress);\n    return true;\n  }\n\n  function switchRDaiContractAddress(address rDaiContractAddress) public returns(bool) {\n    require(msg.sender == owner, \"only owner can invoke this function\");\n    rDAIContract = IRToken(rDaiContractAddress);\n    return true;\n  }\n\n  ////////////////////////\n  // internal functions //\n  ////////////////////////\n\n  function _mintRDai(uint256 depositAmount) internal returns(bool) {\n    // dapp transfer user's DAI to itself\n    require(DAIContract.transferFrom(msg.sender, address(this), depositAmount), \"Transfer DAI to Hoodie contract failed\");\n    // dapp approves rDAI contract to transfer dapp's DAI\n    require(DAIContract.approve(address(rDAIContract), depositAmount), \"approve() invalid\");\n    // dapp invoke mint() and get rDAI\n    require(rDAIContract.mintWithSelectedHat(depositAmount, hatID), \"minting failed\");\n    // dapp transfer rDAI to user\n    require(rDAIContract.transferFrom(address(this), msg.sender, depositAmount), \"Transfer rDAI to user failed\");\n    return true;\n  }\n\n  function _addUserToWaitingList(address userAddress, uint256 depositAmount) internal returns(bool) {\n    users[userAddress] = User({\n      waitingNumber: waitingList.length,\n      numOfHoodie: 0,\n      depositedAmount: depositAmount,\n      isWaiting: true,\n      hasDeposited: true\n    });\n    waitingList.push(userAddress);\n    if(users[userAddress].waitingNumber == recipientNum) {\n      nextInLine = waitingList[recipientNum];\n    }\n    return true;\n  }\n}",
  "sourcePath": "/Users/khiga619/Sites/FlexDappHoodie/contracts/HoodieToken.sol",
  "compiler": {
    "name": "solc",
    "version": "0.5.8+commit.23d335f2.Emscripten.clang"
  },
  "schemaVersion": "3.0.16",
  "updatedAt": "2019-10-23T04:18:25.672Z",
  "devdoc": {
    "methods": {}
  },
  "userdoc": {
    "methods": {}
  }
}