{
  "contractName": "HoodieToken",
  "abi": [
    {
      "constant": true,
      "inputs": [],
      "name": "name",
      "outputs": [
        {
          "name": "",
          "type": "string"
        }
      ],
      "payable": false,
      "stateMutability": "view",
      "type": "function"
    },
    {
      "constant": true,
      "inputs": [],
      "name": "minimumDepositAmount",
      "outputs": [
        {
          "name": "",
          "type": "uint256"
        }
      ],
      "payable": false,
      "stateMutability": "view",
      "type": "function"
    },
    {
      "constant": false,
      "inputs": [
        {
          "name": "spender",
          "type": "address"
        },
        {
          "name": "value",
          "type": "uint256"
        }
      ],
      "name": "approve",
      "outputs": [
        {
          "name": "",
          "type": "bool"
        }
      ],
      "payable": false,
      "stateMutability": "nonpayable",
      "type": "function"
    },
    {
      "constant": true,
      "inputs": [],
      "name": "totalSupply",
      "outputs": [
        {
          "name": "",
          "type": "uint256"
        }
      ],
      "payable": false,
      "stateMutability": "view",
      "type": "function"
    },
    {
      "constant": false,
      "inputs": [
        {
          "name": "sender",
          "type": "address"
        },
        {
          "name": "recipient",
          "type": "address"
        },
        {
          "name": "amount",
          "type": "uint256"
        }
      ],
      "name": "transferFrom",
      "outputs": [
        {
          "name": "",
          "type": "bool"
        }
      ],
      "payable": false,
      "stateMutability": "nonpayable",
      "type": "function"
    },
    {
      "constant": true,
      "inputs": [],
      "name": "rDAIContract",
      "outputs": [
        {
          "name": "",
          "type": "address"
        }
      ],
      "payable": false,
      "stateMutability": "view",
      "type": "function"
    },
    {
      "constant": true,
      "inputs": [],
      "name": "decimals",
      "outputs": [
        {
          "name": "",
          "type": "uint8"
        }
      ],
      "payable": false,
      "stateMutability": "view",
      "type": "function"
    },
    {
      "constant": false,
      "inputs": [
        {
          "name": "spender",
          "type": "address"
        },
        {
          "name": "addedValue",
          "type": "uint256"
        }
      ],
      "name": "increaseAllowance",
      "outputs": [
        {
          "name": "",
          "type": "bool"
        }
      ],
      "payable": false,
      "stateMutability": "nonpayable",
      "type": "function"
    },
    {
      "constant": true,
      "inputs": [],
      "name": "doChangeHat",
      "outputs": [
        {
          "name": "",
          "type": "bool"
        }
      ],
      "payable": false,
      "stateMutability": "view",
      "type": "function"
    },
    {
      "constant": true,
      "inputs": [],
      "name": "DAIContract",
      "outputs": [
        {
          "name": "",
          "type": "address"
        }
      ],
      "payable": false,
      "stateMutability": "view",
      "type": "function"
    },
    {
      "constant": true,
      "inputs": [],
      "name": "proportion",
      "outputs": [
        {
          "name": "",
          "type": "uint32"
        }
      ],
      "payable": false,
      "stateMutability": "view",
      "type": "function"
    },
    {
      "constant": true,
      "inputs": [],
      "name": "hatID",
      "outputs": [
        {
          "name": "",
          "type": "uint256"
        }
      ],
      "payable": false,
      "stateMutability": "view",
      "type": "function"
    },
    {
      "constant": true,
      "inputs": [],
      "name": "recipient",
      "outputs": [
        {
          "name": "",
          "type": "address"
        }
      ],
      "payable": false,
      "stateMutability": "view",
      "type": "function"
    },
    {
      "constant": true,
      "inputs": [
        {
          "name": "account",
          "type": "address"
        }
      ],
      "name": "balanceOf",
      "outputs": [
        {
          "name": "",
          "type": "uint256"
        }
      ],
      "payable": false,
      "stateMutability": "view",
      "type": "function"
    },
    {
      "constant": false,
      "inputs": [],
      "name": "renounceOwnership",
      "outputs": [],
      "payable": false,
      "stateMutability": "nonpayable",
      "type": "function"
    },
    {
      "constant": true,
      "inputs": [
        {
          "name": "",
          "type": "uint256"
        }
      ],
      "name": "proportions",
      "outputs": [
        {
          "name": "",
          "type": "uint32"
        }
      ],
      "payable": false,
      "stateMutability": "view",
      "type": "function"
    },
    {
      "constant": true,
      "inputs": [],
      "name": "owner",
      "outputs": [
        {
          "name": "",
          "type": "address"
        }
      ],
      "payable": false,
      "stateMutability": "view",
      "type": "function"
    },
    {
      "constant": true,
      "inputs": [],
      "name": "isOwner",
      "outputs": [
        {
          "name": "",
          "type": "bool"
        }
      ],
      "payable": false,
      "stateMutability": "view",
      "type": "function"
    },
    {
      "constant": true,
      "inputs": [],
      "name": "symbol",
      "outputs": [
        {
          "name": "",
          "type": "string"
        }
      ],
      "payable": false,
      "stateMutability": "view",
      "type": "function"
    },
    {
      "constant": false,
      "inputs": [
        {
          "name": "spender",
          "type": "address"
        },
        {
          "name": "subtractedValue",
          "type": "uint256"
        }
      ],
      "name": "decreaseAllowance",
      "outputs": [
        {
          "name": "",
          "type": "bool"
        }
      ],
      "payable": false,
      "stateMutability": "nonpayable",
      "type": "function"
    },
    {
      "constant": true,
      "inputs": [
        {
          "name": "",
          "type": "address"
        }
      ],
      "name": "users",
      "outputs": [
        {
          "name": "userNumber",
          "type": "uint256"
        },
        {
          "name": "depositedAmount",
          "type": "uint256"
        },
        {
          "name": "isWaiting",
          "type": "bool"
        }
      ],
      "payable": false,
      "stateMutability": "view",
      "type": "function"
    },
    {
      "constant": false,
      "inputs": [
        {
          "name": "recipient",
          "type": "address"
        },
        {
          "name": "amount",
          "type": "uint256"
        }
      ],
      "name": "transfer",
      "outputs": [
        {
          "name": "",
          "type": "bool"
        }
      ],
      "payable": false,
      "stateMutability": "nonpayable",
      "type": "function"
    },
    {
      "constant": true,
      "inputs": [],
      "name": "hoodieCost",
      "outputs": [
        {
          "name": "",
          "type": "uint256"
        }
      ],
      "payable": false,
      "stateMutability": "view",
      "type": "function"
    },
    {
      "constant": true,
      "inputs": [],
      "name": "userWaitingNumber",
      "outputs": [
        {
          "name": "",
          "type": "uint256"
        }
      ],
      "payable": false,
      "stateMutability": "view",
      "type": "function"
    },
    {
      "constant": true,
      "inputs": [
        {
          "name": "",
          "type": "uint256"
        }
      ],
      "name": "recipients",
      "outputs": [
        {
          "name": "",
          "type": "address"
        }
      ],
      "payable": false,
      "stateMutability": "view",
      "type": "function"
    },
    {
      "constant": true,
      "inputs": [
        {
          "name": "owner",
          "type": "address"
        },
        {
          "name": "spender",
          "type": "address"
        }
      ],
      "name": "allowance",
      "outputs": [
        {
          "name": "",
          "type": "uint256"
        }
      ],
      "payable": false,
      "stateMutability": "view",
      "type": "function"
    },
    {
      "constant": true,
      "inputs": [
        {
          "name": "",
          "type": "uint256"
        }
      ],
      "name": "waitingList",
      "outputs": [
        {
          "name": "",
          "type": "address"
        }
      ],
      "payable": false,
      "stateMutability": "view",
      "type": "function"
    },
    {
      "constant": true,
      "inputs": [],
      "name": "nextRecipientNumber",
      "outputs": [
        {
          "name": "",
          "type": "uint256"
        }
      ],
      "payable": false,
      "stateMutability": "view",
      "type": "function"
    },
    {
      "constant": false,
      "inputs": [
        {
          "name": "newOwner",
          "type": "address"
        }
      ],
      "name": "transferOwnership",
      "outputs": [],
      "payable": false,
      "stateMutability": "nonpayable",
      "type": "function"
    },
    {
      "inputs": [
        {
          "name": "initialSupply",
          "type": "uint256"
        }
      ],
      "payable": false,
      "stateMutability": "nonpayable",
      "type": "constructor"
    },
    {
      "anonymous": false,
      "inputs": [
        {
          "indexed": false,
          "name": "user",
          "type": "address"
        },
        {
          "indexed": false,
          "name": "depositedAmount",
          "type": "uint256"
        }
      ],
      "name": "UserPushedIntoWaitingList",
      "type": "event"
    },
    {
      "anonymous": false,
      "inputs": [
        {
          "indexed": false,
          "name": "recipientOfHoodie",
          "type": "address"
        }
      ],
      "name": "IssuedFDH",
      "type": "event"
    },
    {
      "anonymous": false,
      "inputs": [
        {
          "indexed": true,
          "name": "previousOwner",
          "type": "address"
        },
        {
          "indexed": true,
          "name": "newOwner",
          "type": "address"
        }
      ],
      "name": "OwnershipTransferred",
      "type": "event"
    },
    {
      "anonymous": false,
      "inputs": [
        {
          "indexed": true,
          "name": "from",
          "type": "address"
        },
        {
          "indexed": true,
          "name": "to",
          "type": "address"
        },
        {
          "indexed": false,
          "name": "value",
          "type": "uint256"
        }
      ],
      "name": "Transfer",
      "type": "event"
    },
    {
      "anonymous": false,
      "inputs": [
        {
          "indexed": true,
          "name": "owner",
          "type": "address"
        },
        {
          "indexed": true,
          "name": "spender",
          "type": "address"
        },
        {
          "indexed": false,
          "name": "value",
          "type": "uint256"
        }
      ],
      "name": "Approval",
      "type": "event"
    },
    {
      "constant": false,
      "inputs": [
        {
          "name": "depositAmount",
          "type": "uint256"
        }
      ],
      "name": "mintRDaiAndPushUserToWaitingList",
      "outputs": [
        {
          "name": "",
          "type": "bool"
        }
      ],
      "payable": false,
      "stateMutability": "nonpayable",
      "type": "function"
    },
    {
      "constant": false,
      "inputs": [
        {
          "name": "topUpAmount",
          "type": "uint256"
        }
      ],
      "name": "increaseDepositAmount",
      "outputs": [
        {
          "name": "",
          "type": "bool"
        }
      ],
      "payable": false,
      "stateMutability": "nonpayable",
      "type": "function"
    },
    {
      "constant": false,
      "inputs": [],
      "name": "issueFDH",
      "outputs": [
        {
          "name": "",
          "type": "bool"
        }
      ],
      "payable": false,
      "stateMutability": "nonpayable",
      "type": "function"
    },
    {
      "constant": false,
      "inputs": [
        {
          "name": "redeemAmount",
          "type": "uint256"
        }
      ],
      "name": "redeemRDai",
      "outputs": [
        {
          "name": "",
          "type": "bool"
        }
      ],
      "payable": false,
      "stateMutability": "nonpayable",
      "type": "function"
    },
    {
      "constant": false,
      "inputs": [
        {
          "name": "daiContractAddress",
          "type": "address"
        }
      ],
      "name": "switchDaiContractInstance",
      "outputs": [
        {
          "name": "",
          "type": "bool"
        }
      ],
      "payable": false,
      "stateMutability": "nonpayable",
      "type": "function"
    },
    {
      "constant": false,
      "inputs": [
        {
          "name": "rDaiContractAddress",
          "type": "address"
        }
      ],
      "name": "switchRDaiContractInstance",
      "outputs": [
        {
          "name": "",
          "type": "bool"
        }
      ],
      "payable": false,
      "stateMutability": "nonpayable",
      "type": "function"
    }
  ],
  "bytecode": "0x608060405262000014620005c260201b60201c565b600960006101000a81548173ffffffffffffffffffffffffffffffffffffffff021916908373ffffffffffffffffffffffffffffffffffffffff1602179055506064600960146101000a81548163ffffffff021916908363ffffffff1602179055506040518060200160405280600960009054906101000a900473ffffffffffffffffffffffffffffffffffffffff1673ffffffffffffffffffffffffffffffffffffffff1673ffffffffffffffffffffffffffffffffffffffff16815250600a906001620000e59291906200083f565b506040518060200160405280600960149054906101000a900463ffffffff1663ffffffff1663ffffffff16815250600b90600162000125929190620008ce565b506000600c60006101000a81548160ff0219169083151502179055506000600e556000600f553480156200015857600080fd5b5060405160208062003f50833981018060405260208110156200017a57600080fd5b81019080805190602001909291905050506040518060400160405280601781526020017f466c657820446170707320486f6f64696520546f6b656e0000000000000000008152506040518060400160405280600381526020017f4644480000000000000000000000000000000000000000000000000000000000815250601282600390805190602001906200021192919062000985565b5081600490805190602001906200022a92919062000985565b5080600560006101000a81548160ff021916908360ff16021790555050505033600560016101000a81548173ffffffffffffffffffffffffffffffffffffffff021916908373ffffffffffffffffffffffffffffffffffffffff160217905550600560019054906101000a900473ffffffffffffffffffffffffffffffffffffffff1673ffffffffffffffffffffffffffffffffffffffff16600073ffffffffffffffffffffffffffffffffffffffff167f8be0079c531659141344cd1fd0a4f28419497f9722a3daafe3b4186f6b6457e060405160405180910390a3735592ec0cfb4dbc12d3ab100b257153436a1f0fea600660006101000a81548173ffffffffffffffffffffffffffffffffffffffff021916908373ffffffffffffffffffffffffffffffffffffffff16021790555073b0c72645268e95696f5b6f40aa5b12e1ebdc8a5a600760006101000a81548173ffffffffffffffffffffffffffffffffffffffff021916908373ffffffffffffffffffffffffffffffffffffffff160217905550600760009054906101000a900473ffffffffffffffffffffffffffffffffffffffff1673ffffffffffffffffffffffffffffffffffffffff16635cde5055600a600b600c60009054906101000a900460ff166040518463ffffffff1660e01b81526004018080602001806020018415151515815260200183810383528681815481526020019150805480156200049d57602002820191906000526020600020905b8160009054906101000a900473ffffffffffffffffffffffffffffffffffffffff1673ffffffffffffffffffffffffffffffffffffffff168152602001906001019080831162000452575b505083810382528581815481526020019150805480156200050a57602002820191906000526020600020906000905b82829054906101000a900463ffffffff1663ffffffff1681526020019060040190602082600301049283019260010382029150808411620004cc5790505b505095505050505050602060405180830381600087803b1580156200052e57600080fd5b505af115801562000543573d6000803e3d6000fd5b505050506040513d60208110156200055a57600080fd5b81019080805190602001909291905050506008819055506200059c62000585620005c260201b60201c565b670de0b6b3a76400008302620005ec60201b60201c565b670de0b6b3a7640000600d819055506801158e460913d000006010819055505062000ab0565b6000600560019054906101000a900473ffffffffffffffffffffffffffffffffffffffff16905090565b600073ffffffffffffffffffffffffffffffffffffffff168273ffffffffffffffffffffffffffffffffffffffff16141562000690576040517f08c379a000000000000000000000000000000000000000000000000000000000815260040180806020018281038252601f8152602001807f45524332303a206d696e7420746f20746865207a65726f20616464726573730081525060200191505060405180910390fd5b620006ac81600254620007b660201b620030b11790919060201c565b6002819055506200070a816000808573ffffffffffffffffffffffffffffffffffffffff1673ffffffffffffffffffffffffffffffffffffffff16815260200190815260200160002054620007b660201b620030b11790919060201c565b6000808473ffffffffffffffffffffffffffffffffffffffff1673ffffffffffffffffffffffffffffffffffffffff168152602001908152602001600020819055508173ffffffffffffffffffffffffffffffffffffffff16600073ffffffffffffffffffffffffffffffffffffffff167fddf252ad1be2c89b69c2b068fc378daa952ba7f163c4a11628f55a4df523b3ef836040518082815260200191505060405180910390a35050565b60008082840190508381101562000835576040517f08c379a000000000000000000000000000000000000000000000000000000000815260040180806020018281038252601b8152602001807f536166654d6174683a206164646974696f6e206f766572666c6f77000000000081525060200191505060405180910390fd5b8091505092915050565b828054828255906000526020600020908101928215620008bb579160200282015b82811115620008ba5782518260006101000a81548173ffffffffffffffffffffffffffffffffffffffff021916908373ffffffffffffffffffffffffffffffffffffffff1602179055509160200191906001019062000860565b5b509050620008ca919062000a0c565b5090565b82805482825590600052602060002090600701600890048101928215620009725791602002820160005b838211156200093e57835183826101000a81548163ffffffff021916908363ffffffff1602179055509260200192600401602081600301049283019260010302620008f8565b8015620009705782816101000a81549063ffffffff02191690556004016020816003010492830192600103026200093e565b505b50905062000981919062000a52565b5090565b828054600181600116156101000203166002900490600052602060002090601f016020900481019282601f10620009c857805160ff1916838001178555620009f9565b82800160010185558215620009f9579182015b82811115620009f8578251825591602001919060010190620009db565b5b50905062000a08919062000a88565b5090565b62000a4f91905b8082111562000a4b57600081816101000a81549073ffffffffffffffffffffffffffffffffffffffff02191690555060010162000a13565b5090565b90565b62000a8591905b8082111562000a8157600081816101000a81549063ffffffff02191690555060010162000a59565b5090565b90565b62000aad91905b8082111562000aa957600081600090555060010162000a8f565b5090565b90565b6134908062000ac06000396000f3fe608060405234801561001057600080fd5b50600436106102115760003560e01c8063715018a611610125578063cf1b524f116100ad578063e7a20f3f1161007c578063e7a20f3f14610a94578063ebf9030214610b02578063f1de77fb14610b20578063f2fde38b14610b66578063f482495814610baa57610211565b8063cf1b524f1461094a578063d1bc76a114610968578063dd62ed3e146109d6578063e0f4b0ce14610a4e57610211565b806395d89b41116100f457806395d89b4114610773578063a457c2d7146107f6578063a87430ba1461085c578063a9059cbb146108c6578063c005c01b1461092c57610211565b8063715018a6146106af578063826518c9146106b95780638da5cb5b146107075780638f32d59b1461075157610211565b8063323b1a8d116101a85780633c0f5fbe116101775780633c0f5fbe1461057b5780635b4246d4146105c55780635dce1c5b146105ef57806366d003ac1461060d57806370a082311461065757610211565b8063323b1a8d146104755780633950935114610497578063399f94af146104fd5780633acafa7e1461051f57610211565b806318160ddd116101e457806318160ddd1461036357806323b872dd146103815780632f048d5d14610407578063313ce5671461045157610211565b806306fdde0314610216578063080c279a1461029957806308113a61146102b7578063095ea7b3146102fd575b600080fd5b61021e610c06565b6040518080602001828103825283818151815260200191508051906020019080838360005b8381101561025e578082015181840152602081019050610243565b50505050905090810190601f16801561028b5780820380516001836020036101000a031916815260200191505b509250505060405180910390f35b6102a1610ca8565b6040518082815260200191505060405180910390f35b6102e3600480360360208110156102cd57600080fd5b8101908080359060200190929190505050610cae565b604051808215151515815260200191505060405180910390f35b6103496004803603604081101561031357600080fd5b81019080803573ffffffffffffffffffffffffffffffffffffffff16906020019092919080359060200190929190505050610e4c565b604051808215151515815260200191505060405180910390f35b61036b610e63565b6040518082815260200191505060405180910390f35b6103ed6004803603606081101561039757600080fd5b81019080803573ffffffffffffffffffffffffffffffffffffffff169060200190929190803573ffffffffffffffffffffffffffffffffffffffff16906020019092919080359060200190929190505050610e6d565b604051808215151515815260200191505060405180910390f35b61040f610f1e565b604051808273ffffffffffffffffffffffffffffffffffffffff1673ffffffffffffffffffffffffffffffffffffffff16815260200191505060405180910390f35b610459610f44565b604051808260ff1660ff16815260200191505060405180910390f35b61047d610f5b565b604051808215151515815260200191505060405180910390f35b6104e3600480360360408110156104ad57600080fd5b81019080803573ffffffffffffffffffffffffffffffffffffffff169060200190929190803590602001909291905050506113be565b604051808215151515815260200191505060405180910390f35b610505611463565b604051808215151515815260200191505060405180910390f35b6105616004803603602081101561053557600080fd5b81019080803573ffffffffffffffffffffffffffffffffffffffff169060200190929190505050611476565b604051808215151515815260200191505060405180910390f35b61058361153c565b604051808273ffffffffffffffffffffffffffffffffffffffff1673ffffffffffffffffffffffffffffffffffffffff16815260200191505060405180910390f35b6105cd611562565b604051808263ffffffff1663ffffffff16815260200191505060405180910390f35b6105f7611578565b6040518082815260200191505060405180910390f35b61061561157e565b604051808273ffffffffffffffffffffffffffffffffffffffff1673ffffffffffffffffffffffffffffffffffffffff16815260200191505060405180910390f35b6106996004803603602081101561066d57600080fd5b81019080803573ffffffffffffffffffffffffffffffffffffffff1690602001909291905050506115a4565b6040518082815260200191505060405180910390f35b6106b76115ec565b005b6106e5600480360360208110156106cf57600080fd5b8101908080359060200190929190505050611727565b604051808263ffffffff1663ffffffff16815260200191505060405180910390f35b61070f61175e565b604051808273ffffffffffffffffffffffffffffffffffffffff1673ffffffffffffffffffffffffffffffffffffffff16815260200191505060405180910390f35b610759611788565b604051808215151515815260200191505060405180910390f35b61077b6117e0565b6040518080602001828103825283818151815260200191508051906020019080838360005b838110156107bb5780820151818401526020810190506107a0565b50505050905090810190601f1680156107e85780820380516001836020036101000a031916815260200191505b509250505060405180910390f35b6108426004803603604081101561080c57600080fd5b81019080803573ffffffffffffffffffffffffffffffffffffffff16906020019092919080359060200190929190505050611882565b604051808215151515815260200191505060405180910390f35b61089e6004803603602081101561087257600080fd5b81019080803573ffffffffffffffffffffffffffffffffffffffff169060200190929190505050611927565b6040518084815260200183815260200182151515158152602001935050505060405180910390f35b610912600480360360408110156108dc57600080fd5b81019080803573ffffffffffffffffffffffffffffffffffffffff1690602001909291908035906020019092919050505061195e565b604051808215151515815260200191505060405180910390f35b610934611975565b6040518082815260200191505060405180910390f35b61095261197b565b6040518082815260200191505060405180910390f35b6109946004803603602081101561097e57600080fd5b8101908080359060200190929190505050611981565b604051808273ffffffffffffffffffffffffffffffffffffffff1673ffffffffffffffffffffffffffffffffffffffff16815260200191505060405180910390f35b610a38600480360360408110156109ec57600080fd5b81019080803573ffffffffffffffffffffffffffffffffffffffff169060200190929190803573ffffffffffffffffffffffffffffffffffffffff1690602001909291905050506119bd565b6040518082815260200191505060405180910390f35b610a7a60048036036020811015610a6457600080fd5b8101908080359060200190929190505050611a44565b604051808215151515815260200191505060405180910390f35b610ac060048036036020811015610aaa57600080fd5b8101908080359060200190929190505050611bcf565b604051808273ffffffffffffffffffffffffffffffffffffffff1673ffffffffffffffffffffffffffffffffffffffff16815260200191505060405180910390f35b610b0a611c0b565b6040518082815260200191505060405180910390f35b610b4c60048036036020811015610b3657600080fd5b8101908080359060200190929190505050611c11565b604051808215151515815260200191505060405180910390f35b610ba860048036036020811015610b7c57600080fd5b81019080803573ffffffffffffffffffffffffffffffffffffffff1690602001909291905050506122c3565b005b610bec60048036036020811015610bc057600080fd5b81019080803573ffffffffffffffffffffffffffffffffffffffff169060200190929190505050612349565b604051808215151515815260200191505060405180910390f35b606060038054600181600116156101000203166002900480601f016020809104026020016040519081016040528092919081815260200182805460018160011615610100020316600290048015610c9e5780601f10610c7357610100808354040283529160200191610c9e565b820191906000526020600020905b815481529060010190602001808311610c8157829003601f168201915b5050505050905090565b600d5481565b6000601260003373ffffffffffffffffffffffffffffffffffffffff1673ffffffffffffffffffffffffffffffffffffffff16815260200190815260200160002060020160009054906101000a900460ff16610d72576040517f08c379a00000000000000000000000000000000000000000000000000000000081526004018080602001828103825260168152602001807f7468697320757365722069732061206e6577206f6e650000000000000000000081525060200191505060405180910390fd5b610d7b8261240f565b610ded576040517f08c379a00000000000000000000000000000000000000000000000000000000081526004018080602001828103825260128152602001807f6d696e696e672072444149206661696c6564000000000000000000000000000081525060200191505060405180910390fd5b6000601260003373ffffffffffffffffffffffffffffffffffffffff1673ffffffffffffffffffffffffffffffffffffffff16815260200190815260200160002090508281600101600082825401925050819055506001915050919050565b6000610e59338484612a10565b6001905092915050565b6000600254905090565b6000610e7a848484612c07565b610f138433610f0e85600160008a73ffffffffffffffffffffffffffffffffffffffff1673ffffffffffffffffffffffffffffffffffffffff16815260200190815260200160002060003373ffffffffffffffffffffffffffffffffffffffff1673ffffffffffffffffffffffffffffffffffffffff16815260200190815260200160002054612ea390919063ffffffff16565b612a10565b600190509392505050565b600760009054906101000a900473ffffffffffffffffffffffffffffffffffffffff1681565b6000600560009054906101000a900460ff16905090565b6000610f65611788565b610fd7576040517f08c379a00000000000000000000000000000000000000000000000000000000081526004018080602001828103825260208152602001807f4f776e61626c653a2063616c6c6572206973206e6f7420746865206f776e657281525060200191505060405180910390fd5b6000600760009054906101000a900473ffffffffffffffffffffffffffffffffffffffff1673ffffffffffffffffffffffffffffffffffffffff166377ede05161101f61175e565b6040518263ffffffff1660e01b8152600401808273ffffffffffffffffffffffffffffffffffffffff1673ffffffffffffffffffffffffffffffffffffffff16815260200191505060206040518083038186803b15801561107f57600080fd5b505afa158015611093573d6000803e3d6000fd5b505050506040513d60208110156110a957600080fd5b810190808051906020019092919050505011611110576040517f08c379a000000000000000000000000000000000000000000000000000000000815260040180806020018281038252602f81526020018061336d602f913960400191505060405180910390fd5b60006011600f548154811061112157fe5b9060005260206000200160009054906101000a900473ffffffffffffffffffffffffffffffffffffffff1690506000601260008373ffffffffffffffffffffffffffffffffffffffff1673ffffffffffffffffffffffffffffffffffffffff16815260200190815260200160002090505b8060020160009054906101000a900460ff1661123c57600f600081548092919060010191905055506011600f54815481106111c957fe5b9060005260206000200160009054906101000a900473ffffffffffffffffffffffffffffffffffffffff169150601260008373ffffffffffffffffffffffffffffffffffffffff1673ffffffffffffffffffffffffffffffffffffffff1681526020019081526020016000209050611192565b61124e82670de0b6b3a764000061195e565b6112c0576040517f08c379a00000000000000000000000000000000000000000000000000000000081526004018080602001828103825260128152602001807f49737375696e6720464448206661696c6564000000000000000000000000000081525060200191505060405180910390fd5b60008160020160006101000a81548160ff021916908315150217905550600f600081548092919060010191905055507fcd75dc08a30db24d62175b3fca9573850459c4959e0c3c28601a0d7bf8dcbc2382604051808273ffffffffffffffffffffffffffffffffffffffff1673ffffffffffffffffffffffffffffffffffffffff16815260200191505060405180910390a1611360828260010154612f2c565b6113b5576040517f08c379a00000000000000000000000000000000000000000000000000000000081526004018080602001828103825260318152602001806134346031913960400191505060405180910390fd5b60019250505090565b6000611459338461145485600160003373ffffffffffffffffffffffffffffffffffffffff1673ffffffffffffffffffffffffffffffffffffffff16815260200190815260200160002060008973ffffffffffffffffffffffffffffffffffffffff1673ffffffffffffffffffffffffffffffffffffffff168152602001908152602001600020546130b190919063ffffffff16565b612a10565b6001905092915050565b600c60009054906101000a900460ff1681565b6000611480611788565b6114f2576040517f08c379a00000000000000000000000000000000000000000000000000000000081526004018080602001828103825260208152602001807f4f776e61626c653a2063616c6c6572206973206e6f7420746865206f776e657281525060200191505060405180910390fd5b81600760006101000a81548173ffffffffffffffffffffffffffffffffffffffff021916908373ffffffffffffffffffffffffffffffffffffffff16021790555060019050919050565b600660009054906101000a900473ffffffffffffffffffffffffffffffffffffffff1681565b600960149054906101000a900463ffffffff1681565b60085481565b600960009054906101000a900473ffffffffffffffffffffffffffffffffffffffff1681565b60008060008373ffffffffffffffffffffffffffffffffffffffff1673ffffffffffffffffffffffffffffffffffffffff168152602001908152602001600020549050919050565b6115f4611788565b611666576040517f08c379a00000000000000000000000000000000000000000000000000000000081526004018080602001828103825260208152602001807f4f776e61626c653a2063616c6c6572206973206e6f7420746865206f776e657281525060200191505060405180910390fd5b600073ffffffffffffffffffffffffffffffffffffffff16600560019054906101000a900473ffffffffffffffffffffffffffffffffffffffff1673ffffffffffffffffffffffffffffffffffffffff167f8be0079c531659141344cd1fd0a4f28419497f9722a3daafe3b4186f6b6457e060405160405180910390a36000600560016101000a81548173ffffffffffffffffffffffffffffffffffffffff021916908373ffffffffffffffffffffffffffffffffffffffff160217905550565b600b818154811061173457fe5b9060005260206000209060089182820401919006600402915054906101000a900463ffffffff1681565b6000600560019054906101000a900473ffffffffffffffffffffffffffffffffffffffff16905090565b6000600560019054906101000a900473ffffffffffffffffffffffffffffffffffffffff1673ffffffffffffffffffffffffffffffffffffffff163373ffffffffffffffffffffffffffffffffffffffff1614905090565b606060048054600181600116156101000203166002900480601f0160208091040260200160405190810160405280929190818152602001828054600181600116156101000203166002900480156118785780601f1061184d57610100808354040283529160200191611878565b820191906000526020600020905b81548152906001019060200180831161185b57829003601f168201915b5050505050905090565b600061191d338461191885600160003373ffffffffffffffffffffffffffffffffffffffff1673ffffffffffffffffffffffffffffffffffffffff16815260200190815260200160002060008973ffffffffffffffffffffffffffffffffffffffff1673ffffffffffffffffffffffffffffffffffffffff16815260200190815260200160002054612ea390919063ffffffff16565b612a10565b6001905092915050565b60126020528060005260406000206000915090508060000154908060010154908060020160009054906101000a900460ff16905083565b600061196b338484612c07565b6001905092915050565b60105481565b600e5481565b600a818154811061198e57fe5b906000526020600020016000915054906101000a900473ffffffffffffffffffffffffffffffffffffffff1681565b6000600160008473ffffffffffffffffffffffffffffffffffffffff1673ffffffffffffffffffffffffffffffffffffffff16815260200190815260200160002060008373ffffffffffffffffffffffffffffffffffffffff1673ffffffffffffffffffffffffffffffffffffffff16815260200190815260200160002054905092915050565b6000601260003373ffffffffffffffffffffffffffffffffffffffff1673ffffffffffffffffffffffffffffffffffffffff16815260200190815260200160002060020160009054906101000a900460ff1615611aec576040517f08c379a00000000000000000000000000000000000000000000000000000000081526004018080602001828103825260298152602001806133c26029913960400191505060405180910390fd5b611af58261240f565b611b67576040517f08c379a00000000000000000000000000000000000000000000000000000000081526004018080602001828103825260128152602001807f6d696e696e672072444149206661696c6564000000000000000000000000000081525060200191505060405180910390fd5b611b713383612f2c565b611bc6576040517f08c379a00000000000000000000000000000000000000000000000000000000081526004018080602001828103825260318152602001806134346031913960400191505060405180910390fd5b60019050919050565b60118181548110611bdc57fe5b906000526020600020016000915054906101000a900473ffffffffffffffffffffffffffffffffffffffff1681565b600f5481565b6000600760009054906101000a900473ffffffffffffffffffffffffffffffffffffffff1673ffffffffffffffffffffffffffffffffffffffff166323b872dd3330856040518463ffffffff1660e01b8152600401808473ffffffffffffffffffffffffffffffffffffffff1673ffffffffffffffffffffffffffffffffffffffff1681526020018373ffffffffffffffffffffffffffffffffffffffff1673ffffffffffffffffffffffffffffffffffffffff1681526020018281526020019350505050602060405180830381600087803b158015611cf057600080fd5b505af1158015611d04573d6000803e3d6000fd5b505050506040513d6020811015611d1a57600080fd5b8101908080519060200190929190505050611d80576040517f08c379a000000000000000000000000000000000000000000000000000000000815260040180806020018281038252602781526020018061330f6027913960400191505060405180910390fd5b600760009054906101000a900473ffffffffffffffffffffffffffffffffffffffff1673ffffffffffffffffffffffffffffffffffffffff1663095ea7b3600760009054906101000a900473ffffffffffffffffffffffffffffffffffffffff16846040518363ffffffff1660e01b8152600401808373ffffffffffffffffffffffffffffffffffffffff1673ffffffffffffffffffffffffffffffffffffffff16815260200182815260200192505050602060405180830381600087803b158015611e4b57600080fd5b505af1158015611e5f573d6000803e3d6000fd5b505050506040513d6020811015611e7557600080fd5b8101908080519060200190929190505050611ef8576040517f08c379a00000000000000000000000000000000000000000000000000000000081526004018080602001828103825260118152602001807f617070726f7665282920696e76616c696400000000000000000000000000000081525060200191505060405180910390fd5b6000601260003373ffffffffffffffffffffffffffffffffffffffff1673ffffffffffffffffffffffffffffffffffffffff16815260200190815260200160002090508060020160009054906101000a900460ff16611fa2576040517f08c379a00000000000000000000000000000000000000000000000000000000081526004018080602001828103825260248152602001806132eb6024913960400191505060405180910390fd5b680ad78ebc5ac6200000611fc3848360010154612ea390919063ffffffff16565b101561214357600760009054906101000a900473ffffffffffffffffffffffffffffffffffffffff1673ffffffffffffffffffffffffffffffffffffffff16630290cbc8336040518263ffffffff1660e01b8152600401808273ffffffffffffffffffffffffffffffffffffffff1673ffffffffffffffffffffffffffffffffffffffff168152602001915050602060405180830381600087803b15801561206a57600080fd5b505af115801561207e573d6000803e3d6000fd5b505050506040513d602081101561209457600080fd5b8101908080519060200190929190505050612117576040517f08c379a000000000000000000000000000000000000000000000000000000000815260040180806020018281038252601d8152602001807f72656465656d416e645472616e73666572416c6c2829206661696c656400000081525060200191505060405180910390fd5b60008160020160006101000a81548160ff021916908315150217905550600081600101819055506122b9565b600760009054906101000a900473ffffffffffffffffffffffffffffffffffffffff1673ffffffffffffffffffffffffffffffffffffffff1663d271be3f33856040518363ffffffff1660e01b8152600401808373ffffffffffffffffffffffffffffffffffffffff1673ffffffffffffffffffffffffffffffffffffffff16815260200182815260200192505050602060405180830381600087803b1580156121ec57600080fd5b505af1158015612200573d6000803e3d6000fd5b505050506040513d602081101561221657600080fd5b8101908080519060200190929190505050612299576040517f08c379a000000000000000000000000000000000000000000000000000000000815260040180806020018281038252601a8152602001807f72656465656d416e645472616e736665722829206661696c656400000000000081525060200191505060405180910390fd5b6122b0838260010154612ea390919063ffffffff16565b81600101819055505b6001915050919050565b6122cb611788565b61233d576040517f08c379a00000000000000000000000000000000000000000000000000000000081526004018080602001828103825260208152602001807f4f776e61626c653a2063616c6c6572206973206e6f7420746865206f776e657281525060200191505060405180910390fd5b61234681613139565b50565b6000612353611788565b6123c5576040517f08c379a00000000000000000000000000000000000000000000000000000000081526004018080602001828103825260208152602001807f4f776e61626c653a2063616c6c6572206973206e6f7420746865206f776e657281525060200191505060405180910390fd5b81600660006101000a81548173ffffffffffffffffffffffffffffffffffffffff021916908373ffffffffffffffffffffffffffffffffffffffff16021790555060019050919050565b6000600d5482101561246c576040517f08c379a00000000000000000000000000000000000000000000000000000000081526004018080602001828103825260378152602001806133366037913960400191505060405180910390fd5b600660009054906101000a900473ffffffffffffffffffffffffffffffffffffffff1673ffffffffffffffffffffffffffffffffffffffff166323b872dd3330856040518463ffffffff1660e01b8152600401808473ffffffffffffffffffffffffffffffffffffffff1673ffffffffffffffffffffffffffffffffffffffff1681526020018373ffffffffffffffffffffffffffffffffffffffff1673ffffffffffffffffffffffffffffffffffffffff1681526020018281526020019350505050602060405180830381600087803b15801561254957600080fd5b505af115801561255d573d6000803e3d6000fd5b505050506040513d602081101561257357600080fd5b81019080805190602001909291905050506125d9576040517f08c379a000000000000000000000000000000000000000000000000000000000815260040180806020018281038252602681526020018061339c6026913960400191505060405180910390fd5b600660009054906101000a900473ffffffffffffffffffffffffffffffffffffffff1673ffffffffffffffffffffffffffffffffffffffff1663095ea7b3600760009054906101000a900473ffffffffffffffffffffffffffffffffffffffff16846040518363ffffffff1660e01b8152600401808373ffffffffffffffffffffffffffffffffffffffff1673ffffffffffffffffffffffffffffffffffffffff16815260200182815260200192505050602060405180830381600087803b1580156126a457600080fd5b505af11580156126b8573d6000803e3d6000fd5b505050506040513d60208110156126ce57600080fd5b8101908080519060200190929190505050612751576040517f08c379a00000000000000000000000000000000000000000000000000000000081526004018080602001828103825260118152602001807f617070726f7665282920696e76616c696400000000000000000000000000000081525060200191505060405180910390fd5b600760009054906101000a900473ffffffffffffffffffffffffffffffffffffffff1673ffffffffffffffffffffffffffffffffffffffff1663388c0b8c836008546040518363ffffffff1660e01b81526004018083815260200182815260200192505050602060405180830381600087803b1580156127d057600080fd5b505af11580156127e4573d6000803e3d6000fd5b505050506040513d60208110156127fa57600080fd5b810190808051906020019092919050505061287d576040517f08c379a000000000000000000000000000000000000000000000000000000000815260040180806020018281038252600e8152602001807f6d696e74696e67206661696c656400000000000000000000000000000000000081525060200191505060405180910390fd5b600760009054906101000a900473ffffffffffffffffffffffffffffffffffffffff1673ffffffffffffffffffffffffffffffffffffffff166323b872dd3033856040518463ffffffff1660e01b8152600401808473ffffffffffffffffffffffffffffffffffffffff1673ffffffffffffffffffffffffffffffffffffffff1681526020018373ffffffffffffffffffffffffffffffffffffffff1673ffffffffffffffffffffffffffffffffffffffff1681526020018281526020019350505050602060405180830381600087803b15801561295a57600080fd5b505af115801561296e573d6000803e3d6000fd5b505050506040513d602081101561298457600080fd5b8101908080519060200190929190505050612a07576040517f08c379a000000000000000000000000000000000000000000000000000000000815260040180806020018281038252601c8152602001807f5472616e73666572207244414920746f2075736572206661696c65640000000081525060200191505060405180910390fd5b60019050919050565b600073ffffffffffffffffffffffffffffffffffffffff168373ffffffffffffffffffffffffffffffffffffffff161415612a96576040517f08c379a00000000000000000000000000000000000000000000000000000000081526004018080602001828103825260248152602001806134106024913960400191505060405180910390fd5b600073ffffffffffffffffffffffffffffffffffffffff168273ffffffffffffffffffffffffffffffffffffffff161415612b1c576040517f08c379a00000000000000000000000000000000000000000000000000000000081526004018080602001828103825260228152602001806132c96022913960400191505060405180910390fd5b80600160008573ffffffffffffffffffffffffffffffffffffffff1673ffffffffffffffffffffffffffffffffffffffff16815260200190815260200160002060008473ffffffffffffffffffffffffffffffffffffffff1673ffffffffffffffffffffffffffffffffffffffff168152602001908152602001600020819055508173ffffffffffffffffffffffffffffffffffffffff168373ffffffffffffffffffffffffffffffffffffffff167f8c5be1e5ebec7d5bd14f71427d1e84f3dd0314c0f7b2291e5b200ac8c7c3b925836040518082815260200191505060405180910390a3505050565b600073ffffffffffffffffffffffffffffffffffffffff168373ffffffffffffffffffffffffffffffffffffffff161415612c8d576040517f08c379a00000000000000000000000000000000000000000000000000000000081526004018080602001828103825260258152602001806133eb6025913960400191505060405180910390fd5b600073ffffffffffffffffffffffffffffffffffffffff168273ffffffffffffffffffffffffffffffffffffffff161415612d13576040517f08c379a00000000000000000000000000000000000000000000000000000000081526004018080602001828103825260238152602001806132806023913960400191505060405180910390fd5b612d64816000808673ffffffffffffffffffffffffffffffffffffffff1673ffffffffffffffffffffffffffffffffffffffff16815260200190815260200160002054612ea390919063ffffffff16565b6000808573ffffffffffffffffffffffffffffffffffffffff1673ffffffffffffffffffffffffffffffffffffffff16815260200190815260200160002081905550612df7816000808573ffffffffffffffffffffffffffffffffffffffff1673ffffffffffffffffffffffffffffffffffffffff168152602001908152602001600020546130b190919063ffffffff16565b6000808473ffffffffffffffffffffffffffffffffffffffff1673ffffffffffffffffffffffffffffffffffffffff168152602001908152602001600020819055508173ffffffffffffffffffffffffffffffffffffffff168373ffffffffffffffffffffffffffffffffffffffff167fddf252ad1be2c89b69c2b068fc378daa952ba7f163c4a11628f55a4df523b3ef836040518082815260200191505060405180910390a3505050565b600082821115612f1b576040517f08c379a000000000000000000000000000000000000000000000000000000000815260040180806020018281038252601e8152602001807f536166654d6174683a207375627472616374696f6e206f766572666c6f77000081525060200191505060405180910390fd5b600082840390508091505092915050565b60006040518060600160405280600e54815260200183815260200160011515815250601260008573ffffffffffffffffffffffffffffffffffffffff1673ffffffffffffffffffffffffffffffffffffffff168152602001908152602001600020600082015181600001556020820151816001015560408201518160020160006101000a81548160ff02191690831515021790555090505060118390806001815401808255809150509060018203906000526020600020016000909192909190916101000a81548173ffffffffffffffffffffffffffffffffffffffff021916908373ffffffffffffffffffffffffffffffffffffffff16021790555050600e600081548092919060010191905055507f4734f4b7aaa49955f54d70b911f24acba5a0abf80c16f0a2c1f0b1fa904196488383604051808373ffffffffffffffffffffffffffffffffffffffff1673ffffffffffffffffffffffffffffffffffffffff1681526020018281526020019250505060405180910390a16001905092915050565b60008082840190508381101561312f576040517f08c379a000000000000000000000000000000000000000000000000000000000815260040180806020018281038252601b8152602001807f536166654d6174683a206164646974696f6e206f766572666c6f77000000000081525060200191505060405180910390fd5b8091505092915050565b600073ffffffffffffffffffffffffffffffffffffffff168173ffffffffffffffffffffffffffffffffffffffff1614156131bf576040517f08c379a00000000000000000000000000000000000000000000000000000000081526004018080602001828103825260268152602001806132a36026913960400191505060405180910390fd5b8073ffffffffffffffffffffffffffffffffffffffff16600560019054906101000a900473ffffffffffffffffffffffffffffffffffffffff1673ffffffffffffffffffffffffffffffffffffffff167f8be0079c531659141344cd1fd0a4f28419497f9722a3daafe3b4186f6b6457e060405160405180910390a380600560016101000a81548173ffffffffffffffffffffffffffffffffffffffff021916908373ffffffffffffffffffffffffffffffffffffffff1602179055505056fe45524332303a207472616e7366657220746f20746865207a65726f20616464726573734f776e61626c653a206e6577206f776e657220697320746865207a65726f206164647265737345524332303a20617070726f766520746f20746865207a65726f2061646472657373746869732075736572206973206e6f7420696e207468652077616974696e67206c6973745472616e73666572207244414920746f20486f6f64696520636f6e7472616374206661696c65644465706f73697420616d6f756e742073686f756c6420626520657175616c20746f202f2067726561746572207468616e2032303044414974686520696e74657265737420616d6f756e7420686173206e6f7420726561636865642032302072444149207965745472616e736665722044414920746f20486f6f64696520636f6e7472616374206661696c6564546869732075736572206973206578697374696e6720696e207468652077616974696e67206c69737445524332303a207472616e736665722066726f6d20746865207a65726f206164647265737345524332303a20617070726f76652066726f6d20746865207a65726f20616464726573736661696c64656420746f2061646420746865207573657220616761696e20746f207468652077616974696e67206c697374a165627a7a72305820e12c649ab9c26c782e7a1fde676d3912326e9eaa92515a92fd408d3168fc0a280029",
  "source": "pragma solidity ^0.5.0;\nimport \"openzeppelin-solidity/contracts/token/ERC20/ERC20.sol\";\nimport \"openzeppelin-solidity/contracts/token/ERC20/ERC20Detailed.sol\";\nimport \"openzeppelin-solidity/contracts/ownership/Ownable.sol\";\nimport \"./IDai.sol\"; \nimport \"./IRToken.sol\";\n\ncontract HoodieToken is ERC20, ERC20Detailed, Ownable {\n  struct User {\n    uint256 userNumber;\n    uint256 depositedAmount;\n    bool isWaiting;\n  }\n  // Instantiate DAIContract with DAI address on rinkeby\n  //  Instantiate rDAIContract with rDAI address on rinkeby\n  IDai public DAIContract;\n  IRToken public rDAIContract;\n\n  // Hat setting\n  uint256 public hatID;\n  address public recipient = owner();\n  uint32 public proportion = 100;\n  address[] public recipients = [recipient];\n  uint32[] public proportions = [proportion];\n  bool public doChangeHat = false;\n\n  uint256 public minimumDepositAmount;\n  uint256 public userWaitingNumber = 0;\n  uint256 public nextRecipientNumber = 0;\n  uint256 public hoodieCost;\n  address[] public waitingList;\n  mapping(address => User) public users;\n\n  event UserPushedIntoWaitingList(address user, uint256 depositedAmount);\n  event IssuedFDH(address recipientOfHoodie);\n\n  constructor(uint256 initialSupply) ERC20Detailed(\"Flex Dapps Hoodie Token\", \"FDH\", 18) public {\n    DAIContract = IDai(0x5592EC0cfb4dbc12D3aB100b257153436a1f0FEa);\n    rDAIContract = IRToken(0xb0C72645268E95696f5b6F40aa5b12E1eBdc8a5A);\n    hatID = rDAIContract.createHat(recipients, proportions, doChangeHat);\n    _mint(owner(), initialSupply * 10 ** 18);\n    // minimumDepositAmount = 20 * 10 ** 18; // for production\n    minimumDepositAmount = 1 * 10 ** 18; // for test\n    hoodieCost = 20 * 10 ** 18;\n  }\n\n  function mintRDaiAndPushUserToWaitingList(uint256 depositAmount) public returns(bool) {\n    // check whether or not the user is new\n    require(!users[msg.sender].isWaiting, \"This user is existing in the waiting list\");\n    // mint rDAI and transfer it to user\n    require(_mintRDai(depositAmount), \"mining rDAI failed\");\n    // add user to waitingList\n    require(_addUserToWaitingList(msg.sender, depositAmount), \"failded to add the user again to the waiting list\");\n    return true;\n  }\n\n  function increaseDepositAmount(uint256 topUpAmount) public returns(bool) {\n    // check whether or not the user is the existing one\n    require(users[msg.sender].isWaiting, \"this user is a new one\");\n    // mint additional rDAI\n    require(_mintRDai(topUpAmount),  \"mining rDAI failed\");\n    // update user's deposited amount in User struct\n    User storage user = users[msg.sender];\n    user.depositedAmount += topUpAmount;\n    return true;\n  }\n\n  function issueFDH() public onlyOwner returns(bool) {\n    // test\n    require(rDAIContract.interestPayableOf(owner()) > 0, \"the interest amount has not reached 20 rDAI yet\");\n    \n    // check whether or not the generated interest amount reached 20 rDAI\n    // require(rDAIContract.interestPayableOf(owner()) >= hoodieCost, \"the interest amount has not reached 20 rDAI yet\");\n\n    // check wheter or not the user is in the waiting list\n    address userAddress = waitingList[nextRecipientNumber];\n    // get user struct\n    User storage waitingUser = users[userAddress];\n    while(!waitingUser.isWaiting) {\n      nextRecipientNumber++;\n      userAddress = waitingList[nextRecipientNumber];\n      waitingUser = users[userAddress];\n    }\n    // issue 1 FDH to the first user in the waiting list and update the nextRecipientNumber+1\n    require(transfer(userAddress, 1 * 10 ** 18), \"Issuing FDH failed\");\n    // once the user receive a FDH, they are removed from the waiting list\n    waitingUser.isWaiting = false;\n    // update the next waitingUser in the waiting list by incrementing the waiting counter\n    nextRecipientNumber++;\n    emit IssuedFDH(userAddress);\n    // add the user to the waiting list again\n    require(_addUserToWaitingList(userAddress, waitingUser.depositedAmount), \"failded to add the user again to the waiting list\");\n    \n    return true;\n  }\n\n  function redeemRDai(uint256 redeemAmount) public returns (bool) {\n    // transfer rDAI from user's account to Hoodie contract\n    require(rDAIContract.transferFrom(msg.sender, address(this), redeemAmount), \"Transfer rDAI to Hoodie contract failed\");\n    // dapp approves rDAI contract to transfer dapp's rDAI\n    require(rDAIContract.approve(address(rDAIContract), redeemAmount), \"approve() invalid\");\n    // get user struct\n    User storage user = users[msg.sender];\n    // check whether or not the user is in the waiting list\n    require(user.isWaiting, \"this user is not in the waiting list\");\n    // A. if the deposited amount will be below than 200rDAI after redeeming\n    if(user.depositedAmount.sub(redeemAmount) < 200 * 10 ** 18) {\n      // 1) use redeemAll()\n      require(rDAIContract.redeemAndTransferAll(msg.sender), \"redeemAndTransferAll() failed\");\n      // // 2) dapp transfer rDAI to user\n      // require(DAIContract.transferFrom(address(this), msg.sender, redeemAmount), \"Transfer DAI to user failed\");\n      // 3) update the state of user.isWaiting to false\n      user.isWaiting = false;\n      // 4) update the state of user.depositedAmount to zero\n      user.depositedAmount = 0;\n    }  else { // B. if not\n      // 1) use redeem()\n      require(rDAIContract.redeemAndTransfer(msg.sender, redeemAmount), \"redeemAndTransfer() failed\");\n      // // 2) dapp transfer rDAI to user\n      // require(DAIContract.transferFrom(address(this), msg.sender, redeemAmount), \"Transfer DAI to user failed\");\n      // 3) decrese the state of user.depositedAmount - redeemAmount\n      user.depositedAmount = user.depositedAmount.sub(redeemAmount);\n    }\n    return true;\n  }\n\n  // identifier isWaiting()\n\n  function switchDaiContractInstance(address daiContractAddress) public onlyOwner returns(bool) {\n    DAIContract = IDai(daiContractAddress);\n    return true;\n  }\n\n  function switchRDaiContractInstance(address rDaiContractAddress) public onlyOwner returns(bool) {\n    rDAIContract = IRToken(rDaiContractAddress);\n    return true;\n  }\n\n\n  ////////////////////////\n  // internal functions //\n  ////////////////////////\n\n  function _mintRDai(uint256 depositAmount) internal returns(bool) {\n    // dapp transfer user's DAI to itself\n    require(depositAmount >= minimumDepositAmount, \"Deposit amount should be equal to / greater than 200DAI\");\n    require(DAIContract.transferFrom(msg.sender, address(this), depositAmount), \"Transfer DAI to Hoodie contract failed\");\n    // dapp approves rDAI contract to transfer dapp's DAI\n    require(DAIContract.approve(address(rDAIContract), depositAmount), \"approve() invalid\");\n    // dapp invoke mint() and get rDAI\n    require(rDAIContract.mintWithSelectedHat(depositAmount, hatID), \"minting failed\");\n    // dapp transfer rDAI to user\n    require(rDAIContract.transferFrom(address(this), msg.sender, depositAmount), \"Transfer rDAI to user failed\");\n    return true;\n  }\n\n  function _addUserToWaitingList(address userAddress, uint256 depositAmount) internal returns(bool) {\n    // add user to waitingList\n    users[userAddress] = User({\n      userNumber: userWaitingNumber,\n      depositedAmount: depositAmount,\n      isWaiting: true\n    });\n    waitingList.push(userAddress);\n    userWaitingNumber++;\n    emit UserPushedIntoWaitingList(userAddress, depositAmount);\n    return true;\n  }\n}",
  "sourcePath": "/Users/khiga619/Sites/FlexDappHoodie/contracts/HoodieToken.sol",
  "compiler": {
    "name": "solc",
    "version": "0.5.8+commit.23d335f2.Emscripten.clang"
  },
  "schemaVersion": "3.0.16",
  "updatedAt": "2019-10-18T04:47:56.786Z",
  "devdoc": {
    "methods": {
      "allowance(address,address)": {
        "details": "See `IERC20.allowance`."
      },
      "approve(address,uint256)": {
        "details": "See `IERC20.approve`.     * Requirements:     * - `spender` cannot be the zero address."
      },
      "balanceOf(address)": {
        "details": "See `IERC20.balanceOf`."
      },
      "decimals()": {
        "details": "Returns the number of decimals used to get its user representation. For example, if `decimals` equals `2`, a balance of `505` tokens should be displayed to a user as `5,05` (`505 / 10 ** 2`).     * Tokens usually opt for a value of 18, imitating the relationship between Ether and Wei.     * > Note that this information is only used for _display_ purposes: it in no way affects any of the arithmetic of the contract, including `IERC20.balanceOf` and `IERC20.transfer`."
      },
      "decreaseAllowance(address,uint256)": {
        "details": "Atomically decreases the allowance granted to `spender` by the caller.     * This is an alternative to `approve` that can be used as a mitigation for problems described in `IERC20.approve`.     * Emits an `Approval` event indicating the updated allowance.     * Requirements:     * - `spender` cannot be the zero address. - `spender` must have allowance for the caller of at least `subtractedValue`."
      },
      "increaseAllowance(address,uint256)": {
        "details": "Atomically increases the allowance granted to `spender` by the caller.     * This is an alternative to `approve` that can be used as a mitigation for problems described in `IERC20.approve`.     * Emits an `Approval` event indicating the updated allowance.     * Requirements:     * - `spender` cannot be the zero address."
      },
      "isOwner()": {
        "details": "Returns true if the caller is the current owner."
      },
      "name()": {
        "details": "Returns the name of the token."
      },
      "owner()": {
        "details": "Returns the address of the current owner."
      },
      "renounceOwnership()": {
        "details": "Leaves the contract without owner. It will not be possible to call `onlyOwner` functions anymore. Can only be called by the current owner.     * > Note: Renouncing ownership will leave the contract without an owner, thereby removing any functionality that is only available to the owner."
      },
      "symbol()": {
        "details": "Returns the symbol of the token, usually a shorter version of the name."
      },
      "totalSupply()": {
        "details": "See `IERC20.totalSupply`."
      },
      "transfer(address,uint256)": {
        "details": "See `IERC20.transfer`.     * Requirements:     * - `recipient` cannot be the zero address. - the caller must have a balance of at least `amount`."
      },
      "transferFrom(address,address,uint256)": {
        "details": "See `IERC20.transferFrom`.     * Emits an `Approval` event indicating the updated allowance. This is not required by the EIP. See the note at the beginning of `ERC20`;     * Requirements: - `sender` and `recipient` cannot be the zero address. - `sender` must have a balance of at least `value`. - the caller must have allowance for `sender`'s tokens of at least `amount`."
      },
      "transferOwnership(address)": {
        "details": "Transfers ownership of the contract to a new account (`newOwner`). Can only be called by the current owner."
      }
    }
  },
  "userdoc": {
    "methods": {}
  }
}